{
  "_format": "hh-sol-artifact-1",
  "contractName": "AccessoriesFactory",
  "sourceName": "contracts/AccessoriesFactory.sol",
  "abi": [
    {
      "inputs": [],
      "stateMutability": "nonpayable",
      "type": "constructor"
    },
    {
      "anonymous": false,
      "inputs": [
        {
          "indexed": false,
          "internalType": "address",
          "name": "sender",
          "type": "address"
        },
        {
          "indexed": false,
          "internalType": "address",
          "name": "implementation",
          "type": "address"
        }
      ],
      "name": "Implementation",
      "type": "event"
    },
    {
      "anonymous": false,
      "inputs": [
        {
          "indexed": false,
          "internalType": "address",
          "name": "sender",
          "type": "address"
        },
        {
          "indexed": false,
          "internalType": "address",
          "name": "child",
          "type": "address"
        }
      ],
      "name": "NewChild",
      "type": "event"
    },
    {
      "inputs": [
        {
          "internalType": "bytes",
          "name": "data_",
          "type": "bytes"
        }
      ],
      "name": "createChild",
      "outputs": [
        {
          "internalType": "address",
          "name": "",
          "type": "address"
        }
      ],
      "stateMutability": "nonpayable",
      "type": "function"
    },
    {
      "inputs": [
        {
          "components": [
            {
              "internalType": "address",
              "name": "AccessoriesCreator",
              "type": "address"
            },
            {
              "internalType": "string",
              "name": "_baseURI",
              "type": "string"
            }
          ],
          "internalType": "struct AccessoriesConfig",
          "name": "config_",
          "type": "tuple"
        }
      ],
      "name": "createChildTyped",
      "outputs": [
        {
          "internalType": "contract Accessories",
          "name": "",
          "type": "address"
        }
      ],
      "stateMutability": "nonpayable",
      "type": "function"
    },
    {
      "inputs": [
        {
          "internalType": "address",
          "name": "maybeChild_",
          "type": "address"
        }
      ],
      "name": "isChild",
      "outputs": [
        {
          "internalType": "bool",
          "name": "",
          "type": "bool"
        }
      ],
      "stateMutability": "view",
      "type": "function"
    }
  ],
  "bytecode": "0x60a060405234801561001057600080fd5b506001600090815560405161002490610096565b604051809103906000f080158015610040573d6000803e3d6000fd5b50604080513381526001600160a01b03831660208201529192507f7fac34ecf0b1b374cd9659e3d17db602659d53f1162b1f20142e6c02694aed70910160405180910390a16001600160a01b03166080526100a3565b618b5d80610a9983390190565b6080516109db6100be600039600061034801526109db6000f3fe608060405234801561001057600080fd5b50600436106100415760003560e01c80632ea72a49146100465780634d909b2514610083578063fc91a89714610096575b600080fd5b61005961005436600461055d565b6100df565b60405173ffffffffffffffffffffffffffffffffffffffff90911681526020015b60405180910390f35b6100596100913660046105cf565b61028d565b6100cf6100a4366004610636565b73ffffffffffffffffffffffffffffffffffffffff1660009081526001602052604090205460ff1690565b604051901515815260200161007a565b600060026000541415610153576040517f08c379a000000000000000000000000000000000000000000000000000000000815260206004820152601f60248201527f5265656e7472616e637947756172643a207265656e7472616e742063616c6c0060448201526064015b60405180910390fd5b600260009081556101648484610330565b73ffffffffffffffffffffffffffffffffffffffff811660009081526001602052604090205490915060ff16156101f7576040517f08c379a000000000000000000000000000000000000000000000000000000000815260206004820152600f60248201527f4455504c49434154455f4348494c440000000000000000000000000000000000604482015260640161014a565b73ffffffffffffffffffffffffffffffffffffffff811660008181526001602081815260409283902080547fffffffffffffffffffffffffffffffffffffffffffffffffffffffffffffff00169092179091558151338152908101929092527f7da70c4e5387d7038610b79ca7d304caaef815826e51e67cf247135387a79bce910160405180910390a160016000559392505050565b60003073ffffffffffffffffffffffffffffffffffffffff16632ea72a49836040516020016102bc9190610653565b6040516020818303038152906040526040518263ffffffff1660e01b81526004016102e7919061079d565b6020604051808303816000875af1158015610306573d6000803e3d6000fd5b505050506040513d601f19601f8201168201806040525081019061032a91906107b0565b92915050565b60008061033f83850185610874565b9050600061036c7f000000000000000000000000000000000000000000000000000000000000000061047b565b6040517f3744dd8300000000000000000000000000000000000000000000000000000000815290915073ffffffffffffffffffffffffffffffffffffffff821690633744dd83906103c1908590600401610962565b600060405180830381600087803b1580156103db57600080fd5b505af11580156103ef573d6000803e3d6000fd5b50506040517ff2fde38b00000000000000000000000000000000000000000000000000000000815233600482015273ffffffffffffffffffffffffffffffffffffffff8416925063f2fde38b9150602401600060405180830381600087803b15801561045a57600080fd5b505af115801561046e573d6000803e3d6000fd5b5092979650505050505050565b60006040517f3d602d80600a3d3981f3363d3d373d3d3d363d7300000000000000000000000081528260601b60148201527f5af43d82803e903d91602b57fd5bf3000000000000000000000000000000000060288201526037816000f091505073ffffffffffffffffffffffffffffffffffffffff8116610558576040517f08c379a000000000000000000000000000000000000000000000000000000000815260206004820152601660248201527f455243313136373a20637265617465206661696c656400000000000000000000604482015260640161014a565b919050565b6000806020838503121561057057600080fd5b823567ffffffffffffffff8082111561058857600080fd5b818501915085601f83011261059c57600080fd5b8135818111156105ab57600080fd5b8660208285010111156105bd57600080fd5b60209290920196919550909350505050565b6000602082840312156105e157600080fd5b813567ffffffffffffffff8111156105f857600080fd5b82016040818503121561060a57600080fd5b9392505050565b73ffffffffffffffffffffffffffffffffffffffff8116811461063357600080fd5b50565b60006020828403121561064857600080fd5b813561060a81610611565b602081526000823561066481610611565b73ffffffffffffffffffffffffffffffffffffffff811660208401525060208301357fffffffffffffffffffffffffffffffffffffffffffffffffffffffffffffffe18436030181126106b657600080fd5b8301803567ffffffffffffffff8111156106cf57600080fd5b8036038513156106de57600080fd5b6040808501528060608501528060208301608086013760006080828601015260807fffffffffffffffffffffffffffffffffffffffffffffffffffffffffffffffe0601f8301168501019250505092915050565b6000815180845260005b818110156107585760208185018101518683018201520161073c565b8181111561076a576000602083870101525b50601f017fffffffffffffffffffffffffffffffffffffffffffffffffffffffffffffffe0169290920160200192915050565b60208152600061060a6020830184610732565b6000602082840312156107c257600080fd5b815161060a81610611565b7f4e487b7100000000000000000000000000000000000000000000000000000000600052604160045260246000fd5b6040805190810167ffffffffffffffff8111828210171561081f5761081f6107cd565b60405290565b604051601f82017fffffffffffffffffffffffffffffffffffffffffffffffffffffffffffffffe016810167ffffffffffffffff8111828210171561086c5761086c6107cd565b604052919050565b6000602080838503121561088757600080fd5b823567ffffffffffffffff8082111561089f57600080fd5b90840190604082870312156108b357600080fd5b6108bb6107fc565b82356108c681610611565b815282840135828111156108d957600080fd5b80840193505086601f8401126108ee57600080fd5b823582811115610900576109006107cd565b610930857fffffffffffffffffffffffffffffffffffffffffffffffffffffffffffffffe0601f84011601610825565b9250808352878582860101111561094657600080fd5b8085850186850137600090830185015292830152509392505050565b6020815273ffffffffffffffffffffffffffffffffffffffff82511660208201526000602083015160408084015261099d6060840182610732565b94935050505056fea2646970667358221220cad50c5d5e4805617dfbb233aaf8f78ae983e1d10a456a8f19655f54c9b04a5564736f6c634300080a003360c06040819052600060a08190526200001b91601591620001f5565b503480156200002957600080fd5b5060408051808201909152600381526255524960e81b60208201526200004f816200011b565b506200005b3362000134565b620000a66040518060400160405280601c81526020017f4465706c6f79696e672061204552433131353520436f6e7472616374000000008152506200018660201b6200318d1760201c565b6002808060066007600b620000bd8260046200029b565b620000c991906200029b565b620000d591906200029b565b620000e191906200029b565b620000ed91906200029b565b620000f991906200029b565b6200010591906200029b565b620001129060056200029b565b60805262000357565b805162000130906002906020840190620001f5565b5050565b600380546001600160a01b038381166001600160a01b0319831681179093556040519116919082907f8be0079c531659141344cd1fd0a4f28419497f9722a3daafe3b4186f6b6457e090600090a35050565b620001d1816040516024016200019d9190620002c2565b60408051601f198184030181529190526020810180516001600160e01b0390811663104c13eb60e21b17909152620001d416565b50565b80516a636f6e736f6c652e6c6f67602083016000808483855afa5050505050565b82805462000203906200031a565b90600052602060002090601f01602090048101928262000227576000855562000272565b82601f106200024257805160ff191683800117855562000272565b8280016001018555821562000272579182015b828111156200027257825182559160200191906001019062000255565b506200028092915062000284565b5090565b5b8082111562000280576000815560010162000285565b60008219821115620002bd57634e487b7160e01b600052601160045260246000fd5b500190565b600060208083528351808285015260005b81811015620002f157858101830151858201604001528201620002d3565b8181111562000304576000604083870101525b50601f01601f1916929092016040019392505050565b600181811c908216806200032f57607f821691505b602082108114156200035157634e487b7160e01b600052602260045260246000fd5b50919050565b6080516187e36200037a6000396000818161498001526149bb01526187e36000f3fe608060405234801561001057600080fd5b50600436106101b85760003560e01c8063715018a6116100f9578063bfb231d211610097578063f242432a11610071578063f242432a14610413578063f2fde38b14610426578063fb1edcce14610439578063ff1b636d1461044c57600080fd5b8063bfb231d21461038f578063e6adc1ee146103b5578063e985e9c5146103ca57600080fd5b80639979c009116100d35780639979c00914610343578063a22cb46514610356578063b940822514610369578063be87bcfc1461037c57600080fd5b8063715018a6146102e95780638a0eaade146102f15780638da5cb5b1461030457600080fd5b80633744dd831161016657806351cff8d91161014057806351cff8d91461029d57806355f804b3146102b05780635e85227a146102c3578063704b6c02146102d657600080fd5b80633744dd83146102575780633b9dce051461026a5780634e1273f41461027d57600080fd5b80632799276d116101975780632799276d146102265780632eb2c2d61461022f57806331c4d28d1461024457600080fd5b8062fdd58e146101bd57806301ffc9a7146101e35780630e89341c14610206575b600080fd5b6101d06101cb366004616e8f565b61046c565b6040519081526020015b60405180910390f35b6101f66101f1366004616ee9565b61054c565b60405190151581526020016101da565b610219610214366004616f06565b61062f565b6040516101da9190616f95565b6101d060045481565b61024261023d3660046171a8565b6106f3565b005b6102426102523660046173e9565b6107bc565b6102426102653660046174a4565b610b5b565b61024261027836600461753a565b610d1a565b61029061028b366004617557565b610e97565b6040516101da91906175f6565b6102426102ab36600461753a565b610fef565b6102426102be366004617609565b6111cd565b6102426102d136600461763e565b611291565b6102426102e436600461753a565b6112ec565b610242611483565b6102426102ff36600461753a565b611510565b60035473ffffffffffffffffffffffffffffffffffffffff165b60405173ffffffffffffffffffffffffffffffffffffffff90911681526020016101da565b6102426103513660046176fa565b6115e3565b61024261036436600461771c565b61229e565b6101d0610377366004617755565b6122a9565b6101d061038a3660046176fa565b612917565b6103a261039d366004616f06565b612935565b6040516101da97969594939291906178cd565b6103bd612d74565b6040516101da9190617984565b6101f66103d8366004617997565b73ffffffffffffffffffffffffffffffffffffffff918216600090815260016020908152604080832093909416825291909152205460ff1690565b6102426104213660046179c5565b612d85565b61024261043436600461753a565b612e47565b610242610447366004617a2e565b612f77565b60115461031e9073ffffffffffffffffffffffffffffffffffffffff1681565b600073ffffffffffffffffffffffffffffffffffffffff8316610516576040517f08c379a000000000000000000000000000000000000000000000000000000000815260206004820152602b60248201527f455243313135353a2062616c616e636520717565727920666f7220746865207a60448201527f65726f206164647265737300000000000000000000000000000000000000000060648201526084015b60405180910390fd5b5060008181526020818152604080832073ffffffffffffffffffffffffffffffffffffffff861684529091529020545b92915050565b60007fffffffff0000000000000000000000000000000000000000000000000000000082167fd9b67a260000000000000000000000000000000000000000000000000000000014806105df57507fffffffff0000000000000000000000000000000000000000000000000000000082167f0e89341c00000000000000000000000000000000000000000000000000000000145b8061054657507f01ffc9a7000000000000000000000000000000000000000000000000000000007fffffffff00000000000000000000000000000000000000000000000000000000831614610546565b6060600082116106c1576040517f08c379a000000000000000000000000000000000000000000000000000000000815260206004820152602160248201527f4163636573736f726965733a7572693a20496e76616c696420546f6b656e496460448201527f2e00000000000000000000000000000000000000000000000000000000000000606482015260840161050d565b60156106cc8361321c565b6040516020016106dd929190617ad5565b6040516020818303038152906040529050919050565b73ffffffffffffffffffffffffffffffffffffffff851633148061071c575061071c85336103d8565b6107a8576040517f08c379a000000000000000000000000000000000000000000000000000000000815260206004820152603260248201527f455243313135353a207472616e736665722063616c6c6572206973206e6f742060448201527f6f776e6572206e6f7220617070726f7665640000000000000000000000000000606482015260840161050d565b6107b58585858585613356565b5050505050565b6107c7600f33613688565b610853576040517f08c379a000000000000000000000000000000000000000000000000000000000815260206004820152603360248201527f4163636573736f726965733a6e65774974656d3a204f6e6c792043726561746f60448201527f72732063616e20637265617465206974656d7300000000000000000000000000606482015260840161050d565b6004546108619060016136b7565b6004819055506040518061010001604052808715158152602001600454815260200161089c610897610892896136c3565b61381f565b61388d565b81526020016108b0610897610892886136c3565b81526020018481526020016108c78460ff166138db565b81526020016108d58361397e565b60048111156108e6576108e6617863565b81526020013373ffffffffffffffffffffffffffffffffffffffff169052600454600090815260126020908152604091829020835181547fffffffffffffffffffffffffffffffffffffffffffffffffffffffffffffff001690151517815583820151600182015591830151805160028401908155818301518051929391926109759260038701920190616c70565b5060408201518051610991916002840191602090910190616cbb565b50606082015180516109ad916003840191602090910190616c70565b50608082015180516109c9916004840191602090910190616c70565b505050606082015180516007830190815560208083015180516109f29260088701920190616c70565b5060408201518051610a0e916002840191602090910190616cbb565b5060608201518051610a2a916003840191602090910190616c70565b5060808201518051610a46916004840191602090910190616c70565b50505060808201518051610a6491600c840191602090910190616d14565b5060a0820151600d82015560c0820151600e820180547fffffffffffffffffffffffffffffffffffffffffffffffffffffffffffffff00166001836004811115610ab057610ab0617863565b021790555060e09190910151600e909101805473ffffffffffffffffffffffffffffffffffffffff909216610100027fffffffffffffffffffffff0000000000000000000000000000000000000000ff9092169190911790556004546000818152601260205260409081902090517f22fa8bc71326d2e57f4ed3a6616ad580fe6c45a24cf7fd7d0fdf4608ae88e99a92610b4b929091617d91565b60405180910390a1505050505050565b6003547501000000000000000000000000000000000000000000900460ff16610ba25760035474010000000000000000000000000000000000000000900460ff1615610ba6565b303b155b610c32576040517f08c379a000000000000000000000000000000000000000000000000000000000815260206004820152602e60248201527f496e697469616c697a61626c653a20636f6e747261637420697320616c72656160448201527f647920696e697469616c697a6564000000000000000000000000000000000000606482015260840161050d565b6003547501000000000000000000000000000000000000000000900460ff16158015610c9957600380547fffffffffffffffffffff0000ffffffffffffffffffffffffffffffffffffffff1675010100000000000000000000000000000000000000001790555b6020808301518051610caf926015920190616d8e565b507f2bf9425e0baa8fedeb3c184d73be1248daf76733362d08b840b48ff7db574d1b82604051610cdf9190617e76565b60405180910390a18015610d1657600380547fffffffffffffffffffff00ffffffffffffffffffffffffffffffffffffffffff1690555b5050565b60035473ffffffffffffffffffffffffffffffffffffffff163314610d9b576040517f08c379a000000000000000000000000000000000000000000000000000000000815260206004820181905260248201527f4f776e61626c653a2063616c6c6572206973206e6f7420746865206f776e6572604482015260640161050d565b73ffffffffffffffffffffffffffffffffffffffff8116610e3e576040517f08c379a000000000000000000000000000000000000000000000000000000000815260206004820152603160248201527f4163636573736f726965733a3a61646443726561746f723a20496e76616c696460448201527f2043726561746f7220616464726573732e000000000000000000000000000000606482015260840161050d565b610e49600f82613a68565b5060405173ffffffffffffffffffffffffffffffffffffffff821681527f021a687fbe334e9e815cee8b399c0bc42e82356eb7f63a09ddb558a25d3dcdbd906020015b60405180910390a150565b60608151835114610f2a576040517f08c379a000000000000000000000000000000000000000000000000000000000815260206004820152602960248201527f455243313135353a206163636f756e747320616e6420696473206c656e67746860448201527f206d69736d617463680000000000000000000000000000000000000000000000606482015260840161050d565b6000835167ffffffffffffffff811115610f4657610f46616fa8565b604051908082528060200260200182016040528015610f6f578160200160208202803683370190505b50905060005b8451811015610fe757610fba858281518110610f9357610f93617eb1565b6020026020010151858381518110610fad57610fad617eb1565b602002602001015161046c565b828281518110610fcc57610fcc617eb1565b6020908102919091010152610fe081617f0f565b9050610f75565b509392505050565b60035473ffffffffffffffffffffffffffffffffffffffff163314611070576040517f08c379a000000000000000000000000000000000000000000000000000000000815260206004820181905260248201527f4f776e61626c653a2063616c6c6572206973206e6f7420746865206f776e6572604482015260640161050d565b8073ffffffffffffffffffffffffffffffffffffffff1663a9059cbb6110ab60035473ffffffffffffffffffffffffffffffffffffffff1690565b6040517f70a0823100000000000000000000000000000000000000000000000000000000815230600482015273ffffffffffffffffffffffffffffffffffffffff8516906370a0823190602401602060405180830381865afa158015611115573d6000803e3d6000fd5b505050506040513d601f19601f820116820180604052508101906111399190617f48565b6040517fffffffff0000000000000000000000000000000000000000000000000000000060e085901b16815273ffffffffffffffffffffffffffffffffffffffff909216600483015260248201526044016020604051808303816000875af11580156111a9573d6000803e3d6000fd5b505050506040513d601f19601f82011682018060405250810190610d169190617f61565b60035473ffffffffffffffffffffffffffffffffffffffff16331461124e576040517f08c379a000000000000000000000000000000000000000000000000000000000815260206004820181905260248201527f4f776e61626c653a2063616c6c6572206973206e6f7420746865206f776e6572604482015260640161050d565b8051611261906015906020840190616d8e565b507f5411e8ebf1636d9e83d5fc4900bf80cbac82e8790da2a4c94db4895e889eedf681604051610e8c9190616f95565b6112b16112a960016112a3600d613a8a565b906136b7565b600d90613a94565b507f906ab284bcbbf1ae4d7c1b0c141d1de233a2eadbe5784bbad20bea83a6485af86112dd600d613a8a565b82604051610e8c929190617f7e565b60035473ffffffffffffffffffffffffffffffffffffffff16331461136d576040517f08c379a000000000000000000000000000000000000000000000000000000000815260206004820181905260248201527f4f776e61626c653a2063616c6c6572206973206e6f7420746865206f776e6572604482015260640161050d565b73ffffffffffffffffffffffffffffffffffffffff8116611410576040517f08c379a000000000000000000000000000000000000000000000000000000000815260206004820152603160248201527f4163636573736f726965733a3a61646443726561746f723a20496e76616c696460448201527f2043726561746f7220616464726573732e000000000000000000000000000000606482015260840161050d565b601180547fffffffffffffffffffffffff00000000000000000000000000000000000000001673ffffffffffffffffffffffffffffffffffffffff83169081179091556040519081527f7ce7ec0b50378fb6c0186ffb5f48325f6593fcb4ca4386f21861af3129188f5c90602001610e8c565b60035473ffffffffffffffffffffffffffffffffffffffff163314611504576040517f08c379a000000000000000000000000000000000000000000000000000000000815260206004820181905260248201527f4f776e61626c653a2063616c6c6572206973206e6f7420746865206f776e6572604482015260640161050d565b61150e6000613aa0565b565b60035473ffffffffffffffffffffffffffffffffffffffff163314611591576040517f08c379a000000000000000000000000000000000000000000000000000000000815260206004820181905260248201527f4f776e61626c653a2063616c6c6572206973206e6f7420746865206f776e6572604482015260640161050d565b61159c600f82613b17565b5060405173ffffffffffffffffffffffffffffffffffffffff821681527f94a409f50d78dc8628b7499ba5af0848a134b9a935a59c0a45313b67f66920f890602001610e8c565b6000828152601260209081526040808320815161010081018352815460ff1615158152600182015481850152825160a081018452600283018054825260038401805486518189028101890188528181528b999895978801958581019391929083018282801561167157602002820191906000526020600020905b81548152602001906001019080831161165d575b5050505050815260200160028201805480602002602001604051908101604052809291908181526020016000905b8282101561174b5783829060005260206000200180546116be90617a87565b80601f01602080910402602001604051908101604052809291908181526020018280546116ea90617a87565b80156117375780601f1061170c57610100808354040283529160200191611737565b820191906000526020600020905b81548152906001019060200180831161171a57829003601f168201915b50505050508152602001906001019061169f565b505050508152602001600382018054806020026020016040519081016040528092919081815260200182805480156117a257602002820191906000526020600020905b81548152602001906001019080831161178e575b50505050508152602001600482018054806020026020016040519081016040528092919081815260200182805480156117fa57602002820191906000526020600020905b8154815260200190600101908083116117e6575b5050505050815250508152602001600782016040518060a0016040529081600082015481526020016001820180548060200260200160405190810160405280929190818152602001828054801561187057602002820191906000526020600020905b81548152602001906001019080831161185c575b5050505050815260200160028201805480602002602001604051908101604052809291908181526020016000905b8282101561194a5783829060005260206000200180546118bd90617a87565b80601f01602080910402602001604051908101604052809291908181526020018280546118e990617a87565b80156119365780601f1061190b57610100808354040283529160200191611936565b820191906000526020600020905b81548152906001019060200180831161191957829003601f168201915b50505050508152602001906001019061189e565b505050508152602001600382018054806020026020016040519081016040528092919081815260200182805480156119a157602002820191906000526020600020905b81548152602001906001019080831161198d575b50505050508152602001600482018054806020026020016040519081016040528092919081815260200182805480156119f957602002820191906000526020600020905b8154815260200190600101908083116119e5575b5050505050815250508152602001600c8201805480602002602001604051908101604052809291908181526020018280548015611a6c57602002820191906000526020600020905b815473ffffffffffffffffffffffffffffffffffffffff168152600190910190602001808311611a41575b5050509183525050600d8201546020820152600e82015460409091019060ff166004811115611a9d57611a9d617863565b6004811115611aae57611aae617863565b8152600e9190910154610100900473ffffffffffffffffffffffffffffffffffffffff166020918201526060820151604080519283019052600080835292935091611afb91908390613b39565b60208101518151611b0e90600190618006565b81518110611b1e57611b1e617eb1565b6020026020010151600114611bdb576040517f08c379a000000000000000000000000000000000000000000000000000000000815260206004820152604360248201527f4163636573736f726965733a3a63616e4d696e743a204164647265737320646f60448201527f6573206e6f74207361746973667920746865206d696e7420436f6e646974696f60648201527f6e732e0000000000000000000000000000000000000000000000000000000000608482015260a40161050d565b600454851115611c6d576040517f08c379a000000000000000000000000000000000000000000000000000000000815260206004820152602560248201527f4163636573736f726965733a3a6275794974656d3a20496e76616c696420497460448201527f656d49642e000000000000000000000000000000000000000000000000000000606482015260840161050d565b6000858152601260209081526040808320815161010081018352815460ff1615158152600182015481850152825160a08101845260028301805482526003840180548651818902810189018852818152949795968801959394929385810193929190830182828015611cfe57602002820191906000526020600020905b815481526020019060010190808311611cea575b5050505050815260200160028201805480602002602001604051908101604052809291908181526020016000905b82821015611dd8578382906000526020600020018054611d4b90617a87565b80601f0160208091040260200160405190810160405280929190818152602001828054611d7790617a87565b8015611dc45780601f10611d9957610100808354040283529160200191611dc4565b820191906000526020600020905b815481529060010190602001808311611da757829003601f168201915b505050505081526020019060010190611d2c565b50505050815260200160038201805480602002602001604051908101604052809291908181526020018280548015611e2f57602002820191906000526020600020905b815481526020019060010190808311611e1b575b5050505050815260200160048201805480602002602001604051908101604052809291908181526020018280548015611e8757602002820191906000526020600020905b815481526020019060010190808311611e73575b5050505050815250508152602001600782016040518060a00160405290816000820154815260200160018201805480602002602001604051908101604052809291908181526020018280548015611efd57602002820191906000526020600020905b815481526020019060010190808311611ee9575b5050505050815260200160028201805480602002602001604051908101604052809291908181526020016000905b82821015611fd7578382906000526020600020018054611f4a90617a87565b80601f0160208091040260200160405190810160405280929190818152602001828054611f7690617a87565b8015611fc35780601f10611f9857610100808354040283529160200191611fc3565b820191906000526020600020905b815481529060010190602001808311611fa657829003601f168201915b505050505081526020019060010190611f2b565b5050505081526020016003820180548060200260200160405190810160405280929190818152602001828054801561202e57602002820191906000526020600020905b81548152602001906001019080831161201a575b505050505081526020016004820180548060200260200160405190810160405280929190818152602001828054801561208657602002820191906000526020600020905b815481526020019060010190808311612072575b5050505050815250508152602001600c82018054806020026020016040519081016040528092919081815260200182805480156120f957602002820191906000526020600020905b815473ffffffffffffffffffffffffffffffffffffffff1681526001909101906020018083116120ce575b5050509183525050600d8201546020820152600e82015460409091019060ff16600481111561212a5761212a617863565b600481111561213b5761213b617863565b8152600e9190910154610100900473ffffffffffffffffffffffffffffffffffffffff16602090910152905060005b81608001515181101561227a5760008260800151828151811061218f5761218f617eb1565b602002602001015190508073ffffffffffffffffffffffffffffffffffffffff166323b872dd6121bc3390565b306121c88c868d6122a9565b6040517fffffffff0000000000000000000000000000000000000000000000000000000060e086901b16815273ffffffffffffffffffffffffffffffffffffffff938416600482015292909116602483015260448201526064016020604051808303816000875af1158015612241573d6000803e3d6000fd5b505050506040513d601f19601f820116820180604052508101906122659190617f61565b50612273905081600161801d565b905061216a565b5061229633878760405180602001604052806000815250613cff565b505050505050565b610d16338383613e66565b6000838152601260209081526040808320815161010081018352815460ff1615158152600182015481850152825160a08101845260028301805482526003840180548651818902810189018852818152899889988998969088019590949093858301939283018282801561233c57602002820191906000526020600020905b815481526020019060010190808311612328575b5050505050815260200160028201805480602002602001604051908101604052809291908181526020016000905b8282101561241657838290600052602060002001805461238990617a87565b80601f01602080910402602001604051908101604052809291908181526020018280546123b590617a87565b80156124025780601f106123d757610100808354040283529160200191612402565b820191906000526020600020905b8154815290600101906020018083116123e557829003601f168201915b50505050508152602001906001019061236a565b5050505081526020016003820180548060200260200160405190810160405280929190818152602001828054801561246d57602002820191906000526020600020905b815481526020019060010190808311612459575b50505050508152602001600482018054806020026020016040519081016040528092919081815260200182805480156124c557602002820191906000526020600020905b8154815260200190600101908083116124b1575b5050505050815250508152602001600782016040518060a0016040529081600082015481526020016001820180548060200260200160405190810160405280929190818152602001828054801561253b57602002820191906000526020600020905b815481526020019060010190808311612527575b5050505050815260200160028201805480602002602001604051908101604052809291908181526020016000905b8282101561261557838290600052602060002001805461258890617a87565b80601f01602080910402602001604051908101604052809291908181526020018280546125b490617a87565b80156126015780601f106125d657610100808354040283529160200191612601565b820191906000526020600020905b8154815290600101906020018083116125e457829003601f168201915b505050505081526020019060010190612569565b5050505081526020016003820180548060200260200160405190810160405280929190818152602001828054801561266c57602002820191906000526020600020905b815481526020019060010190808311612658575b50505050508152602001600482018054806020026020016040519081016040528092919081815260200182805480156126c457602002820191906000526020600020905b8154815260200190600101908083116126b0575b5050505050815250508152602001600c820180548060200260200160405190810160405280929190818152602001828054801561273757602002820191906000526020600020905b815473ffffffffffffffffffffffffffffffffffffffff16815260019091019060200180831161270c575b5050509183525050600d8201546020820152600e82015460409091019060ff16600481111561276857612768617863565b600481111561277957612779617863565b8152600e9190910154610100900473ffffffffffffffffffffffffffffffffffffffff16602090910152905060005b816080015151811015612824578673ffffffffffffffffffffffffffffffffffffffff16826080015182815181106127e2576127e2617eb1565b602002602001015173ffffffffffffffffffffffffffffffffffffffff1614156128125780935060019250612824565b61281d81600161801d565b90506127a8565b50816128b2576040517f08c379a000000000000000000000000000000000000000000000000000000000815260206004820152603560248201527f4163636573736f726965733a3a6765744974656d50726963653a20556e73757060448201527f706f72746564207061796d656e7420746f6b656e2e0000000000000000000000606482015260840161050d565b60408181015181516020810188905290916128de91016040516020818303038152906040528286613b39565b602081015181516128f190600190618006565b8151811061290157612901617eb1565b60200260200101519450505050505b9392505050565b600061292b6129268484613fba565b613ff4565b6129108383613fba565b60126020908152600091825260409182902080546001820154845160a081018652600284018054825260038501805488518189028101890190995280895260ff90951697939692949193858401939092908301828280156129b557602002820191906000526020600020905b8154815260200190600101908083116129a1575b5050505050815260200160028201805480602002602001604051908101604052809291908181526020016000905b82821015612a8f578382906000526020600020018054612a0290617a87565b80601f0160208091040260200160405190810160405280929190818152602001828054612a2e90617a87565b8015612a7b5780601f10612a5057610100808354040283529160200191612a7b565b820191906000526020600020905b815481529060010190602001808311612a5e57829003601f168201915b5050505050815260200190600101906129e3565b50505050815260200160038201805480602002602001604051908101604052809291908181526020018280548015612ae657602002820191906000526020600020905b815481526020019060010190808311612ad2575b5050505050815260200160048201805480602002602001604051908101604052809291908181526020018280548015612b3e57602002820191906000526020600020905b815481526020019060010190808311612b2a575b50505050508152505090806007016040518060a00160405290816000820154815260200160018201805480602002602001604051908101604052809291908181526020018280548015612bb057602002820191906000526020600020905b815481526020019060010190808311612b9c575b5050505050815260200160028201805480602002602001604051908101604052809291908181526020016000905b82821015612c8a578382906000526020600020018054612bfd90617a87565b80601f0160208091040260200160405190810160405280929190818152602001828054612c2990617a87565b8015612c765780601f10612c4b57610100808354040283529160200191612c76565b820191906000526020600020905b815481529060010190602001808311612c5957829003601f168201915b505050505081526020019060010190612bde565b50505050815260200160038201805480602002602001604051908101604052809291908181526020018280548015612ce157602002820191906000526020600020905b815481526020019060010190808311612ccd575b5050505050815260200160048201805480602002602001604051908101604052809291908181526020018280548015612d3957602002820191906000526020600020905b815481526020019060010190808311612d25575b50505091909252505050600d820154600e9092015490919060ff811690610100900473ffffffffffffffffffffffffffffffffffffffff1687565b6060612d80600f614085565b905090565b73ffffffffffffffffffffffffffffffffffffffff8516331480612dae5750612dae85336103d8565b612e3a576040517f08c379a000000000000000000000000000000000000000000000000000000000815260206004820152602960248201527f455243313135353a2063616c6c6572206973206e6f74206f776e6572206e6f7260448201527f20617070726f7665640000000000000000000000000000000000000000000000606482015260840161050d565b6107b58585858585614092565b60035473ffffffffffffffffffffffffffffffffffffffff163314612ec8576040517f08c379a000000000000000000000000000000000000000000000000000000000815260206004820181905260248201527f4f776e61626c653a2063616c6c6572206973206e6f7420746865206f776e6572604482015260640161050d565b73ffffffffffffffffffffffffffffffffffffffff8116612f6b576040517f08c379a000000000000000000000000000000000000000000000000000000000815260206004820152602660248201527f4f776e61626c653a206e6577206f776e657220697320746865207a65726f206160448201527f6464726573730000000000000000000000000000000000000000000000000000606482015260840161050d565b612f7481613aa0565b50565b6000838152601260205260409020600e0154610100900473ffffffffffffffffffffffffffffffffffffffff163373ffffffffffffffffffffffffffffffffffffffff161461306e576040517f08c379a000000000000000000000000000000000000000000000000000000000815260206004820152604160248201527f4163636573736f726965733a3a7570646174654974656d3a204f6e6c7920437260448201527f6561746f722063616e2075706461746520746865204974656d44657461696c7360648201527f2e00000000000000000000000000000000000000000000000000000000000000608482015260a40161050d565b600083815260126020526040902080547fffffffffffffffffffffffffffffffffffffffffffffffffffffffffffffff00168315151790556130b5610897610892836136c3565b600084815260126020908152604090912082516007820190815583830151805191936130e79360080192910190616c70565b5060408201518051613103916002840191602090910190616cbb565b506060820151805161311f916003840191602090910190616c70565b506080820151805161313b916004840191602090910190616c70565b50506004546000818152601260205260409081902090517fd61b190235621f6141eef1d3f228a0de32c2e48e8c276a7e90193ae799d60ed89350613180929190617d91565b60405180910390a1505050565b612f74816040516024016131a19190616f95565b604080517fffffffffffffffffffffffffffffffffffffffffffffffffffffffffffffffe08184030181529190526020810180517bffffffffffffffffffffffffffffffffffffffffffffffffffffffff167f41304fac000000000000000000000000000000000000000000000000000000001790526142c3565b60608161325c57505060408051808201909152600181527f3000000000000000000000000000000000000000000000000000000000000000602082015290565b8160005b8115613286578061327081617f0f565b915061327f9050600a83618064565b9150613260565b60008167ffffffffffffffff8111156132a1576132a1616fa8565b6040519080825280601f01601f1916602001820160405280156132cb576020820181803683370190505b5090505b841561334e576132e0600183618006565b91506132ed600a86618078565b6132f890603061801d565b60f81b81838151811061330d5761330d617eb1565b60200101907effffffffffffffffffffffffffffffffffffffffffffffffffffffffffffff1916908160001a905350613347600a86618064565b94506132cf565b949350505050565b81518351146133e7576040517f08c379a000000000000000000000000000000000000000000000000000000000815260206004820152602860248201527f455243313135353a2069647320616e6420616d6f756e7473206c656e6774682060448201527f6d69736d61746368000000000000000000000000000000000000000000000000606482015260840161050d565b73ffffffffffffffffffffffffffffffffffffffff841661348a576040517f08c379a000000000000000000000000000000000000000000000000000000000815260206004820152602560248201527f455243313135353a207472616e7366657220746f20746865207a65726f20616460448201527f6472657373000000000000000000000000000000000000000000000000000000606482015260840161050d565b3360005b84518110156135fb5760008582815181106134ab576134ab617eb1565b6020026020010151905060008583815181106134c9576134c9617eb1565b6020908102919091018101516000848152808352604080822073ffffffffffffffffffffffffffffffffffffffff8e168352909352919091205490915081811015613596576040517f08c379a000000000000000000000000000000000000000000000000000000000815260206004820152602a60248201527f455243313135353a20696e73756666696369656e742062616c616e636520666f60448201527f72207472616e7366657200000000000000000000000000000000000000000000606482015260840161050d565b60008381526020818152604080832073ffffffffffffffffffffffffffffffffffffffff8e8116855292528083208585039055908b168252812080548492906135e090849061801d565b92505081905550505050806135f490617f0f565b905061348e565b508473ffffffffffffffffffffffffffffffffffffffff168673ffffffffffffffffffffffffffffffffffffffff168273ffffffffffffffffffffffffffffffffffffffff167f4a39dc06d4c0dbc64b70af90fd698a233a518aa5d07e595d983b8c0526c8f7fb878760405161367292919061808c565b60405180910390a46122968187878787876142e4565b73ffffffffffffffffffffffffffffffffffffffff811660009081526001830160205260408120541515612910565b6000612910828461801d565b6136f56040518060a0016040528060008152602001606081526020016060815260200160608152602001606081525090565b81515161375e576040517f08c379a000000000000000000000000000000000000000000000000000000000815260206004820152600960248201527f305f534f55524345530000000000000000000000000000000000000000000000604482015260640161050d565b6040518060a0016040528060008152602001836040015167ffffffffffffffff81111561378d5761378d616fa8565b6040519080825280602002602001820160405280156137b6578160200160208202803683370190505b5081526020018360000151815260200183602001518152602001836060015167ffffffffffffffff8111156137ed576137ed616fa8565b604051908082528060200260200182016040528015613816578160200160208202803683370190505b50905292915050565b60008061384a8360405160200161383691906180b1565b60405160208183030381529060405261456f565b90507ff95eed63f55d96a35306669cc3b5f652f8d44552e3e4b17b2f78f13571114abd33828560405161387f939291906180c4565b60405180910390a192915050565b6138bf6040518060a0016040528060008152602001606081526020016060815260200160608152602001606081525090565b6138c8826145fa565b8060200190518101906105469190618240565b60006138e8600d83614628565b156138f1575090565b6040517f08c379a000000000000000000000000000000000000000000000000000000000815260206004820152602b60248201527f4163636573736f726965733a3a676574436c6173733a20496e76616c6964206360448201527f6c6173732076616c75652e000000000000000000000000000000000000000000606482015260840161050d565b919050565b600060ff821661399057506000919050565b8160ff16600114156139a457506001919050565b8160ff16600214156139b857506002919050565b8160ff16600314156139cc57506003919050565b8160ff16600414156139e057506004919050565b6040517f08c379a000000000000000000000000000000000000000000000000000000000815260206004820152602660248201527f4163636573736f726965733a3a6765745261726974793a20496e76616c69642060448201527f5261726974790000000000000000000000000000000000000000000000000000606482015260840161050d565b60006129108373ffffffffffffffffffffffffffffffffffffffff8416614640565b6000610546825490565b60006129108383614640565b6003805473ffffffffffffffffffffffffffffffffffffffff8381167fffffffffffffffffffffffff0000000000000000000000000000000000000000831681179093556040519116919082907f8be0079c531659141344cd1fd0a4f28419497f9722a3daafe3b4186f6b6457e090600090a35050565b60006129108373ffffffffffffffffffffffffffffffffffffffff841661468f565b602082810151604084015183830201909101516060840151608085015182516000948594859492939092915b84881015613cf2576002880197508784015180601e1a975080601f1a9650506005871015613ce6576001871415613bc8578160808716613ba25750825b8a516020607f89160260200182015160208202602001840152600181018c525050613b65565b6002871415613bf35789516020870260200182015160208202602001830152600181018b5250613b65565b6003871415613c0c57613c078b8b88614789565b613b65565b6004871415613c3d57613c078a604051602001613c2991906180b1565b6040516020818303038152906040526148ef565b607f6101fe600188901b161786166080871615613ca9578a517fffffffffffffffffffffffffffffffffffffffffffffffffffffffffffffffff01808c5260208c015180519091908110613c9357613c93617eb1565b602002602001015160001415613ca95750613b65565b8060000b600014613ce05760008160000b1215613cd457801960020160020260ff1689039850613ce0565b8060020260ff16890198505b50613b65565b613c078b8b898961497e565b5050505050505050505050565b73ffffffffffffffffffffffffffffffffffffffff8416613da2576040517f08c379a000000000000000000000000000000000000000000000000000000000815260206004820152602160248201527f455243313135353a206d696e7420746f20746865207a65726f2061646472657360448201527f7300000000000000000000000000000000000000000000000000000000000000606482015260840161050d565b33613dbc81600087613db388614b08565b6107b588614b08565b60008481526020818152604080832073ffffffffffffffffffffffffffffffffffffffff8916845290915281208054859290613df990849061801d565b9091555050604080518581526020810185905273ffffffffffffffffffffffffffffffffffffffff80881692600092918516917fc3d58168c5ae7397731d063d5bbf3d657854427343f4c083240f7aacaa2d0f62910160405180910390a46107b581600087878787614b53565b8173ffffffffffffffffffffffffffffffffffffffff168373ffffffffffffffffffffffffffffffffffffffff161415613f22576040517f08c379a000000000000000000000000000000000000000000000000000000000815260206004820152602960248201527f455243313135353a2073657474696e6720617070726f76616c2073746174757360448201527f20666f722073656c660000000000000000000000000000000000000000000000606482015260840161050d565b73ffffffffffffffffffffffffffffffffffffffff83811660008181526001602090815260408083209487168084529482529182902080547fffffffffffffffffffffffffffffffffffffffffffffffffffffffffffffff001686151590811790915591519182527f17307eab39ab6107e8899845ad3d59bd9653f200f220920489ca2b5937696c31910160405180910390a3505050565b6000805b6008811015613fea57828160200285901c63ffffffff161115613fe2579050610546565b600101613fbe565b5060089392505050565b612f748160405160240161400a91815260200190565b604080517fffffffffffffffffffffffffffffffffffffffffffffffffffffffffffffffe08184030181529190526020810180517bffffffffffffffffffffffffffffffffffffffffffffffffffffffff167ff5b1bba9000000000000000000000000000000000000000000000000000000001790526142c3565b6060600061291083614d00565b73ffffffffffffffffffffffffffffffffffffffff8416614135576040517f08c379a000000000000000000000000000000000000000000000000000000000815260206004820152602560248201527f455243313135353a207472616e7366657220746f20746865207a65726f20616460448201527f6472657373000000000000000000000000000000000000000000000000000000606482015260840161050d565b33614145818787613db388614b08565b60008481526020818152604080832073ffffffffffffffffffffffffffffffffffffffff8a16845290915290205483811015614203576040517f08c379a000000000000000000000000000000000000000000000000000000000815260206004820152602a60248201527f455243313135353a20696e73756666696369656e742062616c616e636520666f60448201527f72207472616e7366657200000000000000000000000000000000000000000000606482015260840161050d565b60008581526020818152604080832073ffffffffffffffffffffffffffffffffffffffff8b811685529252808320878503905590881682528120805486929061424d90849061801d565b9091555050604080518681526020810186905273ffffffffffffffffffffffffffffffffffffffff808916928a821692918616917fc3d58168c5ae7397731d063d5bbf3d657854427343f4c083240f7aacaa2d0f62910160405180910390a46142ba828888888888614b53565b50505050505050565b80516a636f6e736f6c652e6c6f67602083016000808483855afa5050505050565b73ffffffffffffffffffffffffffffffffffffffff84163b15612296576040517fbc197c8100000000000000000000000000000000000000000000000000000000815273ffffffffffffffffffffffffffffffffffffffff85169063bc197c819061435b9089908990889088908890600401618323565b6020604051808303816000875af19250505080156143b4575060408051601f3d9081017fffffffffffffffffffffffffffffffffffffffffffffffffffffffffffffffe01682019092526143b19181019061838e565b60015b61449e576143c06183ab565b806308c379a0141561441457506143d56183c7565b806143e05750614416565b806040517f08c379a000000000000000000000000000000000000000000000000000000000815260040161050d9190616f95565b505b6040517f08c379a000000000000000000000000000000000000000000000000000000000815260206004820152603460248201527f455243313135353a207472616e7366657220746f206e6f6e204552433131353560448201527f526563656976657220696d706c656d656e746572000000000000000000000000606482015260840161050d565b7fffffffff0000000000000000000000000000000000000000000000000000000081167fbc197c8100000000000000000000000000000000000000000000000000000000146142ba576040517f08c379a000000000000000000000000000000000000000000000000000000000815260206004820152602860248201527f455243313135353a204552433131353552656365697665722072656a6563746560448201527f6420746f6b656e73000000000000000000000000000000000000000000000000606482015260840161050d565b60008061459a83604051602001614586919061846f565b604051602081830303815290604052614d5c565b90508051602082016000f0915073ffffffffffffffffffffffffffffffffffffffff82166145f4576040517f08d4abb600000000000000000000000000000000000000000000000000000000815260040160405180910390fd5b50919050565b60606105468260017fffffffffffffffffffffffffffffffffffffffffffffffffffffffffffffffff614d72565b60008181526001830160205260408120541515612910565b600081815260018301602052604081205461468757508154600181810184556000848152602080822090930184905584548482528286019093526040902091909155610546565b506000610546565b600081815260018301602052604081205480156147785760006146b3600183618006565b85549091506000906146c790600190618006565b905081811461472c5760008660000182815481106146e7576146e7617eb1565b906000526020600020015490508087600001848154811061470a5761470a617eb1565b6000918252602080832090910192909255918252600188019052604090208390555b855486908061473d5761473d618495565b600190038181906000526020600020016000905590558560010160008681526020019081526020016000206000905560019350505050610546565b6000915050610546565b5092915050565b81517fffffffffffffffffffffffffffffffffffffffffffffffffffffffffffffffff600583901c918290030183526007821690610100600384811c1681901c91908290039060010160008167ffffffffffffffff8111156147ed576147ed616fa8565b604051908082528060200260200182016040528015614816578160200160208202803683370190505b50905060005b8281101561486d578760200151818960000151018151811061484057614840617eb1565b602002602001015182828151811061485a5761485a617eb1565b602090810291909101015260010161481c565b5060005b6101008110156148e45760005b838110156148d1578482860384838151811061489c5761489c617eb1565b6020026020010151901b901c896080015182815181106148be576148be617eb1565b602090810291909101015260010161487e565b506148dd898988613b39565b8401614871565b505050505050505050565b612f74816040516024016149039190616f95565b604080517fffffffffffffffffffffffffffffffffffffffffffffffffffffffffffffffe08184030181529190526020810180517bffffffffffffffffffffffffffffffffffffffffffffffffffffffff167f0be77f56000000000000000000000000000000000000000000000000000000001790526142c3565b7f00000000000000000000000000000000000000000000000000000000000000008210156149b9576149b4836005840383614e5a565b614b02565b7f00000000000000000000000000000000000000000000000000000000000000008203915060018210614a48576040517f08c379a000000000000000000000000000000000000000000000000000000000815260206004820152600a60248201527f4d41585f4f50434f444500000000000000000000000000000000000000000000604482015260640161050d565b60008360200151600285600001510381518110614a6757614a67617eb1565b6020026020010151905060008460200151600186600001510381518110614a9057614a90617eb1565b602090810291909101015185517ffffffffffffffffffffffffffffffffffffffffffffffffffffffffffffffffe01865290506000614acf8383613fba565b9050808660200151876000015181518110614aec57614aec617eb1565b6020908102919091010152505083516001018452505b50505050565b60408051600180825281830190925260609160009190602080830190803683370190505090508281600081518110614b4257614b42617eb1565b602090810291909101015292915050565b73ffffffffffffffffffffffffffffffffffffffff84163b15612296576040517ff23a6e6100000000000000000000000000000000000000000000000000000000815273ffffffffffffffffffffffffffffffffffffffff85169063f23a6e6190614bca90899089908890889088906004016184c4565b6020604051808303816000875af1925050508015614c23575060408051601f3d9081017fffffffffffffffffffffffffffffffffffffffffffffffffffffffffffffffe0168201909252614c209181019061838e565b60015b614c2f576143c06183ab565b7fffffffff0000000000000000000000000000000000000000000000000000000081167ff23a6e6100000000000000000000000000000000000000000000000000000000146142ba576040517f08c379a000000000000000000000000000000000000000000000000000000000815260206004820152602860248201527f455243313135353a204552433131353552656365697665722072656a6563746560448201527f6420746f6b656e73000000000000000000000000000000000000000000000000606482015260840161050d565b606081600001805480602002602001604051908101604052809291908181526020018280548015614d5057602002820191906000526020600020905b815481526020019060010190808311614d3c575b50505050509050919050565b60608151826040516020016106dd929190618514565b6060833b80614d91575050604080516020810190915260008152612910565b80841115614daf575050604080516020810190915260008152612910565b83831015614dfa576040517f2c4a89fa00000000000000000000000000000000000000000000000000000000815260048101829052602481018590526044810184905260640161050d565b8383038482036000828210614e0f5782614e11565b815b60408051603f83017fffffffffffffffffffffffffffffffffffffffffffffffffffffffffffffffe0168101909152818152955090508087602087018a3c505050509392505050565b6004821015614e7357614e6e838383614fc5565b505050565b601d821015614ef657600b821015614e9357614e6e8360048403836150db565b6016821015614ec957614e6e837ffffffffffffffffffffffffffffffffffffffffffffffffffffffffffffffff5840183615409565b614e6e837fffffffffffffffffffffffffffffffffffffffffffffffffffffffffffffffea840183615840565b6023821015614f2c57614e6e837fffffffffffffffffffffffffffffffffffffffffffffffffffffffffffffffe3840183615a51565b6025821015614f6257614e6e837fffffffffffffffffffffffffffffffffffffffffffffffffffffffffffffffdd840183615f25565b6027821015614f9857614e6e837fffffffffffffffffffffffffffffffffffffffffffffffffffffffffffffffdb840183616159565b614e6e837fffffffffffffffffffffffffffffffffffffffffffffffffffffffffffffffd9840183616308565b6004821061502f576040517f08c379a000000000000000000000000000000000000000000000000000000000815260206004820152600a60248201527f4d41585f4f50434f444500000000000000000000000000000000000000000000604482015260640161050d565b816150605743836020015184600001518151811061504f5761504f617eb1565b6020026020010181815250506150d0565b60018214156150845742836020015184600001518151811061504f5761504f617eb1565b60028214156150a85760208301518351815133929190811061504f5761504f617eb1565b6020830151835181513092919081106150c3576150c3617eb1565b6020026020010181815250505b505080516001019052565b60078210615145576040517f08c379a000000000000000000000000000000000000000000000000000000000815260206004820152600a60248201527f4d41585f4f50434f444500000000000000000000000000000000000000000000604482015260640161050d565b60028210156152915782517ffffffffffffffffffffffffffffffffffffffffffffffffffffffffffffffffe01826151f0578360200151816001018151811061519057615190617eb1565b60200260200101516151c883866020015184815181106151b2576151b2617eb1565b602002602001015161677590919063ffffffff16565b02846020015182815181106151df576151df617eb1565b602002602001018181525050615265565b6001831415615265578360200151816001018151811061521257615212617eb1565b602002602001015161523483866020015184815181106151b2576151b2617eb1565b8161524157615241618035565b048460200151828151811061525857615258617eb1565b6020026020010181815250505b5082517fffffffffffffffffffffffffffffffffffffffffffffffffffffffffffffffff018352505050565b60058210156153a25782517fffffffffffffffffffffffffffffffffffffffffffffffffffffffffffffffff016002831415615308576152e182856020015183815181106151b2576151b2617eb1565b846020015182815181106152f7576152f7617eb1565b602002602001018181525050614b02565b6003831415615341576152e1828560200151838151811061532b5761532b617eb1565b60200260200101516167d790919063ffffffff16565b6004831415614b025761537a828560200151838151811061536457615364617eb1565b602002602001015161680890919063ffffffff16565b8460200151828151811061539057615390617eb1565b60200260200101818152505050505050565b60058214156153e457602083015183518151670de0b6b3a764000092919081106153ce576153ce617eb1565b6020908102919091010152505080516001019052565b6006821415614e6e57601283602001518460000151815181106150c3576150c3617eb1565b600b8210615473576040517f08c379a000000000000000000000000000000000000000000000000000000000815260206004820152600a60248201527f4d41585f4f50434f444500000000000000000000000000000000000000000000604482015260640161050d565b825160208401518051838303927fffffffffffffffffffffffffffffffffffffffffffffffffffffffffffffffff0191839160009190839081106154b9576154b9617eb1565b602002602001015190506000861415615511575b8282101561550c5760208701518051600190930192839081106154f2576154f2617eb1565b602002602001015181615505919061801d565b90506154cd565b615811565b6001861415615562575b8282101561550c57818060010192505061555b8760200151838151811061554457615544617eb1565b60200260200101518261684690919063ffffffff16565b905061551b565b60028614156155ab575b8282101561550c57602087015180516001909301928390811061559157615591617eb1565b6020026020010151816155a49190618006565b905061556c565b60038614156155fc575b8282101561550c5781806001019250506155f5876020015183815181106155de576155de617eb1565b60200260200101518261688190919063ffffffff16565b90506155b5565b6004861415615645575b8282101561550c57602087015180516001909301928390811061562b5761562b617eb1565b60200260200101518161563e91906185ab565b9050615606565b6005861415615696575b8282101561550c57818060010192505061568f8760200151838151811061567857615678617eb1565b60200260200101518261689790919063ffffffff16565b905061564f565b60068614156156df575b8282101561550c5760208701518051600190930192839081106156c5576156c5617eb1565b6020026020010151816156d89190618064565b90506156a0565b6007861415615728575b8282101561550c57602087015180516001909301928390811061570e5761570e617eb1565b6020026020010151816157219190618078565b90506156e9565b6008861415615771575b8282101561550c57602087015180516001909301928390811061575757615757617eb1565b60200260200101518161576a9190618708565b9050615732565b60098614156157c35760005b838310156157bd5760208801518051600190940193849081106157a2576157a2617eb1565b60200260200101519050818110156157b8578091505b61577d565b50615811565b600a8614156158115760005b8383101561580f5760208801518051600190940193849081106157f4576157f4617eb1565b602002602001015190508181111561580a578091505b6157cf565b505b808760200151858151811061582857615828617eb1565b60209081029190910101525050506001019092525050565b600782106158aa576040517f08c379a000000000000000000000000000000000000000000000000000000000815260206004820152600a60248201527f4d41585f4f50434f444500000000000000000000000000000000000000000000604482015260640161050d565b825160208085015181830201018380156158f35760018114615920576002811461598b57600381146159a557600481146159bf57600581146159d95760068114615a1157612296565b7fffffffffffffffffffffffffffffffffffffffffffffffffffffffffffffffe082018051159052612296565b7ffffffffffffffffffffffffffffffffffffffffffffffffffffffffffffffffe830186527fffffffffffffffffffffffffffffffffffffffffffffffffffffffffffffffa082018051801561597c5760208201518252615984565b604082015182525b5050612296565b600183038652604082036020810151815114815250612296565b600183038652604082036020810151815110815250612296565b600183038652604082036020810151815111815250612296565b8315615a0c576001840383038652602084028203805b83811015615984578051615a04575060008152825b6020016159ef565b612296565b8315612296576001840383038652602084028203805b83811015615a475780518015615a3e578491508083525b50602001615a27565b5050505050505050565b60068210615abb576040517f08c379a000000000000000000000000000000000000000000000000000000000815260206004820152600a60248201527f4d41585f4f50434f444500000000000000000000000000000000000000000000604482015260640161050d565b600082615be3575082517fffffffffffffffffffffffffffffffffffffffffffffffffffffffffffffffff81018452602084015180517ffffffffffffffffffffffffffffffffffffffffffffffffffffffffffffffffe9092019182908110615b2657615b26617eb1565b602002602001015173ffffffffffffffffffffffffffffffffffffffff1663e053ea3185602001518360010181518110615b6257615b62617eb1565b60200260200101516040518263ffffffff1660e01b8152600401615ba2919073ffffffffffffffffffffffffffffffffffffffff91909116815260200190565b602060405180830381865afa158015615bbf573d6000803e3d6000fd5b505050506040513d601f19601f820116820180604052508101906152e19190617f48565b6001831415615c3e577fffffffffffffffffffffffffffffffffffffffffffffffffffffffffffffffff8460200151856000015181518110615c2757615c27617eb1565b602090810291909101015283516001018452614b02565b6002831415615c635760008460200151856000015181518110615c2757615c27617eb1565b6003831415615d17575082517ffffffffffffffffffffffffffffffffffffffffffffffffffffffffffffffffe01808452602084015180516000919083908110615caf57615caf617eb1565b60200260200101519050600085602001518360010181518110615cd457615cd4617eb1565b60200260200101519050615ce882826168c6565b86602001518481518110615cfe57615cfe617eb1565b6020908102919091010152505083516001018452614b02565b6004831415615ddf575082517ffffffffffffffffffffffffffffffffffffffffffffffffffffffffffffffffe0180845260208401518051600f80851692600486901c909116916000919085908110615d7257615d72617eb1565b60200260200101519050600087602001518560010181518110615d9757615d97617eb1565b60200260200101519050615dad8285858461691d565b88602001518681518110615dc357615dc3617eb1565b602090810291909101015250508551600101865250614b029050565b6005831415614b02575082517fffffffffffffffffffffffffffffffffffffffffffffffffffffffffffffffff601f8316918290030180855290600783901c906003600585901c16908360008267ffffffffffffffff811115615e4457615e44616fa8565b604051908082528060200260200182016040528015615e6d578160200160208202803683370190505b50905060005b83811015615ec25789602001518381518110615e9157615e91617eb1565b6020026020010151828281518110615eab57615eab617eb1565b602090810291909101015260019283019201615e73565b50600089602001518381518110615edb57615edb617eb1565b60200260200101519050615ef1828288886169c3565b8a602001518881518110615f0757615f07617eb1565b60209081029190910101525050875160010188525050505050505050565b60028210615f8f576040517f08c379a000000000000000000000000000000000000000000000000000000000815260206004820152600a60248201527f4d41585f4f50434f444500000000000000000000000000000000000000000000604482015260640161050d565b816160e15782517fffffffffffffffffffffffffffffffffffffffffffffffffffffffffffffffff810184526020840151805190917ffffffffffffffffffffffffffffffffffffffffffffffffffffffffffffffffe01908110615ff557615ff5617eb1565b602002602001015173ffffffffffffffffffffffffffffffffffffffff166370a08231846020015185600001518151811061603257616032617eb1565b60200260200101516040518263ffffffff1660e01b8152600401616072919073ffffffffffffffffffffffffffffffffffffffff91909116815260200190565b602060405180830381865afa15801561608f573d6000803e3d6000fd5b505050506040513d601f19601f820116820180604052508101906160b39190617f48565b83602001516001856000015103815181106160d0576160d0617eb1565b602002602001018181525050505050565b6001821415614e6e57826020015160018460000151038151811061610757616107617eb1565b602002602001015173ffffffffffffffffffffffffffffffffffffffff166318160ddd6040518163ffffffff1660e01b8152600401602060405180830381865afa15801561608f573d6000803e3d6000fd5b600282106161c3576040517f08c379a000000000000000000000000000000000000000000000000000000000815260206004820152600a60248201527f4d41585f4f50434f444500000000000000000000000000000000000000000000604482015260640161050d565b82517fffffffffffffffffffffffffffffffffffffffffffffffffffffffffffffffff0183528161620b578260200151600184600001510381518110615ff557615ff5617eb1565b6001821415614e6e57826020015160018460000151038151811061623157616231617eb1565b602002602001015173ffffffffffffffffffffffffffffffffffffffff16636352211e846020015185600001518151811061626e5761626e617eb1565b60200260200101516040518263ffffffff1660e01b815260040161629491815260200190565b602060405180830381865afa1580156162b1573d6000803e3d6000fd5b505050506040513d601f19601f820116820180604052508101906162d59190618714565b73ffffffffffffffffffffffffffffffffffffffff1683602001516001856000015103815181106160d0576160d0617eb1565b60028210616372576040517f08c379a000000000000000000000000000000000000000000000000000000000815260206004820152600a60248201527f4d41585f4f50434f444500000000000000000000000000000000000000000000604482015260640161050d565b816164bd5782517ffffffffffffffffffffffffffffffffffffffffffffffffffffffffffffffffe81018452602084015180517ffffffffffffffffffffffffffffffffffffffffffffffffffffffffffffffffd90920191829081106163da576163da617eb1565b602002602001015173ffffffffffffffffffffffffffffffffffffffff1662fdd58e8560200151836001018151811061641557616415617eb1565b60200260200101518660200151846002018151811061643657616436617eb1565b60200260200101516040518363ffffffff1660e01b815260040161647c92919073ffffffffffffffffffffffffffffffffffffffff929092168252602082015260400190565b602060405180830381865afa158015616499573d6000803e3d6000fd5b505050506040513d601f19601f8201168201806040525081019061537a9190617f48565b6001821415614e6e576001810160008167ffffffffffffffff8111156164e5576164e5616fa8565b60405190808252806020026020018201604052801561650e578160200160208202803683370190505b50905060008267ffffffffffffffff81111561652c5761652c616fa8565b604051908082528060200260200182016040528015616555578160200160208202803683370190505b5086518490037fffffffffffffffffffffffffffffffffffffffffffffffffffffffffffffffff81810189526020890151805193945091869003019160009190839081106165a5576165a5617eb1565b6020026020010151905060005b8581101561665c578860200151818401600101815181106165d5576165d5617eb1565b60200260200101518582815181106165ef576165ef617eb1565b73ffffffffffffffffffffffffffffffffffffffff9092166020928302919091018201528901518051600185890184010190811061662f5761662f617eb1565b602002602001015184828151811061664957616649617eb1565b60209081029190910101526001016165b2565b506040517f4e1273f400000000000000000000000000000000000000000000000000000000815260009073ffffffffffffffffffffffffffffffffffffffff831690634e1273f4906166b49088908890600401618731565b600060405180830381865afa1580156166d1573d6000803e3d6000fd5b505050506040513d6000823e601f3d9081017fffffffffffffffffffffffffffffffffffffffffffffffffffffffffffffffe01682016040526167179190810190618744565b905060005b868110156167695781818151811061673657616736617eb1565b60200260200101518a602001518286018151811061675657616756617eb1565b602090810291909101015260010161671c565b50505050505050505050565b60008160121415616787575081610546565b81601211156167b75761679b826012618006565b6167a690600a618708565b6167b090846185ab565b9050610546565b6167c2601283618006565b6167cd90600a618708565b6167b09084618064565b600060128214156167e9575081610546565b81601211156167fd576167c2826012618006565b61679b601283618006565b600081810b616818575081610546565b60008260000b131561682f576167a682600a618779565b61683b82196001618788565b6167cd90600a618779565b6000828201838110616858578061334e565b7fffffffffffffffffffffffffffffffffffffffffffffffffffffffffffffffff949350505050565b6000818311616891576000612910565b50900390565b6000826168a657506000610546565b828202828482816168b9576168b9618035565b041415616858578061334e565b60008060015b60088111610fe75760006168e08683616b13565b905060006168ee8684616b13565b905060006168fc8383616881565b905061690c856001860383616bc0565b945050600190920191506168cc9050565b600082600881111561698b576040517f08c379a000000000000000000000000000000000000000000000000000000000815260206004820152600860248201527f4d41585f54494552000000000000000000000000000000000000000000000000604482015260640161050d565b6000855b858110156169b75763ffffffff6020820290811b199890981685891b1797915060010161698f565b50959695505050505050565b835160009081908190819060015b60088111616b0557600092508287616a0a57507fffffffffffffffffffffffffffffffffffffffffffffffffffffffffffffffff616a0e565b5060005b60005b83811015616ac357616a3c8c8281518110616a2e57616a2e617eb1565b602002602001015184616b13565b95508a8611616a8e5788616a5b57616a548683616c4a565b9150616a85565b6001891415616a6e57616a548683616c60565b600289148015616a7c575084155b15616a85578591505b60019450616abb565b89616abb577fffffffffffffffffffffffffffffffffffffffffffffffffffffffffffffffff9150616ac3565b600101616a11565b5083616aec57507fffffffffffffffffffffffffffffffffffffffffffffffffffffffffffffffff5b616afa866001840383616bc0565b9550506001016169d1565b509298975050505050505050565b6000816008811115616b81576040517f08c379a000000000000000000000000000000000000000000000000000000000815260206004820152600860248201527f4d41585f54494552000000000000000000000000000000000000000000000000604482015260640161050d565b82616b8f5760009150614782565b50507fffffffffffffffffffffffffffffffffffffffffffffffffffffffffffffffff016020021c63ffffffff1690565b6000826008811115616c2e576040517f08c379a000000000000000000000000000000000000000000000000000000000815260206004820152600860248201527f4d41585f54494552000000000000000000000000000000000000000000000000604482015260640161050d565b505060209190910290811b63ffffffff90911b19919091161790565b6000818310616c595781612910565b5090919050565b600081831015616c595781612910565b828054828255906000526020600020908101928215616cab579160200282015b82811115616cab578251825591602001919060010190616c90565b50616cb7929150616e01565b5090565b828054828255906000526020600020908101928215616d08579160200282015b82811115616d085782518051616cf8918491602090910190616d8e565b5091602001919060010190616cdb565b50616cb7929150616e16565b828054828255906000526020600020908101928215616cab579160200282015b82811115616cab57825182547fffffffffffffffffffffffff00000000000000000000000000000000000000001673ffffffffffffffffffffffffffffffffffffffff909116178255602090920191600190910190616d34565b828054616d9a90617a87565b90600052602060002090601f016020900481019282616dbc5760008555616cab565b82601f10616dd557805160ff1916838001178555616cab565b82800160010185558215616cab5791820182811115616cab578251825591602001919060010190616c90565b5b80821115616cb75760008155600101616e02565b80821115616cb7576000616e2a8282616e33565b50600101616e16565b508054616e3f90617a87565b6000825580601f10616e4f575050565b601f016020900490600052602060002090810190612f749190616e01565b73ffffffffffffffffffffffffffffffffffffffff81168114612f7457600080fd5b60008060408385031215616ea257600080fd5b8235616ead81616e6d565b946020939093013593505050565b7fffffffff0000000000000000000000000000000000000000000000000000000081168114612f7457600080fd5b600060208284031215616efb57600080fd5b813561291081616ebb565b600060208284031215616f1857600080fd5b5035919050565b60005b83811015616f3a578181015183820152602001616f22565b83811115614b025750506000910152565b60008151808452616f63816020860160208601616f1f565b601f017fffffffffffffffffffffffffffffffffffffffffffffffffffffffffffffffe0169290920160200192915050565b6020815260006129106020830184616f4b565b7f4e487b7100000000000000000000000000000000000000000000000000000000600052604160045260246000fd5b6080810181811067ffffffffffffffff82111715616ff757616ff7616fa8565b60405250565b7fffffffffffffffffffffffffffffffffffffffffffffffffffffffffffffffe0601f830116810181811067ffffffffffffffff8211171561704157617041616fa8565b6040525050565b60405160a0810167ffffffffffffffff8111828210171561706b5761706b616fa8565b60405290565b600067ffffffffffffffff82111561708b5761708b616fa8565b5060051b60200190565b600082601f8301126170a657600080fd5b813560206170b382617071565b6040516170c08282616ffd565b83815260059390931b85018201928281019150868411156170e057600080fd5b8286015b848110156170fb57803583529183019183016170e4565b509695505050505050565b600067ffffffffffffffff82111561712057617120616fa8565b50601f017fffffffffffffffffffffffffffffffffffffffffffffffffffffffffffffffe01660200190565b600082601f83011261715d57600080fd5b813561716881617106565b6040516171758282616ffd565b82815285602084870101111561718a57600080fd5b82602086016020830137600092810160200192909252509392505050565b600080600080600060a086880312156171c057600080fd5b85356171cb81616e6d565b945060208601356171db81616e6d565b9350604086013567ffffffffffffffff808211156171f857600080fd5b61720489838a01617095565b9450606088013591508082111561721a57600080fd5b61722689838a01617095565b9350608088013591508082111561723c57600080fd5b506172498882890161714c565b9150509295509295909350565b8015158114612f7457600080fd5b60006080828403121561727657600080fd5b60405161728281616fd7565b809150823567ffffffffffffffff8082111561729d57600080fd5b818501915085601f8301126172b157600080fd5b813560206172be82617071565b6040516172cb8282616ffd565b83815260059390931b85018201928281019150898411156172eb57600080fd5b8286015b84811015617323578035868111156173075760008081fd5b6173158c86838b010161714c565b8452509183019183016172ef565b508652508681013593508284111561733a57600080fd5b61734688858901617095565b818601525050505060408301356040820152606083013560608201525092915050565b600082601f83011261737a57600080fd5b8135602061738782617071565b6040516173948282616ffd565b83815260059390931b85018201928281019150868411156173b457600080fd5b8286015b848110156170fb5780356173cb81616e6d565b83529183019183016173b8565b803560ff8116811461397957600080fd5b60008060008060008060c0878903121561740257600080fd5b863561740d81617256565b9550602087013567ffffffffffffffff8082111561742a57600080fd5b6174368a838b01617264565b9650604089013591508082111561744c57600080fd5b6174588a838b01617264565b9550606089013591508082111561746e57600080fd5b5061747b89828a01617369565b93505061748a608088016173d8565b915061749860a088016173d8565b90509295509295509295565b6000602082840312156174b657600080fd5b813567ffffffffffffffff808211156174ce57600080fd5b90830190604082860312156174e257600080fd5b6040516040810181811083821117156174fd576174fd616fa8565b604052823561750b81616e6d565b815260208301358281111561751f57600080fd5b61752b8782860161714c565b60208301525095945050505050565b60006020828403121561754c57600080fd5b813561291081616e6d565b6000806040838503121561756a57600080fd5b823567ffffffffffffffff8082111561758257600080fd5b61758e86838701617369565b935060208501359150808211156175a457600080fd5b506175b185828601617095565b9150509250929050565b600081518084526020808501945080840160005b838110156175eb578151875295820195908201906001016175cf565b509495945050505050565b60208152600061291060208301846175bb565b60006020828403121561761b57600080fd5b813567ffffffffffffffff81111561763257600080fd5b61334e8482850161714c565b6000602080838503121561765157600080fd5b823567ffffffffffffffff8082111561766957600080fd5b818501915085601f83011261767d57600080fd5b813561768881617071565b6040516176958282616ffd565b82815260059290921b84018501918581019150888311156176b557600080fd5b8585015b838110156176ed578035858111156176d15760008081fd5b6176df8b89838a010161714c565b8452509186019186016176b9565b5098975050505050505050565b6000806040838503121561770d57600080fd5b50508035926020909101359150565b6000806040838503121561772f57600080fd5b823561773a81616e6d565b9150602083013561774a81617256565b809150509250929050565b60008060006060848603121561776a57600080fd5b83359250602084013561777c81616e6d565b929592945050506040919091013590565b80518252600060208083015160a0828601526177ac60a08601826175bb565b9050604084015185820360408701528181518084528484019150848160051b850101858401935060005b82811015617822577fffffffffffffffffffffffffffffffffffffffffffffffffffffffffffffffe0868303018452617810828651616f4b565b948701949387019391506001016177d6565b506060880151955088810360608a015261783c81876175bb565b955050505050506080830151848203608086015261785a82826175bb565b95945050505050565b7f4e487b7100000000000000000000000000000000000000000000000000000000600052602160045260246000fd5b600581106178c9577f4e487b7100000000000000000000000000000000000000000000000000000000600052602160045260246000fd5b9052565b871515815286602082015260e0604082015260006178ee60e083018861778d565b8281036060840152617900818861778d565b91505084608083015261791660a0830185617892565b73ffffffffffffffffffffffffffffffffffffffff831660c083015298975050505050505050565b600081518084526020808501945080840160005b838110156175eb57815173ffffffffffffffffffffffffffffffffffffffff1687529582019590820190600101617952565b602081526000612910602083018461793e565b600080604083850312156179aa57600080fd5b82356179b581616e6d565b9150602083013561774a81616e6d565b600080600080600060a086880312156179dd57600080fd5b85356179e881616e6d565b945060208601356179f881616e6d565b93506040860135925060608601359150608086013567ffffffffffffffff811115617a2257600080fd5b6172498882890161714c565b600080600060608486031215617a4357600080fd5b833592506020840135617a5581617256565b9150604084013567ffffffffffffffff811115617a7157600080fd5b617a7d86828701617264565b9150509250925092565b600181811c90821680617a9b57607f821691505b602082108114156145f4577f4e487b7100000000000000000000000000000000000000000000000000000000600052602260045260246000fd5b6000808454617ae381617a87565b60018281168015617afb5760018114617b2a57617b59565b7fffffffffffffffffffffffffffffffffffffffffffffffffffffffffffffff00841687528287019450617b59565b8860005260208060002060005b85811015617b505781548a820152908401908201617b37565b50505082870194505b507f2f00000000000000000000000000000000000000000000000000000000000000845286519250617b918382860160208a01616f1f565b7f2e6a736f6e000000000000000000000000000000000000000000000000000000939092019182019290925260060195945050505050565b6000815480845260208085019450836000528060002060005b838110156175eb57815487529582019560019182019101617be2565b8054825260006001602060a081860152617c1d60a08601838601617bc9565b600285016040878303818901528282548085528585019150858160051b86010160008581528781209550805b83811015617d11577fffffffffffffffffffffffffffffffffffffffffffffffffffffffffffffffe0888403018552818754617c8481617a87565b808652818d168015617c9d5760018114617cce57617cfd565b7fffffffffffffffffffffffffffffffffffffffffffffffffffffffffffffff0083168d8801528987019350617cfd565b8a86528c8620865b83811015617cf55781548f828b0101528f820191508e81019050617cd6565b88018e019450505b505050968a01969489019492508901617c49565b50508a810360608c0152617d288160038c01617bc9565b975050505050505050838103608085015261334e8160048501617bc9565b6000815480845260208085019450836000528060002060005b838110156175eb57815473ffffffffffffffffffffffffffffffffffffffff1687529582019560019182019101617d5f565b82815260406020820152617db360408201617dad845460ff1690565b15159052565b600182015460608201526000610100806080840152617dd9610140840160028601617bfe565b7fffffffffffffffffffffffffffffffffffffffffffffffffffffffffffffffc0808583030160a0860152617e118260078801617bfe565b9150808583030160c086015250617e2b81600c8701617d46565b9050600d85015460e0850152600e850154617e4b83860160ff8316617892565b600881901c73ffffffffffffffffffffffffffffffffffffffff166101208601525095945050505050565b6020815273ffffffffffffffffffffffffffffffffffffffff82511660208201526000602083015160408084015261334e6060840182616f4b565b7f4e487b7100000000000000000000000000000000000000000000000000000000600052603260045260246000fd5b7f4e487b7100000000000000000000000000000000000000000000000000000000600052601160045260246000fd5b60007fffffffffffffffffffffffffffffffffffffffffffffffffffffffffffffffff821415617f4157617f41617ee0565b5060010190565b600060208284031215617f5a57600080fd5b5051919050565b600060208284031215617f7357600080fd5b815161291081617256565b600060408201848352602060408185015281855180845260608601915060608160051b870101935082870160005b82811015617ff8577fffffffffffffffffffffffffffffffffffffffffffffffffffffffffffffffa0888703018452617fe6868351616f4b565b95509284019290840190600101617fac565b509398975050505050505050565b60008282101561801857618018617ee0565b500390565b6000821982111561803057618030617ee0565b500190565b7f4e487b7100000000000000000000000000000000000000000000000000000000600052601260045260246000fd5b60008261807357618073618035565b500490565b60008261808757618087618035565b500690565b60408152600061809f60408301856175bb565b828103602084015261785a81856175bb565b602081526000612910602083018461778d565b600073ffffffffffffffffffffffffffffffffffffffff80861683528085166020840152506060604083015261785a606083018461778d565b600082601f83011261810e57600080fd5b8151602061811b82617071565b6040516181288282616ffd565b83815260059390931b850182019282810191508684111561814857600080fd5b8286015b848110156170fb578051835291830191830161814c565b600082601f83011261817457600080fd5b8151602061818182617071565b6040805161818f8382616ffd565b84815260059490941b86018301938381019250878511156181af57600080fd5b8387015b8581101561823457805167ffffffffffffffff8111156181d35760008081fd5b8801603f81018a136181e55760008081fd5b858101516181f281617106565b85516181fe8282616ffd565b8281528c8784860101111561821557600091508182fd5b618224838a8301898701616f1f565b87525050509284019284016181b3565b50979650505050505050565b60006020828403121561825257600080fd5b815167ffffffffffffffff8082111561826a57600080fd5b9083019060a0828603121561827e57600080fd5b618286617048565b8251815260208301518281111561829c57600080fd5b6182a8878286016180fd565b6020830152506040830151828111156182c057600080fd5b6182cc87828601618163565b6040830152506060830151828111156182e457600080fd5b6182f0878286016180fd565b60608301525060808301518281111561830857600080fd5b618314878286016180fd565b60808301525095945050505050565b600073ffffffffffffffffffffffffffffffffffffffff808816835280871660208401525060a0604083015261835c60a08301866175bb565b828103606084015261836e81866175bb565b905082810360808401526183828185616f4b565b98975050505050505050565b6000602082840312156183a057600080fd5b815161291081616ebb565b600060033d11156183c45760046000803e5060005160e01c5b90565b600060443d10156183d55790565b6040517ffffffffffffffffffffffffffffffffffffffffffffffffffffffffffffffffc803d016004833e81513d67ffffffffffffffff816024840111818411171561842357505050505090565b828501915081518181111561843b5750505050505090565b843d87010160208285010111156184555750505050505090565b61846460208286010187616ffd565b509095945050505050565b6000815260008251618488816001850160208701616f1f565b9190910160010192915050565b7f4e487b7100000000000000000000000000000000000000000000000000000000600052603160045260246000fd5b600073ffffffffffffffffffffffffffffffffffffffff808816835280871660208401525084604083015283606083015260a0608083015261850960a0830184616f4b565b979650505050505050565b7f630000000000000000000000000000000000000000000000000000000000000081527fffffffff000000000000000000000000000000000000000000000000000000008360e01b1660018201527f80600e6000396000f3000000000000000000000000000000000000000000000060058201526000825161859d81600e850160208701616f1f565b91909101600e019392505050565b6000817fffffffffffffffffffffffffffffffffffffffffffffffffffffffffffffffff04831182151516156185e3576185e3617ee0565b500290565b600181815b8085111561864157817fffffffffffffffffffffffffffffffffffffffffffffffffffffffffffffffff0482111561862757618627617ee0565b8085161561863457918102915b93841c93908002906185ed565b509250929050565b60008261865857506001610546565b8161866557506000610546565b816001811461867b5760028114618685576186a1565b6001915050610546565b60ff84111561869657618696617ee0565b50506001821b610546565b5060208310610133831016604e8410600b84101617156186c4575081810a610546565b6186ce83836185e8565b807fffffffffffffffffffffffffffffffffffffffffffffffffffffffffffffffff0482111561870057618700617ee0565b029392505050565b60006129108383618649565b60006020828403121561872657600080fd5b815161291081616e6d565b60408152600061809f604083018561793e565b60006020828403121561875657600080fd5b815167ffffffffffffffff81111561876d57600080fd5b61334e848285016180fd565b600061291060ff841683618649565b600060ff821660ff84168060ff038211156187a5576187a5617ee0565b01939250505056fea264697066735822122025442973edefc1b8e0d30a7967542921775b8d8594ce1131df0c292b5669b86664736f6c634300080a0033",
  "linkReferences": {},
  "deployedLinkReferences": {}
}