{
  "_format": "hh-sol-artifact-1",
  "contractName": "AccessoriesFactory",
  "sourceName": "contracts/AccessoriesFactory.sol",
  "abi": [
    {
      "inputs": [],
      "stateMutability": "nonpayable",
      "type": "constructor"
    },
    {
      "anonymous": false,
      "inputs": [
        {
          "indexed": false,
          "internalType": "address",
          "name": "sender",
          "type": "address"
        },
        {
          "indexed": false,
          "internalType": "address",
          "name": "implementation",
          "type": "address"
        }
      ],
      "name": "Implementation",
      "type": "event"
    },
    {
      "anonymous": false,
      "inputs": [
        {
          "indexed": false,
          "internalType": "address",
          "name": "sender",
          "type": "address"
        },
        {
          "indexed": false,
          "internalType": "address",
          "name": "child",
          "type": "address"
        }
      ],
      "name": "NewChild",
      "type": "event"
    },
    {
      "inputs": [
        {
          "internalType": "bytes",
          "name": "data_",
          "type": "bytes"
        }
      ],
      "name": "createChild",
      "outputs": [
        {
          "internalType": "address",
          "name": "",
          "type": "address"
        }
      ],
      "stateMutability": "nonpayable",
      "type": "function"
    },
    {
      "inputs": [
        {
          "components": [
            {
              "internalType": "address",
              "name": "_accessoriesCreator",
              "type": "address"
            },
            {
              "internalType": "string",
              "name": "_baseURI",
              "type": "string"
            }
          ],
          "internalType": "struct AccessoriesConfig",
          "name": "config_",
          "type": "tuple"
        }
      ],
      "name": "createChildTyped",
      "outputs": [
        {
          "internalType": "contract Accessories",
          "name": "",
          "type": "address"
        }
      ],
      "stateMutability": "nonpayable",
      "type": "function"
    },
    {
      "inputs": [
        {
          "internalType": "address",
          "name": "maybeChild_",
          "type": "address"
        }
      ],
      "name": "isChild",
      "outputs": [
        {
          "internalType": "bool",
          "name": "",
          "type": "bool"
        }
      ],
      "stateMutability": "view",
      "type": "function"
    }
  ],
  "bytecode": "0x60a060405234801561001057600080fd5b506001600090815560405161002490610096565b604051809103906000f080158015610040573d6000803e3d6000fd5b50604080513381526001600160a01b03831660208201529192507f7fac34ecf0b1b374cd9659e3d17db602659d53f1162b1f20142e6c02694aed70910160405180910390a16001600160a01b03166080526100a3565b6191c380610a1a83390190565b60805161095c6100be6000396000610348015261095c6000f3fe608060405234801561001057600080fd5b50600436106100415760003560e01c80632ea72a49146100465780634d909b2514610083578063fc91a89714610096575b600080fd5b6100596100543660046104de565b6100df565b60405173ffffffffffffffffffffffffffffffffffffffff90911681526020015b60405180910390f35b610059610091366004610550565b61028d565b6100cf6100a43660046105b7565b73ffffffffffffffffffffffffffffffffffffffff1660009081526001602052604090205460ff1690565b604051901515815260200161007a565b600060026000541415610153576040517f08c379a000000000000000000000000000000000000000000000000000000000815260206004820152601f60248201527f5265656e7472616e637947756172643a207265656e7472616e742063616c6c0060448201526064015b60405180910390fd5b600260009081556101648484610330565b73ffffffffffffffffffffffffffffffffffffffff811660009081526001602052604090205490915060ff16156101f7576040517f08c379a000000000000000000000000000000000000000000000000000000000815260206004820152600f60248201527f4455504c49434154455f4348494c440000000000000000000000000000000000604482015260640161014a565b73ffffffffffffffffffffffffffffffffffffffff811660008181526001602081815260409283902080547fffffffffffffffffffffffffffffffffffffffffffffffffffffffffffffff00169092179091558151338152908101929092527f7da70c4e5387d7038610b79ca7d304caaef815826e51e67cf247135387a79bce910160405180910390a160016000559392505050565b60003073ffffffffffffffffffffffffffffffffffffffff16632ea72a49836040516020016102bc91906105d4565b6040516020818303038152906040526040518263ffffffff1660e01b81526004016102e7919061071e565b6020604051808303816000875af1158015610306573d6000803e3d6000fd5b505050506040513d601f19601f8201168201806040525081019061032a9190610731565b92915050565b60008061033f838501856107f5565b9050600061036c7f00000000000000000000000000000000000000000000000000000000000000006103fc565b6040517f3744dd8300000000000000000000000000000000000000000000000000000000815290915073ffffffffffffffffffffffffffffffffffffffff821690633744dd83906103c19085906004016108e3565b600060405180830381600087803b1580156103db57600080fd5b505af11580156103ef573d6000803e3d6000fd5b5092979650505050505050565b60006040517f3d602d80600a3d3981f3363d3d373d3d3d363d7300000000000000000000000081528260601b60148201527f5af43d82803e903d91602b57fd5bf3000000000000000000000000000000000060288201526037816000f091505073ffffffffffffffffffffffffffffffffffffffff81166104d9576040517f08c379a000000000000000000000000000000000000000000000000000000000815260206004820152601660248201527f455243313136373a20637265617465206661696c656400000000000000000000604482015260640161014a565b919050565b600080602083850312156104f157600080fd5b823567ffffffffffffffff8082111561050957600080fd5b818501915085601f83011261051d57600080fd5b81358181111561052c57600080fd5b86602082850101111561053e57600080fd5b60209290920196919550909350505050565b60006020828403121561056257600080fd5b813567ffffffffffffffff81111561057957600080fd5b82016040818503121561058b57600080fd5b9392505050565b73ffffffffffffffffffffffffffffffffffffffff811681146105b457600080fd5b50565b6000602082840312156105c957600080fd5b813561058b81610592565b60208152600082356105e581610592565b73ffffffffffffffffffffffffffffffffffffffff811660208401525060208301357fffffffffffffffffffffffffffffffffffffffffffffffffffffffffffffffe184360301811261063757600080fd5b8301803567ffffffffffffffff81111561065057600080fd5b80360385131561065f57600080fd5b6040808501528060608501528060208301608086013760006080828601015260807fffffffffffffffffffffffffffffffffffffffffffffffffffffffffffffffe0601f8301168501019250505092915050565b6000815180845260005b818110156106d9576020818501810151868301820152016106bd565b818111156106eb576000602083870101525b50601f017fffffffffffffffffffffffffffffffffffffffffffffffffffffffffffffffe0169290920160200192915050565b60208152600061058b60208301846106b3565b60006020828403121561074357600080fd5b815161058b81610592565b7f4e487b7100000000000000000000000000000000000000000000000000000000600052604160045260246000fd5b6040805190810167ffffffffffffffff811182821017156107a0576107a061074e565b60405290565b604051601f82017fffffffffffffffffffffffffffffffffffffffffffffffffffffffffffffffe016810167ffffffffffffffff811182821017156107ed576107ed61074e565b604052919050565b6000602080838503121561080857600080fd5b823567ffffffffffffffff8082111561082057600080fd5b908401906040828703121561083457600080fd5b61083c61077d565b823561084781610592565b8152828401358281111561085a57600080fd5b80840193505086601f84011261086f57600080fd5b8235828111156108815761088161074e565b6108b1857fffffffffffffffffffffffffffffffffffffffffffffffffffffffffffffffe0601f840116016107a6565b925080835287858286010111156108c757600080fd5b8085850186850137600090830185015292830152509392505050565b6020815273ffffffffffffffffffffffffffffffffffffffff82511660208201526000602083015160408084015261091e60608401826106b3565b94935050505056fea2646970667358221220c5c4c94a3bf031431f35102e9c8da89a5e4884c7df198f88ebd5e386311b30e564736f6c634300080a003360a06040526002808060066007600b6200001b8260046200014e565b6200002791906200014e565b6200003391906200014e565b6200003f91906200014e565b6200004b91906200014e565b6200005791906200014e565b6200006391906200014e565b620000709060056200014e565b608052604080516020810191829052600090819052620000939160d891620000a8565b50348015620000a157600080fd5b50620001b2565b828054620000b69062000175565b90600052602060002090601f016020900481019282620000da576000855562000125565b82601f10620000f557805160ff191683800117855562000125565b8280016001018555821562000125579182015b828111156200012557825182559160200191906001019062000108565b506200013392915062000137565b5090565b5b8082111562000133576000815560010162000138565b600082198211156200017057634e487b7160e01b600052601160045260246000fd5b500190565b600181811c908216806200018a57607f821691505b60208210811415620001ac57634e487b7160e01b600052602260045260246000fd5b50919050565b608051618fee620001d5600039600081816150db01526151160152618fee6000f3fe608060405234801561001057600080fd5b50600436106101d95760003560e01c80638da5cb5b11610104578063bfb231d2116100a2578063f23a6e6111610071578063f23a6e61146104b8578063f242432a146104f0578063f2fde38b14610503578063ff1b636d1461051657600080fd5b8063bfb231d214610421578063ddaa6ade14610447578063e6adc1ee1461045a578063e985e9c51461046f57600080fd5b8063b9408225116100de578063b94082251461037f578063bc197c8114610392578063bcef0510146103fb578063bd5dec981461040e57600080fd5b80638da5cb5b1461031a5780639979c00914610359578063a22cb4651461036c57600080fd5b80633b9dce051161017c578063704b6c021161014b578063704b6c02146102d9578063715018a6146102ec57806374f03fd9146102f45780638a0eaade1461030757600080fd5b80633b9dce051461028d5780634e1273f4146102a057806355f804b3146102b35780635e85227a146102c657600080fd5b80630e89341c116101b85780630e89341c1461023c5780632799276d1461025c5780632eb2c2d6146102655780633744dd831461027a57600080fd5b8062fdd58e146101de5780630193a9551461020457806301ffc9a714610219575b600080fd5b6101f16101ec3660046175f7565b610536565b6040519081526020015b60405180910390f35b61020c610618565b6040516101fb919061765e565b61022c61022736600461769f565b610629565b60405190151581526020016101fb565b61024f61024a3660046176bc565b61068e565b6040516101fb919061774b565b6101f160c95481565b61027861027336600461795e565b610752565b005b610278610288366004617a0c565b61081b565b61027861029b366004617aa2565b6109a6565b61020c6102ae366004617b2e565b610b23565b6102786102c1366004617b92565b610c7b565b6102786102d4366004617bc7565b610d3f565b6102786102e7366004617aa2565b610d9a565b610278610f31565b610278610302366004617d99565b610fbe565b610278610315366004617aa2565b611339565b60975473ffffffffffffffffffffffffffffffffffffffff165b60405173ffffffffffffffffffffffffffffffffffffffff90911681526020016101fb565b610278610367366004617e4b565b61140c565b61027861037a366004617e7b565b61224f565b61020c61038d366004617eb4565b61225a565b6103ca6103a036600461795e565b7fbc197c810000000000000000000000000000000000000000000000000000000095945050505050565b6040517fffffffff0000000000000000000000000000000000000000000000000000000090911681526020016101fb565b610278610409366004617b2e565b61290e565b61027861041c366004617eec565b612b8f565b61043461042f3660046176bc565b612dc3565b6040516101fb9796959493929190618055565b6102786104553660046180c4565b61320a565b6104626133fb565b6040516101fb919061815a565b61022c61047d36600461816d565b73ffffffffffffffffffffffffffffffffffffffff918216600090815260666020908152604080832093909416825291909152205460ff1690565b6103ca6104c636600461819b565b7ff23a6e610000000000000000000000000000000000000000000000000000000095945050505050565b6102786104fe36600461819b565b613407565b610278610511366004617aa2565b6134c9565b60d6546103349073ffffffffffffffffffffffffffffffffffffffff1681565b600073ffffffffffffffffffffffffffffffffffffffff83166105e0576040517f08c379a000000000000000000000000000000000000000000000000000000000815260206004820152602b60248201527f455243313135353a2062616c616e636520717565727920666f7220746865207a60448201527f65726f206164647265737300000000000000000000000000000000000000000060648201526084015b60405180910390fd5b50600081815260656020908152604080832073ffffffffffffffffffffffffffffffffffffffff861684529091529020545b92915050565b606061062460d26135f9565b905090565b60007fffffffff0000000000000000000000000000000000000000000000000000000082167f01ffc9a700000000000000000000000000000000000000000000000000000000148061067f575061067f82613606565b806106125750610612826136e9565b606060008211610720576040517f08c379a000000000000000000000000000000000000000000000000000000000815260206004820152602160248201527f4163636573736f726965733a7572693a20496e76616c696420546f6b656e496460448201527f2e0000000000000000000000000000000000000000000000000000000000000060648201526084016105d7565b60d861072b83613780565b60405160200161073c929190618252565b6040516020818303038152906040529050919050565b73ffffffffffffffffffffffffffffffffffffffff851633148061077b575061077b853361047d565b610807576040517f08c379a000000000000000000000000000000000000000000000000000000000815260206004820152603260248201527f455243313135353a207472616e736665722063616c6c6572206973206e6f742060448201527f6f776e6572206e6f7220617070726f766564000000000000000000000000000060648201526084016105d7565b61081485858585856138ba565b5050505050565b600054610100900460ff166108365760005460ff161561083a565b303b155b6108c6576040517f08c379a000000000000000000000000000000000000000000000000000000000815260206004820152602e60248201527f496e697469616c697a61626c653a20636f6e747261637420697320616c72656160448201527f647920696e697469616c697a656400000000000000000000000000000000000060648201526084016105d7565b600054610100900460ff1615801561090557600080547fffffffffffffffffffffffffffffffffffffffffffffffffffffffffffff0000166101011790555b602080830151805161091b9260d89201906173d8565b506109298260200151613bef565b610931613c8f565b815161093c906134c9565b7f2bf9425e0baa8fedeb3c184d73be1248daf76733362d08b840b48ff7db574d1b8260405161096b9190618346565b60405180910390a180156109a257600080547fffffffffffffffffffffffffffffffffffffffffffffffffffffffffffff00ff1690555b5050565b60975473ffffffffffffffffffffffffffffffffffffffff163314610a27576040517f08c379a000000000000000000000000000000000000000000000000000000000815260206004820181905260248201527f4f776e61626c653a2063616c6c6572206973206e6f7420746865206f776e657260448201526064016105d7565b73ffffffffffffffffffffffffffffffffffffffff8116610aca576040517f08c379a000000000000000000000000000000000000000000000000000000000815260206004820152603160248201527f4163636573736f726965733a3a61646443726561746f723a20496e76616c696460448201527f2043726561746f7220616464726573732e00000000000000000000000000000060648201526084016105d7565b610ad560d482613d2e565b5060405173ffffffffffffffffffffffffffffffffffffffff821681527f021a687fbe334e9e815cee8b399c0bc42e82356eb7f63a09ddb558a25d3dcdbd906020015b60405180910390a150565b60608151835114610bb6576040517f08c379a000000000000000000000000000000000000000000000000000000000815260206004820152602960248201527f455243313135353a206163636f756e747320616e6420696473206c656e67746860448201527f206d69736d61746368000000000000000000000000000000000000000000000060648201526084016105d7565b6000835167ffffffffffffffff811115610bd257610bd261775e565b604051908082528060200260200182016040528015610bfb578160200160208202803683370190505b50905060005b8451811015610c7357610c46858281518110610c1f57610c1f618381565b6020026020010151858381518110610c3957610c39618381565b6020026020010151610536565b828281518110610c5857610c58618381565b6020908102919091010152610c6c816183df565b9050610c01565b509392505050565b60975473ffffffffffffffffffffffffffffffffffffffff163314610cfc576040517f08c379a000000000000000000000000000000000000000000000000000000000815260206004820181905260248201527f4f776e61626c653a2063616c6c6572206973206e6f7420746865206f776e657260448201526064016105d7565b8051610d0f9060d89060208401906173d8565b507f5411e8ebf1636d9e83d5fc4900bf80cbac82e8790da2a4c94db4895e889eedf681604051610b18919061774b565b610d5f610d576001610d5160d2613d50565b90613d5a565b60d290613d66565b507f906ab284bcbbf1ae4d7c1b0c141d1de233a2eadbe5784bbad20bea83a6485af8610d8b60d2613d50565b82604051610b18929190618418565b60975473ffffffffffffffffffffffffffffffffffffffff163314610e1b576040517f08c379a000000000000000000000000000000000000000000000000000000000815260206004820181905260248201527f4f776e61626c653a2063616c6c6572206973206e6f7420746865206f776e657260448201526064016105d7565b73ffffffffffffffffffffffffffffffffffffffff8116610ebe576040517f08c379a000000000000000000000000000000000000000000000000000000000815260206004820152603160248201527f4163636573736f726965733a3a61646443726561746f723a20496e76616c696460448201527f2043726561746f7220616464726573732e00000000000000000000000000000060648201526084016105d7565b60d680547fffffffffffffffffffffffff00000000000000000000000000000000000000001673ffffffffffffffffffffffffffffffffffffffff83169081179091556040519081527f7ce7ec0b50378fb6c0186ffb5f48325f6593fcb4ca4386f21861af3129188f5c90602001610b18565b60975473ffffffffffffffffffffffffffffffffffffffff163314610fb2576040517f08c379a000000000000000000000000000000000000000000000000000000000815260206004820181905260248201527f4f776e61626c653a2063616c6c6572206973206e6f7420746865206f776e657260448201526064016105d7565b610fbc6000613d72565b565b610fc960d433613de9565b611055576040517f08c379a000000000000000000000000000000000000000000000000000000000815260206004820152603360248201527f4163636573736f726965733a6e65774974656d3a204f6e6c792043726561746f60448201527f72732063616e20637265617465206974656d730000000000000000000000000060648201526084016105d7565b60c954611063906001613d5a565b60c98190555060405180610100016040528087815260200160c954815260200161109c61109761109289613e18565b613f74565b613fe2565b81526020016110b061109761109288613e18565b81526020018481526020016110c78460ff16614030565b81526020016110d5836140d3565b60048111156110e6576110e6617feb565b81526020013373ffffffffffffffffffffffffffffffffffffffff16905260c954600090815260d7602090815260409182902083518155838201516001820155918301518051600284019081558183015180519293919261114d926003870192019061745c565b5060408201518051611169916002840191602090910190617496565b506060820151805161118591600384019160209091019061745c565b50608082015180516111a191600484019160209091019061745c565b505050606082015180516007830190815560208083015180516111ca926008870192019061745c565b50604082015180516111e6916002840191602090910190617496565b506060820151805161120291600384019160209091019061745c565b506080820151805161121e91600484019160209091019061745c565b5050506080820151805161123c91600c8401916020909101906174ef565b5060a0820151600d82015560c0820151600e820180547fffffffffffffffffffffffffffffffffffffffffffffffffffffffffffffff0016600183600481111561128857611288617feb565b021790555060e09190910151600e909101805473ffffffffffffffffffffffffffffffffffffffff909216610100027fffffffffffffffffffffff0000000000000000000000000000000000000000ff90921691909117905560c954600081815260d760205260409081902090517f7a3bc17c2e658d0c82f03d70bff6bf21f5e14904110c781f3f1f85e53f64aae79261132992909187908a908a90618753565b60405180910390a1505050505050565b60975473ffffffffffffffffffffffffffffffffffffffff1633146113ba576040517f08c379a000000000000000000000000000000000000000000000000000000000815260206004820181905260248201527f4f776e61626c653a2063616c6c6572206973206e6f7420746865206f776e657260448201526064016105d7565b6113c560d4826141bd565b5060405173ffffffffffffffffffffffffffffffffffffffff821681527f94a409f50d78dc8628b7499ba5af0848a134b9a935a59c0a45313b67f66920f890602001610b18565b600082815260d76020908152604080832081516101008101835281548152600182015481850152825160a081018452600283018054825260038401805486518189028101890188528181528b999895978801958581019391929083018282801561149557602002820191906000526020600020905b815481526020019060010190808311611481575b5050505050815260200160028201805480602002602001604051908101604052809291908181526020016000905b8282101561156f5783829060005260206000200180546114e290618204565b80601f016020809104026020016040519081016040528092919081815260200182805461150e90618204565b801561155b5780601f106115305761010080835404028352916020019161155b565b820191906000526020600020905b81548152906001019060200180831161153e57829003601f168201915b5050505050815260200190600101906114c3565b505050508152602001600382018054806020026020016040519081016040528092919081815260200182805480156115c657602002820191906000526020600020905b8154815260200190600101908083116115b2575b505050505081526020016004820180548060200260200160405190810160405280929190818152602001828054801561161e57602002820191906000526020600020905b81548152602001906001019080831161160a575b5050505050815250508152602001600782016040518060a0016040529081600082015481526020016001820180548060200260200160405190810160405280929190818152602001828054801561169457602002820191906000526020600020905b815481526020019060010190808311611680575b5050505050815260200160028201805480602002602001604051908101604052809291908181526020016000905b8282101561176e5783829060005260206000200180546116e190618204565b80601f016020809104026020016040519081016040528092919081815260200182805461170d90618204565b801561175a5780601f1061172f5761010080835404028352916020019161175a565b820191906000526020600020905b81548152906001019060200180831161173d57829003601f168201915b5050505050815260200190600101906116c2565b505050508152602001600382018054806020026020016040519081016040528092919081815260200182805480156117c557602002820191906000526020600020905b8154815260200190600101908083116117b1575b505050505081526020016004820180548060200260200160405190810160405280929190818152602001828054801561181d57602002820191906000526020600020905b815481526020019060010190808311611809575b5050505050815250508152602001600c820180548060200260200160405190810160405280929190818152602001828054801561189057602002820191906000526020600020905b815473ffffffffffffffffffffffffffffffffffffffff168152600190910190602001808311611865575b5050509183525050600d8201546020820152600e82015460409091019060ff1660048111156118c1576118c1617feb565b60048111156118d2576118d2617feb565b8152600e9190910154610100900473ffffffffffffffffffffffffffffffffffffffff16602091820152606082015160408051928301905260008083529293509161191f919083906141df565b60208101518151611932906001906187b2565b8151811061194257611942618381565b60200260200101516001146119ff576040517f08c379a000000000000000000000000000000000000000000000000000000000815260206004820152604360248201527f4163636573736f726965733a3a63616e4d696e743a204164647265737320646f60448201527f6573206e6f74207361746973667920746865206d696e7420436f6e646974696f60648201527f6e732e0000000000000000000000000000000000000000000000000000000000608482015260a4016105d7565b60c954851115611a91576040517f08c379a000000000000000000000000000000000000000000000000000000000815260206004820152602560248201527f4163636573736f726965733a3a6275794974656d3a20496e76616c696420497460448201527f656d49642e00000000000000000000000000000000000000000000000000000060648201526084016105d7565b600085815260d76020908152604080832081516101008101835281548152600182015481850152825160a08101845260028301805482526003840180548651818902810189018852818152949795968801959394929385810193929190830182828015611b1d57602002820191906000526020600020905b815481526020019060010190808311611b09575b5050505050815260200160028201805480602002602001604051908101604052809291908181526020016000905b82821015611bf7578382906000526020600020018054611b6a90618204565b80601f0160208091040260200160405190810160405280929190818152602001828054611b9690618204565b8015611be35780601f10611bb857610100808354040283529160200191611be3565b820191906000526020600020905b815481529060010190602001808311611bc657829003601f168201915b505050505081526020019060010190611b4b565b50505050815260200160038201805480602002602001604051908101604052809291908181526020018280548015611c4e57602002820191906000526020600020905b815481526020019060010190808311611c3a575b5050505050815260200160048201805480602002602001604051908101604052809291908181526020018280548015611ca657602002820191906000526020600020905b815481526020019060010190808311611c92575b5050505050815250508152602001600782016040518060a00160405290816000820154815260200160018201805480602002602001604051908101604052809291908181526020018280548015611d1c57602002820191906000526020600020905b815481526020019060010190808311611d08575b5050505050815260200160028201805480602002602001604051908101604052809291908181526020016000905b82821015611df6578382906000526020600020018054611d6990618204565b80601f0160208091040260200160405190810160405280929190818152602001828054611d9590618204565b8015611de25780601f10611db757610100808354040283529160200191611de2565b820191906000526020600020905b815481529060010190602001808311611dc557829003601f168201915b505050505081526020019060010190611d4a565b50505050815260200160038201805480602002602001604051908101604052809291908181526020018280548015611e4d57602002820191906000526020600020905b815481526020019060010190808311611e39575b5050505050815260200160048201805480602002602001604051908101604052809291908181526020018280548015611ea557602002820191906000526020600020905b815481526020019060010190808311611e91575b5050505050815250508152602001600c8201805480602002602001604051908101604052809291908181526020018280548015611f1857602002820191906000526020600020905b815473ffffffffffffffffffffffffffffffffffffffff168152600190910190602001808311611eed575b5050509183525050600d8201546020820152600e82015460409091019060ff166004811115611f4957611f49617feb565b6004811115611f5a57611f5a617feb565b8152600e9190910154610100900473ffffffffffffffffffffffffffffffffffffffff16602090910152905060005b81608001515181101561222b576000611fc08884608001518481518110611fb257611fb2618381565b60200260200101518961225a565b9050600081600081518110611fd757611fd7618381565b602002602001015114156120e15782608001518281518110611ffb57611ffb618381565b602002602001015173ffffffffffffffffffffffffffffffffffffffff166323b872dd33308460018151811061203357612033618381565b60209081029190910101516040517fffffffff0000000000000000000000000000000000000000000000000000000060e086901b16815273ffffffffffffffffffffffffffffffffffffffff938416600482015292909116602483015260448201526064016020604051808303816000875af11580156120b7573d6000803e3d6000fd5b505050506040513d601f19601f820116820180604052508101906120db91906187c9565b50612218565b6001816000815181106120f6576120f6618381565b60200260200101511415612218578260800151828151811061211a5761211a618381565b602002602001015173ffffffffffffffffffffffffffffffffffffffff1663f242432a33308460018151811061215257612152618381565b60200260200101518560028151811061216d5761216d618381565b60209081029190910101516040517fffffffff0000000000000000000000000000000000000000000000000000000060e087901b16815273ffffffffffffffffffffffffffffffffffffffff94851660048201529390921660248401526044830152606482015260a06084820152600060a482015260c401600060405180830381600087803b1580156121ff57600080fd5b505af1158015612213573d6000803e3d6000fd5b505050505b506122248160016187e6565b9050611f89565b50612247338787604051806020016040528060008152506143a5565b505050505050565b6109a233838361450e565b600083815260d76020908152604080832081516101008101835281548152600182015481850152825160a08101845260028301805482526003840180548651818902810189018852818152606099988998899896908801959094909385830193928301828280156122ea57602002820191906000526020600020905b8154815260200190600101908083116122d6575b5050505050815260200160028201805480602002602001604051908101604052809291908181526020016000905b828210156123c457838290600052602060002001805461233790618204565b80601f016020809104026020016040519081016040528092919081815260200182805461236390618204565b80156123b05780601f10612385576101008083540402835291602001916123b0565b820191906000526020600020905b81548152906001019060200180831161239357829003601f168201915b505050505081526020019060010190612318565b5050505081526020016003820180548060200260200160405190810160405280929190818152602001828054801561241b57602002820191906000526020600020905b815481526020019060010190808311612407575b505050505081526020016004820180548060200260200160405190810160405280929190818152602001828054801561247357602002820191906000526020600020905b81548152602001906001019080831161245f575b5050505050815250508152602001600782016040518060a001604052908160008201548152602001600182018054806020026020016040519081016040528092919081815260200182805480156124e957602002820191906000526020600020905b8154815260200190600101908083116124d5575b5050505050815260200160028201805480602002602001604051908101604052809291908181526020016000905b828210156125c357838290600052602060002001805461253690618204565b80601f016020809104026020016040519081016040528092919081815260200182805461256290618204565b80156125af5780601f10612584576101008083540402835291602001916125af565b820191906000526020600020905b81548152906001019060200180831161259257829003601f168201915b505050505081526020019060010190612517565b5050505081526020016003820180548060200260200160405190810160405280929190818152602001828054801561261a57602002820191906000526020600020905b815481526020019060010190808311612606575b505050505081526020016004820180548060200260200160405190810160405280929190818152602001828054801561267257602002820191906000526020600020905b81548152602001906001019080831161265e575b5050505050815250508152602001600c82018054806020026020016040519081016040528092919081815260200182805480156126e557602002820191906000526020600020905b815473ffffffffffffffffffffffffffffffffffffffff1681526001909101906020018083116126ba575b5050509183525050600d8201546020820152600e82015460409091019060ff16600481111561271657612716617feb565b600481111561272757612727617feb565b8152600e9190910154610100900473ffffffffffffffffffffffffffffffffffffffff16602090910152905060005b8160800151518110156127d2578673ffffffffffffffffffffffffffffffffffffffff168260800151828151811061279057612790618381565b602002602001015173ffffffffffffffffffffffffffffffffffffffff1614156127c057809350600192506127d2565b6127cb8160016187e6565b9050612756565b5081612860576040517f08c379a000000000000000000000000000000000000000000000000000000000815260206004820152603560248201527f4163636573736f726965733a3a6765744974656d50726963653a20556e73757060448201527f706f72746564207061796d656e7420746f6b656e2e000000000000000000000060648201526084016105d7565b604081810151815160016020820152909161288c910160405160208183030381529060405282866141df565b6128cc868260200151600184600001516128a691906187b2565b815181106128b6576128b6618381565b602002602001015161466290919063ffffffff16565b602082015182516128df906001906187b2565b815181106128ef576128ef618381565b60200260200101818152505080602001519450505050505b9392505050565b60975473ffffffffffffffffffffffffffffffffffffffff16331461298f576040517f08c379a000000000000000000000000000000000000000000000000000000000815260206004820181905260248201527f4f776e61626c653a2063616c6c6572206973206e6f7420746865206f776e657260448201526064016105d7565b60005b8251811015612b8a578281815181106129ad576129ad618381565b602002602001015173ffffffffffffffffffffffffffffffffffffffff1663f242432a306129f060975473ffffffffffffffffffffffffffffffffffffffff1690565b858581518110612a0257612a02618381565b6020026020010151878681518110612a1c57612a1c618381565b602002602001015173ffffffffffffffffffffffffffffffffffffffff1662fdd58e30898981518110612a5157612a51618381565b60200260200101516040518363ffffffff1660e01b8152600401612a9792919073ffffffffffffffffffffffffffffffffffffffff929092168252602082015260400190565b602060405180830381865afa158015612ab4573d6000803e3d6000fd5b505050506040513d601f19601f82011682018060405250810190612ad891906187fe565b6040517fffffffff0000000000000000000000000000000000000000000000000000000060e087901b16815273ffffffffffffffffffffffffffffffffffffffff94851660048201529390921660248401526044830152606482015260a06084820152600060a482015260c401600060405180830381600087803b158015612b5f57600080fd5b505af1158015612b73573d6000803e3d6000fd5b505050508080612b82906183df565b915050612992565b505050565b60975473ffffffffffffffffffffffffffffffffffffffff163314612c10576040517f08c379a000000000000000000000000000000000000000000000000000000000815260206004820181905260248201527f4f776e61626c653a2063616c6c6572206973206e6f7420746865206f776e657260448201526064016105d7565b60005b81518110156109a257818181518110612c2e57612c2e618381565b602002602001015173ffffffffffffffffffffffffffffffffffffffff1663a9059cbb612c7060975473ffffffffffffffffffffffffffffffffffffffff1690565b848481518110612c8257612c82618381565b60209081029190910101516040517f70a0823100000000000000000000000000000000000000000000000000000000815230600482015273ffffffffffffffffffffffffffffffffffffffff909116906370a0823190602401602060405180830381865afa158015612cf8573d6000803e3d6000fd5b505050506040513d601f19601f82011682018060405250810190612d1c91906187fe565b6040517fffffffff0000000000000000000000000000000000000000000000000000000060e085901b16815273ffffffffffffffffffffffffffffffffffffffff909216600483015260248201526044016020604051808303816000875af1158015612d8c573d6000803e3d6000fd5b505050506040513d601f19601f82011682018060405250810190612db091906187c9565b5080612dbb816183df565b915050612c13565b60d7602052806000526040600020600091509050806000015490806001015490806002016040518060a00160405290816000820154815260200160018201805480602002602001604051908101604052809291908181526020018280548015612e4b57602002820191906000526020600020905b815481526020019060010190808311612e37575b5050505050815260200160028201805480602002602001604051908101604052809291908181526020016000905b82821015612f25578382906000526020600020018054612e9890618204565b80601f0160208091040260200160405190810160405280929190818152602001828054612ec490618204565b8015612f115780601f10612ee657610100808354040283529160200191612f11565b820191906000526020600020905b815481529060010190602001808311612ef457829003601f168201915b505050505081526020019060010190612e79565b50505050815260200160038201805480602002602001604051908101604052809291908181526020018280548015612f7c57602002820191906000526020600020905b815481526020019060010190808311612f68575b5050505050815260200160048201805480602002602001604051908101604052809291908181526020018280548015612fd457602002820191906000526020600020905b815481526020019060010190808311612fc0575b50505050508152505090806007016040518060a0016040529081600082015481526020016001820180548060200260200160405190810160405280929190818152602001828054801561304657602002820191906000526020600020905b815481526020019060010190808311613032575b5050505050815260200160028201805480602002602001604051908101604052809291908181526020016000905b8282101561312057838290600052602060002001805461309390618204565b80601f01602080910402602001604051908101604052809291908181526020018280546130bf90618204565b801561310c5780601f106130e15761010080835404028352916020019161310c565b820191906000526020600020905b8154815290600101906020018083116130ef57829003601f168201915b505050505081526020019060010190613074565b5050505081526020016003820180548060200260200160405190810160405280929190818152602001828054801561317757602002820191906000526020600020905b815481526020019060010190808311613163575b50505050508152602001600482018054806020026020016040519081016040528092919081815260200182805480156131cf57602002820191906000526020600020905b8154815260200190600101908083116131bb575b50505091909252505050600d820154600e9092015490919060ff811690610100900473ffffffffffffffffffffffffffffffffffffffff1687565b600083815260d760205260409020600e0154610100900473ffffffffffffffffffffffffffffffffffffffff163373ffffffffffffffffffffffffffffffffffffffff1614613301576040517f08c379a000000000000000000000000000000000000000000000000000000000815260206004820152604160248201527f4163636573736f726965733a3a7570646174654974656d3a204f6e6c7920437260448201527f6561746f722063616e2075706461746520746865204974656d44657461696c7360648201527f2e00000000000000000000000000000000000000000000000000000000000000608482015260a4016105d7565b600083815260d76020526040902082905561332161109761109283613e18565b600084815260d7602090815260409091208251600782019081558383015180519193613353936008019291019061745c565b506040820151805161336f916002840191602090910190617496565b506060820151805161338b91600384019160209091019061745c565b50608082015180516133a791600484019160209091019061745c565b505060c954600081815260d760205260409081902090517f97fb339053294e9222f5125a680bffae48405e2c78668e4dc33b61aef56a324793506133ee9291908590618817565b60405180910390a1505050565b606061062460d46135f9565b73ffffffffffffffffffffffffffffffffffffffff85163314806134305750613430853361047d565b6134bc576040517f08c379a000000000000000000000000000000000000000000000000000000000815260206004820152602960248201527f455243313135353a2063616c6c6572206973206e6f74206f776e6572206e6f7260448201527f20617070726f766564000000000000000000000000000000000000000000000060648201526084016105d7565b610814858585858561466e565b60975473ffffffffffffffffffffffffffffffffffffffff16331461354a576040517f08c379a000000000000000000000000000000000000000000000000000000000815260206004820181905260248201527f4f776e61626c653a2063616c6c6572206973206e6f7420746865206f776e657260448201526064016105d7565b73ffffffffffffffffffffffffffffffffffffffff81166135ed576040517f08c379a000000000000000000000000000000000000000000000000000000000815260206004820152602660248201527f4f776e61626c653a206e6577206f776e657220697320746865207a65726f206160448201527f646472657373000000000000000000000000000000000000000000000000000060648201526084016105d7565b6135f681613d72565b50565b60606000612907836148a3565b60007fffffffff0000000000000000000000000000000000000000000000000000000082167fd9b67a2600000000000000000000000000000000000000000000000000000000148061369957507fffffffff0000000000000000000000000000000000000000000000000000000082167f0e89341c00000000000000000000000000000000000000000000000000000000145b8061061257507f01ffc9a7000000000000000000000000000000000000000000000000000000007fffffffff00000000000000000000000000000000000000000000000000000000831614610612565b60007fffffffff0000000000000000000000000000000000000000000000000000000082167f4e2312e000000000000000000000000000000000000000000000000000000000148061061257507f01ffc9a7000000000000000000000000000000000000000000000000000000007fffffffff00000000000000000000000000000000000000000000000000000000831614610612565b6060816137c057505060408051808201909152600181527f3000000000000000000000000000000000000000000000000000000000000000602082015290565b8160005b81156137ea57806137d4816183df565b91506137e39050600a8361887b565b91506137c4565b60008167ffffffffffffffff8111156138055761380561775e565b6040519080825280601f01601f19166020018201604052801561382f576020820181803683370190505b5090505b84156138b2576138446001836187b2565b9150613851600a8661888f565b61385c9060306187e6565b60f81b81838151811061387157613871618381565b60200101907effffffffffffffffffffffffffffffffffffffffffffffffffffffffffffff1916908160001a9053506138ab600a8661887b565b9450613833565b949350505050565b815183511461394b576040517f08c379a000000000000000000000000000000000000000000000000000000000815260206004820152602860248201527f455243313135353a2069647320616e6420616d6f756e7473206c656e6774682060448201527f6d69736d6174636800000000000000000000000000000000000000000000000060648201526084016105d7565b73ffffffffffffffffffffffffffffffffffffffff84166139ee576040517f08c379a000000000000000000000000000000000000000000000000000000000815260206004820152602560248201527f455243313135353a207472616e7366657220746f20746865207a65726f20616460448201527f647265737300000000000000000000000000000000000000000000000000000060648201526084016105d7565b3360005b8451811015613b62576000858281518110613a0f57613a0f618381565b602002602001015190506000858381518110613a2d57613a2d618381565b602090810291909101810151600084815260658352604080822073ffffffffffffffffffffffffffffffffffffffff8e168352909352919091205490915081811015613afb576040517f08c379a000000000000000000000000000000000000000000000000000000000815260206004820152602a60248201527f455243313135353a20696e73756666696369656e742062616c616e636520666f60448201527f72207472616e736665720000000000000000000000000000000000000000000060648201526084016105d7565b600083815260656020908152604080832073ffffffffffffffffffffffffffffffffffffffff8e8116855292528083208585039055908b16825281208054849290613b479084906187e6565b9250508190555050505080613b5b906183df565b90506139f2565b508473ffffffffffffffffffffffffffffffffffffffff168673ffffffffffffffffffffffffffffffffffffffff168273ffffffffffffffffffffffffffffffffffffffff167f4a39dc06d4c0dbc64b70af90fd698a233a518aa5d07e595d983b8c0526c8f7fb8787604051613bd99291906188a3565b60405180910390a46122478187878787876148ff565b600054610100900460ff16613c86576040517f08c379a000000000000000000000000000000000000000000000000000000000815260206004820152602b60248201527f496e697469616c697a61626c653a20636f6e7472616374206973206e6f74206960448201527f6e697469616c697a696e6700000000000000000000000000000000000000000060648201526084016105d7565b6135f681614b8a565b600054610100900460ff16613d26576040517f08c379a000000000000000000000000000000000000000000000000000000000815260206004820152602b60248201527f496e697469616c697a61626c653a20636f6e7472616374206973206e6f74206960448201527f6e697469616c697a696e6700000000000000000000000000000000000000000060648201526084016105d7565b610fbc614c2a565b60006129078373ffffffffffffffffffffffffffffffffffffffff8416614cca565b6000610612825490565b600061290782846187e6565b60006129078383614cca565b6097805473ffffffffffffffffffffffffffffffffffffffff8381167fffffffffffffffffffffffff0000000000000000000000000000000000000000831681179093556040519116919082907f8be0079c531659141344cd1fd0a4f28419497f9722a3daafe3b4186f6b6457e090600090a35050565b73ffffffffffffffffffffffffffffffffffffffff811660009081526001830160205260408120541515612907565b613e4a6040518060a0016040528060008152602001606081526020016060815260200160608152602001606081525090565b815151613eb3576040517f08c379a000000000000000000000000000000000000000000000000000000000815260206004820152600960248201527f305f534f5552434553000000000000000000000000000000000000000000000060448201526064016105d7565b6040518060a0016040528060008152602001836040015167ffffffffffffffff811115613ee257613ee261775e565b604051908082528060200260200182016040528015613f0b578160200160208202803683370190505b5081526020018360000151815260200183602001518152602001836060015167ffffffffffffffff811115613f4257613f4261775e565b604051908082528060200260200182016040528015613f6b578160200160208202803683370190505b50905292915050565b600080613f9f83604051602001613f8b91906188c8565b604051602081830303815290604052614d19565b90507ff95eed63f55d96a35306669cc3b5f652f8d44552e3e4b17b2f78f13571114abd338285604051613fd4939291906188db565b60405180910390a192915050565b6140146040518060a0016040528060008152602001606081526020016060815260200160608152602001606081525090565b61401d82614da4565b8060200190518101906106129190618a57565b600061403d60d283614dd2565b15614046575090565b6040517f08c379a000000000000000000000000000000000000000000000000000000000815260206004820152602b60248201527f4163636573736f726965733a3a676574436c6173733a20496e76616c6964206360448201527f6c6173732076616c75652e00000000000000000000000000000000000000000060648201526084016105d7565b919050565b600060ff82166140e557506000919050565b8160ff16600114156140f957506001919050565b8160ff166002141561410d57506002919050565b8160ff166003141561412157506003919050565b8160ff166004141561413557506004919050565b6040517f08c379a000000000000000000000000000000000000000000000000000000000815260206004820152602660248201527f4163636573736f726965733a3a6765745261726974793a20496e76616c69642060448201527f526172697479000000000000000000000000000000000000000000000000000060648201526084016105d7565b60006129078373ffffffffffffffffffffffffffffffffffffffff8416614dea565b602082810151604084015183830201909101516060840151608085015182516000948594859492939092915b84881015614398576002880197508784015180601e1a975080601f1a965050600587101561438c57600187141561426e5781608087166142485750825b8a516020607f89160260200182015160208202602001840152600181018c52505061420b565b60028714156142995789516020870260200182015160208202602001830152600181018b525061420b565b60038714156142b2576142ad8b8b88614ee4565b61420b565b60048714156142e3576142ad8a6040516020016142cf91906188c8565b60405160208183030381529060405261504a565b607f6101fe600188901b16178616608087161561434f578a517fffffffffffffffffffffffffffffffffffffffffffffffffffffffffffffffff01808c5260208c01518051909190811061433957614339618381565b60200260200101516000141561434f575061420b565b8060000b6000146143865760008160000b121561437a57801960020160020260ff1689039850614386565b8060020260ff16890198505b5061420b565b6142ad8b8b89896150d9565b5050505050505050505050565b73ffffffffffffffffffffffffffffffffffffffff8416614448576040517f08c379a000000000000000000000000000000000000000000000000000000000815260206004820152602160248201527f455243313135353a206d696e7420746f20746865207a65726f2061646472657360448201527f730000000000000000000000000000000000000000000000000000000000000060648201526084016105d7565b336144628160008761445988615263565b61081488615263565b600084815260656020908152604080832073ffffffffffffffffffffffffffffffffffffffff89168452909152812080548592906144a19084906187e6565b9091555050604080518581526020810185905273ffffffffffffffffffffffffffffffffffffffff80881692600092918516917fc3d58168c5ae7397731d063d5bbf3d657854427343f4c083240f7aacaa2d0f62910160405180910390a4610814816000878787876152ae565b8173ffffffffffffffffffffffffffffffffffffffff168373ffffffffffffffffffffffffffffffffffffffff1614156145ca576040517f08c379a000000000000000000000000000000000000000000000000000000000815260206004820152602960248201527f455243313135353a2073657474696e6720617070726f76616c2073746174757360448201527f20666f722073656c66000000000000000000000000000000000000000000000060648201526084016105d7565b73ffffffffffffffffffffffffffffffffffffffff83811660008181526066602090815260408083209487168084529482529182902080547fffffffffffffffffffffffffffffffffffffffffffffffffffffffffffffff001686151590811790915591519182527f17307eab39ab6107e8899845ad3d59bd9653f200f220920489ca2b5937696c31910160405180910390a3505050565b60006129078284618b3a565b73ffffffffffffffffffffffffffffffffffffffff8416614711576040517f08c379a000000000000000000000000000000000000000000000000000000000815260206004820152602560248201527f455243313135353a207472616e7366657220746f20746865207a65726f20616460448201527f647265737300000000000000000000000000000000000000000000000000000060648201526084016105d7565b3361472181878761445988615263565b600084815260656020908152604080832073ffffffffffffffffffffffffffffffffffffffff8a168452909152902054838110156147e1576040517f08c379a000000000000000000000000000000000000000000000000000000000815260206004820152602a60248201527f455243313135353a20696e73756666696369656e742062616c616e636520666f60448201527f72207472616e736665720000000000000000000000000000000000000000000060648201526084016105d7565b600085815260656020908152604080832073ffffffffffffffffffffffffffffffffffffffff8b811685529252808320878503905590881682528120805486929061482d9084906187e6565b9091555050604080518681526020810186905273ffffffffffffffffffffffffffffffffffffffff808916928a821692918616917fc3d58168c5ae7397731d063d5bbf3d657854427343f4c083240f7aacaa2d0f62910160405180910390a461489a8288888888886152ae565b50505050505050565b6060816000018054806020026020016040519081016040528092919081815260200182805480156148f357602002820191906000526020600020905b8154815260200190600101908083116148df575b50505050509050919050565b73ffffffffffffffffffffffffffffffffffffffff84163b15612247576040517fbc197c8100000000000000000000000000000000000000000000000000000000815273ffffffffffffffffffffffffffffffffffffffff85169063bc197c81906149769089908990889088908890600401618b77565b6020604051808303816000875af19250505080156149cf575060408051601f3d9081017fffffffffffffffffffffffffffffffffffffffffffffffffffffffffffffffe01682019092526149cc91810190618bd6565b60015b614ab9576149db618bf3565b806308c379a01415614a2f57506149f0618c0f565b806149fb5750614a31565b806040517f08c379a00000000000000000000000000000000000000000000000000000000081526004016105d7919061774b565b505b6040517f08c379a000000000000000000000000000000000000000000000000000000000815260206004820152603460248201527f455243313135353a207472616e7366657220746f206e6f6e204552433131353560448201527f526563656976657220696d706c656d656e74657200000000000000000000000060648201526084016105d7565b7fffffffff0000000000000000000000000000000000000000000000000000000081167fbc197c81000000000000000000000000000000000000000000000000000000001461489a576040517f08c379a000000000000000000000000000000000000000000000000000000000815260206004820152602860248201527f455243313135353a204552433131353552656365697665722072656a6563746560448201527f6420746f6b656e7300000000000000000000000000000000000000000000000060648201526084016105d7565b600054610100900460ff16614c21576040517f08c379a000000000000000000000000000000000000000000000000000000000815260206004820152602b60248201527f496e697469616c697a61626c653a20636f6e7472616374206973206e6f74206960448201527f6e697469616c697a696e6700000000000000000000000000000000000000000060648201526084016105d7565b6135f68161545b565b600054610100900460ff16614cc1576040517f08c379a000000000000000000000000000000000000000000000000000000000815260206004820152602b60248201527f496e697469616c697a61626c653a20636f6e7472616374206973206e6f74206960448201527f6e697469616c697a696e6700000000000000000000000000000000000000000060648201526084016105d7565b610fbc33613d72565b6000818152600183016020526040812054614d1157508154600181810184556000848152602080822090930184905584548482528286019093526040902091909155610612565b506000610612565b600080614d4483604051602001614d309190618cb7565b60405160208183030381529060405261546e565b90508051602082016000f0915073ffffffffffffffffffffffffffffffffffffffff8216614d9e576040517f08d4abb600000000000000000000000000000000000000000000000000000000815260040160405180910390fd5b50919050565b60606106128260017fffffffffffffffffffffffffffffffffffffffffffffffffffffffffffffffff615484565b60008181526001830160205260408120541515612907565b60008181526001830160205260408120548015614ed3576000614e0e6001836187b2565b8554909150600090614e22906001906187b2565b9050818114614e87576000866000018281548110614e4257614e42618381565b9060005260206000200154905080876000018481548110614e6557614e65618381565b6000918252602080832090910192909255918252600188019052604090208390555b8554869080614e9857614e98618cdd565b600190038181906000526020600020016000905590558560010160008681526020019081526020016000206000905560019350505050610612565b6000915050610612565b5092915050565b81517fffffffffffffffffffffffffffffffffffffffffffffffffffffffffffffffff600583901c918290030183526007821690610100600384811c1681901c91908290039060010160008167ffffffffffffffff811115614f4857614f4861775e565b604051908082528060200260200182016040528015614f71578160200160208202803683370190505b50905060005b82811015614fc85787602001518189600001510181518110614f9b57614f9b618381565b6020026020010151828281518110614fb557614fb5618381565b6020908102919091010152600101614f77565b5060005b61010081101561503f5760005b8381101561502c5784828603848381518110614ff757614ff7618381565b6020026020010151901b901c8960800151828151811061501957615019618381565b6020908102919091010152600101614fd9565b506150388989886141df565b8401614fcc565b505050505050505050565b6135f68160405160240161505e919061774b565b604080517fffffffffffffffffffffffffffffffffffffffffffffffffffffffffffffffe08184030181529190526020810180517bffffffffffffffffffffffffffffffffffffffffffffffffffffffff167f0be77f560000000000000000000000000000000000000000000000000000000017905261556c565b7f00000000000000000000000000000000000000000000000000000000000000008210156151145761510f83600584038361558d565b61525d565b7f000000000000000000000000000000000000000000000000000000000000000082039150600182106151a3576040517f08c379a000000000000000000000000000000000000000000000000000000000815260206004820152600a60248201527f4d41585f4f50434f44450000000000000000000000000000000000000000000060448201526064016105d7565b600083602001516002856000015103815181106151c2576151c2618381565b60200260200101519050600084602001516001866000015103815181106151eb576151eb618381565b602090810291909101015185517ffffffffffffffffffffffffffffffffffffffffffffffffffffffffffffffffe0186529050600061522a83836156f3565b905080866020015187600001518151811061524757615247618381565b6020908102919091010152505083516001018452505b50505050565b6040805160018082528183019092526060916000919060208083019080368337019050509050828160008151811061529d5761529d618381565b602090810291909101015292915050565b73ffffffffffffffffffffffffffffffffffffffff84163b15612247576040517ff23a6e6100000000000000000000000000000000000000000000000000000000815273ffffffffffffffffffffffffffffffffffffffff85169063f23a6e61906153259089908990889088908890600401618d0c565b6020604051808303816000875af192505050801561537e575060408051601f3d9081017fffffffffffffffffffffffffffffffffffffffffffffffffffffffffffffffe016820190925261537b91810190618bd6565b60015b61538a576149db618bf3565b7fffffffff0000000000000000000000000000000000000000000000000000000081167ff23a6e61000000000000000000000000000000000000000000000000000000001461489a576040517f08c379a000000000000000000000000000000000000000000000000000000000815260206004820152602860248201527f455243313135353a204552433131353552656365697665722072656a6563746560448201527f6420746f6b656e7300000000000000000000000000000000000000000000000060648201526084016105d7565b80516109a29060679060208401906173d8565b606081518260405160200161073c929190618d5c565b6060833b806154a3575050604080516020810190915260008152612907565b808411156154c1575050604080516020810190915260008152612907565b8383101561550c576040517f2c4a89fa0000000000000000000000000000000000000000000000000000000081526004810182905260248101859052604481018490526064016105d7565b83830384820360008282106155215782615523565b815b60408051603f83017fffffffffffffffffffffffffffffffffffffffffffffffffffffffffffffffe0168101909152818152955090508087602087018a3c505050509392505050565b80516a636f6e736f6c652e6c6f67602083016000808483855afa5050505050565b60048210156155a157612b8a83838361572d565b601d82101561562457600b8210156155c157612b8a836004840383615843565b60168210156155f757612b8a837ffffffffffffffffffffffffffffffffffffffffffffffffffffffffffffffff5840183615b71565b612b8a837fffffffffffffffffffffffffffffffffffffffffffffffffffffffffffffffea840183615fa8565b602382101561565a57612b8a837fffffffffffffffffffffffffffffffffffffffffffffffffffffffffffffffe38401836161b9565b602582101561569057612b8a837fffffffffffffffffffffffffffffffffffffffffffffffffffffffffffffffdd84018361668d565b60278210156156c657612b8a837fffffffffffffffffffffffffffffffffffffffffffffffffffffffffffffffdb8401836168c1565b612b8a837fffffffffffffffffffffffffffffffffffffffffffffffffffffffffffffffd9840183616a70565b6000805b600881101561572357828160200285901c63ffffffff16111561571b579050610612565b6001016156f7565b5060089392505050565b60048210615797576040517f08c379a000000000000000000000000000000000000000000000000000000000815260206004820152600a60248201527f4d41585f4f50434f44450000000000000000000000000000000000000000000060448201526064016105d7565b816157c8574383602001518460000151815181106157b7576157b7618381565b602002602001018181525050615838565b60018214156157ec574283602001518460000151815181106157b7576157b7618381565b6002821415615810576020830151835181513392919081106157b7576157b7618381565b60208301518351815130929190811061582b5761582b618381565b6020026020010181815250505b505080516001019052565b600782106158ad576040517f08c379a000000000000000000000000000000000000000000000000000000000815260206004820152600a60248201527f4d41585f4f50434f44450000000000000000000000000000000000000000000060448201526064016105d7565b60028210156159f95782517ffffffffffffffffffffffffffffffffffffffffffffffffffffffffffffffffe018261595857836020015181600101815181106158f8576158f8618381565b6020026020010151615930838660200151848151811061591a5761591a618381565b6020026020010151616edd90919063ffffffff16565b028460200151828151811061594757615947618381565b6020026020010181815250506159cd565b60018314156159cd578360200151816001018151811061597a5761597a618381565b602002602001015161599c838660200151848151811061591a5761591a618381565b816159a9576159a961884c565b04846020015182815181106159c0576159c0618381565b6020026020010181815250505b5082517fffffffffffffffffffffffffffffffffffffffffffffffffffffffffffffffff018352505050565b6005821015615b0a5782517fffffffffffffffffffffffffffffffffffffffffffffffffffffffffffffffff016002831415615a7057615a49828560200151838151811061591a5761591a618381565b84602001518281518110615a5f57615a5f618381565b60200260200101818152505061525d565b6003831415615aa957615a498285602001518381518110615a9357615a93618381565b6020026020010151616f3f90919063ffffffff16565b600483141561525d57615ae28285602001518381518110615acc57615acc618381565b6020026020010151616f7090919063ffffffff16565b84602001518281518110615af857615af8618381565b60200260200101818152505050505050565b6005821415615b4c57602083015183518151670de0b6b3a76400009291908110615b3657615b36618381565b6020908102919091010152505080516001019052565b6006821415612b8a576012836020015184600001518151811061582b5761582b618381565b600b8210615bdb576040517f08c379a000000000000000000000000000000000000000000000000000000000815260206004820152600a60248201527f4d41585f4f50434f44450000000000000000000000000000000000000000000060448201526064016105d7565b825160208401518051838303927fffffffffffffffffffffffffffffffffffffffffffffffffffffffffffffffff019183916000919083908110615c2157615c21618381565b602002602001015190506000861415615c79575b82821015615c74576020870151805160019093019283908110615c5a57615c5a618381565b602002602001015181615c6d91906187e6565b9050615c35565b615f79565b6001861415615cca575b82821015615c74578180600101925050615cc387602001518381518110615cac57615cac618381565b602002602001015182616fae90919063ffffffff16565b9050615c83565b6002861415615d13575b82821015615c74576020870151805160019093019283908110615cf957615cf9618381565b602002602001015181615d0c91906187b2565b9050615cd4565b6003861415615d64575b82821015615c74578180600101925050615d5d87602001518381518110615d4657615d46618381565b602002602001015182616fe990919063ffffffff16565b9050615d1d565b6004861415615dad575b82821015615c74576020870151805160019093019283908110615d9357615d93618381565b602002602001015181615da69190618b3a565b9050615d6e565b6005861415615dfe575b82821015615c74578180600101925050615df787602001518381518110615de057615de0618381565b602002602001015182616fff90919063ffffffff16565b9050615db7565b6006861415615e47575b82821015615c74576020870151805160019093019283908110615e2d57615e2d618381565b602002602001015181615e40919061887b565b9050615e08565b6007861415615e90575b82821015615c74576020870151805160019093019283908110615e7657615e76618381565b602002602001015181615e89919061888f565b9050615e51565b6008861415615ed9575b82821015615c74576020870151805160019093019283908110615ebf57615ebf618381565b602002602001015181615ed29190618f13565b9050615e9a565b6009861415615f2b5760005b83831015615f25576020880151805160019094019384908110615f0a57615f0a618381565b6020026020010151905081811015615f20578091505b615ee5565b50615f79565b600a861415615f795760005b83831015615f77576020880151805160019094019384908110615f5c57615f5c618381565b6020026020010151905081811115615f72578091505b615f37565b505b8087602001518581518110615f9057615f90618381565b60209081029190910101525050506001019092525050565b60078210616012576040517f08c379a000000000000000000000000000000000000000000000000000000000815260206004820152600a60248201527f4d41585f4f50434f44450000000000000000000000000000000000000000000060448201526064016105d7565b8251602080850151818302010183801561605b576001811461608857600281146160f3576003811461610d57600481146161275760058114616141576006811461617957612247565b7fffffffffffffffffffffffffffffffffffffffffffffffffffffffffffffffe082018051159052612247565b7ffffffffffffffffffffffffffffffffffffffffffffffffffffffffffffffffe830186527fffffffffffffffffffffffffffffffffffffffffffffffffffffffffffffffa08201805180156160e457602082015182526160ec565b604082015182525b5050612247565b600183038652604082036020810151815114815250612247565b600183038652604082036020810151815110815250612247565b600183038652604082036020810151815111815250612247565b8315616174576001840383038652602084028203805b838110156160ec57805161616c575060008152825b602001616157565b612247565b8315612247576001840383038652602084028203805b838110156161af57805180156161a6578491508083525b5060200161618f565b5050505050505050565b60068210616223576040517f08c379a000000000000000000000000000000000000000000000000000000000815260206004820152600a60248201527f4d41585f4f50434f44450000000000000000000000000000000000000000000060448201526064016105d7565b60008261634b575082517fffffffffffffffffffffffffffffffffffffffffffffffffffffffffffffffff81018452602084015180517ffffffffffffffffffffffffffffffffffffffffffffffffffffffffffffffffe909201918290811061628e5761628e618381565b602002602001015173ffffffffffffffffffffffffffffffffffffffff1663e053ea31856020015183600101815181106162ca576162ca618381565b60200260200101516040518263ffffffff1660e01b815260040161630a919073ffffffffffffffffffffffffffffffffffffffff91909116815260200190565b602060405180830381865afa158015616327573d6000803e3d6000fd5b505050506040513d601f19601f82011682018060405250810190615a4991906187fe565b60018314156163a6577fffffffffffffffffffffffffffffffffffffffffffffffffffffffffffffffff846020015185600001518151811061638f5761638f618381565b60209081029190910101528351600101845261525d565b60028314156163cb576000846020015185600001518151811061638f5761638f618381565b600383141561647f575082517ffffffffffffffffffffffffffffffffffffffffffffffffffffffffffffffffe0180845260208401518051600091908390811061641757616417618381565b6020026020010151905060008560200151836001018151811061643c5761643c618381565b60200260200101519050616450828261702e565b8660200151848151811061646657616466618381565b602090810291909101015250508351600101845261525d565b6004831415616547575082517ffffffffffffffffffffffffffffffffffffffffffffffffffffffffffffffffe0180845260208401518051600f80851692600486901c9091169160009190859081106164da576164da618381565b602002602001015190506000876020015185600101815181106164ff576164ff618381565b6020026020010151905061651582858584617085565b8860200151868151811061652b5761652b618381565b60209081029190910101525050855160010186525061525d9050565b600583141561525d575082517fffffffffffffffffffffffffffffffffffffffffffffffffffffffffffffffff601f8316918290030180855290600783901c906003600585901c16908360008267ffffffffffffffff8111156165ac576165ac61775e565b6040519080825280602002602001820160405280156165d5578160200160208202803683370190505b50905060005b8381101561662a57896020015183815181106165f9576165f9618381565b602002602001015182828151811061661357616613618381565b6020908102919091010152600192830192016165db565b5060008960200151838151811061664357616643618381565b602002602001015190506166598282888861712b565b8a60200151888151811061666f5761666f618381565b60209081029190910101525050875160010188525050505050505050565b600282106166f7576040517f08c379a000000000000000000000000000000000000000000000000000000000815260206004820152600a60248201527f4d41585f4f50434f44450000000000000000000000000000000000000000000060448201526064016105d7565b816168495782517fffffffffffffffffffffffffffffffffffffffffffffffffffffffffffffffff810184526020840151805190917ffffffffffffffffffffffffffffffffffffffffffffffffffffffffffffffffe0190811061675d5761675d618381565b602002602001015173ffffffffffffffffffffffffffffffffffffffff166370a08231846020015185600001518151811061679a5761679a618381565b60200260200101516040518263ffffffff1660e01b81526004016167da919073ffffffffffffffffffffffffffffffffffffffff91909116815260200190565b602060405180830381865afa1580156167f7573d6000803e3d6000fd5b505050506040513d601f19601f8201168201806040525081019061681b91906187fe565b836020015160018560000151038151811061683857616838618381565b602002602001018181525050505050565b6001821415612b8a57826020015160018460000151038151811061686f5761686f618381565b602002602001015173ffffffffffffffffffffffffffffffffffffffff166318160ddd6040518163ffffffff1660e01b8152600401602060405180830381865afa1580156167f7573d6000803e3d6000fd5b6002821061692b576040517f08c379a000000000000000000000000000000000000000000000000000000000815260206004820152600a60248201527f4d41585f4f50434f44450000000000000000000000000000000000000000000060448201526064016105d7565b82517fffffffffffffffffffffffffffffffffffffffffffffffffffffffffffffffff0183528161697357826020015160018460000151038151811061675d5761675d618381565b6001821415612b8a57826020015160018460000151038151811061699957616999618381565b602002602001015173ffffffffffffffffffffffffffffffffffffffff16636352211e84602001518560000151815181106169d6576169d6618381565b60200260200101516040518263ffffffff1660e01b81526004016169fc91815260200190565b602060405180830381865afa158015616a19573d6000803e3d6000fd5b505050506040513d601f19601f82011682018060405250810190616a3d9190618f1f565b73ffffffffffffffffffffffffffffffffffffffff16836020015160018560000151038151811061683857616838618381565b60028210616ada576040517f08c379a000000000000000000000000000000000000000000000000000000000815260206004820152600a60248201527f4d41585f4f50434f44450000000000000000000000000000000000000000000060448201526064016105d7565b81616c255782517ffffffffffffffffffffffffffffffffffffffffffffffffffffffffffffffffe81018452602084015180517ffffffffffffffffffffffffffffffffffffffffffffffffffffffffffffffffd9092019182908110616b4257616b42618381565b602002602001015173ffffffffffffffffffffffffffffffffffffffff1662fdd58e85602001518360010181518110616b7d57616b7d618381565b602002602001015186602001518460020181518110616b9e57616b9e618381565b60200260200101516040518363ffffffff1660e01b8152600401616be492919073ffffffffffffffffffffffffffffffffffffffff929092168252602082015260400190565b602060405180830381865afa158015616c01573d6000803e3d6000fd5b505050506040513d601f19601f82011682018060405250810190615ae291906187fe565b6001821415612b8a576001810160008167ffffffffffffffff811115616c4d57616c4d61775e565b604051908082528060200260200182016040528015616c76578160200160208202803683370190505b50905060008267ffffffffffffffff811115616c9457616c9461775e565b604051908082528060200260200182016040528015616cbd578160200160208202803683370190505b5086518490037fffffffffffffffffffffffffffffffffffffffffffffffffffffffffffffffff8181018952602089015180519394509186900301916000919083908110616d0d57616d0d618381565b6020026020010151905060005b85811015616dc457886020015181840160010181518110616d3d57616d3d618381565b6020026020010151858281518110616d5757616d57618381565b73ffffffffffffffffffffffffffffffffffffffff90921660209283029190910182015289015180516001858901840101908110616d9757616d97618381565b6020026020010151848281518110616db157616db1618381565b6020908102919091010152600101616d1a565b506040517f4e1273f400000000000000000000000000000000000000000000000000000000815260009073ffffffffffffffffffffffffffffffffffffffff831690634e1273f490616e1c9088908890600401618f3c565b600060405180830381865afa158015616e39573d6000803e3d6000fd5b505050506040513d6000823e601f3d9081017fffffffffffffffffffffffffffffffffffffffffffffffffffffffffffffffe0168201604052616e7f9190810190618f4f565b905060005b86811015616ed157818181518110616e9e57616e9e618381565b60200260200101518a6020015182860181518110616ebe57616ebe618381565b6020908102919091010152600101616e84565b50505050505050505050565b60008160121415616eef575081610612565b8160121115616f1f57616f038260126187b2565b616f0e90600a618f13565b616f189084618b3a565b9050610612565b616f2a6012836187b2565b616f3590600a618f13565b616f18908461887b565b60006012821415616f51575081610612565b8160121115616f6557616f2a8260126187b2565b616f036012836187b2565b600081810b616f80575081610612565b60008260000b1315616f9757616f0e82600a618f84565b616fa382196001618f93565b616f3590600a618f84565b6000828201838110616fc057806138b2565b7fffffffffffffffffffffffffffffffffffffffffffffffffffffffffffffffff949350505050565b6000818311616ff9576000612907565b50900390565b60008261700e57506000610612565b828202828482816170215761702161884c565b041415616fc057806138b2565b60008060015b60088111610c73576000617048868361727b565b90506000617056868461727b565b905060006170648383616fe9565b9050617074856001860383617328565b945050600190920191506170349050565b60008260088111156170f3576040517f08c379a000000000000000000000000000000000000000000000000000000000815260206004820152600860248201527f4d41585f5449455200000000000000000000000000000000000000000000000060448201526064016105d7565b6000855b8581101561711f5763ffffffff6020820290811b199890981685891b179791506001016170f7565b50959695505050505050565b835160009081908190819060015b6008811161726d5760009250828761717257507fffffffffffffffffffffffffffffffffffffffffffffffffffffffffffffffff617176565b5060005b60005b8381101561722b576171a48c828151811061719657617196618381565b60200260200101518461727b565b95508a86116171f657886171c3576171bc86836173b2565b91506171ed565b60018914156171d6576171bc86836173c8565b6002891480156171e4575084155b156171ed578591505b60019450617223565b89617223577fffffffffffffffffffffffffffffffffffffffffffffffffffffffffffffffff915061722b565b600101617179565b508361725457507fffffffffffffffffffffffffffffffffffffffffffffffffffffffffffffffff5b617262866001840383617328565b955050600101617139565b509298975050505050505050565b60008160088111156172e9576040517f08c379a000000000000000000000000000000000000000000000000000000000815260206004820152600860248201527f4d41585f5449455200000000000000000000000000000000000000000000000060448201526064016105d7565b826172f75760009150614edd565b50507fffffffffffffffffffffffffffffffffffffffffffffffffffffffffffffffff016020021c63ffffffff1690565b6000826008811115617396576040517f08c379a000000000000000000000000000000000000000000000000000000000815260206004820152600860248201527f4d41585f5449455200000000000000000000000000000000000000000000000060448201526064016105d7565b505060209190910290811b63ffffffff90911b19919091161790565b60008183106173c15781612907565b5090919050565b6000818310156173c15781612907565b8280546173e490618204565b90600052602060002090601f016020900481019282617406576000855561744c565b82601f1061741f57805160ff191683800117855561744c565b8280016001018555821561744c579182015b8281111561744c578251825591602001919060010190617431565b50617458929150617569565b5090565b82805482825590600052602060002090810192821561744c579160200282018281111561744c578251825591602001919060010190617431565b8280548282559060005260206000209081019282156174e3579160200282015b828111156174e357825180516174d39184916020909101906173d8565b50916020019190600101906174b6565b5061745892915061757e565b82805482825590600052602060002090810192821561744c579160200282015b8281111561744c57825182547fffffffffffffffffffffffff00000000000000000000000000000000000000001673ffffffffffffffffffffffffffffffffffffffff90911617825560209092019160019091019061750f565b5b80821115617458576000815560010161756a565b80821115617458576000617592828261759b565b5060010161757e565b5080546175a790618204565b6000825580601f106175b7575050565b601f0160209004906000526020600020908101906135f69190617569565b73ffffffffffffffffffffffffffffffffffffffff811681146135f657600080fd5b6000806040838503121561760a57600080fd5b8235617615816175d5565b946020939093013593505050565b600081518084526020808501945080840160005b8381101561765357815187529582019590820190600101617637565b509495945050505050565b6020815260006129076020830184617623565b7fffffffff00000000000000000000000000000000000000000000000000000000811681146135f657600080fd5b6000602082840312156176b157600080fd5b813561290781617671565b6000602082840312156176ce57600080fd5b5035919050565b60005b838110156176f05781810151838201526020016176d8565b8381111561525d5750506000910152565b600081518084526177198160208601602086016176d5565b601f017fffffffffffffffffffffffffffffffffffffffffffffffffffffffffffffffe0169290920160200192915050565b6020815260006129076020830184617701565b7f4e487b7100000000000000000000000000000000000000000000000000000000600052604160045260246000fd5b6080810181811067ffffffffffffffff821117156177ad576177ad61775e565b60405250565b7fffffffffffffffffffffffffffffffffffffffffffffffffffffffffffffffe0601f830116810181811067ffffffffffffffff821117156177f7576177f761775e565b6040525050565b60405160a0810167ffffffffffffffff811182821017156178215761782161775e565b60405290565b600067ffffffffffffffff8211156178415761784161775e565b5060051b60200190565b600082601f83011261785c57600080fd5b8135602061786982617827565b60405161787682826177b3565b83815260059390931b850182019282810191508684111561789657600080fd5b8286015b848110156178b1578035835291830191830161789a565b509695505050505050565b600067ffffffffffffffff8211156178d6576178d661775e565b50601f017fffffffffffffffffffffffffffffffffffffffffffffffffffffffffffffffe01660200190565b600082601f83011261791357600080fd5b813561791e816178bc565b60405161792b82826177b3565b82815285602084870101111561794057600080fd5b82602086016020830137600092810160200192909252509392505050565b600080600080600060a0868803121561797657600080fd5b8535617981816175d5565b94506020860135617991816175d5565b9350604086013567ffffffffffffffff808211156179ae57600080fd5b6179ba89838a0161784b565b945060608801359150808211156179d057600080fd5b6179dc89838a0161784b565b935060808801359150808211156179f257600080fd5b506179ff88828901617902565b9150509295509295909350565b600060208284031215617a1e57600080fd5b813567ffffffffffffffff80821115617a3657600080fd5b9083019060408286031215617a4a57600080fd5b604051604081018181108382111715617a6557617a6561775e565b6040528235617a73816175d5565b8152602083013582811115617a8757600080fd5b617a9387828601617902565b60208301525095945050505050565b600060208284031215617ab457600080fd5b8135612907816175d5565b600082601f830112617ad057600080fd5b81356020617add82617827565b604051617aea82826177b3565b83815260059390931b8501820192828101915086841115617b0a57600080fd5b8286015b848110156178b1578035617b21816175d5565b8352918301918301617b0e565b60008060408385031215617b4157600080fd5b823567ffffffffffffffff80821115617b5957600080fd5b617b6586838701617abf565b93506020850135915080821115617b7b57600080fd5b50617b888582860161784b565b9150509250929050565b600060208284031215617ba457600080fd5b813567ffffffffffffffff811115617bbb57600080fd5b6138b284828501617902565b60006020808385031215617bda57600080fd5b823567ffffffffffffffff80821115617bf257600080fd5b818501915085601f830112617c0657600080fd5b8135617c1181617827565b604051617c1e82826177b3565b82815260059290921b8401850191858101915088831115617c3e57600080fd5b8585015b83811015617c7657803585811115617c5a5760008081fd5b617c688b89838a0101617902565b845250918601918601617c42565b5098975050505050505050565b600060808284031215617c9557600080fd5b604051617ca18161778d565b809150823567ffffffffffffffff80821115617cbc57600080fd5b818501915085601f830112617cd057600080fd5b81356020617cdd82617827565b604051617cea82826177b3565b83815260059390931b8501820192828101915089841115617d0a57600080fd5b8286015b84811015617d4257803586811115617d265760008081fd5b617d348c86838b0101617902565b845250918301918301617d0e565b5086525086810135935082841115617d5957600080fd5b617d658885890161784b565b818601525050505060408301356040820152606083013560608201525092915050565b803560ff811681146140ce57600080fd5b60008060008060008060c08789031215617db257600080fd5b86359550602087013567ffffffffffffffff80821115617dd157600080fd5b617ddd8a838b01617c83565b96506040890135915080821115617df357600080fd5b617dff8a838b01617c83565b95506060890135915080821115617e1557600080fd5b50617e2289828a01617abf565b935050617e3160808801617d88565b9150617e3f60a08801617d88565b90509295509295509295565b60008060408385031215617e5e57600080fd5b50508035926020909101359150565b80151581146135f657600080fd5b60008060408385031215617e8e57600080fd5b8235617e99816175d5565b91506020830135617ea981617e6d565b809150509250929050565b600080600060608486031215617ec957600080fd5b833592506020840135617edb816175d5565b929592945050506040919091013590565b600060208284031215617efe57600080fd5b813567ffffffffffffffff811115617f1557600080fd5b6138b284828501617abf565b600081518084526020808501808196508360051b8101915082860160005b85811015617f69578284038952617f57848351617701565b98850198935090840190600101617f3f565b5091979650505050505050565b805182526000602082015160a06020850152617f9560a0850182617623565b905060408301518482036040860152617fae8282617f21565b91505060608301518482036060860152617fc88282617623565b91505060808301518482036080860152617fe28282617623565b95945050505050565b7f4e487b7100000000000000000000000000000000000000000000000000000000600052602160045260246000fd5b60058110618051577f4e487b7100000000000000000000000000000000000000000000000000000000600052602160045260246000fd5b9052565b87815286602082015260e06040820152600061807460e0830188617f76565b82810360608401526180868188617f76565b91505084608083015261809c60a083018561801a565b73ffffffffffffffffffffffffffffffffffffffff831660c083015298975050505050505050565b6000806000606084860312156180d957600080fd5b8335925060208401359150604084013567ffffffffffffffff8111156180fe57600080fd5b61810a86828701617c83565b9150509250925092565b600081518084526020808501945080840160005b8381101561765357815173ffffffffffffffffffffffffffffffffffffffff1687529582019590820190600101618128565b6020815260006129076020830184618114565b6000806040838503121561818057600080fd5b823561818b816175d5565b91506020830135617ea9816175d5565b600080600080600060a086880312156181b357600080fd5b85356181be816175d5565b945060208601356181ce816175d5565b93506040860135925060608601359150608086013567ffffffffffffffff8111156181f857600080fd5b6179ff88828901617902565b600181811c9082168061821857607f821691505b60208210811415614d9e577f4e487b7100000000000000000000000000000000000000000000000000000000600052602260045260246000fd5b600080845461826081618204565b6001828116801561827857600181146182a7576182d6565b7fffffffffffffffffffffffffffffffffffffffffffffffffffffffffffffff008416875282870194506182d6565b8860005260208060002060005b858110156182cd5781548a8201529084019082016182b4565b50505082870194505b507f2f0000000000000000000000000000000000000000000000000000000000000084528651925061830e8382860160208a016176d5565b7f2e6a736f6e000000000000000000000000000000000000000000000000000000939092019182019290925260060195945050505050565b6020815273ffffffffffffffffffffffffffffffffffffffff8251166020820152600060208301516040808401526138b26060840182617701565b7f4e487b7100000000000000000000000000000000000000000000000000000000600052603260045260246000fd5b7f4e487b7100000000000000000000000000000000000000000000000000000000600052601160045260246000fd5b60007fffffffffffffffffffffffffffffffffffffffffffffffffffffffffffffffff821415618411576184116183b0565b5060010190565b600060408201848352602060408185015281855180845260608601915060608160051b870101935082870160005b82811015618492577fffffffffffffffffffffffffffffffffffffffffffffffffffffffffffffffa0888703018452618480868351617701565b95509284019290840190600101618446565b509398975050505050505050565b6000815480845260208085019450836000528060002060005b83811015617653578154875295820195600191820191016184b9565b8054825260006001602060a0818601526184f460a086018386016184a0565b600285016040878303818901528282548085528585019150858160051b86010160008581528781209550805b838110156185e8577fffffffffffffffffffffffffffffffffffffffffffffffffffffffffffffffe088840301855281875461855b81618204565b808652818d16801561857457600181146185a5576185d4565b7fffffffffffffffffffffffffffffffffffffffffffffffffffffffffffffff0083168d88015289870193506185d4565b8a86528c8620865b838110156185cc5781548f828b0101528f820191508e810190506185ad565b88018e019450505b505050968a01969489019492508901618520565b50508a810360608c01526185ff8160038c016184a0565b97505050505050505083810360808501526138b281600485016184a0565b6000815480845260208085019450836000528060002060005b8381101561765357815473ffffffffffffffffffffffffffffffffffffffff1687529582019560019182019101618636565b60006101008254845260018301546020850152806040850152618690818501600285016184d5565b905083810360608501526186a781600785016184d5565b905083810360808501526186be81600c850161861d565b9050600d83015460a0850152600e8301546186df60c0860160ff831661801a565b600881901c73ffffffffffffffffffffffffffffffffffffffff1660e0860152610c73565b60008151608084526187196080850182617f21565b9050602083015184820360208601526187328282617623565b91505060408301516040850152606083015160608501528091505092915050565b85815260a06020820152600061876c60a0830187618668565b828103604084015261877e8187618114565b905082810360608401526187928186618704565b905082810360808401526187a68185618704565b98975050505050505050565b6000828210156187c4576187c46183b0565b500390565b6000602082840312156187db57600080fd5b815161290781617e6d565b600082198211156187f9576187f96183b0565b500190565b60006020828403121561881057600080fd5b5051919050565b8381526060602082015260006188306060830185618668565b82810360408401526188428185618704565b9695505050505050565b7f4e487b7100000000000000000000000000000000000000000000000000000000600052601260045260246000fd5b60008261888a5761888a61884c565b500490565b60008261889e5761889e61884c565b500690565b6040815260006188b66040830185617623565b8281036020840152617fe28185617623565b6020815260006129076020830184617f76565b600073ffffffffffffffffffffffffffffffffffffffff808616835280851660208401525060606040830152617fe26060830184617f76565b600082601f83011261892557600080fd5b8151602061893282617827565b60405161893f82826177b3565b83815260059390931b850182019282810191508684111561895f57600080fd5b8286015b848110156178b15780518352918301918301618963565b600082601f83011261898b57600080fd5b8151602061899882617827565b604080516189a683826177b3565b84815260059490941b86018301938381019250878511156189c657600080fd5b8387015b85811015618a4b57805167ffffffffffffffff8111156189ea5760008081fd5b8801603f81018a136189fc5760008081fd5b85810151618a09816178bc565b8551618a1582826177b3565b8281528c87848601011115618a2c57600091508182fd5b618a3b838a83018987016176d5565b87525050509284019284016189ca565b50979650505050505050565b600060208284031215618a6957600080fd5b815167ffffffffffffffff80821115618a8157600080fd5b9083019060a08286031215618a9557600080fd5b618a9d6177fe565b82518152602083015182811115618ab357600080fd5b618abf87828601618914565b602083015250604083015182811115618ad757600080fd5b618ae38782860161897a565b604083015250606083015182811115618afb57600080fd5b618b0787828601618914565b606083015250608083015182811115618b1f57600080fd5b618b2b87828601618914565b60808301525095945050505050565b6000817fffffffffffffffffffffffffffffffffffffffffffffffffffffffffffffffff0483118215151615618b7257618b726183b0565b500290565b600073ffffffffffffffffffffffffffffffffffffffff808816835280871660208401525060a06040830152618bb060a0830186617623565b8281036060840152618bc28186617623565b905082810360808401526187a68185617701565b600060208284031215618be857600080fd5b815161290781617671565b600060033d1115618c0c5760046000803e5060005160e01c5b90565b600060443d1015618c1d5790565b6040517ffffffffffffffffffffffffffffffffffffffffffffffffffffffffffffffffc803d016004833e81513d67ffffffffffffffff8160248401118184111715618c6b57505050505090565b8285019150815181811115618c835750505050505090565b843d8701016020828501011115618c9d5750505050505090565b618cac602082860101876177b3565b509095945050505050565b6000815260008251618cd08160018501602087016176d5565b9190910160010192915050565b7f4e487b7100000000000000000000000000000000000000000000000000000000600052603160045260246000fd5b600073ffffffffffffffffffffffffffffffffffffffff808816835280871660208401525084604083015283606083015260a06080830152618d5160a0830184617701565b979650505050505050565b7f630000000000000000000000000000000000000000000000000000000000000081527fffffffff000000000000000000000000000000000000000000000000000000008360e01b1660018201527f80600e6000396000f30000000000000000000000000000000000000000000000600582015260008251618de581600e8501602087016176d5565b91909101600e019392505050565b600181815b80851115618e4c57817fffffffffffffffffffffffffffffffffffffffffffffffffffffffffffffffff04821115618e3257618e326183b0565b80851615618e3f57918102915b93841c9390800290618df8565b509250929050565b600082618e6357506001610612565b81618e7057506000610612565b8160018114618e865760028114618e9057618eac565b6001915050610612565b60ff841115618ea157618ea16183b0565b50506001821b610612565b5060208310610133831016604e8410600b8410161715618ecf575081810a610612565b618ed98383618df3565b807fffffffffffffffffffffffffffffffffffffffffffffffffffffffffffffffff04821115618f0b57618f0b6183b0565b029392505050565b60006129078383618e54565b600060208284031215618f3157600080fd5b8151612907816175d5565b6040815260006188b66040830185618114565b600060208284031215618f6157600080fd5b815167ffffffffffffffff811115618f7857600080fd5b6138b284828501618914565b600061290760ff841683618e54565b600060ff821660ff84168060ff03821115618fb057618fb06183b0565b01939250505056fea26469706673582212201d3da1e94e977d9cfa81bd2414219985181defafb617fff7146552c5451bb5c764736f6c634300080a0033",
  "linkReferences": {},
  "deployedLinkReferences": {}
}