{
  "_format": "hh-sol-artifact-1",
  "contractName": "Accessories",
  "sourceName": "contracts/Accessories.sol",
  "abi": [
    {
      "inputs": [
        {
          "internalType": "uint256",
          "name": "_size",
          "type": "uint256"
        },
        {
          "internalType": "uint256",
          "name": "_start",
          "type": "uint256"
        },
        {
          "internalType": "uint256",
          "name": "_end",
          "type": "uint256"
        }
      ],
      "name": "InvalidCodeAtRange",
      "type": "error"
    },
    {
      "inputs": [],
      "name": "WriteError",
      "type": "error"
    },
    {
      "anonymous": false,
      "inputs": [
        {
          "indexed": false,
          "internalType": "address",
          "name": "_admin",
          "type": "address"
        }
      ],
      "name": "AdminChanged",
      "type": "event"
    },
    {
      "anonymous": false,
      "inputs": [
        {
          "indexed": true,
          "internalType": "address",
          "name": "account",
          "type": "address"
        },
        {
          "indexed": true,
          "internalType": "address",
          "name": "operator",
          "type": "address"
        },
        {
          "indexed": false,
          "internalType": "bool",
          "name": "approved",
          "type": "bool"
        }
      ],
      "name": "ApprovalForAll",
      "type": "event"
    },
    {
      "anonymous": false,
      "inputs": [
        {
          "indexed": false,
          "internalType": "string",
          "name": "_baseURI",
          "type": "string"
        }
      ],
      "name": "BaseURIChanged",
      "type": "event"
    },
    {
      "anonymous": false,
      "inputs": [
        {
          "indexed": false,
          "internalType": "uint256",
          "name": "_classId",
          "type": "uint256"
        },
        {
          "indexed": false,
          "internalType": "string[]",
          "name": "_attributes",
          "type": "string[]"
        }
      ],
      "name": "ClassCreated",
      "type": "event"
    },
    {
      "anonymous": false,
      "inputs": [
        {
          "indexed": false,
          "internalType": "address",
          "name": "_addedCreator",
          "type": "address"
        }
      ],
      "name": "CreatorAdded",
      "type": "event"
    },
    {
      "anonymous": false,
      "inputs": [
        {
          "indexed": false,
          "internalType": "address",
          "name": "_removedCreator",
          "type": "address"
        }
      ],
      "name": "CreatorRemoved",
      "type": "event"
    },
    {
      "anonymous": false,
      "inputs": [
        {
          "components": [
            {
              "internalType": "address",
              "name": "_accessoriesCreator",
              "type": "address"
            },
            {
              "internalType": "string",
              "name": "_baseURI",
              "type": "string"
            }
          ],
          "indexed": false,
          "internalType": "struct AccessoriesConfig",
          "name": "config",
          "type": "tuple"
        }
      ],
      "name": "Initialize",
      "type": "event"
    },
    {
      "anonymous": false,
      "inputs": [
        {
          "indexed": false,
          "internalType": "uint256",
          "name": "_itemId",
          "type": "uint256"
        },
        {
          "components": [
            {
              "internalType": "uint256",
              "name": "lootBoxId",
              "type": "uint256"
            },
            {
              "internalType": "uint256",
              "name": "id",
              "type": "uint256"
            },
            {
              "components": [
                {
                  "internalType": "uint256",
                  "name": "stackIndex",
                  "type": "uint256"
                },
                {
                  "internalType": "uint256[]",
                  "name": "stack",
                  "type": "uint256[]"
                },
                {
                  "internalType": "bytes[]",
                  "name": "sources",
                  "type": "bytes[]"
                },
                {
                  "internalType": "uint256[]",
                  "name": "constants",
                  "type": "uint256[]"
                },
                {
                  "internalType": "uint256[]",
                  "name": "arguments",
                  "type": "uint256[]"
                }
              ],
              "internalType": "struct State",
              "name": "priceConfig",
              "type": "tuple"
            },
            {
              "components": [
                {
                  "internalType": "uint256",
                  "name": "stackIndex",
                  "type": "uint256"
                },
                {
                  "internalType": "uint256[]",
                  "name": "stack",
                  "type": "uint256[]"
                },
                {
                  "internalType": "bytes[]",
                  "name": "sources",
                  "type": "bytes[]"
                },
                {
                  "internalType": "uint256[]",
                  "name": "constants",
                  "type": "uint256[]"
                },
                {
                  "internalType": "uint256[]",
                  "name": "arguments",
                  "type": "uint256[]"
                }
              ],
              "internalType": "struct State",
              "name": "canMintConfig",
              "type": "tuple"
            },
            {
              "internalType": "address[]",
              "name": "currencies",
              "type": "address[]"
            },
            {
              "internalType": "uint256",
              "name": "itemClass",
              "type": "uint256"
            },
            {
              "internalType": "enum Accessories.Rarity",
              "name": "rarity",
              "type": "uint8"
            },
            {
              "internalType": "address",
              "name": "creator",
              "type": "address"
            }
          ],
          "indexed": false,
          "internalType": "struct Accessories.ItemDetails",
          "name": "_item",
          "type": "tuple"
        },
        {
          "components": [
            {
              "internalType": "bytes[]",
              "name": "sources",
              "type": "bytes[]"
            },
            {
              "internalType": "uint256[]",
              "name": "constants",
              "type": "uint256[]"
            },
            {
              "internalType": "uint256",
              "name": "stackLength",
              "type": "uint256"
            },
            {
              "internalType": "uint256",
              "name": "argumentsLength",
              "type": "uint256"
            }
          ],
          "indexed": false,
          "internalType": "struct StateConfig",
          "name": "_priceConfig",
          "type": "tuple"
        },
        {
          "components": [
            {
              "internalType": "bytes[]",
              "name": "sources",
              "type": "bytes[]"
            },
            {
              "internalType": "uint256[]",
              "name": "constants",
              "type": "uint256[]"
            },
            {
              "internalType": "uint256",
              "name": "stackLength",
              "type": "uint256"
            },
            {
              "internalType": "uint256",
              "name": "argumentsLength",
              "type": "uint256"
            }
          ],
          "indexed": false,
          "internalType": "struct StateConfig",
          "name": "_canMintConfig",
          "type": "tuple"
        }
      ],
      "name": "ItemCreated",
      "type": "event"
    },
    {
      "anonymous": false,
      "inputs": [
        {
          "indexed": false,
          "internalType": "uint256",
          "name": "_itemId",
          "type": "uint256"
        },
        {
          "components": [
            {
              "internalType": "uint256",
              "name": "lootBoxId",
              "type": "uint256"
            },
            {
              "internalType": "uint256",
              "name": "id",
              "type": "uint256"
            },
            {
              "components": [
                {
                  "internalType": "uint256",
                  "name": "stackIndex",
                  "type": "uint256"
                },
                {
                  "internalType": "uint256[]",
                  "name": "stack",
                  "type": "uint256[]"
                },
                {
                  "internalType": "bytes[]",
                  "name": "sources",
                  "type": "bytes[]"
                },
                {
                  "internalType": "uint256[]",
                  "name": "constants",
                  "type": "uint256[]"
                },
                {
                  "internalType": "uint256[]",
                  "name": "arguments",
                  "type": "uint256[]"
                }
              ],
              "internalType": "struct State",
              "name": "priceConfig",
              "type": "tuple"
            },
            {
              "components": [
                {
                  "internalType": "uint256",
                  "name": "stackIndex",
                  "type": "uint256"
                },
                {
                  "internalType": "uint256[]",
                  "name": "stack",
                  "type": "uint256[]"
                },
                {
                  "internalType": "bytes[]",
                  "name": "sources",
                  "type": "bytes[]"
                },
                {
                  "internalType": "uint256[]",
                  "name": "constants",
                  "type": "uint256[]"
                },
                {
                  "internalType": "uint256[]",
                  "name": "arguments",
                  "type": "uint256[]"
                }
              ],
              "internalType": "struct State",
              "name": "canMintConfig",
              "type": "tuple"
            },
            {
              "internalType": "address[]",
              "name": "currencies",
              "type": "address[]"
            },
            {
              "internalType": "uint256",
              "name": "itemClass",
              "type": "uint256"
            },
            {
              "internalType": "enum Accessories.Rarity",
              "name": "rarity",
              "type": "uint8"
            },
            {
              "internalType": "address",
              "name": "creator",
              "type": "address"
            }
          ],
          "indexed": false,
          "internalType": "struct Accessories.ItemDetails",
          "name": "_item",
          "type": "tuple"
        },
        {
          "components": [
            {
              "internalType": "bytes[]",
              "name": "sources",
              "type": "bytes[]"
            },
            {
              "internalType": "uint256[]",
              "name": "constants",
              "type": "uint256[]"
            },
            {
              "internalType": "uint256",
              "name": "stackLength",
              "type": "uint256"
            },
            {
              "internalType": "uint256",
              "name": "argumentsLength",
              "type": "uint256"
            }
          ],
          "indexed": false,
          "internalType": "struct StateConfig",
          "name": "_canMintConfig",
          "type": "tuple"
        }
      ],
      "name": "ItemUpdated",
      "type": "event"
    },
    {
      "anonymous": false,
      "inputs": [
        {
          "indexed": true,
          "internalType": "address",
          "name": "previousOwner",
          "type": "address"
        },
        {
          "indexed": true,
          "internalType": "address",
          "name": "newOwner",
          "type": "address"
        }
      ],
      "name": "OwnershipTransferred",
      "type": "event"
    },
    {
      "anonymous": false,
      "inputs": [
        {
          "indexed": false,
          "internalType": "address",
          "name": "sender",
          "type": "address"
        },
        {
          "indexed": false,
          "internalType": "address",
          "name": "pointer",
          "type": "address"
        },
        {
          "components": [
            {
              "internalType": "uint256",
              "name": "stackIndex",
              "type": "uint256"
            },
            {
              "internalType": "uint256[]",
              "name": "stack",
              "type": "uint256[]"
            },
            {
              "internalType": "bytes[]",
              "name": "sources",
              "type": "bytes[]"
            },
            {
              "internalType": "uint256[]",
              "name": "constants",
              "type": "uint256[]"
            },
            {
              "internalType": "uint256[]",
              "name": "arguments",
              "type": "uint256[]"
            }
          ],
          "indexed": false,
          "internalType": "struct State",
          "name": "state",
          "type": "tuple"
        }
      ],
      "name": "Snapshot",
      "type": "event"
    },
    {
      "anonymous": false,
      "inputs": [
        {
          "indexed": true,
          "internalType": "address",
          "name": "operator",
          "type": "address"
        },
        {
          "indexed": true,
          "internalType": "address",
          "name": "from",
          "type": "address"
        },
        {
          "indexed": true,
          "internalType": "address",
          "name": "to",
          "type": "address"
        },
        {
          "indexed": false,
          "internalType": "uint256[]",
          "name": "ids",
          "type": "uint256[]"
        },
        {
          "indexed": false,
          "internalType": "uint256[]",
          "name": "values",
          "type": "uint256[]"
        }
      ],
      "name": "TransferBatch",
      "type": "event"
    },
    {
      "anonymous": false,
      "inputs": [
        {
          "indexed": true,
          "internalType": "address",
          "name": "operator",
          "type": "address"
        },
        {
          "indexed": true,
          "internalType": "address",
          "name": "from",
          "type": "address"
        },
        {
          "indexed": true,
          "internalType": "address",
          "name": "to",
          "type": "address"
        },
        {
          "indexed": false,
          "internalType": "uint256",
          "name": "id",
          "type": "uint256"
        },
        {
          "indexed": false,
          "internalType": "uint256",
          "name": "value",
          "type": "uint256"
        }
      ],
      "name": "TransferSingle",
      "type": "event"
    },
    {
      "anonymous": false,
      "inputs": [
        {
          "indexed": false,
          "internalType": "string",
          "name": "value",
          "type": "string"
        },
        {
          "indexed": true,
          "internalType": "uint256",
          "name": "id",
          "type": "uint256"
        }
      ],
      "name": "URI",
      "type": "event"
    },
    {
      "inputs": [],
      "name": "Admin",
      "outputs": [
        {
          "internalType": "address",
          "name": "",
          "type": "address"
        }
      ],
      "stateMutability": "view",
      "type": "function"
    },
    {
      "inputs": [
        {
          "internalType": "address",
          "name": "_creator",
          "type": "address"
        }
      ],
      "name": "RemoveCreator",
      "outputs": [],
      "stateMutability": "nonpayable",
      "type": "function"
    },
    {
      "inputs": [
        {
          "internalType": "address",
          "name": "_creator",
          "type": "address"
        }
      ],
      "name": "addCreator",
      "outputs": [],
      "stateMutability": "nonpayable",
      "type": "function"
    },
    {
      "inputs": [
        {
          "internalType": "address",
          "name": "account",
          "type": "address"
        },
        {
          "internalType": "uint256",
          "name": "id",
          "type": "uint256"
        }
      ],
      "name": "balanceOf",
      "outputs": [
        {
          "internalType": "uint256",
          "name": "",
          "type": "uint256"
        }
      ],
      "stateMutability": "view",
      "type": "function"
    },
    {
      "inputs": [
        {
          "internalType": "address[]",
          "name": "accounts",
          "type": "address[]"
        },
        {
          "internalType": "uint256[]",
          "name": "ids",
          "type": "uint256[]"
        }
      ],
      "name": "balanceOfBatch",
      "outputs": [
        {
          "internalType": "uint256[]",
          "name": "",
          "type": "uint256[]"
        }
      ],
      "stateMutability": "view",
      "type": "function"
    },
    {
      "inputs": [
        {
          "internalType": "uint256",
          "name": "_itemId",
          "type": "uint256"
        },
        {
          "internalType": "uint256",
          "name": "_units",
          "type": "uint256"
        }
      ],
      "name": "buyItem",
      "outputs": [],
      "stateMutability": "nonpayable",
      "type": "function"
    },
    {
      "inputs": [
        {
          "internalType": "string[]",
          "name": "_attributes",
          "type": "string[]"
        }
      ],
      "name": "createClass",
      "outputs": [],
      "stateMutability": "nonpayable",
      "type": "function"
    },
    {
      "inputs": [],
      "name": "getClasses",
      "outputs": [
        {
          "internalType": "uint256[]",
          "name": "",
          "type": "uint256[]"
        }
      ],
      "stateMutability": "view",
      "type": "function"
    },
    {
      "inputs": [],
      "name": "getCreators",
      "outputs": [
        {
          "internalType": "address[]",
          "name": "",
          "type": "address[]"
        }
      ],
      "stateMutability": "view",
      "type": "function"
    },
    {
      "inputs": [
        {
          "internalType": "uint256",
          "name": "_itemId",
          "type": "uint256"
        },
        {
          "internalType": "address",
          "name": "_paymentToken",
          "type": "address"
        },
        {
          "internalType": "uint256",
          "name": "_units",
          "type": "uint256"
        }
      ],
      "name": "getItemPrice",
      "outputs": [
        {
          "internalType": "uint256",
          "name": "",
          "type": "uint256"
        }
      ],
      "stateMutability": "view",
      "type": "function"
    },
    {
      "inputs": [
        {
          "internalType": "uint256",
          "name": "report_",
          "type": "uint256"
        },
        {
          "internalType": "uint256",
          "name": "blockNumber_",
          "type": "uint256"
        }
      ],
      "name": "getReport",
      "outputs": [
        {
          "internalType": "uint256",
          "name": "",
          "type": "uint256"
        }
      ],
      "stateMutability": "view",
      "type": "function"
    },
    {
      "inputs": [
        {
          "components": [
            {
              "internalType": "address",
              "name": "_accessoriesCreator",
              "type": "address"
            },
            {
              "internalType": "string",
              "name": "_baseURI",
              "type": "string"
            }
          ],
          "internalType": "struct AccessoriesConfig",
          "name": "_config",
          "type": "tuple"
        }
      ],
      "name": "initialize",
      "outputs": [],
      "stateMutability": "nonpayable",
      "type": "function"
    },
    {
      "inputs": [
        {
          "internalType": "address",
          "name": "account",
          "type": "address"
        },
        {
          "internalType": "address",
          "name": "operator",
          "type": "address"
        }
      ],
      "name": "isApprovedForAll",
      "outputs": [
        {
          "internalType": "bool",
          "name": "",
          "type": "bool"
        }
      ],
      "stateMutability": "view",
      "type": "function"
    },
    {
      "inputs": [
        {
          "internalType": "uint256",
          "name": "",
          "type": "uint256"
        }
      ],
      "name": "items",
      "outputs": [
        {
          "internalType": "uint256",
          "name": "lootBoxId",
          "type": "uint256"
        },
        {
          "internalType": "uint256",
          "name": "id",
          "type": "uint256"
        },
        {
          "components": [
            {
              "internalType": "uint256",
              "name": "stackIndex",
              "type": "uint256"
            },
            {
              "internalType": "uint256[]",
              "name": "stack",
              "type": "uint256[]"
            },
            {
              "internalType": "bytes[]",
              "name": "sources",
              "type": "bytes[]"
            },
            {
              "internalType": "uint256[]",
              "name": "constants",
              "type": "uint256[]"
            },
            {
              "internalType": "uint256[]",
              "name": "arguments",
              "type": "uint256[]"
            }
          ],
          "internalType": "struct State",
          "name": "priceConfig",
          "type": "tuple"
        },
        {
          "components": [
            {
              "internalType": "uint256",
              "name": "stackIndex",
              "type": "uint256"
            },
            {
              "internalType": "uint256[]",
              "name": "stack",
              "type": "uint256[]"
            },
            {
              "internalType": "bytes[]",
              "name": "sources",
              "type": "bytes[]"
            },
            {
              "internalType": "uint256[]",
              "name": "constants",
              "type": "uint256[]"
            },
            {
              "internalType": "uint256[]",
              "name": "arguments",
              "type": "uint256[]"
            }
          ],
          "internalType": "struct State",
          "name": "canMintConfig",
          "type": "tuple"
        },
        {
          "internalType": "uint256",
          "name": "itemClass",
          "type": "uint256"
        },
        {
          "internalType": "enum Accessories.Rarity",
          "name": "rarity",
          "type": "uint8"
        },
        {
          "internalType": "address",
          "name": "creator",
          "type": "address"
        }
      ],
      "stateMutability": "view",
      "type": "function"
    },
    {
      "inputs": [
        {
          "internalType": "uint256",
          "name": "_lootBoxId",
          "type": "uint256"
        },
        {
          "components": [
            {
              "internalType": "bytes[]",
              "name": "sources",
              "type": "bytes[]"
            },
            {
              "internalType": "uint256[]",
              "name": "constants",
              "type": "uint256[]"
            },
            {
              "internalType": "uint256",
              "name": "stackLength",
              "type": "uint256"
            },
            {
              "internalType": "uint256",
              "name": "argumentsLength",
              "type": "uint256"
            }
          ],
          "internalType": "struct StateConfig",
          "name": "_priceConfig",
          "type": "tuple"
        },
        {
          "components": [
            {
              "internalType": "bytes[]",
              "name": "sources",
              "type": "bytes[]"
            },
            {
              "internalType": "uint256[]",
              "name": "constants",
              "type": "uint256[]"
            },
            {
              "internalType": "uint256",
              "name": "stackLength",
              "type": "uint256"
            },
            {
              "internalType": "uint256",
              "name": "argumentsLength",
              "type": "uint256"
            }
          ],
          "internalType": "struct StateConfig",
          "name": "_canMintConfig",
          "type": "tuple"
        },
        {
          "internalType": "address[]",
          "name": "_paymentTokens",
          "type": "address[]"
        },
        {
          "internalType": "uint8",
          "name": "_class",
          "type": "uint8"
        },
        {
          "internalType": "uint8",
          "name": "_rarity",
          "type": "uint8"
        }
      ],
      "name": "newItem",
      "outputs": [],
      "stateMutability": "nonpayable",
      "type": "function"
    },
    {
      "inputs": [],
      "name": "owner",
      "outputs": [
        {
          "internalType": "address",
          "name": "",
          "type": "address"
        }
      ],
      "stateMutability": "view",
      "type": "function"
    },
    {
      "inputs": [],
      "name": "renounceOwnership",
      "outputs": [],
      "stateMutability": "nonpayable",
      "type": "function"
    },
    {
      "inputs": [
        {
          "internalType": "address",
          "name": "from",
          "type": "address"
        },
        {
          "internalType": "address",
          "name": "to",
          "type": "address"
        },
        {
          "internalType": "uint256[]",
          "name": "ids",
          "type": "uint256[]"
        },
        {
          "internalType": "uint256[]",
          "name": "amounts",
          "type": "uint256[]"
        },
        {
          "internalType": "bytes",
          "name": "data",
          "type": "bytes"
        }
      ],
      "name": "safeBatchTransferFrom",
      "outputs": [],
      "stateMutability": "nonpayable",
      "type": "function"
    },
    {
      "inputs": [
        {
          "internalType": "address",
          "name": "from",
          "type": "address"
        },
        {
          "internalType": "address",
          "name": "to",
          "type": "address"
        },
        {
          "internalType": "uint256",
          "name": "id",
          "type": "uint256"
        },
        {
          "internalType": "uint256",
          "name": "amount",
          "type": "uint256"
        },
        {
          "internalType": "bytes",
          "name": "data",
          "type": "bytes"
        }
      ],
      "name": "safeTransferFrom",
      "outputs": [],
      "stateMutability": "nonpayable",
      "type": "function"
    },
    {
      "inputs": [
        {
          "internalType": "address",
          "name": "_admin",
          "type": "address"
        }
      ],
      "name": "setAdmin",
      "outputs": [],
      "stateMutability": "nonpayable",
      "type": "function"
    },
    {
      "inputs": [
        {
          "internalType": "address",
          "name": "operator",
          "type": "address"
        },
        {
          "internalType": "bool",
          "name": "approved",
          "type": "bool"
        }
      ],
      "name": "setApprovalForAll",
      "outputs": [],
      "stateMutability": "nonpayable",
      "type": "function"
    },
    {
      "inputs": [
        {
          "internalType": "string",
          "name": "_baseURI",
          "type": "string"
        }
      ],
      "name": "setBaseURI",
      "outputs": [],
      "stateMutability": "nonpayable",
      "type": "function"
    },
    {
      "inputs": [
        {
          "internalType": "bytes4",
          "name": "interfaceId",
          "type": "bytes4"
        }
      ],
      "name": "supportsInterface",
      "outputs": [
        {
          "internalType": "bool",
          "name": "",
          "type": "bool"
        }
      ],
      "stateMutability": "view",
      "type": "function"
    },
    {
      "inputs": [],
      "name": "totalItems",
      "outputs": [
        {
          "internalType": "uint256",
          "name": "",
          "type": "uint256"
        }
      ],
      "stateMutability": "view",
      "type": "function"
    },
    {
      "inputs": [
        {
          "internalType": "address",
          "name": "newOwner",
          "type": "address"
        }
      ],
      "name": "transferOwnership",
      "outputs": [],
      "stateMutability": "nonpayable",
      "type": "function"
    },
    {
      "inputs": [
        {
          "internalType": "uint256",
          "name": "_itemId",
          "type": "uint256"
        },
        {
          "internalType": "uint256",
          "name": "_lootBoxId",
          "type": "uint256"
        },
        {
          "components": [
            {
              "internalType": "bytes[]",
              "name": "sources",
              "type": "bytes[]"
            },
            {
              "internalType": "uint256[]",
              "name": "constants",
              "type": "uint256[]"
            },
            {
              "internalType": "uint256",
              "name": "stackLength",
              "type": "uint256"
            },
            {
              "internalType": "uint256",
              "name": "argumentsLength",
              "type": "uint256"
            }
          ],
          "internalType": "struct StateConfig",
          "name": "_canMintConfig",
          "type": "tuple"
        }
      ],
      "name": "updateItem",
      "outputs": [],
      "stateMutability": "nonpayable",
      "type": "function"
    },
    {
      "inputs": [
        {
          "internalType": "uint256",
          "name": "_tokenId",
          "type": "uint256"
        }
      ],
      "name": "uri",
      "outputs": [
        {
          "internalType": "string",
          "name": "",
          "type": "string"
        }
      ],
      "stateMutability": "view",
      "type": "function"
    },
    {
      "inputs": [
        {
          "internalType": "address",
          "name": "_tokenAddress",
          "type": "address"
        }
      ],
      "name": "withdraw",
      "outputs": [],
      "stateMutability": "nonpayable",
      "type": "function"
    }
  ],
  "bytecode": "0x60a06040526002808060066007600b6200001b8260046200014e565b6200002791906200014e565b6200003391906200014e565b6200003f91906200014e565b6200004b91906200014e565b6200005791906200014e565b6200006391906200014e565b620000709060056200014e565b608052604080516020810191829052600090819052620000939160d891620000a8565b50348015620000a157600080fd5b50620001b2565b828054620000b69062000175565b90600052602060002090601f016020900481019282620000da576000855562000125565b82601f10620000f557805160ff191683800117855562000125565b8280016001018555821562000125579182015b828111156200012557825182559160200191906001019062000108565b506200013392915062000137565b5090565b5b8082111562000133576000815560010162000138565b600082198211156200017057634e487b7160e01b600052601160045260246000fd5b500190565b600181811c908216806200018a57607f821691505b60208210811415620001ac57634e487b7160e01b600052602260045260246000fd5b50919050565b6080516189e4620001d560003960008181614b4f0152614b8a01526189e46000f3fe608060405234801561001057600080fd5b50600436106101c35760003560e01c806374f03fd9116100f9578063bfb231d211610097578063e985e9c511610071578063e985e9c5146103f0578063f242432a14610439578063f2fde38b1461044c578063ff1b636d1461045f57600080fd5b8063bfb231d2146103a2578063ddaa6ade146103c8578063e6adc1ee146103db57600080fd5b80639979c009116100d35780639979c00914610356578063a22cb46514610369578063b94082251461037c578063be87bcfc1461038f57600080fd5b806374f03fd9146102f15780638a0eaade146103045780638da5cb5b1461031757600080fd5b80633b9dce051161016657806355f804b31161014057806355f804b3146102b05780635e85227a146102c3578063704b6c02146102d6578063715018a6146102e957600080fd5b80633b9dce05146102775780634e1273f41461028a57806351cff8d91461029d57600080fd5b80630e89341c116101a25780630e89341c146102265780632799276d146102465780632eb2c2d61461024f5780633744dd831461026457600080fd5b8062fdd58e146101c85780630193a955146101ee57806301ffc9a714610203575b600080fd5b6101db6101d6366004617036565b61047f565b6040519081526020015b60405180910390f35b6101f6610561565b6040516101e5919061709d565b6102166102113660046170de565b610572565b60405190151581526020016101e5565b6102396102343660046170fb565b610655565b6040516101e5919061718a565b6101db60c95481565b61026261025d36600461739d565b610719565b005b61026261027236600461744b565b6107e2565b6102626102853660046174e1565b61096d565b6101f661029836600461756d565b610aea565b6102626102ab3660046174e1565b610c42565b6102626102be3660046175d1565b610e20565b6102626102d1366004617606565b610ee4565b6102626102e43660046174e1565b610f3f565b6102626110d6565b6102626102ff3660046177d8565b611163565b6102626103123660046174e1565b6114dc565b60975473ffffffffffffffffffffffffffffffffffffffff165b60405173ffffffffffffffffffffffffffffffffffffffff90911681526020016101e5565b61026261036436600461788a565b6115af565b6102626103773660046178ba565b612260565b6101db61038a3660046178f3565b61226b565b6101db61039d36600461788a565b6128d4565b6103b56103b03660046170fb565b6128f2565b6040516101e59796959493929190617a5f565b6102626103d6366004617ace565b612d39565b6103e3612f2a565b6040516101e59190617b64565b6102166103fe366004617b77565b73ffffffffffffffffffffffffffffffffffffffff918216600090815260666020908152604080832093909416825291909152205460ff1690565b610262610447366004617ba5565b612f36565b61026261045a3660046174e1565b612ff8565b60d6546103319073ffffffffffffffffffffffffffffffffffffffff1681565b600073ffffffffffffffffffffffffffffffffffffffff8316610529576040517f08c379a000000000000000000000000000000000000000000000000000000000815260206004820152602b60248201527f455243313135353a2062616c616e636520717565727920666f7220746865207a60448201527f65726f206164647265737300000000000000000000000000000000000000000060648201526084015b60405180910390fd5b50600081815260656020908152604080832073ffffffffffffffffffffffffffffffffffffffff861684529091529020545b92915050565b606061056d60d2613128565b905090565b60007fffffffff0000000000000000000000000000000000000000000000000000000082167fd9b67a2600000000000000000000000000000000000000000000000000000000148061060557507fffffffff0000000000000000000000000000000000000000000000000000000082167f0e89341c00000000000000000000000000000000000000000000000000000000145b8061055b57507f01ffc9a7000000000000000000000000000000000000000000000000000000007fffffffff0000000000000000000000000000000000000000000000000000000083161461055b565b6060600082116106e7576040517f08c379a000000000000000000000000000000000000000000000000000000000815260206004820152602160248201527f4163636573736f726965733a7572693a20496e76616c696420546f6b656e496460448201527f2e000000000000000000000000000000000000000000000000000000000000006064820152608401610520565b60d86106f283613135565b604051602001610703929190617c5c565b6040516020818303038152906040529050919050565b73ffffffffffffffffffffffffffffffffffffffff8516331480610742575061074285336103fe565b6107ce576040517f08c379a000000000000000000000000000000000000000000000000000000000815260206004820152603260248201527f455243313135353a207472616e736665722063616c6c6572206973206e6f742060448201527f6f776e6572206e6f7220617070726f76656400000000000000000000000000006064820152608401610520565b6107db858585858561326f565b5050505050565b600054610100900460ff166107fd5760005460ff1615610801565b303b155b61088d576040517f08c379a000000000000000000000000000000000000000000000000000000000815260206004820152602e60248201527f496e697469616c697a61626c653a20636f6e747261637420697320616c72656160448201527f647920696e697469616c697a65640000000000000000000000000000000000006064820152608401610520565b600054610100900460ff161580156108cc57600080547fffffffffffffffffffffffffffffffffffffffffffffffffffffffffffff0000166101011790555b60208083015180516108e29260d8920190616e17565b506108f082602001516135a4565b6108f8613644565b815161090390612ff8565b7f2bf9425e0baa8fedeb3c184d73be1248daf76733362d08b840b48ff7db574d1b826040516109329190617d50565b60405180910390a1801561096957600080547fffffffffffffffffffffffffffffffffffffffffffffffffffffffffffff00ff1690555b5050565b60975473ffffffffffffffffffffffffffffffffffffffff1633146109ee576040517f08c379a000000000000000000000000000000000000000000000000000000000815260206004820181905260248201527f4f776e61626c653a2063616c6c6572206973206e6f7420746865206f776e65726044820152606401610520565b73ffffffffffffffffffffffffffffffffffffffff8116610a91576040517f08c379a000000000000000000000000000000000000000000000000000000000815260206004820152603160248201527f4163636573736f726965733a3a61646443726561746f723a20496e76616c696460448201527f2043726561746f7220616464726573732e0000000000000000000000000000006064820152608401610520565b610a9c60d4826136e3565b5060405173ffffffffffffffffffffffffffffffffffffffff821681527f021a687fbe334e9e815cee8b399c0bc42e82356eb7f63a09ddb558a25d3dcdbd906020015b60405180910390a150565b60608151835114610b7d576040517f08c379a000000000000000000000000000000000000000000000000000000000815260206004820152602960248201527f455243313135353a206163636f756e747320616e6420696473206c656e67746860448201527f206d69736d6174636800000000000000000000000000000000000000000000006064820152608401610520565b6000835167ffffffffffffffff811115610b9957610b9961719d565b604051908082528060200260200182016040528015610bc2578160200160208202803683370190505b50905060005b8451811015610c3a57610c0d858281518110610be657610be6617d8b565b6020026020010151858381518110610c0057610c00617d8b565b602002602001015161047f565b828281518110610c1f57610c1f617d8b565b6020908102919091010152610c3381617de9565b9050610bc8565b509392505050565b60975473ffffffffffffffffffffffffffffffffffffffff163314610cc3576040517f08c379a000000000000000000000000000000000000000000000000000000000815260206004820181905260248201527f4f776e61626c653a2063616c6c6572206973206e6f7420746865206f776e65726044820152606401610520565b8073ffffffffffffffffffffffffffffffffffffffff1663a9059cbb610cfe60975473ffffffffffffffffffffffffffffffffffffffff1690565b6040517f70a0823100000000000000000000000000000000000000000000000000000000815230600482015273ffffffffffffffffffffffffffffffffffffffff8516906370a0823190602401602060405180830381865afa158015610d68573d6000803e3d6000fd5b505050506040513d601f19601f82011682018060405250810190610d8c9190617e22565b6040517fffffffff0000000000000000000000000000000000000000000000000000000060e085901b16815273ffffffffffffffffffffffffffffffffffffffff909216600483015260248201526044016020604051808303816000875af1158015610dfc573d6000803e3d6000fd5b505050506040513d601f19601f820116820180604052508101906109699190617e3b565b60975473ffffffffffffffffffffffffffffffffffffffff163314610ea1576040517f08c379a000000000000000000000000000000000000000000000000000000000815260206004820181905260248201527f4f776e61626c653a2063616c6c6572206973206e6f7420746865206f776e65726044820152606401610520565b8051610eb49060d8906020840190616e17565b507f5411e8ebf1636d9e83d5fc4900bf80cbac82e8790da2a4c94db4895e889eedf681604051610adf919061718a565b610f04610efc6001610ef660d2613705565b9061370f565b60d29061371b565b507f906ab284bcbbf1ae4d7c1b0c141d1de233a2eadbe5784bbad20bea83a6485af8610f3060d2613705565b82604051610adf929190617e58565b60975473ffffffffffffffffffffffffffffffffffffffff163314610fc0576040517f08c379a000000000000000000000000000000000000000000000000000000000815260206004820181905260248201527f4f776e61626c653a2063616c6c6572206973206e6f7420746865206f776e65726044820152606401610520565b73ffffffffffffffffffffffffffffffffffffffff8116611063576040517f08c379a000000000000000000000000000000000000000000000000000000000815260206004820152603160248201527f4163636573736f726965733a3a61646443726561746f723a20496e76616c696460448201527f2043726561746f7220616464726573732e0000000000000000000000000000006064820152608401610520565b60d680547fffffffffffffffffffffffff00000000000000000000000000000000000000001673ffffffffffffffffffffffffffffffffffffffff83169081179091556040519081527f7ce7ec0b50378fb6c0186ffb5f48325f6593fcb4ca4386f21861af3129188f5c90602001610adf565b60975473ffffffffffffffffffffffffffffffffffffffff163314611157576040517f08c379a000000000000000000000000000000000000000000000000000000000815260206004820181905260248201527f4f776e61626c653a2063616c6c6572206973206e6f7420746865206f776e65726044820152606401610520565b6111616000613727565b565b61116e60d43361379e565b6111fa576040517f08c379a000000000000000000000000000000000000000000000000000000000815260206004820152603360248201527f4163636573736f726965733a6e65774974656d3a204f6e6c792043726561746f60448201527f72732063616e20637265617465206974656d73000000000000000000000000006064820152608401610520565b60c95461120890600161370f565b60c98190555060405180610100016040528087815260200160c954815260200161124161123c611237896137cd565b613929565b613997565b815260200161125561123c611237886137cd565b815260200184815260200161126c8460ff166139e5565b815260200161127a83613a88565b600481111561128b5761128b6179f5565b81526020013373ffffffffffffffffffffffffffffffffffffffff16905260c954600090815260d760209081526040918290208351815583820151600182015591830151805160028401908155818301518051929391926112f29260038701920190616e9b565b506040820151805161130e916002840191602090910190616ed5565b506060820151805161132a916003840191602090910190616e9b565b5060808201518051611346916004840191602090910190616e9b565b5050506060820151805160078301908155602080830151805161136f9260088701920190616e9b565b506040820151805161138b916002840191602090910190616ed5565b50606082015180516113a7916003840191602090910190616e9b565b50608082015180516113c3916004840191602090910190616e9b565b505050608082015180516113e191600c840191602090910190616f2e565b5060a0820151600d82015560c0820151600e820180547fffffffffffffffffffffffffffffffffffffffffffffffffffffffffffffff0016600183600481111561142d5761142d6179f5565b021790555060e09190910151600e909101805473ffffffffffffffffffffffffffffffffffffffff909216610100027fffffffffffffffffffffff0000000000000000000000000000000000000000ff90921691909117905560c954600081815260d760205260409081902090517f8f450bde4f527b5e5beb63b20719aee45043eea8a236a86f77e6a651bf946e69926114cc92909189908990618193565b60405180910390a1505050505050565b60975473ffffffffffffffffffffffffffffffffffffffff16331461155d576040517f08c379a000000000000000000000000000000000000000000000000000000000815260206004820181905260248201527f4f776e61626c653a2063616c6c6572206973206e6f7420746865206f776e65726044820152606401610520565b61156860d482613b72565b5060405173ffffffffffffffffffffffffffffffffffffffff821681527f94a409f50d78dc8628b7499ba5af0848a134b9a935a59c0a45313b67f66920f890602001610adf565b600082815260d76020908152604080832081516101008101835281548152600182015481850152825160a081018452600283018054825260038401805486518189028101890188528181528b999895978801958581019391929083018282801561163857602002820191906000526020600020905b815481526020019060010190808311611624575b5050505050815260200160028201805480602002602001604051908101604052809291908181526020016000905b8282101561171257838290600052602060002001805461168590617c0e565b80601f01602080910402602001604051908101604052809291908181526020018280546116b190617c0e565b80156116fe5780601f106116d3576101008083540402835291602001916116fe565b820191906000526020600020905b8154815290600101906020018083116116e157829003601f168201915b505050505081526020019060010190611666565b5050505081526020016003820180548060200260200160405190810160405280929190818152602001828054801561176957602002820191906000526020600020905b815481526020019060010190808311611755575b50505050508152602001600482018054806020026020016040519081016040528092919081815260200182805480156117c157602002820191906000526020600020905b8154815260200190600101908083116117ad575b5050505050815250508152602001600782016040518060a0016040529081600082015481526020016001820180548060200260200160405190810160405280929190818152602001828054801561183757602002820191906000526020600020905b815481526020019060010190808311611823575b5050505050815260200160028201805480602002602001604051908101604052809291908181526020016000905b8282101561191157838290600052602060002001805461188490617c0e565b80601f01602080910402602001604051908101604052809291908181526020018280546118b090617c0e565b80156118fd5780601f106118d2576101008083540402835291602001916118fd565b820191906000526020600020905b8154815290600101906020018083116118e057829003601f168201915b505050505081526020019060010190611865565b5050505081526020016003820180548060200260200160405190810160405280929190818152602001828054801561196857602002820191906000526020600020905b815481526020019060010190808311611954575b50505050508152602001600482018054806020026020016040519081016040528092919081815260200182805480156119c057602002820191906000526020600020905b8154815260200190600101908083116119ac575b5050505050815250508152602001600c8201805480602002602001604051908101604052809291908181526020018280548015611a3357602002820191906000526020600020905b815473ffffffffffffffffffffffffffffffffffffffff168152600190910190602001808311611a08575b5050509183525050600d8201546020820152600e82015460409091019060ff166004811115611a6457611a646179f5565b6004811115611a7557611a756179f5565b8152600e9190910154610100900473ffffffffffffffffffffffffffffffffffffffff166020918201526060820151604080519283019052600080835292935091611ac291908390613b94565b60208101518151611ad5906001906181dd565b81518110611ae557611ae5617d8b565b6020026020010151600114611ba2576040517f08c379a000000000000000000000000000000000000000000000000000000000815260206004820152604360248201527f4163636573736f726965733a3a63616e4d696e743a204164647265737320646f60448201527f6573206e6f74207361746973667920746865206d696e7420436f6e646974696f60648201527f6e732e0000000000000000000000000000000000000000000000000000000000608482015260a401610520565b60c954851115611c34576040517f08c379a000000000000000000000000000000000000000000000000000000000815260206004820152602560248201527f4163636573736f726965733a3a6275794974656d3a20496e76616c696420497460448201527f656d49642e0000000000000000000000000000000000000000000000000000006064820152608401610520565b600085815260d76020908152604080832081516101008101835281548152600182015481850152825160a08101845260028301805482526003840180548651818902810189018852818152949795968801959394929385810193929190830182828015611cc057602002820191906000526020600020905b815481526020019060010190808311611cac575b5050505050815260200160028201805480602002602001604051908101604052809291908181526020016000905b82821015611d9a578382906000526020600020018054611d0d90617c0e565b80601f0160208091040260200160405190810160405280929190818152602001828054611d3990617c0e565b8015611d865780601f10611d5b57610100808354040283529160200191611d86565b820191906000526020600020905b815481529060010190602001808311611d6957829003601f168201915b505050505081526020019060010190611cee565b50505050815260200160038201805480602002602001604051908101604052809291908181526020018280548015611df157602002820191906000526020600020905b815481526020019060010190808311611ddd575b5050505050815260200160048201805480602002602001604051908101604052809291908181526020018280548015611e4957602002820191906000526020600020905b815481526020019060010190808311611e35575b5050505050815250508152602001600782016040518060a00160405290816000820154815260200160018201805480602002602001604051908101604052809291908181526020018280548015611ebf57602002820191906000526020600020905b815481526020019060010190808311611eab575b5050505050815260200160028201805480602002602001604051908101604052809291908181526020016000905b82821015611f99578382906000526020600020018054611f0c90617c0e565b80601f0160208091040260200160405190810160405280929190818152602001828054611f3890617c0e565b8015611f855780601f10611f5a57610100808354040283529160200191611f85565b820191906000526020600020905b815481529060010190602001808311611f6857829003601f168201915b505050505081526020019060010190611eed565b50505050815260200160038201805480602002602001604051908101604052809291908181526020018280548015611ff057602002820191906000526020600020905b815481526020019060010190808311611fdc575b505050505081526020016004820180548060200260200160405190810160405280929190818152602001828054801561204857602002820191906000526020600020905b815481526020019060010190808311612034575b5050505050815250508152602001600c82018054806020026020016040519081016040528092919081815260200182805480156120bb57602002820191906000526020600020905b815473ffffffffffffffffffffffffffffffffffffffff168152600190910190602001808311612090575b5050509183525050600d8201546020820152600e82015460409091019060ff1660048111156120ec576120ec6179f5565b60048111156120fd576120fd6179f5565b8152600e9190910154610100900473ffffffffffffffffffffffffffffffffffffffff16602090910152905060005b81608001515181101561223c5760008260800151828151811061215157612151617d8b565b602002602001015190508073ffffffffffffffffffffffffffffffffffffffff166323b872dd61217e3390565b3061218a8c868d61226b565b6040517fffffffff0000000000000000000000000000000000000000000000000000000060e086901b16815273ffffffffffffffffffffffffffffffffffffffff938416600482015292909116602483015260448201526064016020604051808303816000875af1158015612203573d6000803e3d6000fd5b505050506040513d601f19601f820116820180604052508101906122279190617e3b565b5061223590508160016181f4565b905061212c565b5061225833878760405180602001604052806000815250613d5a565b505050505050565b610969338383613ec3565b600083815260d76020908152604080832081516101008101835281548152600182015481850152825160a0810184526002830180548252600384018054865181890281018901885281815289988998899896908801959094909385830193928301828280156122f957602002820191906000526020600020905b8154815260200190600101908083116122e5575b5050505050815260200160028201805480602002602001604051908101604052809291908181526020016000905b828210156123d357838290600052602060002001805461234690617c0e565b80601f016020809104026020016040519081016040528092919081815260200182805461237290617c0e565b80156123bf5780601f10612394576101008083540402835291602001916123bf565b820191906000526020600020905b8154815290600101906020018083116123a257829003601f168201915b505050505081526020019060010190612327565b5050505081526020016003820180548060200260200160405190810160405280929190818152602001828054801561242a57602002820191906000526020600020905b815481526020019060010190808311612416575b505050505081526020016004820180548060200260200160405190810160405280929190818152602001828054801561248257602002820191906000526020600020905b81548152602001906001019080831161246e575b5050505050815250508152602001600782016040518060a001604052908160008201548152602001600182018054806020026020016040519081016040528092919081815260200182805480156124f857602002820191906000526020600020905b8154815260200190600101908083116124e4575b5050505050815260200160028201805480602002602001604051908101604052809291908181526020016000905b828210156125d257838290600052602060002001805461254590617c0e565b80601f016020809104026020016040519081016040528092919081815260200182805461257190617c0e565b80156125be5780601f10612593576101008083540402835291602001916125be565b820191906000526020600020905b8154815290600101906020018083116125a157829003601f168201915b505050505081526020019060010190612526565b5050505081526020016003820180548060200260200160405190810160405280929190818152602001828054801561262957602002820191906000526020600020905b815481526020019060010190808311612615575b505050505081526020016004820180548060200260200160405190810160405280929190818152602001828054801561268157602002820191906000526020600020905b81548152602001906001019080831161266d575b5050505050815250508152602001600c82018054806020026020016040519081016040528092919081815260200182805480156126f457602002820191906000526020600020905b815473ffffffffffffffffffffffffffffffffffffffff1681526001909101906020018083116126c9575b5050509183525050600d8201546020820152600e82015460409091019060ff166004811115612725576127256179f5565b6004811115612736576127366179f5565b8152600e9190910154610100900473ffffffffffffffffffffffffffffffffffffffff16602090910152905060005b8160800151518110156127e1578673ffffffffffffffffffffffffffffffffffffffff168260800151828151811061279f5761279f617d8b565b602002602001015173ffffffffffffffffffffffffffffffffffffffff1614156127cf57809350600192506127e1565b6127da8160016181f4565b9050612765565b508161286f576040517f08c379a000000000000000000000000000000000000000000000000000000000815260206004820152603560248201527f4163636573736f726965733a3a6765744974656d50726963653a20556e73757060448201527f706f72746564207061796d656e7420746f6b656e2e00000000000000000000006064820152608401610520565b604081810151815160208101889052909161289b91016040516020818303038152906040528286613b94565b602081015181516128ae906001906181dd565b815181106128be576128be617d8b565b60200260200101519450505050505b9392505050565b60006128e86128e38484614017565b614051565b6128cd8383614017565b60d7602052806000526040600020600091509050806000015490806001015490806002016040518060a0016040529081600082015481526020016001820180548060200260200160405190810160405280929190818152602001828054801561297a57602002820191906000526020600020905b815481526020019060010190808311612966575b5050505050815260200160028201805480602002602001604051908101604052809291908181526020016000905b82821015612a545783829060005260206000200180546129c790617c0e565b80601f01602080910402602001604051908101604052809291908181526020018280546129f390617c0e565b8015612a405780601f10612a1557610100808354040283529160200191612a40565b820191906000526020600020905b815481529060010190602001808311612a2357829003601f168201915b5050505050815260200190600101906129a8565b50505050815260200160038201805480602002602001604051908101604052809291908181526020018280548015612aab57602002820191906000526020600020905b815481526020019060010190808311612a97575b5050505050815260200160048201805480602002602001604051908101604052809291908181526020018280548015612b0357602002820191906000526020600020905b815481526020019060010190808311612aef575b50505050508152505090806007016040518060a00160405290816000820154815260200160018201805480602002602001604051908101604052809291908181526020018280548015612b7557602002820191906000526020600020905b815481526020019060010190808311612b61575b5050505050815260200160028201805480602002602001604051908101604052809291908181526020016000905b82821015612c4f578382906000526020600020018054612bc290617c0e565b80601f0160208091040260200160405190810160405280929190818152602001828054612bee90617c0e565b8015612c3b5780601f10612c1057610100808354040283529160200191612c3b565b820191906000526020600020905b815481529060010190602001808311612c1e57829003601f168201915b505050505081526020019060010190612ba3565b50505050815260200160038201805480602002602001604051908101604052809291908181526020018280548015612ca657602002820191906000526020600020905b815481526020019060010190808311612c92575b5050505050815260200160048201805480602002602001604051908101604052809291908181526020018280548015612cfe57602002820191906000526020600020905b815481526020019060010190808311612cea575b50505091909252505050600d820154600e9092015490919060ff811690610100900473ffffffffffffffffffffffffffffffffffffffff1687565b600083815260d760205260409020600e0154610100900473ffffffffffffffffffffffffffffffffffffffff163373ffffffffffffffffffffffffffffffffffffffff1614612e30576040517f08c379a000000000000000000000000000000000000000000000000000000000815260206004820152604160248201527f4163636573736f726965733a3a7570646174654974656d3a204f6e6c7920437260448201527f6561746f722063616e2075706461746520746865204974656d44657461696c7360648201527f2e00000000000000000000000000000000000000000000000000000000000000608482015260a401610520565b600083815260d760205260409020829055612e5061123c611237836137cd565b600084815260d7602090815260409091208251600782019081558383015180519193612e829360080192910190616e9b565b5060408201518051612e9e916002840191602090910190616ed5565b5060608201518051612eba916003840191602090910190616e9b565b5060808201518051612ed6916004840191602090910190616e9b565b505060c954600081815260d760205260409081902090517f97fb339053294e9222f5125a680bffae48405e2c78668e4dc33b61aef56a32479350612f1d929190859061820c565b60405180910390a1505050565b606061056d60d4613128565b73ffffffffffffffffffffffffffffffffffffffff8516331480612f5f5750612f5f85336103fe565b612feb576040517f08c379a000000000000000000000000000000000000000000000000000000000815260206004820152602960248201527f455243313135353a2063616c6c6572206973206e6f74206f776e6572206e6f7260448201527f20617070726f76656400000000000000000000000000000000000000000000006064820152608401610520565b6107db85858585856140e2565b60975473ffffffffffffffffffffffffffffffffffffffff163314613079576040517f08c379a000000000000000000000000000000000000000000000000000000000815260206004820181905260248201527f4f776e61626c653a2063616c6c6572206973206e6f7420746865206f776e65726044820152606401610520565b73ffffffffffffffffffffffffffffffffffffffff811661311c576040517f08c379a000000000000000000000000000000000000000000000000000000000815260206004820152602660248201527f4f776e61626c653a206e6577206f776e657220697320746865207a65726f206160448201527f64647265737300000000000000000000000000000000000000000000000000006064820152608401610520565b61312581613727565b50565b606060006128cd83614317565b60608161317557505060408051808201909152600181527f3000000000000000000000000000000000000000000000000000000000000000602082015290565b8160005b811561319f578061318981617de9565b91506131989050600a83618270565b9150613179565b60008167ffffffffffffffff8111156131ba576131ba61719d565b6040519080825280601f01601f1916602001820160405280156131e4576020820181803683370190505b5090505b8415613267576131f96001836181dd565b9150613206600a86618284565b6132119060306181f4565b60f81b81838151811061322657613226617d8b565b60200101907effffffffffffffffffffffffffffffffffffffffffffffffffffffffffffff1916908160001a905350613260600a86618270565b94506131e8565b949350505050565b8151835114613300576040517f08c379a000000000000000000000000000000000000000000000000000000000815260206004820152602860248201527f455243313135353a2069647320616e6420616d6f756e7473206c656e6774682060448201527f6d69736d617463680000000000000000000000000000000000000000000000006064820152608401610520565b73ffffffffffffffffffffffffffffffffffffffff84166133a3576040517f08c379a000000000000000000000000000000000000000000000000000000000815260206004820152602560248201527f455243313135353a207472616e7366657220746f20746865207a65726f20616460448201527f64726573730000000000000000000000000000000000000000000000000000006064820152608401610520565b3360005b84518110156135175760008582815181106133c4576133c4617d8b565b6020026020010151905060008583815181106133e2576133e2617d8b565b602090810291909101810151600084815260658352604080822073ffffffffffffffffffffffffffffffffffffffff8e1683529093529190912054909150818110156134b0576040517f08c379a000000000000000000000000000000000000000000000000000000000815260206004820152602a60248201527f455243313135353a20696e73756666696369656e742062616c616e636520666f60448201527f72207472616e73666572000000000000000000000000000000000000000000006064820152608401610520565b600083815260656020908152604080832073ffffffffffffffffffffffffffffffffffffffff8e8116855292528083208585039055908b168252812080548492906134fc9084906181f4565b925050819055505050508061351090617de9565b90506133a7565b508473ffffffffffffffffffffffffffffffffffffffff168673ffffffffffffffffffffffffffffffffffffffff168273ffffffffffffffffffffffffffffffffffffffff167f4a39dc06d4c0dbc64b70af90fd698a233a518aa5d07e595d983b8c0526c8f7fb878760405161358e929190618298565b60405180910390a4612258818787878787614373565b600054610100900460ff1661363b576040517f08c379a000000000000000000000000000000000000000000000000000000000815260206004820152602b60248201527f496e697469616c697a61626c653a20636f6e7472616374206973206e6f74206960448201527f6e697469616c697a696e670000000000000000000000000000000000000000006064820152608401610520565b613125816145fe565b600054610100900460ff166136db576040517f08c379a000000000000000000000000000000000000000000000000000000000815260206004820152602b60248201527f496e697469616c697a61626c653a20636f6e7472616374206973206e6f74206960448201527f6e697469616c697a696e670000000000000000000000000000000000000000006064820152608401610520565b61116161469e565b60006128cd8373ffffffffffffffffffffffffffffffffffffffff841661473e565b600061055b825490565b60006128cd82846181f4565b60006128cd838361473e565b6097805473ffffffffffffffffffffffffffffffffffffffff8381167fffffffffffffffffffffffff0000000000000000000000000000000000000000831681179093556040519116919082907f8be0079c531659141344cd1fd0a4f28419497f9722a3daafe3b4186f6b6457e090600090a35050565b73ffffffffffffffffffffffffffffffffffffffff8116600090815260018301602052604081205415156128cd565b6137ff6040518060a0016040528060008152602001606081526020016060815260200160608152602001606081525090565b815151613868576040517f08c379a000000000000000000000000000000000000000000000000000000000815260206004820152600960248201527f305f534f555243455300000000000000000000000000000000000000000000006044820152606401610520565b6040518060a0016040528060008152602001836040015167ffffffffffffffff8111156138975761389761719d565b6040519080825280602002602001820160405280156138c0578160200160208202803683370190505b5081526020018360000151815260200183602001518152602001836060015167ffffffffffffffff8111156138f7576138f761719d565b604051908082528060200260200182016040528015613920578160200160208202803683370190505b50905292915050565b6000806139548360405160200161394091906182bd565b60405160208183030381529060405261478d565b90507ff95eed63f55d96a35306669cc3b5f652f8d44552e3e4b17b2f78f13571114abd338285604051613989939291906182d0565b60405180910390a192915050565b6139c96040518060a0016040528060008152602001606081526020016060815260200160608152602001606081525090565b6139d282614818565b80602001905181019061055b919061844c565b60006139f260d283614846565b156139fb575090565b6040517f08c379a000000000000000000000000000000000000000000000000000000000815260206004820152602b60248201527f4163636573736f726965733a3a676574436c6173733a20496e76616c6964206360448201527f6c6173732076616c75652e0000000000000000000000000000000000000000006064820152608401610520565b919050565b600060ff8216613a9a57506000919050565b8160ff1660011415613aae57506001919050565b8160ff1660021415613ac257506002919050565b8160ff1660031415613ad657506003919050565b8160ff1660041415613aea57506004919050565b6040517f08c379a000000000000000000000000000000000000000000000000000000000815260206004820152602660248201527f4163636573736f726965733a3a6765745261726974793a20496e76616c69642060448201527f52617269747900000000000000000000000000000000000000000000000000006064820152608401610520565b60006128cd8373ffffffffffffffffffffffffffffffffffffffff841661485e565b602082810151604084015183830201909101516060840151608085015182516000948594859492939092915b84881015613d4d576002880197508784015180601e1a975080601f1a9650506005871015613d41576001871415613c23578160808716613bfd5750825b8a516020607f89160260200182015160208202602001840152600181018c525050613bc0565b6002871415613c4e5789516020870260200182015160208202602001830152600181018b5250613bc0565b6003871415613c6757613c628b8b88614958565b613bc0565b6004871415613c9857613c628a604051602001613c8491906182bd565b604051602081830303815290604052614abe565b607f6101fe600188901b161786166080871615613d04578a517fffffffffffffffffffffffffffffffffffffffffffffffffffffffffffffffff01808c5260208c015180519091908110613cee57613cee617d8b565b602002602001015160001415613d045750613bc0565b8060000b600014613d3b5760008160000b1215613d2f57801960020160020260ff1689039850613d3b565b8060020260ff16890198505b50613bc0565b613c628b8b8989614b4d565b5050505050505050505050565b73ffffffffffffffffffffffffffffffffffffffff8416613dfd576040517f08c379a000000000000000000000000000000000000000000000000000000000815260206004820152602160248201527f455243313135353a206d696e7420746f20746865207a65726f2061646472657360448201527f73000000000000000000000000000000000000000000000000000000000000006064820152608401610520565b33613e1781600087613e0e88614cd7565b6107db88614cd7565b600084815260656020908152604080832073ffffffffffffffffffffffffffffffffffffffff8916845290915281208054859290613e569084906181f4565b9091555050604080518581526020810185905273ffffffffffffffffffffffffffffffffffffffff80881692600092918516917fc3d58168c5ae7397731d063d5bbf3d657854427343f4c083240f7aacaa2d0f62910160405180910390a46107db81600087878787614d22565b8173ffffffffffffffffffffffffffffffffffffffff168373ffffffffffffffffffffffffffffffffffffffff161415613f7f576040517f08c379a000000000000000000000000000000000000000000000000000000000815260206004820152602960248201527f455243313135353a2073657474696e6720617070726f76616c2073746174757360448201527f20666f722073656c6600000000000000000000000000000000000000000000006064820152608401610520565b73ffffffffffffffffffffffffffffffffffffffff83811660008181526066602090815260408083209487168084529482529182902080547fffffffffffffffffffffffffffffffffffffffffffffffffffffffffffffff001686151590811790915591519182527f17307eab39ab6107e8899845ad3d59bd9653f200f220920489ca2b5937696c31910160405180910390a3505050565b6000805b600881101561404757828160200285901c63ffffffff16111561403f57905061055b565b60010161401b565b5060089392505050565b6131258160405160240161406791815260200190565b604080517fffffffffffffffffffffffffffffffffffffffffffffffffffffffffffffffe08184030181529190526020810180517bffffffffffffffffffffffffffffffffffffffffffffffffffffffff167ff5b1bba900000000000000000000000000000000000000000000000000000000179052614ecf565b73ffffffffffffffffffffffffffffffffffffffff8416614185576040517f08c379a000000000000000000000000000000000000000000000000000000000815260206004820152602560248201527f455243313135353a207472616e7366657220746f20746865207a65726f20616460448201527f64726573730000000000000000000000000000000000000000000000000000006064820152608401610520565b33614195818787613e0e88614cd7565b600084815260656020908152604080832073ffffffffffffffffffffffffffffffffffffffff8a16845290915290205483811015614255576040517f08c379a000000000000000000000000000000000000000000000000000000000815260206004820152602a60248201527f455243313135353a20696e73756666696369656e742062616c616e636520666f60448201527f72207472616e73666572000000000000000000000000000000000000000000006064820152608401610520565b600085815260656020908152604080832073ffffffffffffffffffffffffffffffffffffffff8b81168552925280832087850390559088168252812080548692906142a19084906181f4565b9091555050604080518681526020810186905273ffffffffffffffffffffffffffffffffffffffff808916928a821692918616917fc3d58168c5ae7397731d063d5bbf3d657854427343f4c083240f7aacaa2d0f62910160405180910390a461430e828888888888614d22565b50505050505050565b60608160000180548060200260200160405190810160405280929190818152602001828054801561436757602002820191906000526020600020905b815481526020019060010190808311614353575b50505050509050919050565b73ffffffffffffffffffffffffffffffffffffffff84163b15612258576040517fbc197c8100000000000000000000000000000000000000000000000000000000815273ffffffffffffffffffffffffffffffffffffffff85169063bc197c81906143ea908990899088908890889060040161852f565b6020604051808303816000875af1925050508015614443575060408051601f3d9081017fffffffffffffffffffffffffffffffffffffffffffffffffffffffffffffffe01682019092526144409181019061859a565b60015b61452d5761444f6185b7565b806308c379a014156144a357506144646185d3565b8061446f57506144a5565b806040517f08c379a0000000000000000000000000000000000000000000000000000000008152600401610520919061718a565b505b6040517f08c379a000000000000000000000000000000000000000000000000000000000815260206004820152603460248201527f455243313135353a207472616e7366657220746f206e6f6e204552433131353560448201527f526563656976657220696d706c656d656e7465720000000000000000000000006064820152608401610520565b7fffffffff0000000000000000000000000000000000000000000000000000000081167fbc197c81000000000000000000000000000000000000000000000000000000001461430e576040517f08c379a000000000000000000000000000000000000000000000000000000000815260206004820152602860248201527f455243313135353a204552433131353552656365697665722072656a6563746560448201527f6420746f6b656e730000000000000000000000000000000000000000000000006064820152608401610520565b600054610100900460ff16614695576040517f08c379a000000000000000000000000000000000000000000000000000000000815260206004820152602b60248201527f496e697469616c697a61626c653a20636f6e7472616374206973206e6f74206960448201527f6e697469616c697a696e670000000000000000000000000000000000000000006064820152608401610520565b61312581614ef0565b600054610100900460ff16614735576040517f08c379a000000000000000000000000000000000000000000000000000000000815260206004820152602b60248201527f496e697469616c697a61626c653a20636f6e7472616374206973206e6f74206960448201527f6e697469616c697a696e670000000000000000000000000000000000000000006064820152608401610520565b61116133613727565b60008181526001830160205260408120546147855750815460018181018455600084815260208082209093018490558454848252828601909352604090209190915561055b565b50600061055b565b6000806147b8836040516020016147a4919061867b565b604051602081830303815290604052614f03565b90508051602082016000f0915073ffffffffffffffffffffffffffffffffffffffff8216614812576040517f08d4abb600000000000000000000000000000000000000000000000000000000815260040160405180910390fd5b50919050565b606061055b8260017fffffffffffffffffffffffffffffffffffffffffffffffffffffffffffffffff614f19565b600081815260018301602052604081205415156128cd565b600081815260018301602052604081205480156149475760006148826001836181dd565b8554909150600090614896906001906181dd565b90508181146148fb5760008660000182815481106148b6576148b6617d8b565b90600052602060002001549050808760000184815481106148d9576148d9617d8b565b6000918252602080832090910192909255918252600188019052604090208390555b855486908061490c5761490c6186a1565b60019003818190600052602060002001600090559055856001016000868152602001908152602001600020600090556001935050505061055b565b600091505061055b565b5092915050565b81517fffffffffffffffffffffffffffffffffffffffffffffffffffffffffffffffff600583901c918290030183526007821690610100600384811c1681901c91908290039060010160008167ffffffffffffffff8111156149bc576149bc61719d565b6040519080825280602002602001820160405280156149e5578160200160208202803683370190505b50905060005b82811015614a3c5787602001518189600001510181518110614a0f57614a0f617d8b565b6020026020010151828281518110614a2957614a29617d8b565b60209081029190910101526001016149eb565b5060005b610100811015614ab35760005b83811015614aa05784828603848381518110614a6b57614a6b617d8b565b6020026020010151901b901c89608001518281518110614a8d57614a8d617d8b565b6020908102919091010152600101614a4d565b50614aac898988613b94565b8401614a40565b505050505050505050565b61312581604051602401614ad2919061718a565b604080517fffffffffffffffffffffffffffffffffffffffffffffffffffffffffffffffe08184030181529190526020810180517bffffffffffffffffffffffffffffffffffffffffffffffffffffffff167f0be77f5600000000000000000000000000000000000000000000000000000000179052614ecf565b7f0000000000000000000000000000000000000000000000000000000000000000821015614b8857614b83836005840383615001565b614cd1565b7f00000000000000000000000000000000000000000000000000000000000000008203915060018210614c17576040517f08c379a000000000000000000000000000000000000000000000000000000000815260206004820152600a60248201527f4d41585f4f50434f4445000000000000000000000000000000000000000000006044820152606401610520565b60008360200151600285600001510381518110614c3657614c36617d8b565b6020026020010151905060008460200151600186600001510381518110614c5f57614c5f617d8b565b602090810291909101015185517ffffffffffffffffffffffffffffffffffffffffffffffffffffffffffffffffe01865290506000614c9e8383614017565b9050808660200151876000015181518110614cbb57614cbb617d8b565b6020908102919091010152505083516001018452505b50505050565b60408051600180825281830190925260609160009190602080830190803683370190505090508281600081518110614d1157614d11617d8b565b602090810291909101015292915050565b73ffffffffffffffffffffffffffffffffffffffff84163b15612258576040517ff23a6e6100000000000000000000000000000000000000000000000000000000815273ffffffffffffffffffffffffffffffffffffffff85169063f23a6e6190614d9990899089908890889088906004016186d0565b6020604051808303816000875af1925050508015614df2575060408051601f3d9081017fffffffffffffffffffffffffffffffffffffffffffffffffffffffffffffffe0168201909252614def9181019061859a565b60015b614dfe5761444f6185b7565b7fffffffff0000000000000000000000000000000000000000000000000000000081167ff23a6e61000000000000000000000000000000000000000000000000000000001461430e576040517f08c379a000000000000000000000000000000000000000000000000000000000815260206004820152602860248201527f455243313135353a204552433131353552656365697665722072656a6563746560448201527f6420746f6b656e730000000000000000000000000000000000000000000000006064820152608401610520565b80516a636f6e736f6c652e6c6f67602083016000808483855afa5050505050565b8051610969906067906020840190616e17565b6060815182604051602001610703929190618715565b6060833b80614f385750506040805160208101909152600081526128cd565b80841115614f565750506040805160208101909152600081526128cd565b83831015614fa1576040517f2c4a89fa000000000000000000000000000000000000000000000000000000008152600481018290526024810185905260448101849052606401610520565b8383038482036000828210614fb65782614fb8565b815b60408051603f83017fffffffffffffffffffffffffffffffffffffffffffffffffffffffffffffffe0168101909152818152955090508087602087018a3c505050509392505050565b600482101561501a5761501583838361516c565b505050565b601d82101561509d57600b82101561503a57615015836004840383615282565b601682101561507057615015837ffffffffffffffffffffffffffffffffffffffffffffffffffffffffffffffff58401836155b0565b615015837fffffffffffffffffffffffffffffffffffffffffffffffffffffffffffffffea8401836159e7565b60238210156150d357615015837fffffffffffffffffffffffffffffffffffffffffffffffffffffffffffffffe3840183615bf8565b602582101561510957615015837fffffffffffffffffffffffffffffffffffffffffffffffffffffffffffffffdd8401836160cc565b602782101561513f57615015837fffffffffffffffffffffffffffffffffffffffffffffffffffffffffffffffdb840183616300565b615015837fffffffffffffffffffffffffffffffffffffffffffffffffffffffffffffffd98401836164af565b600482106151d6576040517f08c379a000000000000000000000000000000000000000000000000000000000815260206004820152600a60248201527f4d41585f4f50434f4445000000000000000000000000000000000000000000006044820152606401610520565b81615207574383602001518460000151815181106151f6576151f6617d8b565b602002602001018181525050615277565b600182141561522b574283602001518460000151815181106151f6576151f6617d8b565b600282141561524f576020830151835181513392919081106151f6576151f6617d8b565b60208301518351815130929190811061526a5761526a617d8b565b6020026020010181815250505b505080516001019052565b600782106152ec576040517f08c379a000000000000000000000000000000000000000000000000000000000815260206004820152600a60248201527f4d41585f4f50434f4445000000000000000000000000000000000000000000006044820152606401610520565b60028210156154385782517ffffffffffffffffffffffffffffffffffffffffffffffffffffffffffffffffe0182615397578360200151816001018151811061533757615337617d8b565b602002602001015161536f838660200151848151811061535957615359617d8b565b602002602001015161691c90919063ffffffff16565b028460200151828151811061538657615386617d8b565b60200260200101818152505061540c565b600183141561540c57836020015181600101815181106153b9576153b9617d8b565b60200260200101516153db838660200151848151811061535957615359617d8b565b816153e8576153e8618241565b04846020015182815181106153ff576153ff617d8b565b6020026020010181815250505b5082517fffffffffffffffffffffffffffffffffffffffffffffffffffffffffffffffff018352505050565b60058210156155495782517fffffffffffffffffffffffffffffffffffffffffffffffffffffffffffffffff0160028314156154af57615488828560200151838151811061535957615359617d8b565b8460200151828151811061549e5761549e617d8b565b602002602001018181525050614cd1565b60038314156154e85761548882856020015183815181106154d2576154d2617d8b565b602002602001015161697e90919063ffffffff16565b6004831415614cd157615521828560200151838151811061550b5761550b617d8b565b60200260200101516169af90919063ffffffff16565b8460200151828151811061553757615537617d8b565b60200260200101818152505050505050565b600582141561558b57602083015183518151670de0b6b3a7640000929190811061557557615575617d8b565b6020908102919091010152505080516001019052565b6006821415615015576012836020015184600001518151811061526a5761526a617d8b565b600b821061561a576040517f08c379a000000000000000000000000000000000000000000000000000000000815260206004820152600a60248201527f4d41585f4f50434f4445000000000000000000000000000000000000000000006044820152606401610520565b825160208401518051838303927fffffffffffffffffffffffffffffffffffffffffffffffffffffffffffffffff01918391600091908390811061566057615660617d8b565b6020026020010151905060008614156156b8575b828210156156b357602087015180516001909301928390811061569957615699617d8b565b6020026020010151816156ac91906181f4565b9050615674565b6159b8565b6001861415615709575b828210156156b3578180600101925050615702876020015183815181106156eb576156eb617d8b565b6020026020010151826169ed90919063ffffffff16565b90506156c2565b6002861415615752575b828210156156b357602087015180516001909301928390811061573857615738617d8b565b60200260200101518161574b91906181dd565b9050615713565b60038614156157a3575b828210156156b357818060010192505061579c8760200151838151811061578557615785617d8b565b602002602001015182616a2890919063ffffffff16565b905061575c565b60048614156157ec575b828210156156b35760208701518051600190930192839081106157d2576157d2617d8b565b6020026020010151816157e591906187ac565b90506157ad565b600586141561583d575b828210156156b35781806001019250506158368760200151838151811061581f5761581f617d8b565b602002602001015182616a3e90919063ffffffff16565b90506157f6565b6006861415615886575b828210156156b357602087015180516001909301928390811061586c5761586c617d8b565b60200260200101518161587f9190618270565b9050615847565b60078614156158cf575b828210156156b35760208701518051600190930192839081106158b5576158b5617d8b565b6020026020010151816158c89190618284565b9050615890565b6008861415615918575b828210156156b35760208701518051600190930192839081106158fe576158fe617d8b565b6020026020010151816159119190618909565b90506158d9565b600986141561596a5760005b8383101561596457602088015180516001909401938490811061594957615949617d8b565b602002602001015190508181101561595f578091505b615924565b506159b8565b600a8614156159b85760005b838310156159b657602088015180516001909401938490811061599b5761599b617d8b565b60200260200101519050818111156159b1578091505b615976565b505b80876020015185815181106159cf576159cf617d8b565b60209081029190910101525050506001019092525050565b60078210615a51576040517f08c379a000000000000000000000000000000000000000000000000000000000815260206004820152600a60248201527f4d41585f4f50434f4445000000000000000000000000000000000000000000006044820152606401610520565b82516020808501518183020101838015615a9a5760018114615ac75760028114615b325760038114615b4c5760048114615b665760058114615b805760068114615bb857612258565b7fffffffffffffffffffffffffffffffffffffffffffffffffffffffffffffffe082018051159052612258565b7ffffffffffffffffffffffffffffffffffffffffffffffffffffffffffffffffe830186527fffffffffffffffffffffffffffffffffffffffffffffffffffffffffffffffa0820180518015615b235760208201518252615b2b565b604082015182525b5050612258565b600183038652604082036020810151815114815250612258565b600183038652604082036020810151815110815250612258565b600183038652604082036020810151815111815250612258565b8315615bb3576001840383038652602084028203805b83811015615b2b578051615bab575060008152825b602001615b96565b612258565b8315612258576001840383038652602084028203805b83811015615bee5780518015615be5578491508083525b50602001615bce565b5050505050505050565b60068210615c62576040517f08c379a000000000000000000000000000000000000000000000000000000000815260206004820152600a60248201527f4d41585f4f50434f4445000000000000000000000000000000000000000000006044820152606401610520565b600082615d8a575082517fffffffffffffffffffffffffffffffffffffffffffffffffffffffffffffffff81018452602084015180517ffffffffffffffffffffffffffffffffffffffffffffffffffffffffffffffffe9092019182908110615ccd57615ccd617d8b565b602002602001015173ffffffffffffffffffffffffffffffffffffffff1663e053ea3185602001518360010181518110615d0957615d09617d8b565b60200260200101516040518263ffffffff1660e01b8152600401615d49919073ffffffffffffffffffffffffffffffffffffffff91909116815260200190565b602060405180830381865afa158015615d66573d6000803e3d6000fd5b505050506040513d601f19601f820116820180604052508101906154889190617e22565b6001831415615de5577fffffffffffffffffffffffffffffffffffffffffffffffffffffffffffffffff8460200151856000015181518110615dce57615dce617d8b565b602090810291909101015283516001018452614cd1565b6002831415615e0a5760008460200151856000015181518110615dce57615dce617d8b565b6003831415615ebe575082517ffffffffffffffffffffffffffffffffffffffffffffffffffffffffffffffffe01808452602084015180516000919083908110615e5657615e56617d8b565b60200260200101519050600085602001518360010181518110615e7b57615e7b617d8b565b60200260200101519050615e8f8282616a6d565b86602001518481518110615ea557615ea5617d8b565b6020908102919091010152505083516001018452614cd1565b6004831415615f86575082517ffffffffffffffffffffffffffffffffffffffffffffffffffffffffffffffffe0180845260208401518051600f80851692600486901c909116916000919085908110615f1957615f19617d8b565b60200260200101519050600087602001518560010181518110615f3e57615f3e617d8b565b60200260200101519050615f5482858584616ac4565b88602001518681518110615f6a57615f6a617d8b565b602090810291909101015250508551600101865250614cd19050565b6005831415614cd1575082517fffffffffffffffffffffffffffffffffffffffffffffffffffffffffffffffff601f8316918290030180855290600783901c906003600585901c16908360008267ffffffffffffffff811115615feb57615feb61719d565b604051908082528060200260200182016040528015616014578160200160208202803683370190505b50905060005b83811015616069578960200151838151811061603857616038617d8b565b602002602001015182828151811061605257616052617d8b565b60209081029190910101526001928301920161601a565b5060008960200151838151811061608257616082617d8b565b6020026020010151905061609882828888616b6a565b8a6020015188815181106160ae576160ae617d8b565b60209081029190910101525050875160010188525050505050505050565b60028210616136576040517f08c379a000000000000000000000000000000000000000000000000000000000815260206004820152600a60248201527f4d41585f4f50434f4445000000000000000000000000000000000000000000006044820152606401610520565b816162885782517fffffffffffffffffffffffffffffffffffffffffffffffffffffffffffffffff810184526020840151805190917ffffffffffffffffffffffffffffffffffffffffffffffffffffffffffffffffe0190811061619c5761619c617d8b565b602002602001015173ffffffffffffffffffffffffffffffffffffffff166370a0823184602001518560000151815181106161d9576161d9617d8b565b60200260200101516040518263ffffffff1660e01b8152600401616219919073ffffffffffffffffffffffffffffffffffffffff91909116815260200190565b602060405180830381865afa158015616236573d6000803e3d6000fd5b505050506040513d601f19601f8201168201806040525081019061625a9190617e22565b836020015160018560000151038151811061627757616277617d8b565b602002602001018181525050505050565b60018214156150155782602001516001846000015103815181106162ae576162ae617d8b565b602002602001015173ffffffffffffffffffffffffffffffffffffffff166318160ddd6040518163ffffffff1660e01b8152600401602060405180830381865afa158015616236573d6000803e3d6000fd5b6002821061636a576040517f08c379a000000000000000000000000000000000000000000000000000000000815260206004820152600a60248201527f4d41585f4f50434f4445000000000000000000000000000000000000000000006044820152606401610520565b82517fffffffffffffffffffffffffffffffffffffffffffffffffffffffffffffffff018352816163b257826020015160018460000151038151811061619c5761619c617d8b565b60018214156150155782602001516001846000015103815181106163d8576163d8617d8b565b602002602001015173ffffffffffffffffffffffffffffffffffffffff16636352211e846020015185600001518151811061641557616415617d8b565b60200260200101516040518263ffffffff1660e01b815260040161643b91815260200190565b602060405180830381865afa158015616458573d6000803e3d6000fd5b505050506040513d601f19601f8201168201806040525081019061647c9190618915565b73ffffffffffffffffffffffffffffffffffffffff16836020015160018560000151038151811061627757616277617d8b565b60028210616519576040517f08c379a000000000000000000000000000000000000000000000000000000000815260206004820152600a60248201527f4d41585f4f50434f4445000000000000000000000000000000000000000000006044820152606401610520565b816166645782517ffffffffffffffffffffffffffffffffffffffffffffffffffffffffffffffffe81018452602084015180517ffffffffffffffffffffffffffffffffffffffffffffffffffffffffffffffffd909201918290811061658157616581617d8b565b602002602001015173ffffffffffffffffffffffffffffffffffffffff1662fdd58e856020015183600101815181106165bc576165bc617d8b565b6020026020010151866020015184600201815181106165dd576165dd617d8b565b60200260200101516040518363ffffffff1660e01b815260040161662392919073ffffffffffffffffffffffffffffffffffffffff929092168252602082015260400190565b602060405180830381865afa158015616640573d6000803e3d6000fd5b505050506040513d601f19601f820116820180604052508101906155219190617e22565b6001821415615015576001810160008167ffffffffffffffff81111561668c5761668c61719d565b6040519080825280602002602001820160405280156166b5578160200160208202803683370190505b50905060008267ffffffffffffffff8111156166d3576166d361719d565b6040519080825280602002602001820160405280156166fc578160200160208202803683370190505b5086518490037fffffffffffffffffffffffffffffffffffffffffffffffffffffffffffffffff818101895260208901518051939450918690030191600091908390811061674c5761674c617d8b565b6020026020010151905060005b858110156168035788602001518184016001018151811061677c5761677c617d8b565b602002602001015185828151811061679657616796617d8b565b73ffffffffffffffffffffffffffffffffffffffff909216602092830291909101820152890151805160018589018401019081106167d6576167d6617d8b565b60200260200101518482815181106167f0576167f0617d8b565b6020908102919091010152600101616759565b506040517f4e1273f400000000000000000000000000000000000000000000000000000000815260009073ffffffffffffffffffffffffffffffffffffffff831690634e1273f49061685b9088908890600401618932565b600060405180830381865afa158015616878573d6000803e3d6000fd5b505050506040513d6000823e601f3d9081017fffffffffffffffffffffffffffffffffffffffffffffffffffffffffffffffe01682016040526168be9190810190618945565b905060005b86811015616910578181815181106168dd576168dd617d8b565b60200260200101518a60200151828601815181106168fd576168fd617d8b565b60209081029190910101526001016168c3565b50505050505050505050565b6000816012141561692e57508161055b565b816012111561695e576169428260126181dd565b61694d90600a618909565b61695790846187ac565b905061055b565b6169696012836181dd565b61697490600a618909565b6169579084618270565b6000601282141561699057508161055b565b81601211156169a4576169698260126181dd565b6169426012836181dd565b600081810b6169bf57508161055b565b60008260000b13156169d65761694d82600a61897a565b6169e282196001618989565b61697490600a61897a565b60008282018381106169ff5780613267565b7fffffffffffffffffffffffffffffffffffffffffffffffffffffffffffffffff949350505050565b6000818311616a385760006128cd565b50900390565b600082616a4d5750600061055b565b82820282848281616a6057616a60618241565b0414156169ff5780613267565b60008060015b60088111610c3a576000616a878683616cba565b90506000616a958684616cba565b90506000616aa38383616a28565b9050616ab3856001860383616d67565b94505060019092019150616a739050565b6000826008811115616b32576040517f08c379a000000000000000000000000000000000000000000000000000000000815260206004820152600860248201527f4d41585f544945520000000000000000000000000000000000000000000000006044820152606401610520565b6000855b85811015616b5e5763ffffffff6020820290811b199890981685891b17979150600101616b36565b50959695505050505050565b835160009081908190819060015b60088111616cac57600092508287616bb157507fffffffffffffffffffffffffffffffffffffffffffffffffffffffffffffffff616bb5565b5060005b60005b83811015616c6a57616be38c8281518110616bd557616bd5617d8b565b602002602001015184616cba565b95508a8611616c355788616c0257616bfb8683616df1565b9150616c2c565b6001891415616c1557616bfb8683616e07565b600289148015616c23575084155b15616c2c578591505b60019450616c62565b89616c62577fffffffffffffffffffffffffffffffffffffffffffffffffffffffffffffffff9150616c6a565b600101616bb8565b5083616c9357507fffffffffffffffffffffffffffffffffffffffffffffffffffffffffffffffff5b616ca1866001840383616d67565b955050600101616b78565b509298975050505050505050565b6000816008811115616d28576040517f08c379a000000000000000000000000000000000000000000000000000000000815260206004820152600860248201527f4d41585f544945520000000000000000000000000000000000000000000000006044820152606401610520565b82616d365760009150614951565b50507fffffffffffffffffffffffffffffffffffffffffffffffffffffffffffffffff016020021c63ffffffff1690565b6000826008811115616dd5576040517f08c379a000000000000000000000000000000000000000000000000000000000815260206004820152600860248201527f4d41585f544945520000000000000000000000000000000000000000000000006044820152606401610520565b505060209190910290811b63ffffffff90911b19919091161790565b6000818310616e0057816128cd565b5090919050565b600081831015616e0057816128cd565b828054616e2390617c0e565b90600052602060002090601f016020900481019282616e455760008555616e8b565b82601f10616e5e57805160ff1916838001178555616e8b565b82800160010185558215616e8b579182015b82811115616e8b578251825591602001919060010190616e70565b50616e97929150616fa8565b5090565b828054828255906000526020600020908101928215616e8b5791602002820182811115616e8b578251825591602001919060010190616e70565b828054828255906000526020600020908101928215616f22579160200282015b82811115616f225782518051616f12918491602090910190616e17565b5091602001919060010190616ef5565b50616e97929150616fbd565b828054828255906000526020600020908101928215616e8b579160200282015b82811115616e8b57825182547fffffffffffffffffffffffff00000000000000000000000000000000000000001673ffffffffffffffffffffffffffffffffffffffff909116178255602090920191600190910190616f4e565b5b80821115616e975760008155600101616fa9565b80821115616e97576000616fd18282616fda565b50600101616fbd565b508054616fe690617c0e565b6000825580601f10616ff6575050565b601f0160209004906000526020600020908101906131259190616fa8565b73ffffffffffffffffffffffffffffffffffffffff8116811461312557600080fd5b6000806040838503121561704957600080fd5b823561705481617014565b946020939093013593505050565b600081518084526020808501945080840160005b8381101561709257815187529582019590820190600101617076565b509495945050505050565b6020815260006128cd6020830184617062565b7fffffffff000000000000000000000000000000000000000000000000000000008116811461312557600080fd5b6000602082840312156170f057600080fd5b81356128cd816170b0565b60006020828403121561710d57600080fd5b5035919050565b60005b8381101561712f578181015183820152602001617117565b83811115614cd15750506000910152565b60008151808452617158816020860160208601617114565b601f017fffffffffffffffffffffffffffffffffffffffffffffffffffffffffffffffe0169290920160200192915050565b6020815260006128cd6020830184617140565b7f4e487b7100000000000000000000000000000000000000000000000000000000600052604160045260246000fd5b6080810181811067ffffffffffffffff821117156171ec576171ec61719d565b60405250565b7fffffffffffffffffffffffffffffffffffffffffffffffffffffffffffffffe0601f830116810181811067ffffffffffffffff821117156172365761723661719d565b6040525050565b60405160a0810167ffffffffffffffff811182821017156172605761726061719d565b60405290565b600067ffffffffffffffff8211156172805761728061719d565b5060051b60200190565b600082601f83011261729b57600080fd5b813560206172a882617266565b6040516172b582826171f2565b83815260059390931b85018201928281019150868411156172d557600080fd5b8286015b848110156172f057803583529183019183016172d9565b509695505050505050565b600067ffffffffffffffff8211156173155761731561719d565b50601f017fffffffffffffffffffffffffffffffffffffffffffffffffffffffffffffffe01660200190565b600082601f83011261735257600080fd5b813561735d816172fb565b60405161736a82826171f2565b82815285602084870101111561737f57600080fd5b82602086016020830137600092810160200192909252509392505050565b600080600080600060a086880312156173b557600080fd5b85356173c081617014565b945060208601356173d081617014565b9350604086013567ffffffffffffffff808211156173ed57600080fd5b6173f989838a0161728a565b9450606088013591508082111561740f57600080fd5b61741b89838a0161728a565b9350608088013591508082111561743157600080fd5b5061743e88828901617341565b9150509295509295909350565b60006020828403121561745d57600080fd5b813567ffffffffffffffff8082111561747557600080fd5b908301906040828603121561748957600080fd5b6040516040810181811083821117156174a4576174a461719d565b60405282356174b281617014565b81526020830135828111156174c657600080fd5b6174d287828601617341565b60208301525095945050505050565b6000602082840312156174f357600080fd5b81356128cd81617014565b600082601f83011261750f57600080fd5b8135602061751c82617266565b60405161752982826171f2565b83815260059390931b850182019282810191508684111561754957600080fd5b8286015b848110156172f057803561756081617014565b835291830191830161754d565b6000806040838503121561758057600080fd5b823567ffffffffffffffff8082111561759857600080fd5b6175a4868387016174fe565b935060208501359150808211156175ba57600080fd5b506175c78582860161728a565b9150509250929050565b6000602082840312156175e357600080fd5b813567ffffffffffffffff8111156175fa57600080fd5b61326784828501617341565b6000602080838503121561761957600080fd5b823567ffffffffffffffff8082111561763157600080fd5b818501915085601f83011261764557600080fd5b813561765081617266565b60405161765d82826171f2565b82815260059290921b840185019185810191508883111561767d57600080fd5b8585015b838110156176b5578035858111156176995760008081fd5b6176a78b89838a0101617341565b845250918601918601617681565b5098975050505050505050565b6000608082840312156176d457600080fd5b6040516176e0816171cc565b809150823567ffffffffffffffff808211156176fb57600080fd5b818501915085601f83011261770f57600080fd5b8135602061771c82617266565b60405161772982826171f2565b83815260059390931b850182019282810191508984111561774957600080fd5b8286015b84811015617781578035868111156177655760008081fd5b6177738c86838b0101617341565b84525091830191830161774d565b508652508681013593508284111561779857600080fd5b6177a48885890161728a565b818601525050505060408301356040820152606083013560608201525092915050565b803560ff81168114613a8357600080fd5b60008060008060008060c087890312156177f157600080fd5b86359550602087013567ffffffffffffffff8082111561781057600080fd5b61781c8a838b016176c2565b9650604089013591508082111561783257600080fd5b61783e8a838b016176c2565b9550606089013591508082111561785457600080fd5b5061786189828a016174fe565b935050617870608088016177c7565b915061787e60a088016177c7565b90509295509295509295565b6000806040838503121561789d57600080fd5b50508035926020909101359150565b801515811461312557600080fd5b600080604083850312156178cd57600080fd5b82356178d881617014565b915060208301356178e8816178ac565b809150509250929050565b60008060006060848603121561790857600080fd5b83359250602084013561791a81617014565b929592945050506040919091013590565b600081518084526020808501808196508360051b8101915082860160005b85811015617973578284038952617961848351617140565b98850198935090840190600101617949565b5091979650505050505050565b805182526000602082015160a0602085015261799f60a0850182617062565b9050604083015184820360408601526179b8828261792b565b915050606083015184820360608601526179d28282617062565b915050608083015184820360808601526179ec8282617062565b95945050505050565b7f4e487b7100000000000000000000000000000000000000000000000000000000600052602160045260246000fd5b60058110617a5b577f4e487b7100000000000000000000000000000000000000000000000000000000600052602160045260246000fd5b9052565b87815286602082015260e060408201526000617a7e60e0830188617980565b8281036060840152617a908188617980565b915050846080830152617aa660a0830185617a24565b73ffffffffffffffffffffffffffffffffffffffff831660c083015298975050505050505050565b600080600060608486031215617ae357600080fd5b8335925060208401359150604084013567ffffffffffffffff811115617b0857600080fd5b617b14868287016176c2565b9150509250925092565b600081518084526020808501945080840160005b8381101561709257815173ffffffffffffffffffffffffffffffffffffffff1687529582019590820190600101617b32565b6020815260006128cd6020830184617b1e565b60008060408385031215617b8a57600080fd5b8235617b9581617014565b915060208301356178e881617014565b600080600080600060a08688031215617bbd57600080fd5b8535617bc881617014565b94506020860135617bd881617014565b93506040860135925060608601359150608086013567ffffffffffffffff811115617c0257600080fd5b61743e88828901617341565b600181811c90821680617c2257607f821691505b60208210811415614812577f4e487b7100000000000000000000000000000000000000000000000000000000600052602260045260246000fd5b6000808454617c6a81617c0e565b60018281168015617c825760018114617cb157617ce0565b7fffffffffffffffffffffffffffffffffffffffffffffffffffffffffffffff00841687528287019450617ce0565b8860005260208060002060005b85811015617cd75781548a820152908401908201617cbe565b50505082870194505b507f2f00000000000000000000000000000000000000000000000000000000000000845286519250617d188382860160208a01617114565b7f2e6a736f6e000000000000000000000000000000000000000000000000000000939092019182019290925260060195945050505050565b6020815273ffffffffffffffffffffffffffffffffffffffff8251166020820152600060208301516040808401526132676060840182617140565b7f4e487b7100000000000000000000000000000000000000000000000000000000600052603260045260246000fd5b7f4e487b7100000000000000000000000000000000000000000000000000000000600052601160045260246000fd5b60007fffffffffffffffffffffffffffffffffffffffffffffffffffffffffffffffff821415617e1b57617e1b617dba565b5060010190565b600060208284031215617e3457600080fd5b5051919050565b600060208284031215617e4d57600080fd5b81516128cd816178ac565b600060408201848352602060408185015281855180845260608601915060608160051b870101935082870160005b82811015617ed2577fffffffffffffffffffffffffffffffffffffffffffffffffffffffffffffffa0888703018452617ec0868351617140565b95509284019290840190600101617e86565b509398975050505050505050565b6000815480845260208085019450836000528060002060005b8381101561709257815487529582019560019182019101617ef9565b8054825260006001602060a081860152617f3460a08601838601617ee0565b600285016040878303818901528282548085528585019150858160051b86010160008581528781209550805b83811015618028577fffffffffffffffffffffffffffffffffffffffffffffffffffffffffffffffe0888403018552818754617f9b81617c0e565b808652818d168015617fb45760018114617fe557618014565b7fffffffffffffffffffffffffffffffffffffffffffffffffffffffffffffff0083168d8801528987019350618014565b8a86528c8620865b8381101561800c5781548f828b0101528f820191508e81019050617fed565b88018e019450505b505050968a01969489019492508901617f60565b50508a810360608c015261803f8160038c01617ee0565b97505050505050505083810360808501526132678160048501617ee0565b6000815480845260208085019450836000528060002060005b8381101561709257815473ffffffffffffffffffffffffffffffffffffffff1687529582019560019182019101618076565b600061010082548452600183015460208501528060408501526180d081850160028501617f15565b905083810360608501526180e78160078501617f15565b905083810360808501526180fe81600c850161805d565b9050600d83015460a0850152600e83015461811f60c0860160ff8316617a24565b600881901c73ffffffffffffffffffffffffffffffffffffffff1660e0860152610c3a565b6000815160808452618159608085018261792b565b9050602083015184820360208601526181728282617062565b91505060408301516040850152606083015160608501528091505092915050565b8481526080602082015260006181ac60808301866180a8565b82810360408401526181be8186618144565b905082810360608401526181d28185618144565b979650505050505050565b6000828210156181ef576181ef617dba565b500390565b6000821982111561820757618207617dba565b500190565b83815260606020820152600061822560608301856180a8565b82810360408401526182378185618144565b9695505050505050565b7f4e487b7100000000000000000000000000000000000000000000000000000000600052601260045260246000fd5b60008261827f5761827f618241565b500490565b60008261829357618293618241565b500690565b6040815260006182ab6040830185617062565b82810360208401526179ec8185617062565b6020815260006128cd6020830184617980565b600073ffffffffffffffffffffffffffffffffffffffff8086168352808516602084015250606060408301526179ec6060830184617980565b600082601f83011261831a57600080fd5b8151602061832782617266565b60405161833482826171f2565b83815260059390931b850182019282810191508684111561835457600080fd5b8286015b848110156172f05780518352918301918301618358565b600082601f83011261838057600080fd5b8151602061838d82617266565b6040805161839b83826171f2565b84815260059490941b86018301938381019250878511156183bb57600080fd5b8387015b8581101561844057805167ffffffffffffffff8111156183df5760008081fd5b8801603f81018a136183f15760008081fd5b858101516183fe816172fb565b855161840a82826171f2565b8281528c8784860101111561842157600091508182fd5b618430838a8301898701617114565b87525050509284019284016183bf565b50979650505050505050565b60006020828403121561845e57600080fd5b815167ffffffffffffffff8082111561847657600080fd5b9083019060a0828603121561848a57600080fd5b61849261723d565b825181526020830151828111156184a857600080fd5b6184b487828601618309565b6020830152506040830151828111156184cc57600080fd5b6184d88782860161836f565b6040830152506060830151828111156184f057600080fd5b6184fc87828601618309565b60608301525060808301518281111561851457600080fd5b61852087828601618309565b60808301525095945050505050565b600073ffffffffffffffffffffffffffffffffffffffff808816835280871660208401525060a0604083015261856860a0830186617062565b828103606084015261857a8186617062565b9050828103608084015261858e8185617140565b98975050505050505050565b6000602082840312156185ac57600080fd5b81516128cd816170b0565b600060033d11156185d05760046000803e5060005160e01c5b90565b600060443d10156185e15790565b6040517ffffffffffffffffffffffffffffffffffffffffffffffffffffffffffffffffc803d016004833e81513d67ffffffffffffffff816024840111818411171561862f57505050505090565b82850191508151818111156186475750505050505090565b843d87010160208285010111156186615750505050505090565b618670602082860101876171f2565b509095945050505050565b6000815260008251618694816001850160208701617114565b9190910160010192915050565b7f4e487b7100000000000000000000000000000000000000000000000000000000600052603160045260246000fd5b600073ffffffffffffffffffffffffffffffffffffffff808816835280871660208401525084604083015283606083015260a060808301526181d260a0830184617140565b7f630000000000000000000000000000000000000000000000000000000000000081527fffffffff000000000000000000000000000000000000000000000000000000008360e01b1660018201527f80600e6000396000f3000000000000000000000000000000000000000000000060058201526000825161879e81600e850160208701617114565b91909101600e019392505050565b6000817fffffffffffffffffffffffffffffffffffffffffffffffffffffffffffffffff04831182151516156187e4576187e4617dba565b500290565b600181815b8085111561884257817fffffffffffffffffffffffffffffffffffffffffffffffffffffffffffffffff0482111561882857618828617dba565b8085161561883557918102915b93841c93908002906187ee565b509250929050565b6000826188595750600161055b565b816188665750600061055b565b816001811461887c5760028114618886576188a2565b600191505061055b565b60ff84111561889757618897617dba565b50506001821b61055b565b5060208310610133831016604e8410600b84101617156188c5575081810a61055b565b6188cf83836187e9565b807fffffffffffffffffffffffffffffffffffffffffffffffffffffffffffffffff0482111561890157618901617dba565b029392505050565b60006128cd838361884a565b60006020828403121561892757600080fd5b81516128cd81617014565b6040815260006182ab6040830185617b1e565b60006020828403121561895757600080fd5b815167ffffffffffffffff81111561896e57600080fd5b61326784828501618309565b60006128cd60ff84168361884a565b600060ff821660ff84168060ff038211156189a6576189a6617dba565b01939250505056fea2646970667358221220a6109d245d5913fcb7448532bb691d64ef9491d44b512e01756b3b0277771a6564736f6c634300080a0033",
  "linkReferences": {},
  "deployedLinkReferences": {}
}