{
  "_format": "hh-sol-artifact-1",
  "contractName": "ReserveToken",
  "sourceName": "contracts/mocks/ReserveToken.sol",
  "abi": [
    {
      "inputs": [],
      "stateMutability": "nonpayable",
      "type": "constructor"
    },
    {
      "anonymous": false,
      "inputs": [
        {
          "indexed": true,
          "internalType": "address",
          "name": "owner",
          "type": "address"
        },
        {
          "indexed": true,
          "internalType": "address",
          "name": "spender",
          "type": "address"
        },
        {
          "indexed": false,
          "internalType": "uint256",
          "name": "value",
          "type": "uint256"
        }
      ],
      "name": "Approval",
      "type": "event"
    },
    {
      "anonymous": false,
      "inputs": [
        {
          "indexed": true,
          "internalType": "address",
          "name": "from",
          "type": "address"
        },
        {
          "indexed": true,
          "internalType": "address",
          "name": "to",
          "type": "address"
        },
        {
          "indexed": false,
          "internalType": "uint256",
          "name": "value",
          "type": "uint256"
        }
      ],
      "name": "Transfer",
      "type": "event"
    },
    {
      "inputs": [],
      "name": "DECIMALS",
      "outputs": [
        {
          "internalType": "uint256",
          "name": "",
          "type": "uint256"
        }
      ],
      "stateMutability": "view",
      "type": "function"
    },
    {
      "inputs": [],
      "name": "TOTAL_SUPPLY",
      "outputs": [
        {
          "internalType": "uint256",
          "name": "",
          "type": "uint256"
        }
      ],
      "stateMutability": "view",
      "type": "function"
    },
    {
      "inputs": [
        {
          "internalType": "address",
          "name": "account_",
          "type": "address"
        }
      ],
      "name": "addFreezable",
      "outputs": [],
      "stateMutability": "nonpayable",
      "type": "function"
    },
    {
      "inputs": [
        {
          "internalType": "address",
          "name": "owner",
          "type": "address"
        },
        {
          "internalType": "address",
          "name": "spender",
          "type": "address"
        }
      ],
      "name": "allowance",
      "outputs": [
        {
          "internalType": "uint256",
          "name": "",
          "type": "uint256"
        }
      ],
      "stateMutability": "view",
      "type": "function"
    },
    {
      "inputs": [
        {
          "internalType": "address",
          "name": "spender",
          "type": "address"
        },
        {
          "internalType": "uint256",
          "name": "amount",
          "type": "uint256"
        }
      ],
      "name": "approve",
      "outputs": [
        {
          "internalType": "bool",
          "name": "",
          "type": "bool"
        }
      ],
      "stateMutability": "nonpayable",
      "type": "function"
    },
    {
      "inputs": [
        {
          "internalType": "address",
          "name": "account",
          "type": "address"
        }
      ],
      "name": "balanceOf",
      "outputs": [
        {
          "internalType": "uint256",
          "name": "",
          "type": "uint256"
        }
      ],
      "stateMutability": "view",
      "type": "function"
    },
    {
      "inputs": [
        {
          "internalType": "uint256",
          "name": "amount",
          "type": "uint256"
        }
      ],
      "name": "burn",
      "outputs": [],
      "stateMutability": "nonpayable",
      "type": "function"
    },
    {
      "inputs": [
        {
          "internalType": "address",
          "name": "account",
          "type": "address"
        },
        {
          "internalType": "uint256",
          "name": "amount",
          "type": "uint256"
        }
      ],
      "name": "burnFrom",
      "outputs": [],
      "stateMutability": "nonpayable",
      "type": "function"
    },
    {
      "inputs": [],
      "name": "decimals",
      "outputs": [
        {
          "internalType": "uint8",
          "name": "",
          "type": "uint8"
        }
      ],
      "stateMutability": "pure",
      "type": "function"
    },
    {
      "inputs": [
        {
          "internalType": "address",
          "name": "spender",
          "type": "address"
        },
        {
          "internalType": "uint256",
          "name": "subtractedValue",
          "type": "uint256"
        }
      ],
      "name": "decreaseAllowance",
      "outputs": [
        {
          "internalType": "bool",
          "name": "",
          "type": "bool"
        }
      ],
      "stateMutability": "nonpayable",
      "type": "function"
    },
    {
      "inputs": [
        {
          "internalType": "address",
          "name": "",
          "type": "address"
        }
      ],
      "name": "freezables",
      "outputs": [
        {
          "internalType": "bool",
          "name": "",
          "type": "bool"
        }
      ],
      "stateMutability": "view",
      "type": "function"
    },
    {
      "inputs": [
        {
          "internalType": "address",
          "name": "spender",
          "type": "address"
        },
        {
          "internalType": "uint256",
          "name": "addedValue",
          "type": "uint256"
        }
      ],
      "name": "increaseAllowance",
      "outputs": [
        {
          "internalType": "bool",
          "name": "",
          "type": "bool"
        }
      ],
      "stateMutability": "nonpayable",
      "type": "function"
    },
    {
      "inputs": [
        {
          "internalType": "uint256",
          "name": "_amount",
          "type": "uint256"
        }
      ],
      "name": "mintTokens",
      "outputs": [],
      "stateMutability": "nonpayable",
      "type": "function"
    },
    {
      "inputs": [],
      "name": "name",
      "outputs": [
        {
          "internalType": "string",
          "name": "",
          "type": "string"
        }
      ],
      "stateMutability": "view",
      "type": "function"
    },
    {
      "inputs": [],
      "name": "symbol",
      "outputs": [
        {
          "internalType": "string",
          "name": "",
          "type": "string"
        }
      ],
      "stateMutability": "view",
      "type": "function"
    },
    {
      "inputs": [],
      "name": "totalSupply",
      "outputs": [
        {
          "internalType": "uint256",
          "name": "",
          "type": "uint256"
        }
      ],
      "stateMutability": "view",
      "type": "function"
    },
    {
      "inputs": [
        {
          "internalType": "address",
          "name": "to",
          "type": "address"
        },
        {
          "internalType": "uint256",
          "name": "amount",
          "type": "uint256"
        }
      ],
      "name": "transfer",
      "outputs": [
        {
          "internalType": "bool",
          "name": "",
          "type": "bool"
        }
      ],
      "stateMutability": "nonpayable",
      "type": "function"
    },
    {
      "inputs": [
        {
          "internalType": "address",
          "name": "from",
          "type": "address"
        },
        {
          "internalType": "address",
          "name": "to",
          "type": "address"
        },
        {
          "internalType": "uint256",
          "name": "amount",
          "type": "uint256"
        }
      ],
      "name": "transferFrom",
      "outputs": [
        {
          "internalType": "bool",
          "name": "",
          "type": "bool"
        }
      ],
      "stateMutability": "nonpayable",
      "type": "function"
    }
  ],
  "bytecode": "0x60806040523480156200001157600080fd5b50604080518082018252600b81526a55534420436c617373696360a81b602080830191825283518085019094526005845264555344434360d81b908401528151919291620000629160039162000081565b5080516200007890600490602084019062000081565b50505062000164565b8280546200008f9062000127565b90600052602060002090601f016020900481019282620000b35760008555620000fe565b82601f10620000ce57805160ff1916838001178555620000fe565b82800160010185558215620000fe579182015b82811115620000fe578251825591602001919060010190620000e1565b506200010c92915062000110565b5090565b5b808211156200010c576000815560010162000111565b600181811c908216806200013c57607f821691505b602082108114156200015e57634e487b7160e01b600052602260045260246000fd5b50919050565b610dd680620001746000396000f3fe608060405234801561001057600080fd5b50600436106100f65760003560e01c80635bb9058b116100925780635bb9058b146101c357806370a08231146101f557806379cc67901461021e578063902d55a51461023157806395d89b411461023957806397304ced14610241578063a457c2d714610254578063a9059cbb14610267578063dd62ed3e1461027a57600080fd5b806306fdde03146100fb578063095ea7b31461011957806318160ddd1461013c57806323b872dd1461014e5780632e0f262514610161578063313ce56714610169578063395093511461017857806342966c681461018b57806348422faa146101a0575b600080fd5b61010361028d565b6040516101109190610aac565b60405180910390f35b61012c610127366004610b1d565b61031f565b6040519015158152602001610110565b6002545b604051908152602001610110565b61012c61015c366004610b47565b610339565b610140600681565b60405160068152602001610110565b61012c610186366004610b1d565b61035d565b61019e610199366004610b83565b61039c565b005b61012c6101ae366004610b9c565b60056020526000908152604090205460ff1681565b61019e6101d1366004610b9c565b6001600160a01b03166000908152600560205260409020805460ff19166001179055565b610140610203366004610b9c565b6001600160a01b031660009081526020819052604090205490565b61019e61022c366004610b1d565b6103a9565b6101406103c2565b6101036103dc565b61019e61024f366004610b83565b6103eb565b61012c610262366004610b1d565b610406565b61012c610275366004610b1d565b61049d565b610140610288366004610bbe565b6104ab565b60606003805461029c90610bf1565b80601f01602080910402602001604051908101604052809291908181526020018280546102c890610bf1565b80156103155780601f106102ea57610100808354040283529160200191610315565b820191906000526020600020905b8154815290600101906020018083116102f857829003601f168201915b5050505050905090565b60003361032d8185856104d6565b60019150505b92915050565b6000336103478582856105fb565b610352858585610675565b506001949350505050565b3360008181526001602090815260408083206001600160a01b038716845290915281205490919061032d9082908690610397908790610c42565b6104d6565b6103a6338261083c565b50565b6103b48233836105fb565b6103be828261083c565b5050565b6103ce60066009610c42565b6103d990600a610d3e565b81565b60606004805461029c90610bf1565b6103a63361040183670de0b6b3a7640000610d4a565b610981565b3360008181526001602090815260408083206001600160a01b0387168452909152812054909190838110156104905760405162461bcd60e51b815260206004820152602560248201527f45524332303a2064656372656173656420616c6c6f77616e63652062656c6f77604482015264207a65726f60d81b60648201526084015b60405180910390fd5b61035282868684036104d6565b60003361032d818585610675565b6001600160a01b03918216600090815260016020908152604080832093909416825291909152205490565b6001600160a01b0383166105385760405162461bcd60e51b8152602060048201526024808201527f45524332303a20617070726f76652066726f6d20746865207a65726f206164646044820152637265737360e01b6064820152608401610487565b6001600160a01b0382166105995760405162461bcd60e51b815260206004820152602260248201527f45524332303a20617070726f766520746f20746865207a65726f206164647265604482015261737360f01b6064820152608401610487565b6001600160a01b0383811660008181526001602090815260408083209487168084529482529182902085905590518481527f8c5be1e5ebec7d5bd14f71427d1e84f3dd0314c0f7b2291e5b200ac8c7c3b92591015b60405180910390a3505050565b600061060784846104ab565b9050600019811461066f57818110156106625760405162461bcd60e51b815260206004820152601d60248201527f45524332303a20696e73756666696369656e7420616c6c6f77616e63650000006044820152606401610487565b61066f84848484036104d6565b50505050565b6001600160a01b0383166106d95760405162461bcd60e51b815260206004820152602560248201527f45524332303a207472616e736665722066726f6d20746865207a65726f206164604482015264647265737360d81b6064820152608401610487565b6001600160a01b03821661073b5760405162461bcd60e51b815260206004820152602360248201527f45524332303a207472616e7366657220746f20746865207a65726f206164647260448201526265737360e81b6064820152608401610487565b610746838383610a5a565b6001600160a01b038316600090815260208190526040902054818110156107be5760405162461bcd60e51b815260206004820152602660248201527f45524332303a207472616e7366657220616d6f756e7420657863656564732062604482015265616c616e636560d01b6064820152608401610487565b6001600160a01b038085166000908152602081905260408082208585039055918516815290812080548492906107f5908490610c42565b92505081905550826001600160a01b0316846001600160a01b0316600080516020610d818339815191528460405161082f91815260200190565b60405180910390a361066f565b6001600160a01b03821661089c5760405162461bcd60e51b815260206004820152602160248201527f45524332303a206275726e2066726f6d20746865207a65726f206164647265736044820152607360f81b6064820152608401610487565b6108a882600083610a5a565b6001600160a01b0382166000908152602081905260409020548181101561091c5760405162461bcd60e51b815260206004820152602260248201527f45524332303a206275726e20616d6f756e7420657863656564732062616c616e604482015261636560f01b6064820152608401610487565b6001600160a01b038316600090815260208190526040812083830390556002805484929061094b908490610d69565b90915550506040518281526000906001600160a01b03851690600080516020610d81833981519152906020016105ee565b505050565b6001600160a01b0382166109d75760405162461bcd60e51b815260206004820152601f60248201527f45524332303a206d696e7420746f20746865207a65726f2061646472657373006044820152606401610487565b6109e360008383610a5a565b80600260008282546109f59190610c42565b90915550506001600160a01b03821660009081526020819052604081208054839290610a22908490610c42565b90915550506040518181526001600160a01b03831690600090600080516020610d818339815191529060200160405180910390a35050565b6001600160a01b03821660009081526005602052604090205460ff161561097c5760405162461bcd60e51b8152602060048201526006602482015265232927ad22a760d11b6044820152606401610487565b600060208083528351808285015260005b81811015610ad957858101830151858201604001528201610abd565b81811115610aeb576000604083870101525b50601f01601f1916929092016040019392505050565b80356001600160a01b0381168114610b1857600080fd5b919050565b60008060408385031215610b3057600080fd5b610b3983610b01565b946020939093013593505050565b600080600060608486031215610b5c57600080fd5b610b6584610b01565b9250610b7360208501610b01565b9150604084013590509250925092565b600060208284031215610b9557600080fd5b5035919050565b600060208284031215610bae57600080fd5b610bb782610b01565b9392505050565b60008060408385031215610bd157600080fd5b610bda83610b01565b9150610be860208401610b01565b90509250929050565b600181811c90821680610c0557607f821691505b60208210811415610c2657634e487b7160e01b600052602260045260246000fd5b50919050565b634e487b7160e01b600052601160045260246000fd5b60008219821115610c5557610c55610c2c565b500190565b600181815b80851115610c95578160001904821115610c7b57610c7b610c2c565b80851615610c8857918102915b93841c9390800290610c5f565b509250929050565b600082610cac57506001610333565b81610cb957506000610333565b8160018114610ccf5760028114610cd957610cf5565b6001915050610333565b60ff841115610cea57610cea610c2c565b50506001821b610333565b5060208310610133831016604e8410600b8410161715610d18575081810a610333565b610d228383610c5a565b8060001904821115610d3657610d36610c2c565b029392505050565b6000610bb78383610c9d565b6000816000190483118215151615610d6457610d64610c2c565b500290565b600082821015610d7b57610d7b610c2c565b50039056feddf252ad1be2c89b69c2b068fc378daa952ba7f163c4a11628f55a4df523b3efa26469706673582212206e377190b9726a79cab479c6e6e188996abb7df7255b0bfcbaf4e2e3304ad4de64736f6c634300080a0033",
  "linkReferences": {},
  "deployedLinkReferences": {}
}