{
  "_format": "hh-sol-artifact-1",
  "contractName": "GameAssets",
  "sourceName": "contracts/GameAssets.sol",
  "abi": [
    {
      "inputs": [
        {
          "internalType": "uint256",
          "name": "_size",
          "type": "uint256"
        },
        {
          "internalType": "uint256",
          "name": "_start",
          "type": "uint256"
        },
        {
          "internalType": "uint256",
          "name": "_end",
          "type": "uint256"
        }
      ],
      "name": "InvalidCodeAtRange",
      "type": "error"
    },
    {
      "inputs": [],
      "name": "WriteError",
      "type": "error"
    },
    {
      "anonymous": false,
      "inputs": [
        {
          "indexed": false,
          "internalType": "address",
          "name": "_admin",
          "type": "address"
        }
      ],
      "name": "AdminChanged",
      "type": "event"
    },
    {
      "anonymous": false,
      "inputs": [
        {
          "indexed": true,
          "internalType": "address",
          "name": "account",
          "type": "address"
        },
        {
          "indexed": true,
          "internalType": "address",
          "name": "operator",
          "type": "address"
        },
        {
          "indexed": false,
          "internalType": "bool",
          "name": "approved",
          "type": "bool"
        }
      ],
      "name": "ApprovalForAll",
      "type": "event"
    },
    {
      "anonymous": false,
      "inputs": [
        {
          "indexed": false,
          "internalType": "uint256",
          "name": "_assetId",
          "type": "uint256"
        },
        {
          "components": [
            {
              "internalType": "uint256",
              "name": "lootBoxId",
              "type": "uint256"
            },
            {
              "internalType": "uint256",
              "name": "id",
              "type": "uint256"
            },
            {
              "components": [
                {
                  "internalType": "uint256",
                  "name": "stackIndex",
                  "type": "uint256"
                },
                {
                  "internalType": "uint256[]",
                  "name": "stack",
                  "type": "uint256[]"
                },
                {
                  "internalType": "bytes[]",
                  "name": "sources",
                  "type": "bytes[]"
                },
                {
                  "internalType": "uint256[]",
                  "name": "constants",
                  "type": "uint256[]"
                },
                {
                  "internalType": "uint256[]",
                  "name": "arguments",
                  "type": "uint256[]"
                }
              ],
              "internalType": "struct State",
              "name": "priceConfig",
              "type": "tuple"
            },
            {
              "components": [
                {
                  "internalType": "uint256",
                  "name": "stackIndex",
                  "type": "uint256"
                },
                {
                  "internalType": "uint256[]",
                  "name": "stack",
                  "type": "uint256[]"
                },
                {
                  "internalType": "bytes[]",
                  "name": "sources",
                  "type": "bytes[]"
                },
                {
                  "internalType": "uint256[]",
                  "name": "constants",
                  "type": "uint256[]"
                },
                {
                  "internalType": "uint256[]",
                  "name": "arguments",
                  "type": "uint256[]"
                }
              ],
              "internalType": "struct State",
              "name": "canMintConfig",
              "type": "tuple"
            },
            {
              "internalType": "address[]",
              "name": "currencies",
              "type": "address[]"
            },
            {
              "internalType": "uint256",
              "name": "assetClass",
              "type": "uint256"
            },
            {
              "internalType": "enum Rarity",
              "name": "rarity",
              "type": "uint8"
            },
            {
              "internalType": "address",
              "name": "creator",
              "type": "address"
            }
          ],
          "indexed": false,
          "internalType": "struct GameAssets.AssetDetails",
          "name": "_asset",
          "type": "tuple"
        },
        {
          "components": [
            {
              "internalType": "bytes[]",
              "name": "sources",
              "type": "bytes[]"
            },
            {
              "internalType": "uint256[]",
              "name": "constants",
              "type": "uint256[]"
            },
            {
              "internalType": "uint256",
              "name": "stackLength",
              "type": "uint256"
            },
            {
              "internalType": "uint256",
              "name": "argumentsLength",
              "type": "uint256"
            }
          ],
          "indexed": false,
          "internalType": "struct StateConfig",
          "name": "_priceConfig",
          "type": "tuple"
        },
        {
          "components": [
            {
              "internalType": "bytes[]",
              "name": "sources",
              "type": "bytes[]"
            },
            {
              "internalType": "uint256[]",
              "name": "constants",
              "type": "uint256[]"
            },
            {
              "internalType": "uint256",
              "name": "stackLength",
              "type": "uint256"
            },
            {
              "internalType": "uint256",
              "name": "argumentsLength",
              "type": "uint256"
            }
          ],
          "indexed": false,
          "internalType": "struct StateConfig",
          "name": "_canMintConfig",
          "type": "tuple"
        }
      ],
      "name": "AssetCreated",
      "type": "event"
    },
    {
      "anonymous": false,
      "inputs": [
        {
          "indexed": false,
          "internalType": "uint256",
          "name": "_assetId",
          "type": "uint256"
        },
        {
          "components": [
            {
              "internalType": "uint256",
              "name": "lootBoxId",
              "type": "uint256"
            },
            {
              "internalType": "uint256",
              "name": "id",
              "type": "uint256"
            },
            {
              "components": [
                {
                  "internalType": "uint256",
                  "name": "stackIndex",
                  "type": "uint256"
                },
                {
                  "internalType": "uint256[]",
                  "name": "stack",
                  "type": "uint256[]"
                },
                {
                  "internalType": "bytes[]",
                  "name": "sources",
                  "type": "bytes[]"
                },
                {
                  "internalType": "uint256[]",
                  "name": "constants",
                  "type": "uint256[]"
                },
                {
                  "internalType": "uint256[]",
                  "name": "arguments",
                  "type": "uint256[]"
                }
              ],
              "internalType": "struct State",
              "name": "priceConfig",
              "type": "tuple"
            },
            {
              "components": [
                {
                  "internalType": "uint256",
                  "name": "stackIndex",
                  "type": "uint256"
                },
                {
                  "internalType": "uint256[]",
                  "name": "stack",
                  "type": "uint256[]"
                },
                {
                  "internalType": "bytes[]",
                  "name": "sources",
                  "type": "bytes[]"
                },
                {
                  "internalType": "uint256[]",
                  "name": "constants",
                  "type": "uint256[]"
                },
                {
                  "internalType": "uint256[]",
                  "name": "arguments",
                  "type": "uint256[]"
                }
              ],
              "internalType": "struct State",
              "name": "canMintConfig",
              "type": "tuple"
            },
            {
              "internalType": "address[]",
              "name": "currencies",
              "type": "address[]"
            },
            {
              "internalType": "uint256",
              "name": "assetClass",
              "type": "uint256"
            },
            {
              "internalType": "enum Rarity",
              "name": "rarity",
              "type": "uint8"
            },
            {
              "internalType": "address",
              "name": "creator",
              "type": "address"
            }
          ],
          "indexed": false,
          "internalType": "struct GameAssets.AssetDetails",
          "name": "_asset",
          "type": "tuple"
        },
        {
          "components": [
            {
              "internalType": "bytes[]",
              "name": "sources",
              "type": "bytes[]"
            },
            {
              "internalType": "uint256[]",
              "name": "constants",
              "type": "uint256[]"
            },
            {
              "internalType": "uint256",
              "name": "stackLength",
              "type": "uint256"
            },
            {
              "internalType": "uint256",
              "name": "argumentsLength",
              "type": "uint256"
            }
          ],
          "indexed": false,
          "internalType": "struct StateConfig",
          "name": "_canMintConfig",
          "type": "tuple"
        }
      ],
      "name": "AssetUpdated",
      "type": "event"
    },
    {
      "anonymous": false,
      "inputs": [
        {
          "indexed": false,
          "internalType": "string",
          "name": "_baseURI",
          "type": "string"
        }
      ],
      "name": "BaseURIChanged",
      "type": "event"
    },
    {
      "anonymous": false,
      "inputs": [
        {
          "indexed": false,
          "internalType": "uint256",
          "name": "_classId",
          "type": "uint256"
        },
        {
          "indexed": false,
          "internalType": "string[]",
          "name": "_attributes",
          "type": "string[]"
        },
        {
          "indexed": false,
          "internalType": "string",
          "name": "_name",
          "type": "string"
        },
        {
          "indexed": false,
          "internalType": "string",
          "name": "_description",
          "type": "string"
        }
      ],
      "name": "ClassCreated",
      "type": "event"
    },
    {
      "anonymous": false,
      "inputs": [
        {
          "indexed": false,
          "internalType": "address",
          "name": "_addedCreator",
          "type": "address"
        }
      ],
      "name": "CreatorAdded",
      "type": "event"
    },
    {
      "anonymous": false,
      "inputs": [
        {
          "indexed": false,
          "internalType": "address",
          "name": "_removedCreator",
          "type": "address"
        }
      ],
      "name": "CreatorRemoved",
      "type": "event"
    },
    {
      "anonymous": false,
      "inputs": [
        {
          "components": [
            {
              "internalType": "address",
              "name": "_creator",
              "type": "address"
            },
            {
              "internalType": "string",
              "name": "_baseURI",
              "type": "string"
            }
          ],
          "indexed": false,
          "internalType": "struct GameAssetsConfig",
          "name": "config",
          "type": "tuple"
        }
      ],
      "name": "Initialize",
      "type": "event"
    },
    {
      "anonymous": false,
      "inputs": [
        {
          "indexed": true,
          "internalType": "address",
          "name": "previousOwner",
          "type": "address"
        },
        {
          "indexed": true,
          "internalType": "address",
          "name": "newOwner",
          "type": "address"
        }
      ],
      "name": "OwnershipTransferred",
      "type": "event"
    },
    {
      "anonymous": false,
      "inputs": [
        {
          "indexed": false,
          "internalType": "address",
          "name": "sender",
          "type": "address"
        },
        {
          "indexed": false,
          "internalType": "address",
          "name": "pointer",
          "type": "address"
        },
        {
          "components": [
            {
              "internalType": "uint256",
              "name": "stackIndex",
              "type": "uint256"
            },
            {
              "internalType": "uint256[]",
              "name": "stack",
              "type": "uint256[]"
            },
            {
              "internalType": "bytes[]",
              "name": "sources",
              "type": "bytes[]"
            },
            {
              "internalType": "uint256[]",
              "name": "constants",
              "type": "uint256[]"
            },
            {
              "internalType": "uint256[]",
              "name": "arguments",
              "type": "uint256[]"
            }
          ],
          "indexed": false,
          "internalType": "struct State",
          "name": "state",
          "type": "tuple"
        }
      ],
      "name": "Snapshot",
      "type": "event"
    },
    {
      "anonymous": false,
      "inputs": [
        {
          "indexed": true,
          "internalType": "address",
          "name": "operator",
          "type": "address"
        },
        {
          "indexed": true,
          "internalType": "address",
          "name": "from",
          "type": "address"
        },
        {
          "indexed": true,
          "internalType": "address",
          "name": "to",
          "type": "address"
        },
        {
          "indexed": false,
          "internalType": "uint256[]",
          "name": "ids",
          "type": "uint256[]"
        },
        {
          "indexed": false,
          "internalType": "uint256[]",
          "name": "values",
          "type": "uint256[]"
        }
      ],
      "name": "TransferBatch",
      "type": "event"
    },
    {
      "anonymous": false,
      "inputs": [
        {
          "indexed": true,
          "internalType": "address",
          "name": "operator",
          "type": "address"
        },
        {
          "indexed": true,
          "internalType": "address",
          "name": "from",
          "type": "address"
        },
        {
          "indexed": true,
          "internalType": "address",
          "name": "to",
          "type": "address"
        },
        {
          "indexed": false,
          "internalType": "uint256",
          "name": "id",
          "type": "uint256"
        },
        {
          "indexed": false,
          "internalType": "uint256",
          "name": "value",
          "type": "uint256"
        }
      ],
      "name": "TransferSingle",
      "type": "event"
    },
    {
      "anonymous": false,
      "inputs": [
        {
          "indexed": false,
          "internalType": "string",
          "name": "value",
          "type": "string"
        },
        {
          "indexed": true,
          "internalType": "uint256",
          "name": "id",
          "type": "uint256"
        }
      ],
      "name": "URI",
      "type": "event"
    },
    {
      "inputs": [],
      "name": "Admin",
      "outputs": [
        {
          "internalType": "address",
          "name": "",
          "type": "address"
        }
      ],
      "stateMutability": "view",
      "type": "function"
    },
    {
      "inputs": [
        {
          "internalType": "address",
          "name": "_creator",
          "type": "address"
        }
      ],
      "name": "RemoveCreator",
      "outputs": [],
      "stateMutability": "nonpayable",
      "type": "function"
    },
    {
      "inputs": [
        {
          "internalType": "address",
          "name": "_creator",
          "type": "address"
        }
      ],
      "name": "addCreator",
      "outputs": [],
      "stateMutability": "nonpayable",
      "type": "function"
    },
    {
      "inputs": [
        {
          "internalType": "uint256",
          "name": "",
          "type": "uint256"
        }
      ],
      "name": "assets",
      "outputs": [
        {
          "internalType": "uint256",
          "name": "lootBoxId",
          "type": "uint256"
        },
        {
          "internalType": "uint256",
          "name": "id",
          "type": "uint256"
        },
        {
          "components": [
            {
              "internalType": "uint256",
              "name": "stackIndex",
              "type": "uint256"
            },
            {
              "internalType": "uint256[]",
              "name": "stack",
              "type": "uint256[]"
            },
            {
              "internalType": "bytes[]",
              "name": "sources",
              "type": "bytes[]"
            },
            {
              "internalType": "uint256[]",
              "name": "constants",
              "type": "uint256[]"
            },
            {
              "internalType": "uint256[]",
              "name": "arguments",
              "type": "uint256[]"
            }
          ],
          "internalType": "struct State",
          "name": "priceConfig",
          "type": "tuple"
        },
        {
          "components": [
            {
              "internalType": "uint256",
              "name": "stackIndex",
              "type": "uint256"
            },
            {
              "internalType": "uint256[]",
              "name": "stack",
              "type": "uint256[]"
            },
            {
              "internalType": "bytes[]",
              "name": "sources",
              "type": "bytes[]"
            },
            {
              "internalType": "uint256[]",
              "name": "constants",
              "type": "uint256[]"
            },
            {
              "internalType": "uint256[]",
              "name": "arguments",
              "type": "uint256[]"
            }
          ],
          "internalType": "struct State",
          "name": "canMintConfig",
          "type": "tuple"
        },
        {
          "internalType": "uint256",
          "name": "assetClass",
          "type": "uint256"
        },
        {
          "internalType": "enum Rarity",
          "name": "rarity",
          "type": "uint8"
        },
        {
          "internalType": "address",
          "name": "creator",
          "type": "address"
        }
      ],
      "stateMutability": "view",
      "type": "function"
    },
    {
      "inputs": [
        {
          "internalType": "address",
          "name": "account",
          "type": "address"
        },
        {
          "internalType": "uint256",
          "name": "id",
          "type": "uint256"
        }
      ],
      "name": "balanceOf",
      "outputs": [
        {
          "internalType": "uint256",
          "name": "",
          "type": "uint256"
        }
      ],
      "stateMutability": "view",
      "type": "function"
    },
    {
      "inputs": [
        {
          "internalType": "address[]",
          "name": "accounts",
          "type": "address[]"
        },
        {
          "internalType": "uint256[]",
          "name": "ids",
          "type": "uint256[]"
        }
      ],
      "name": "balanceOfBatch",
      "outputs": [
        {
          "internalType": "uint256[]",
          "name": "",
          "type": "uint256[]"
        }
      ],
      "stateMutability": "view",
      "type": "function"
    },
    {
      "inputs": [
        {
          "internalType": "string",
          "name": "_name",
          "type": "string"
        },
        {
          "internalType": "string",
          "name": "_description",
          "type": "string"
        },
        {
          "internalType": "string[]",
          "name": "_attributes",
          "type": "string[]"
        }
      ],
      "name": "createClass",
      "outputs": [],
      "stateMutability": "nonpayable",
      "type": "function"
    },
    {
      "inputs": [
        {
          "components": [
            {
              "internalType": "uint256",
              "name": "lootBoxId",
              "type": "uint256"
            },
            {
              "components": [
                {
                  "internalType": "bytes[]",
                  "name": "sources",
                  "type": "bytes[]"
                },
                {
                  "internalType": "uint256[]",
                  "name": "constants",
                  "type": "uint256[]"
                },
                {
                  "internalType": "uint256",
                  "name": "stackLength",
                  "type": "uint256"
                },
                {
                  "internalType": "uint256",
                  "name": "argumentsLength",
                  "type": "uint256"
                }
              ],
              "internalType": "struct StateConfig",
              "name": "priceConfig",
              "type": "tuple"
            },
            {
              "components": [
                {
                  "internalType": "bytes[]",
                  "name": "sources",
                  "type": "bytes[]"
                },
                {
                  "internalType": "uint256[]",
                  "name": "constants",
                  "type": "uint256[]"
                },
                {
                  "internalType": "uint256",
                  "name": "stackLength",
                  "type": "uint256"
                },
                {
                  "internalType": "uint256",
                  "name": "argumentsLength",
                  "type": "uint256"
                }
              ],
              "internalType": "struct StateConfig",
              "name": "canMintConfig",
              "type": "tuple"
            },
            {
              "internalType": "address[]",
              "name": "currencies",
              "type": "address[]"
            },
            {
              "internalType": "uint256",
              "name": "assetClass",
              "type": "uint256"
            },
            {
              "internalType": "uint8",
              "name": "rarity",
              "type": "uint8"
            }
          ],
          "internalType": "struct AssetConfig",
          "name": "_config",
          "type": "tuple"
        }
      ],
      "name": "createNewAsset",
      "outputs": [],
      "stateMutability": "nonpayable",
      "type": "function"
    },
    {
      "inputs": [
        {
          "internalType": "uint256",
          "name": "_assetId",
          "type": "uint256"
        },
        {
          "internalType": "address",
          "name": "_paymentToken",
          "type": "address"
        },
        {
          "internalType": "uint256",
          "name": "_units",
          "type": "uint256"
        }
      ],
      "name": "getAssetPrice",
      "outputs": [
        {
          "internalType": "uint256[]",
          "name": "",
          "type": "uint256[]"
        }
      ],
      "stateMutability": "view",
      "type": "function"
    },
    {
      "inputs": [],
      "name": "getClasses",
      "outputs": [
        {
          "internalType": "uint256[]",
          "name": "",
          "type": "uint256[]"
        }
      ],
      "stateMutability": "view",
      "type": "function"
    },
    {
      "inputs": [],
      "name": "getCreators",
      "outputs": [
        {
          "internalType": "address[]",
          "name": "",
          "type": "address[]"
        }
      ],
      "stateMutability": "view",
      "type": "function"
    },
    {
      "inputs": [
        {
          "components": [
            {
              "internalType": "address",
              "name": "_creator",
              "type": "address"
            },
            {
              "internalType": "string",
              "name": "_baseURI",
              "type": "string"
            }
          ],
          "internalType": "struct GameAssetsConfig",
          "name": "_config",
          "type": "tuple"
        }
      ],
      "name": "initialize",
      "outputs": [],
      "stateMutability": "nonpayable",
      "type": "function"
    },
    {
      "inputs": [
        {
          "internalType": "address",
          "name": "account",
          "type": "address"
        },
        {
          "internalType": "address",
          "name": "operator",
          "type": "address"
        }
      ],
      "name": "isApprovedForAll",
      "outputs": [
        {
          "internalType": "bool",
          "name": "",
          "type": "bool"
        }
      ],
      "stateMutability": "view",
      "type": "function"
    },
    {
      "inputs": [
        {
          "internalType": "uint256",
          "name": "_assetId",
          "type": "uint256"
        },
        {
          "internalType": "uint256",
          "name": "_units",
          "type": "uint256"
        }
      ],
      "name": "mintAssets",
      "outputs": [],
      "stateMutability": "nonpayable",
      "type": "function"
    },
    {
      "inputs": [
        {
          "internalType": "address",
          "name": "",
          "type": "address"
        },
        {
          "internalType": "address",
          "name": "",
          "type": "address"
        },
        {
          "internalType": "uint256[]",
          "name": "",
          "type": "uint256[]"
        },
        {
          "internalType": "uint256[]",
          "name": "",
          "type": "uint256[]"
        },
        {
          "internalType": "bytes",
          "name": "",
          "type": "bytes"
        }
      ],
      "name": "onERC1155BatchReceived",
      "outputs": [
        {
          "internalType": "bytes4",
          "name": "",
          "type": "bytes4"
        }
      ],
      "stateMutability": "nonpayable",
      "type": "function"
    },
    {
      "inputs": [
        {
          "internalType": "address",
          "name": "",
          "type": "address"
        },
        {
          "internalType": "address",
          "name": "",
          "type": "address"
        },
        {
          "internalType": "uint256",
          "name": "",
          "type": "uint256"
        },
        {
          "internalType": "uint256",
          "name": "",
          "type": "uint256"
        },
        {
          "internalType": "bytes",
          "name": "",
          "type": "bytes"
        }
      ],
      "name": "onERC1155Received",
      "outputs": [
        {
          "internalType": "bytes4",
          "name": "",
          "type": "bytes4"
        }
      ],
      "stateMutability": "nonpayable",
      "type": "function"
    },
    {
      "inputs": [],
      "name": "owner",
      "outputs": [
        {
          "internalType": "address",
          "name": "",
          "type": "address"
        }
      ],
      "stateMutability": "view",
      "type": "function"
    },
    {
      "inputs": [],
      "name": "renounceOwnership",
      "outputs": [],
      "stateMutability": "nonpayable",
      "type": "function"
    },
    {
      "inputs": [
        {
          "internalType": "address",
          "name": "from",
          "type": "address"
        },
        {
          "internalType": "address",
          "name": "to",
          "type": "address"
        },
        {
          "internalType": "uint256[]",
          "name": "ids",
          "type": "uint256[]"
        },
        {
          "internalType": "uint256[]",
          "name": "amounts",
          "type": "uint256[]"
        },
        {
          "internalType": "bytes",
          "name": "data",
          "type": "bytes"
        }
      ],
      "name": "safeBatchTransferFrom",
      "outputs": [],
      "stateMutability": "nonpayable",
      "type": "function"
    },
    {
      "inputs": [
        {
          "internalType": "address",
          "name": "from",
          "type": "address"
        },
        {
          "internalType": "address",
          "name": "to",
          "type": "address"
        },
        {
          "internalType": "uint256",
          "name": "id",
          "type": "uint256"
        },
        {
          "internalType": "uint256",
          "name": "amount",
          "type": "uint256"
        },
        {
          "internalType": "bytes",
          "name": "data",
          "type": "bytes"
        }
      ],
      "name": "safeTransferFrom",
      "outputs": [],
      "stateMutability": "nonpayable",
      "type": "function"
    },
    {
      "inputs": [
        {
          "internalType": "address",
          "name": "_admin",
          "type": "address"
        }
      ],
      "name": "setAdmin",
      "outputs": [],
      "stateMutability": "nonpayable",
      "type": "function"
    },
    {
      "inputs": [
        {
          "internalType": "address",
          "name": "operator",
          "type": "address"
        },
        {
          "internalType": "bool",
          "name": "approved",
          "type": "bool"
        }
      ],
      "name": "setApprovalForAll",
      "outputs": [],
      "stateMutability": "nonpayable",
      "type": "function"
    },
    {
      "inputs": [
        {
          "internalType": "string",
          "name": "_baseURI",
          "type": "string"
        }
      ],
      "name": "setBaseURI",
      "outputs": [],
      "stateMutability": "nonpayable",
      "type": "function"
    },
    {
      "inputs": [
        {
          "internalType": "bytes4",
          "name": "interfaceId",
          "type": "bytes4"
        }
      ],
      "name": "supportsInterface",
      "outputs": [
        {
          "internalType": "bool",
          "name": "",
          "type": "bool"
        }
      ],
      "stateMutability": "view",
      "type": "function"
    },
    {
      "inputs": [],
      "name": "totalAssets",
      "outputs": [
        {
          "internalType": "uint256",
          "name": "",
          "type": "uint256"
        }
      ],
      "stateMutability": "view",
      "type": "function"
    },
    {
      "inputs": [
        {
          "internalType": "address",
          "name": "newOwner",
          "type": "address"
        }
      ],
      "name": "transferOwnership",
      "outputs": [],
      "stateMutability": "nonpayable",
      "type": "function"
    },
    {
      "inputs": [
        {
          "internalType": "uint256",
          "name": "_assetId",
          "type": "uint256"
        },
        {
          "internalType": "uint256",
          "name": "_lootBoxId",
          "type": "uint256"
        },
        {
          "components": [
            {
              "internalType": "bytes[]",
              "name": "sources",
              "type": "bytes[]"
            },
            {
              "internalType": "uint256[]",
              "name": "constants",
              "type": "uint256[]"
            },
            {
              "internalType": "uint256",
              "name": "stackLength",
              "type": "uint256"
            },
            {
              "internalType": "uint256",
              "name": "argumentsLength",
              "type": "uint256"
            }
          ],
          "internalType": "struct StateConfig",
          "name": "_canMintConfig",
          "type": "tuple"
        }
      ],
      "name": "updateAsset",
      "outputs": [],
      "stateMutability": "nonpayable",
      "type": "function"
    },
    {
      "inputs": [
        {
          "internalType": "uint256",
          "name": "_tokenId",
          "type": "uint256"
        }
      ],
      "name": "uri",
      "outputs": [
        {
          "internalType": "string",
          "name": "",
          "type": "string"
        }
      ],
      "stateMutability": "view",
      "type": "function"
    },
    {
      "inputs": [
        {
          "internalType": "address[]",
          "name": "_tokenAddresses",
          "type": "address[]"
        }
      ],
      "name": "withdraw",
      "outputs": [],
      "stateMutability": "nonpayable",
      "type": "function"
    },
    {
      "inputs": [
        {
          "internalType": "address[]",
          "name": "_tokenAddresses",
          "type": "address[]"
        },
        {
          "internalType": "uint256[]",
          "name": "_ids",
          "type": "uint256[]"
        }
      ],
      "name": "withdrawERC1155",
      "outputs": [],
      "stateMutability": "nonpayable",
      "type": "function"
    }
  ],
  "bytecode": "0x60a06040526002808060066007600b6200001b8260046200014e565b6200002791906200014e565b6200003391906200014e565b6200003f91906200014e565b6200004b91906200014e565b6200005791906200014e565b6200006391906200014e565b620000709060056200014e565b608052604080516020810191829052600090819052620000939160d891620000a8565b50348015620000a157600080fd5b50620001b2565b828054620000b69062000175565b90600052602060002090601f016020900481019282620000da576000855562000125565b82601f10620000f557805160ff191683800117855562000125565b8280016001018555821562000125579182015b828111156200012557825182559160200191906001019062000108565b506200013392915062000137565b5090565b5b8082111562000133576000815560010162000138565b600082198211156200017057634e487b7160e01b600052601160045260246000fd5b500190565b600181811c908216806200018a57607f821691505b60208210811415620001ac57634e487b7160e01b600052602260045260246000fd5b50919050565b60805161931c620001d560003960008181615201015261523c015261931c6000f3fe608060405234801561001057600080fd5b50600436106101d95760003560e01c80638a0eaade11610104578063d3040241116100a2578063f242432a11610071578063f242432a146104dd578063f2fde38b146104f0578063f36515ba14610503578063ff1b636d1461051657600080fd5b8063d304024114610434578063e6adc1ee14610447578063e985e9c51461045c578063f23a6e61146104a557600080fd5b8063bc197c81116100de578063bc197c811461037f578063bcef0510146103e8578063bd5dec98146103fb578063cf35bdd01461040e57600080fd5b80638a0eaade1461031a5780638da5cb5b1461032d578063a22cb4651461036c57600080fd5b80632eb2c2d61161017c57806355f804b31161014b57806355f804b3146102d9578063704b6c02146102ec578063715018a6146102ff57806372509dcb1461030757600080fd5b80632eb2c2d61461028d5780633744dd83146102a05780633b9dce05146102b35780634e1273f4146102c657600080fd5b806301ffc9a7116101b857806301ffc9a7146102225780630e89341c14610245578063109fbf20146102655780631a60839b1461027a57600080fd5b8062fdd58e146101de5780630193a9551461020457806301e1d11414610219575b600080fd5b6101f16101ec36600461782f565b610536565b6040519081526020015b60405180910390f35b61020c610618565b6040516101fb9190617896565b6101f160c95481565b6102356102303660046178d7565b610629565b60405190151581526020016101fb565b6102586102533660046178f4565b61068e565b6040516101fb9190617983565b610278610273366004617cbe565b610738565b005b610278610288366004617d0e565b610933565b61027861029b366004617e11565b610992565b6102786102ae366004617ebf565b610a5b565b6102786102c1366004617f55565b610be6565b61020c6102d4366004617fe1565b610d63565b6102786102e7366004618045565b610ebb565b6102786102fa366004617f55565b610f7f565b610278611116565b61020c61031536600461807a565b6111a3565b610278610328366004617f55565b611857565b60975473ffffffffffffffffffffffffffffffffffffffff165b60405173ffffffffffffffffffffffffffffffffffffffff90911681526020016101fb565b61027861037a3660046180c0565b61192a565b6103b761038d366004617e11565b7fbc197c810000000000000000000000000000000000000000000000000000000095945050505050565b6040517fffffffff0000000000000000000000000000000000000000000000000000000090911681526020016101fb565b6102786103f6366004617fe1565b611935565b6102786104093660046180f9565b611bb6565b61042161041c3660046178f4565b611dea565b6040516101fb9796959493929190618262565b6102786104423660046182d1565b612231565b61044f613074565b6040516101fb9190618339565b61023561046a36600461834c565b73ffffffffffffffffffffffffffffffffffffffff918216600090815260666020908152604080832093909416825291909152205460ff1690565b6103b76104b336600461837a565b7ff23a6e610000000000000000000000000000000000000000000000000000000095945050505050565b6102786104eb36600461837a565b613080565b6102786104fe366004617f55565b613142565b6102786105113660046183f4565b613272565b60d6546103479073ffffffffffffffffffffffffffffffffffffffff1681565b600073ffffffffffffffffffffffffffffffffffffffff83166105e0576040517f08c379a000000000000000000000000000000000000000000000000000000000815260206004820152602b60248201527f455243313135353a2062616c616e636520717565727920666f7220746865207a60448201527f65726f206164647265737300000000000000000000000000000000000000000060648201526084015b60405180910390fd5b50600081815260656020908152604080832073ffffffffffffffffffffffffffffffffffffffff861684529091529020545b92915050565b606061062460d26135ee565b905090565b60007fffffffff0000000000000000000000000000000000000000000000000000000082167f01ffc9a700000000000000000000000000000000000000000000000000000000148061067f575061067f826135fb565b806106125750610612826136de565b6060600082116106fa576040517f08c379a000000000000000000000000000000000000000000000000000000000815260206004820181905260248201527f47616d654173736574733a7572693a20496e76616c696420546f6b656e49642e60448201526064016105d7565b60d8610707306014613775565b610710846139b8565b60405160200161072293929190618538565b6040516020818303038152906040529050919050565b600083815260d760205260409020600e0154610100900473ffffffffffffffffffffffffffffffffffffffff163373ffffffffffffffffffffffffffffffffffffffff161461082f576040517f08c379a000000000000000000000000000000000000000000000000000000000815260206004820152604260248201527f47616d654173736574733a3a75706461746541737365743a204f6e6c7920437260448201527f6561746f722063616e207570646174652074686520417373657444657461696c60648201527f732e000000000000000000000000000000000000000000000000000000000000608482015260a4016105d7565b600083815260d76020526040902082905561085961085461084f83613af2565b613c4e565b613cbc565b600084815260d760209081526040909120825160078201908155838301518051919361088b9360080192910190617610565b50604082015180516108a791600284019160209091019061765b565b50606082015180516108c3916003840191602090910190617610565b50608082015180516108df916004840191602090910190617610565b505060c954600081815260d760205260409081902090517fc1782282dcad7f9de38813d954326c1c4f69d72952b182e7e8a3e05a06209d0a935061092692919085906188f3565b60405180910390a1505050565b61095361094b600161094560d2613d0a565b90613d14565b60d290613d20565b507ff76a09bd90a7194be5090f77df5628ed759c33e912c04378f962dd3d8aba519a61097f60d2613d0a565b828585604051610926949392919061891e565b73ffffffffffffffffffffffffffffffffffffffff85163314806109bb57506109bb853361046a565b610a47576040517f08c379a000000000000000000000000000000000000000000000000000000000815260206004820152603260248201527f455243313135353a207472616e736665722063616c6c6572206973206e6f742060448201527f6f776e6572206e6f7220617070726f766564000000000000000000000000000060648201526084016105d7565b610a548585858585613d2c565b5050505050565b600054610100900460ff16610a765760005460ff1615610a7a565b303b155b610b06576040517f08c379a000000000000000000000000000000000000000000000000000000000815260206004820152602e60248201527f496e697469616c697a61626c653a20636f6e747261637420697320616c72656160448201527f647920696e697469616c697a656400000000000000000000000000000000000060648201526084016105d7565b600054610100900460ff16158015610b4557600080547fffffffffffffffffffffffffffffffffffffffffffffffffffffffffffff0000166101011790555b6020808301518051610b5b9260d89201906176b4565b50610b698260200151614061565b610b71614101565b8151610b7c90613142565b7f2bf9425e0baa8fedeb3c184d73be1248daf76733362d08b840b48ff7db574d1b82604051610bab91906189ce565b60405180910390a18015610be257600080547fffffffffffffffffffffffffffffffffffffffffffffffffffffffffffff00ff1690555b5050565b60975473ffffffffffffffffffffffffffffffffffffffff163314610c67576040517f08c379a000000000000000000000000000000000000000000000000000000000815260206004820181905260248201527f4f776e61626c653a2063616c6c6572206973206e6f7420746865206f776e657260448201526064016105d7565b73ffffffffffffffffffffffffffffffffffffffff8116610d0a576040517f08c379a000000000000000000000000000000000000000000000000000000000815260206004820152603060248201527f47616d654173736574733a3a61646443726561746f723a20496e76616c69642060448201527f43726561746f7220616464726573732e0000000000000000000000000000000060648201526084016105d7565b610d1560d4826141a0565b5060405173ffffffffffffffffffffffffffffffffffffffff821681527f021a687fbe334e9e815cee8b399c0bc42e82356eb7f63a09ddb558a25d3dcdbd906020015b60405180910390a150565b60608151835114610df6576040517f08c379a000000000000000000000000000000000000000000000000000000000815260206004820152602960248201527f455243313135353a206163636f756e747320616e6420696473206c656e67746860448201527f206d69736d61746368000000000000000000000000000000000000000000000060648201526084016105d7565b6000835167ffffffffffffffff811115610e1257610e12617996565b604051908082528060200260200182016040528015610e3b578160200160208202803683370190505b50905060005b8451811015610eb357610e86858281518110610e5f57610e5f618a09565b6020026020010151858381518110610e7957610e79618a09565b6020026020010151610536565b828281518110610e9857610e98618a09565b6020908102919091010152610eac81618a67565b9050610e41565b509392505050565b60975473ffffffffffffffffffffffffffffffffffffffff163314610f3c576040517f08c379a000000000000000000000000000000000000000000000000000000000815260206004820181905260248201527f4f776e61626c653a2063616c6c6572206973206e6f7420746865206f776e657260448201526064016105d7565b8051610f4f9060d89060208401906176b4565b507f5411e8ebf1636d9e83d5fc4900bf80cbac82e8790da2a4c94db4895e889eedf681604051610d589190617983565b60975473ffffffffffffffffffffffffffffffffffffffff163314611000576040517f08c379a000000000000000000000000000000000000000000000000000000000815260206004820181905260248201527f4f776e61626c653a2063616c6c6572206973206e6f7420746865206f776e657260448201526064016105d7565b73ffffffffffffffffffffffffffffffffffffffff81166110a3576040517f08c379a000000000000000000000000000000000000000000000000000000000815260206004820152603060248201527f47616d654173736574733a3a61646443726561746f723a20496e76616c69642060448201527f43726561746f7220616464726573732e0000000000000000000000000000000060648201526084016105d7565b60d680547fffffffffffffffffffffffff00000000000000000000000000000000000000001673ffffffffffffffffffffffffffffffffffffffff83169081179091556040519081527f7ce7ec0b50378fb6c0186ffb5f48325f6593fcb4ca4386f21861af3129188f5c90602001610d58565b60975473ffffffffffffffffffffffffffffffffffffffff163314611197576040517f08c379a000000000000000000000000000000000000000000000000000000000815260206004820181905260248201527f4f776e61626c653a2063616c6c6572206973206e6f7420746865206f776e657260448201526064016105d7565b6111a160006141c2565b565b600083815260d76020908152604080832081516101008101835281548152600182015481850152825160a081018452600283018054825260038401805486518189028101890188528181526060999889988998969088019590949093858301939283018282801561123357602002820191906000526020600020905b81548152602001906001019080831161121f575b5050505050815260200160028201805480602002602001604051908101604052809291908181526020016000905b8282101561130d578382906000526020600020018054611280906184ce565b80601f01602080910402602001604051908101604052809291908181526020018280546112ac906184ce565b80156112f95780601f106112ce576101008083540402835291602001916112f9565b820191906000526020600020905b8154815290600101906020018083116112dc57829003601f168201915b505050505081526020019060010190611261565b5050505081526020016003820180548060200260200160405190810160405280929190818152602001828054801561136457602002820191906000526020600020905b815481526020019060010190808311611350575b50505050508152602001600482018054806020026020016040519081016040528092919081815260200182805480156113bc57602002820191906000526020600020905b8154815260200190600101908083116113a8575b5050505050815250508152602001600782016040518060a0016040529081600082015481526020016001820180548060200260200160405190810160405280929190818152602001828054801561143257602002820191906000526020600020905b81548152602001906001019080831161141e575b5050505050815260200160028201805480602002602001604051908101604052809291908181526020016000905b8282101561150c57838290600052602060002001805461147f906184ce565b80601f01602080910402602001604051908101604052809291908181526020018280546114ab906184ce565b80156114f85780601f106114cd576101008083540402835291602001916114f8565b820191906000526020600020905b8154815290600101906020018083116114db57829003601f168201915b505050505081526020019060010190611460565b5050505081526020016003820180548060200260200160405190810160405280929190818152602001828054801561156357602002820191906000526020600020905b81548152602001906001019080831161154f575b50505050508152602001600482018054806020026020016040519081016040528092919081815260200182805480156115bb57602002820191906000526020600020905b8154815260200190600101908083116115a7575b5050505050815250508152602001600c820180548060200260200160405190810160405280929190818152602001828054801561162e57602002820191906000526020600020905b815473ffffffffffffffffffffffffffffffffffffffff168152600190910190602001808311611603575b5050509183525050600d8201546020820152600e82015460409091019060ff16600481111561165f5761165f6181f8565b6004811115611670576116706181f8565b8152600e9190910154610100900473ffffffffffffffffffffffffffffffffffffffff16602090910152905060005b81608001515181101561171b578673ffffffffffffffffffffffffffffffffffffffff16826080015182815181106116d9576116d9618a09565b602002602001015173ffffffffffffffffffffffffffffffffffffffff161415611709578093506001925061171b565b611714816001618aa0565b905061169f565b50816117a9576040517f08c379a000000000000000000000000000000000000000000000000000000000815260206004820152603560248201527f47616d654173736574733a3a676574417373657450726963653a20556e73757060448201527f706f72746564207061796d656e7420746f6b656e2e000000000000000000000060648201526084016105d7565b60408181015181516001602082015290916117d591016040516020818303038152906040528286614239565b611815868260200151600184600001516117ef9190618ab8565b815181106117ff576117ff618a09565b60200260200101516143ff90919063ffffffff16565b6020820151825161182890600190618ab8565b8151811061183857611838618a09565b60200260200101818152505080602001519450505050505b9392505050565b60975473ffffffffffffffffffffffffffffffffffffffff1633146118d8576040517f08c379a000000000000000000000000000000000000000000000000000000000815260206004820181905260248201527f4f776e61626c653a2063616c6c6572206973206e6f7420746865206f776e657260448201526064016105d7565b6118e360d48261440b565b5060405173ffffffffffffffffffffffffffffffffffffffff821681527f94a409f50d78dc8628b7499ba5af0848a134b9a935a59c0a45313b67f66920f890602001610d58565b610be233838361442d565b60975473ffffffffffffffffffffffffffffffffffffffff1633146119b6576040517f08c379a000000000000000000000000000000000000000000000000000000000815260206004820181905260248201527f4f776e61626c653a2063616c6c6572206973206e6f7420746865206f776e657260448201526064016105d7565b60005b8251811015611bb1578281815181106119d4576119d4618a09565b602002602001015173ffffffffffffffffffffffffffffffffffffffff1663f242432a30611a1760975473ffffffffffffffffffffffffffffffffffffffff1690565b858581518110611a2957611a29618a09565b6020026020010151878681518110611a4357611a43618a09565b602002602001015173ffffffffffffffffffffffffffffffffffffffff1662fdd58e30898981518110611a7857611a78618a09565b60200260200101516040518363ffffffff1660e01b8152600401611abe92919073ffffffffffffffffffffffffffffffffffffffff929092168252602082015260400190565b602060405180830381865afa158015611adb573d6000803e3d6000fd5b505050506040513d601f19601f82011682018060405250810190611aff9190618acf565b6040517fffffffff0000000000000000000000000000000000000000000000000000000060e087901b16815273ffffffffffffffffffffffffffffffffffffffff94851660048201529390921660248401526044830152606482015260a06084820152600060a482015260c401600060405180830381600087803b158015611b8657600080fd5b505af1158015611b9a573d6000803e3d6000fd5b505050508080611ba990618a67565b9150506119b9565b505050565b60975473ffffffffffffffffffffffffffffffffffffffff163314611c37576040517f08c379a000000000000000000000000000000000000000000000000000000000815260206004820181905260248201527f4f776e61626c653a2063616c6c6572206973206e6f7420746865206f776e657260448201526064016105d7565b60005b8151811015610be257818181518110611c5557611c55618a09565b602002602001015173ffffffffffffffffffffffffffffffffffffffff1663a9059cbb611c9760975473ffffffffffffffffffffffffffffffffffffffff1690565b848481518110611ca957611ca9618a09565b60209081029190910101516040517f70a0823100000000000000000000000000000000000000000000000000000000815230600482015273ffffffffffffffffffffffffffffffffffffffff909116906370a0823190602401602060405180830381865afa158015611d1f573d6000803e3d6000fd5b505050506040513d601f19601f82011682018060405250810190611d439190618acf565b6040517fffffffff0000000000000000000000000000000000000000000000000000000060e085901b16815273ffffffffffffffffffffffffffffffffffffffff909216600483015260248201526044016020604051808303816000875af1158015611db3573d6000803e3d6000fd5b505050506040513d601f19601f82011682018060405250810190611dd79190618ae8565b5080611de281618a67565b915050611c3a565b60d7602052806000526040600020600091509050806000015490806001015490806002016040518060a00160405290816000820154815260200160018201805480602002602001604051908101604052809291908181526020018280548015611e7257602002820191906000526020600020905b815481526020019060010190808311611e5e575b5050505050815260200160028201805480602002602001604051908101604052809291908181526020016000905b82821015611f4c578382906000526020600020018054611ebf906184ce565b80601f0160208091040260200160405190810160405280929190818152602001828054611eeb906184ce565b8015611f385780601f10611f0d57610100808354040283529160200191611f38565b820191906000526020600020905b815481529060010190602001808311611f1b57829003601f168201915b505050505081526020019060010190611ea0565b50505050815260200160038201805480602002602001604051908101604052809291908181526020018280548015611fa357602002820191906000526020600020905b815481526020019060010190808311611f8f575b5050505050815260200160048201805480602002602001604051908101604052809291908181526020018280548015611ffb57602002820191906000526020600020905b815481526020019060010190808311611fe7575b50505050508152505090806007016040518060a0016040529081600082015481526020016001820180548060200260200160405190810160405280929190818152602001828054801561206d57602002820191906000526020600020905b815481526020019060010190808311612059575b5050505050815260200160028201805480602002602001604051908101604052809291908181526020016000905b828210156121475783829060005260206000200180546120ba906184ce565b80601f01602080910402602001604051908101604052809291908181526020018280546120e6906184ce565b80156121335780601f1061210857610100808354040283529160200191612133565b820191906000526020600020905b81548152906001019060200180831161211657829003601f168201915b50505050508152602001906001019061209b565b5050505081526020016003820180548060200260200160405190810160405280929190818152602001828054801561219e57602002820191906000526020600020905b81548152602001906001019080831161218a575b50505050508152602001600482018054806020026020016040519081016040528092919081815260200182805480156121f657602002820191906000526020600020905b8154815260200190600101908083116121e2575b50505091909252505050600d820154600e9092015490919060ff811690610100900473ffffffffffffffffffffffffffffffffffffffff1687565b600082815260d76020908152604080832081516101008101835281548152600182015481850152825160a081018452600283018054825260038401805486518189028101890188528181528b99989597880195858101939192908301828280156122ba57602002820191906000526020600020905b8154815260200190600101908083116122a6575b5050505050815260200160028201805480602002602001604051908101604052809291908181526020016000905b82821015612394578382906000526020600020018054612307906184ce565b80601f0160208091040260200160405190810160405280929190818152602001828054612333906184ce565b80156123805780601f1061235557610100808354040283529160200191612380565b820191906000526020600020905b81548152906001019060200180831161236357829003601f168201915b5050505050815260200190600101906122e8565b505050508152602001600382018054806020026020016040519081016040528092919081815260200182805480156123eb57602002820191906000526020600020905b8154815260200190600101908083116123d7575b505050505081526020016004820180548060200260200160405190810160405280929190818152602001828054801561244357602002820191906000526020600020905b81548152602001906001019080831161242f575b5050505050815250508152602001600782016040518060a001604052908160008201548152602001600182018054806020026020016040519081016040528092919081815260200182805480156124b957602002820191906000526020600020905b8154815260200190600101908083116124a5575b5050505050815260200160028201805480602002602001604051908101604052809291908181526020016000905b82821015612593578382906000526020600020018054612506906184ce565b80601f0160208091040260200160405190810160405280929190818152602001828054612532906184ce565b801561257f5780601f106125545761010080835404028352916020019161257f565b820191906000526020600020905b81548152906001019060200180831161256257829003601f168201915b5050505050815260200190600101906124e7565b505050508152602001600382018054806020026020016040519081016040528092919081815260200182805480156125ea57602002820191906000526020600020905b8154815260200190600101908083116125d6575b505050505081526020016004820180548060200260200160405190810160405280929190818152602001828054801561264257602002820191906000526020600020905b81548152602001906001019080831161262e575b5050505050815250508152602001600c82018054806020026020016040519081016040528092919081815260200182805480156126b557602002820191906000526020600020905b815473ffffffffffffffffffffffffffffffffffffffff16815260019091019060200180831161268a575b5050509183525050600d8201546020820152600e82015460409091019060ff1660048111156126e6576126e66181f8565b60048111156126f7576126f76181f8565b8152600e9190910154610100900473ffffffffffffffffffffffffffffffffffffffff16602091820152606082015160408051928301905260008083529293509161274491908390614239565b6020810151815161275790600190618ab8565b8151811061276757612767618a09565b6020026020010151600114612824576040517f08c379a000000000000000000000000000000000000000000000000000000000815260206004820152604260248201527f47616d654173736574733a3a63616e4d696e743a204164647265737320646f6560448201527f73206e6f74207361746973667920746865206d696e7420436f6e646974696f6e60648201527f732e000000000000000000000000000000000000000000000000000000000000608482015260a4016105d7565b60c9548511156128b6576040517f08c379a000000000000000000000000000000000000000000000000000000000815260206004820152602860248201527f47616d654173736574733a3a6d696e744173736574733a20496e76616c69642060448201527f417373657449642e00000000000000000000000000000000000000000000000060648201526084016105d7565b600085815260d76020908152604080832081516101008101835281548152600182015481850152825160a0810184526002830180548252600384018054865181890281018901885281815294979596880195939492938581019392919083018282801561294257602002820191906000526020600020905b81548152602001906001019080831161292e575b5050505050815260200160028201805480602002602001604051908101604052809291908181526020016000905b82821015612a1c57838290600052602060002001805461298f906184ce565b80601f01602080910402602001604051908101604052809291908181526020018280546129bb906184ce565b8015612a085780601f106129dd57610100808354040283529160200191612a08565b820191906000526020600020905b8154815290600101906020018083116129eb57829003601f168201915b505050505081526020019060010190612970565b50505050815260200160038201805480602002602001604051908101604052809291908181526020018280548015612a7357602002820191906000526020600020905b815481526020019060010190808311612a5f575b5050505050815260200160048201805480602002602001604051908101604052809291908181526020018280548015612acb57602002820191906000526020600020905b815481526020019060010190808311612ab7575b5050505050815250508152602001600782016040518060a00160405290816000820154815260200160018201805480602002602001604051908101604052809291908181526020018280548015612b4157602002820191906000526020600020905b815481526020019060010190808311612b2d575b5050505050815260200160028201805480602002602001604051908101604052809291908181526020016000905b82821015612c1b578382906000526020600020018054612b8e906184ce565b80601f0160208091040260200160405190810160405280929190818152602001828054612bba906184ce565b8015612c075780601f10612bdc57610100808354040283529160200191612c07565b820191906000526020600020905b815481529060010190602001808311612bea57829003601f168201915b505050505081526020019060010190612b6f565b50505050815260200160038201805480602002602001604051908101604052809291908181526020018280548015612c7257602002820191906000526020600020905b815481526020019060010190808311612c5e575b5050505050815260200160048201805480602002602001604051908101604052809291908181526020018280548015612cca57602002820191906000526020600020905b815481526020019060010190808311612cb6575b5050505050815250508152602001600c8201805480602002602001604051908101604052809291908181526020018280548015612d3d57602002820191906000526020600020905b815473ffffffffffffffffffffffffffffffffffffffff168152600190910190602001808311612d12575b5050509183525050600d8201546020820152600e82015460409091019060ff166004811115612d6e57612d6e6181f8565b6004811115612d7f57612d7f6181f8565b8152600e9190910154610100900473ffffffffffffffffffffffffffffffffffffffff16602090910152905060005b816080015151811015613050576000612de58884608001518481518110612dd757612dd7618a09565b6020026020010151896111a3565b9050600081600081518110612dfc57612dfc618a09565b60200260200101511415612f065782608001518281518110612e2057612e20618a09565b602002602001015173ffffffffffffffffffffffffffffffffffffffff166323b872dd333084600181518110612e5857612e58618a09565b60209081029190910101516040517fffffffff0000000000000000000000000000000000000000000000000000000060e086901b16815273ffffffffffffffffffffffffffffffffffffffff938416600482015292909116602483015260448201526064016020604051808303816000875af1158015612edc573d6000803e3d6000fd5b505050506040513d601f19601f82011682018060405250810190612f009190618ae8565b5061303d565b600181600081518110612f1b57612f1b618a09565b6020026020010151141561303d5782608001518281518110612f3f57612f3f618a09565b602002602001015173ffffffffffffffffffffffffffffffffffffffff1663f242432a333084600181518110612f7757612f77618a09565b602002602001015185600281518110612f9257612f92618a09565b60209081029190910101516040517fffffffff0000000000000000000000000000000000000000000000000000000060e087901b16815273ffffffffffffffffffffffffffffffffffffffff94851660048201529390921660248401526044830152606482015260a06084820152600060a482015260c401600060405180830381600087803b15801561302457600080fd5b505af1158015613038573d6000803e3d6000fd5b505050505b50613049816001618aa0565b9050612dae565b5061306c33878760405180602001604052806000815250614581565b505050505050565b606061062460d46135ee565b73ffffffffffffffffffffffffffffffffffffffff85163314806130a957506130a9853361046a565b613135576040517f08c379a000000000000000000000000000000000000000000000000000000000815260206004820152602960248201527f455243313135353a2063616c6c6572206973206e6f74206f776e6572206e6f7260448201527f20617070726f766564000000000000000000000000000000000000000000000060648201526084016105d7565b610a5485858585856146ea565b60975473ffffffffffffffffffffffffffffffffffffffff1633146131c3576040517f08c379a000000000000000000000000000000000000000000000000000000000815260206004820181905260248201527f4f776e61626c653a2063616c6c6572206973206e6f7420746865206f776e657260448201526064016105d7565b73ffffffffffffffffffffffffffffffffffffffff8116613266576040517f08c379a000000000000000000000000000000000000000000000000000000000815260206004820152602660248201527f4f776e61626c653a206e6577206f776e657220697320746865207a65726f206160448201527f646472657373000000000000000000000000000000000000000000000000000060648201526084016105d7565b61326f816141c2565b50565b61327d60d43361491f565b613309576040517f08c379a000000000000000000000000000000000000000000000000000000000815260206004820152603a60248201527f47616d654173736574733a6372656174654e657741737365743a204f6e6c792060448201527f43726561746f72732063616e206372656174652061737365747300000000000060648201526084016105d7565b60c954613317906001613d14565b60c9819055506040518061010001604052808260000151815260200160c954815260200161334e61085461084f8560200151613af2565b815260200161336661085461084f8560400151613af2565b815260200182606001518152602001613382836080015161494e565b81526020016133948360a001516149f1565b60048111156133a5576133a56181f8565b81526020013373ffffffffffffffffffffffffffffffffffffffff16905260c954600090815260d7602090815260409182902083518155838201516001820155918301518051600284019081558183015180519293919261340c9260038701920190617610565b506040820151805161342891600284019160209091019061765b565b5060608201518051613444916003840191602090910190617610565b5060808201518051613460916004840191602090910190617610565b505050606082015180516007830190815560208083015180516134899260088701920190617610565b50604082015180516134a591600284019160209091019061765b565b50606082015180516134c1916003840191602090910190617610565b50608082015180516134dd916004840191602090910190617610565b505050608082015180516134fb91600c840191602090910190617727565b5060a0820151600d82015560c0820151600e820180547fffffffffffffffffffffffffffffffffffffffffffffffffffffffffffffff00166001836004811115613547576135476181f8565b021790555060e09190910151600e909101805473ffffffffffffffffffffffffffffffffffffffff909216610100027fffffffffffffffffffffff0000000000000000000000000000000000000000ff90921691909117905560c954600081815260d76020908152604091829020908401518483015192517f9342d478342e1fbd40ab450cf343319790808ce412df0cc17b2bbef284666b9394610d589490939291618b05565b6060600061185083614adb565b60007fffffffff0000000000000000000000000000000000000000000000000000000082167fd9b67a2600000000000000000000000000000000000000000000000000000000148061368e57507fffffffff0000000000000000000000000000000000000000000000000000000082167f0e89341c00000000000000000000000000000000000000000000000000000000145b8061061257507f01ffc9a7000000000000000000000000000000000000000000000000000000007fffffffff00000000000000000000000000000000000000000000000000000000831614610612565b60007fffffffff0000000000000000000000000000000000000000000000000000000082167f4e2312e000000000000000000000000000000000000000000000000000000000148061061257507f01ffc9a7000000000000000000000000000000000000000000000000000000007fffffffff00000000000000000000000000000000000000000000000000000000831614610612565b60606000613784836002618b44565b61378f906002618aa0565b67ffffffffffffffff8111156137a7576137a7617996565b6040519080825280601f01601f1916602001820160405280156137d1576020820181803683370190505b5090507f30000000000000000000000000000000000000000000000000000000000000008160008151811061380857613808618a09565b60200101907effffffffffffffffffffffffffffffffffffffffffffffffffffffffffffff1916908160001a9053507f78000000000000000000000000000000000000000000000000000000000000008160018151811061386b5761386b618a09565b60200101907effffffffffffffffffffffffffffffffffffffffffffffffffffffffffffff1916908160001a90535060006138a7846002618b44565b6138b2906001618aa0565b90505b600181111561394f577f303132333435363738396162636465660000000000000000000000000000000085600f16601081106138f3576138f3618a09565b1a60f81b82828151811061390957613909618a09565b60200101907effffffffffffffffffffffffffffffffffffffffffffffffffffffffffffff1916908160001a90535060049490941c9361394881618b81565b90506138b5565b508315611850576040517f08c379a000000000000000000000000000000000000000000000000000000000815260206004820181905260248201527f537472696e67733a20686578206c656e67746820696e73756666696369656e7460448201526064016105d7565b6060816139f857505060408051808201909152600181527f3000000000000000000000000000000000000000000000000000000000000000602082015290565b8160005b8115613a225780613a0c81618a67565b9150613a1b9050600a83618be5565b91506139fc565b60008167ffffffffffffffff811115613a3d57613a3d617996565b6040519080825280601f01601f191660200182016040528015613a67576020820181803683370190505b5090505b8415613aea57613a7c600183618ab8565b9150613a89600a86618bf9565b613a94906030618aa0565b60f81b818381518110613aa957613aa9618a09565b60200101907effffffffffffffffffffffffffffffffffffffffffffffffffffffffffffff1916908160001a905350613ae3600a86618be5565b9450613a6b565b949350505050565b613b246040518060a0016040528060008152602001606081526020016060815260200160608152602001606081525090565b815151613b8d576040517f08c379a000000000000000000000000000000000000000000000000000000000815260206004820152600960248201527f305f534f5552434553000000000000000000000000000000000000000000000060448201526064016105d7565b6040518060a0016040528060008152602001836040015167ffffffffffffffff811115613bbc57613bbc617996565b604051908082528060200260200182016040528015613be5578160200160208202803683370190505b5081526020018360000151815260200183602001518152602001836060015167ffffffffffffffff811115613c1c57613c1c617996565b604051908082528060200260200182016040528015613c45578160200160208202803683370190505b50905292915050565b600080613c7983604051602001613c659190618c0d565b604051602081830303815290604052614b37565b90507ff95eed63f55d96a35306669cc3b5f652f8d44552e3e4b17b2f78f13571114abd338285604051613cae93929190618c20565b60405180910390a192915050565b613cee6040518060a0016040528060008152602001606081526020016060815260200160608152602001606081525090565b613cf782614bc2565b8060200190518101906106129190618d9c565b6000610612825490565b60006118508284618aa0565b60006118508383614bf0565b8151835114613dbd576040517f08c379a000000000000000000000000000000000000000000000000000000000815260206004820152602860248201527f455243313135353a2069647320616e6420616d6f756e7473206c656e6774682060448201527f6d69736d6174636800000000000000000000000000000000000000000000000060648201526084016105d7565b73ffffffffffffffffffffffffffffffffffffffff8416613e60576040517f08c379a000000000000000000000000000000000000000000000000000000000815260206004820152602560248201527f455243313135353a207472616e7366657220746f20746865207a65726f20616460448201527f647265737300000000000000000000000000000000000000000000000000000060648201526084016105d7565b3360005b8451811015613fd4576000858281518110613e8157613e81618a09565b602002602001015190506000858381518110613e9f57613e9f618a09565b602090810291909101810151600084815260658352604080822073ffffffffffffffffffffffffffffffffffffffff8e168352909352919091205490915081811015613f6d576040517f08c379a000000000000000000000000000000000000000000000000000000000815260206004820152602a60248201527f455243313135353a20696e73756666696369656e742062616c616e636520666f60448201527f72207472616e736665720000000000000000000000000000000000000000000060648201526084016105d7565b600083815260656020908152604080832073ffffffffffffffffffffffffffffffffffffffff8e8116855292528083208585039055908b16825281208054849290613fb9908490618aa0565b9250508190555050505080613fcd90618a67565b9050613e64565b508473ffffffffffffffffffffffffffffffffffffffff168673ffffffffffffffffffffffffffffffffffffffff168273ffffffffffffffffffffffffffffffffffffffff167f4a39dc06d4c0dbc64b70af90fd698a233a518aa5d07e595d983b8c0526c8f7fb878760405161404b929190618e7f565b60405180910390a461306c818787878787614c3f565b600054610100900460ff166140f8576040517f08c379a000000000000000000000000000000000000000000000000000000000815260206004820152602b60248201527f496e697469616c697a61626c653a20636f6e7472616374206973206e6f74206960448201527f6e697469616c697a696e6700000000000000000000000000000000000000000060648201526084016105d7565b61326f81614eca565b600054610100900460ff16614198576040517f08c379a000000000000000000000000000000000000000000000000000000000815260206004820152602b60248201527f496e697469616c697a61626c653a20636f6e7472616374206973206e6f74206960448201527f6e697469616c697a696e6700000000000000000000000000000000000000000060648201526084016105d7565b6111a1614f6a565b60006118508373ffffffffffffffffffffffffffffffffffffffff8416614bf0565b6097805473ffffffffffffffffffffffffffffffffffffffff8381167fffffffffffffffffffffffff0000000000000000000000000000000000000000831681179093556040519116919082907f8be0079c531659141344cd1fd0a4f28419497f9722a3daafe3b4186f6b6457e090600090a35050565b602082810151604084015183830201909101516060840151608085015182516000948594859492939092915b848810156143f2576002880197508784015180601e1a975080601f1a96505060058710156143e65760018714156142c85781608087166142a25750825b8a516020607f89160260200182015160208202602001840152600181018c525050614265565b60028714156142f35789516020870260200182015160208202602001830152600181018b5250614265565b600387141561430c576143078b8b8861500a565b614265565b600487141561433d576143078a6040516020016143299190618c0d565b604051602081830303815290604052615170565b607f6101fe600188901b1617861660808716156143a9578a517fffffffffffffffffffffffffffffffffffffffffffffffffffffffffffffffff01808c5260208c01518051909190811061439357614393618a09565b6020026020010151600014156143a95750614265565b8060000b6000146143e05760008160000b12156143d457801960020160020260ff16890398506143e0565b8060020260ff16890198505b50614265565b6143078b8b89896151ff565b5050505050505050505050565b60006118508284618b44565b60006118508373ffffffffffffffffffffffffffffffffffffffff8416615389565b8173ffffffffffffffffffffffffffffffffffffffff168373ffffffffffffffffffffffffffffffffffffffff1614156144e9576040517f08c379a000000000000000000000000000000000000000000000000000000000815260206004820152602960248201527f455243313135353a2073657474696e6720617070726f76616c2073746174757360448201527f20666f722073656c66000000000000000000000000000000000000000000000060648201526084016105d7565b73ffffffffffffffffffffffffffffffffffffffff83811660008181526066602090815260408083209487168084529482529182902080547fffffffffffffffffffffffffffffffffffffffffffffffffffffffffffffff001686151590811790915591519182527f17307eab39ab6107e8899845ad3d59bd9653f200f220920489ca2b5937696c31910160405180910390a3505050565b73ffffffffffffffffffffffffffffffffffffffff8416614624576040517f08c379a000000000000000000000000000000000000000000000000000000000815260206004820152602160248201527f455243313135353a206d696e7420746f20746865207a65726f2061646472657360448201527f730000000000000000000000000000000000000000000000000000000000000060648201526084016105d7565b3361463e8160008761463588615483565b610a5488615483565b600084815260656020908152604080832073ffffffffffffffffffffffffffffffffffffffff891684529091528120805485929061467d908490618aa0565b9091555050604080518581526020810185905273ffffffffffffffffffffffffffffffffffffffff80881692600092918516917fc3d58168c5ae7397731d063d5bbf3d657854427343f4c083240f7aacaa2d0f62910160405180910390a4610a54816000878787876154ce565b73ffffffffffffffffffffffffffffffffffffffff841661478d576040517f08c379a000000000000000000000000000000000000000000000000000000000815260206004820152602560248201527f455243313135353a207472616e7366657220746f20746865207a65726f20616460448201527f647265737300000000000000000000000000000000000000000000000000000060648201526084016105d7565b3361479d81878761463588615483565b600084815260656020908152604080832073ffffffffffffffffffffffffffffffffffffffff8a1684529091529020548381101561485d576040517f08c379a000000000000000000000000000000000000000000000000000000000815260206004820152602a60248201527f455243313135353a20696e73756666696369656e742062616c616e636520666f60448201527f72207472616e736665720000000000000000000000000000000000000000000060648201526084016105d7565b600085815260656020908152604080832073ffffffffffffffffffffffffffffffffffffffff8b81168552925280832087850390559088168252812080548692906148a9908490618aa0565b9091555050604080518681526020810186905273ffffffffffffffffffffffffffffffffffffffff808916928a821692918616917fc3d58168c5ae7397731d063d5bbf3d657854427343f4c083240f7aacaa2d0f62910160405180910390a46149168288888888886154ce565b50505050505050565b73ffffffffffffffffffffffffffffffffffffffff811660009081526001830160205260408120541515611850565b600061495b60d28361567b565b15614964575090565b6040517f08c379a000000000000000000000000000000000000000000000000000000000815260206004820152602a60248201527f47616d654173736574733a3a676574436c6173733a20496e76616c696420636c60448201527f6173732076616c75652e0000000000000000000000000000000000000000000060648201526084016105d7565b919050565b600060ff8216614a0357506000919050565b8160ff1660011415614a1757506001919050565b8160ff1660021415614a2b57506002919050565b8160ff1660031415614a3f57506003919050565b8160ff1660041415614a5357506004919050565b6040517f08c379a000000000000000000000000000000000000000000000000000000000815260206004820152602560248201527f47616d654173736574733a3a6765745261726974793a20496e76616c6964205260448201527f617269747900000000000000000000000000000000000000000000000000000060648201526084016105d7565b606081600001805480602002602001604051908101604052809291908181526020018280548015614b2b57602002820191906000526020600020905b815481526020019060010190808311614b17575b50505050509050919050565b600080614b6283604051602001614b4e9190618ea4565b604051602081830303815290604052615693565b90508051602082016000f0915073ffffffffffffffffffffffffffffffffffffffff8216614bbc576040517f08d4abb600000000000000000000000000000000000000000000000000000000815260040160405180910390fd5b50919050565b60606106128260017fffffffffffffffffffffffffffffffffffffffffffffffffffffffffffffffff6156a9565b6000818152600183016020526040812054614c3757508154600181810184556000848152602080822090930184905584548482528286019093526040902091909155610612565b506000610612565b73ffffffffffffffffffffffffffffffffffffffff84163b1561306c576040517fbc197c8100000000000000000000000000000000000000000000000000000000815273ffffffffffffffffffffffffffffffffffffffff85169063bc197c8190614cb69089908990889088908890600401618eca565b6020604051808303816000875af1925050508015614d0f575060408051601f3d9081017fffffffffffffffffffffffffffffffffffffffffffffffffffffffffffffffe0168201909252614d0c91810190618f35565b60015b614df957614d1b618f52565b806308c379a01415614d6f5750614d30618f6e565b80614d3b5750614d71565b806040517f08c379a00000000000000000000000000000000000000000000000000000000081526004016105d79190617983565b505b6040517f08c379a000000000000000000000000000000000000000000000000000000000815260206004820152603460248201527f455243313135353a207472616e7366657220746f206e6f6e204552433131353560448201527f526563656976657220696d706c656d656e74657200000000000000000000000060648201526084016105d7565b7fffffffff0000000000000000000000000000000000000000000000000000000081167fbc197c810000000000000000000000000000000000000000000000000000000014614916576040517f08c379a000000000000000000000000000000000000000000000000000000000815260206004820152602860248201527f455243313135353a204552433131353552656365697665722072656a6563746560448201527f6420746f6b656e7300000000000000000000000000000000000000000000000060648201526084016105d7565b600054610100900460ff16614f61576040517f08c379a000000000000000000000000000000000000000000000000000000000815260206004820152602b60248201527f496e697469616c697a61626c653a20636f6e7472616374206973206e6f74206960448201527f6e697469616c697a696e6700000000000000000000000000000000000000000060648201526084016105d7565b61326f81615791565b600054610100900460ff16615001576040517f08c379a000000000000000000000000000000000000000000000000000000000815260206004820152602b60248201527f496e697469616c697a61626c653a20636f6e7472616374206973206e6f74206960448201527f6e697469616c697a696e6700000000000000000000000000000000000000000060648201526084016105d7565b6111a1336141c2565b81517fffffffffffffffffffffffffffffffffffffffffffffffffffffffffffffffff600583901c918290030183526007821690610100600384811c1681901c91908290039060010160008167ffffffffffffffff81111561506e5761506e617996565b604051908082528060200260200182016040528015615097578160200160208202803683370190505b50905060005b828110156150ee57876020015181896000015101815181106150c1576150c1618a09565b60200260200101518282815181106150db576150db618a09565b602090810291909101015260010161509d565b5060005b6101008110156151655760005b83811015615152578482860384838151811061511d5761511d618a09565b6020026020010151901b901c8960800151828151811061513f5761513f618a09565b60209081029190910101526001016150ff565b5061515e898988614239565b84016150f2565b505050505050505050565b61326f816040516024016151849190617983565b604080517fffffffffffffffffffffffffffffffffffffffffffffffffffffffffffffffe08184030181529190526020810180517bffffffffffffffffffffffffffffffffffffffffffffffffffffffff167f0be77f56000000000000000000000000000000000000000000000000000000001790526157a4565b7f000000000000000000000000000000000000000000000000000000000000000082101561523a576152358360058403836157c5565b615383565b7f000000000000000000000000000000000000000000000000000000000000000082039150600182106152c9576040517f08c379a000000000000000000000000000000000000000000000000000000000815260206004820152600a60248201527f4d41585f4f50434f44450000000000000000000000000000000000000000000060448201526064016105d7565b600083602001516002856000015103815181106152e8576152e8618a09565b602002602001015190506000846020015160018660000151038151811061531157615311618a09565b602090810291909101015185517ffffffffffffffffffffffffffffffffffffffffffffffffffffffffffffffffe01865290506000615350838361592b565b905080866020015187600001518151811061536d5761536d618a09565b6020908102919091010152505083516001018452505b50505050565b600081815260018301602052604081205480156154725760006153ad600183618ab8565b85549091506000906153c190600190618ab8565b90508181146154265760008660000182815481106153e1576153e1618a09565b906000526020600020015490508087600001848154811061540457615404618a09565b6000918252602080832090910192909255918252600188019052604090208390555b855486908061543757615437619016565b600190038181906000526020600020016000905590558560010160008681526020019081526020016000206000905560019350505050610612565b6000915050610612565b5092915050565b604080516001808252818301909252606091600091906020808301908036833701905050905082816000815181106154bd576154bd618a09565b602090810291909101015292915050565b73ffffffffffffffffffffffffffffffffffffffff84163b1561306c576040517ff23a6e6100000000000000000000000000000000000000000000000000000000815273ffffffffffffffffffffffffffffffffffffffff85169063f23a6e61906155459089908990889088908890600401619045565b6020604051808303816000875af192505050801561559e575060408051601f3d9081017fffffffffffffffffffffffffffffffffffffffffffffffffffffffffffffffe016820190925261559b91810190618f35565b60015b6155aa57614d1b618f52565b7fffffffff0000000000000000000000000000000000000000000000000000000081167ff23a6e610000000000000000000000000000000000000000000000000000000014614916576040517f08c379a000000000000000000000000000000000000000000000000000000000815260206004820152602860248201527f455243313135353a204552433131353552656365697665722072656a6563746560448201527f6420746f6b656e7300000000000000000000000000000000000000000000000060648201526084016105d7565b60008181526001830160205260408120541515611850565b606081518260405160200161072292919061908a565b6060833b806156c8575050604080516020810190915260008152611850565b808411156156e6575050604080516020810190915260008152611850565b83831015615731576040517f2c4a89fa0000000000000000000000000000000000000000000000000000000081526004810182905260248101859052604481018490526064016105d7565b83830384820360008282106157465782615748565b815b60408051603f83017fffffffffffffffffffffffffffffffffffffffffffffffffffffffffffffffe0168101909152818152955090508087602087018a3c505050509392505050565b8051610be29060679060208401906176b4565b80516a636f6e736f6c652e6c6f67602083016000808483855afa5050505050565b60048210156157d957611bb1838383615965565b601d82101561585c57600b8210156157f957611bb1836004840383615a7b565b601682101561582f57611bb1837ffffffffffffffffffffffffffffffffffffffffffffffffffffffffffffffff5840183615da9565b611bb1837fffffffffffffffffffffffffffffffffffffffffffffffffffffffffffffffea8401836161e0565b602382101561589257611bb1837fffffffffffffffffffffffffffffffffffffffffffffffffffffffffffffffe38401836163f1565b60258210156158c857611bb1837fffffffffffffffffffffffffffffffffffffffffffffffffffffffffffffffdd8401836168c5565b60278210156158fe57611bb1837fffffffffffffffffffffffffffffffffffffffffffffffffffffffffffffffdb840183616af9565b611bb1837fffffffffffffffffffffffffffffffffffffffffffffffffffffffffffffffd9840183616ca8565b6000805b600881101561595b57828160200285901c63ffffffff161115615953579050610612565b60010161592f565b5060089392505050565b600482106159cf576040517f08c379a000000000000000000000000000000000000000000000000000000000815260206004820152600a60248201527f4d41585f4f50434f44450000000000000000000000000000000000000000000060448201526064016105d7565b81615a00574383602001518460000151815181106159ef576159ef618a09565b602002602001018181525050615a70565b6001821415615a24574283602001518460000151815181106159ef576159ef618a09565b6002821415615a48576020830151835181513392919081106159ef576159ef618a09565b602083015183518151309291908110615a6357615a63618a09565b6020026020010181815250505b505080516001019052565b60078210615ae5576040517f08c379a000000000000000000000000000000000000000000000000000000000815260206004820152600a60248201527f4d41585f4f50434f44450000000000000000000000000000000000000000000060448201526064016105d7565b6002821015615c315782517ffffffffffffffffffffffffffffffffffffffffffffffffffffffffffffffffe0182615b905783602001518160010181518110615b3057615b30618a09565b6020026020010151615b688386602001518481518110615b5257615b52618a09565b602002602001015161711590919063ffffffff16565b0284602001518281518110615b7f57615b7f618a09565b602002602001018181525050615c05565b6001831415615c055783602001518160010181518110615bb257615bb2618a09565b6020026020010151615bd48386602001518481518110615b5257615b52618a09565b81615be157615be1618bb6565b0484602001518281518110615bf857615bf8618a09565b6020026020010181815250505b5082517fffffffffffffffffffffffffffffffffffffffffffffffffffffffffffffffff018352505050565b6005821015615d425782517fffffffffffffffffffffffffffffffffffffffffffffffffffffffffffffffff016002831415615ca857615c818285602001518381518110615b5257615b52618a09565b84602001518281518110615c9757615c97618a09565b602002602001018181525050615383565b6003831415615ce157615c818285602001518381518110615ccb57615ccb618a09565b602002602001015161717790919063ffffffff16565b600483141561538357615d1a8285602001518381518110615d0457615d04618a09565b60200260200101516171a890919063ffffffff16565b84602001518281518110615d3057615d30618a09565b60200260200101818152505050505050565b6005821415615d8457602083015183518151670de0b6b3a76400009291908110615d6e57615d6e618a09565b6020908102919091010152505080516001019052565b6006821415611bb15760128360200151846000015181518110615a6357615a63618a09565b600b8210615e13576040517f08c379a000000000000000000000000000000000000000000000000000000000815260206004820152600a60248201527f4d41585f4f50434f44450000000000000000000000000000000000000000000060448201526064016105d7565b825160208401518051838303927fffffffffffffffffffffffffffffffffffffffffffffffffffffffffffffffff019183916000919083908110615e5957615e59618a09565b602002602001015190506000861415615eb1575b82821015615eac576020870151805160019093019283908110615e9257615e92618a09565b602002602001015181615ea59190618aa0565b9050615e6d565b6161b1565b6001861415615f02575b82821015615eac578180600101925050615efb87602001518381518110615ee457615ee4618a09565b6020026020010151826171e690919063ffffffff16565b9050615ebb565b6002861415615f4b575b82821015615eac576020870151805160019093019283908110615f3157615f31618a09565b602002602001015181615f449190618ab8565b9050615f0c565b6003861415615f9c575b82821015615eac578180600101925050615f9587602001518381518110615f7e57615f7e618a09565b60200260200101518261722190919063ffffffff16565b9050615f55565b6004861415615fe5575b82821015615eac576020870151805160019093019283908110615fcb57615fcb618a09565b602002602001015181615fde9190618b44565b9050615fa6565b6005861415616036575b82821015615eac57818060010192505061602f8760200151838151811061601857616018618a09565b60200260200101518261723790919063ffffffff16565b9050615fef565b600686141561607f575b82821015615eac57602087015180516001909301928390811061606557616065618a09565b6020026020010151816160789190618be5565b9050616040565b60078614156160c8575b82821015615eac5760208701518051600190930192839081106160ae576160ae618a09565b6020026020010151816160c19190618bf9565b9050616089565b6008861415616111575b82821015615eac5760208701518051600190930192839081106160f7576160f7618a09565b60200260200101518161610a9190619241565b90506160d2565b60098614156161635760005b8383101561615d57602088015180516001909401938490811061614257616142618a09565b6020026020010151905081811015616158578091505b61611d565b506161b1565b600a8614156161b15760005b838310156161af57602088015180516001909401938490811061619457616194618a09565b60200260200101519050818111156161aa578091505b61616f565b505b80876020015185815181106161c8576161c8618a09565b60209081029190910101525050506001019092525050565b6007821061624a576040517f08c379a000000000000000000000000000000000000000000000000000000000815260206004820152600a60248201527f4d41585f4f50434f44450000000000000000000000000000000000000000000060448201526064016105d7565b8251602080850151818302010183801561629357600181146162c0576002811461632b5760038114616345576004811461635f576005811461637957600681146163b15761306c565b7fffffffffffffffffffffffffffffffffffffffffffffffffffffffffffffffe08201805115905261306c565b7ffffffffffffffffffffffffffffffffffffffffffffffffffffffffffffffffe830186527fffffffffffffffffffffffffffffffffffffffffffffffffffffffffffffffa082018051801561631c5760208201518252616324565b604082015182525b505061306c565b60018303865260408203602081015181511481525061306c565b60018303865260408203602081015181511081525061306c565b60018303865260408203602081015181511181525061306c565b83156163ac576001840383038652602084028203805b838110156163245780516163a4575060008152825b60200161638f565b61306c565b831561306c576001840383038652602084028203805b838110156163e757805180156163de578491508083525b506020016163c7565b5050505050505050565b6006821061645b576040517f08c379a000000000000000000000000000000000000000000000000000000000815260206004820152600a60248201527f4d41585f4f50434f44450000000000000000000000000000000000000000000060448201526064016105d7565b600082616583575082517fffffffffffffffffffffffffffffffffffffffffffffffffffffffffffffffff81018452602084015180517ffffffffffffffffffffffffffffffffffffffffffffffffffffffffffffffffe90920191829081106164c6576164c6618a09565b602002602001015173ffffffffffffffffffffffffffffffffffffffff1663e053ea318560200151836001018151811061650257616502618a09565b60200260200101516040518263ffffffff1660e01b8152600401616542919073ffffffffffffffffffffffffffffffffffffffff91909116815260200190565b602060405180830381865afa15801561655f573d6000803e3d6000fd5b505050506040513d601f19601f82011682018060405250810190615c819190618acf565b60018314156165de577fffffffffffffffffffffffffffffffffffffffffffffffffffffffffffffffff84602001518560000151815181106165c7576165c7618a09565b602090810291909101015283516001018452615383565b600283141561660357600084602001518560000151815181106165c7576165c7618a09565b60038314156166b7575082517ffffffffffffffffffffffffffffffffffffffffffffffffffffffffffffffffe0180845260208401518051600091908390811061664f5761664f618a09565b6020026020010151905060008560200151836001018151811061667457616674618a09565b602002602001015190506166888282617266565b8660200151848151811061669e5761669e618a09565b6020908102919091010152505083516001018452615383565b600483141561677f575082517ffffffffffffffffffffffffffffffffffffffffffffffffffffffffffffffffe0180845260208401518051600f80851692600486901c90911691600091908590811061671257616712618a09565b6020026020010151905060008760200151856001018151811061673757616737618a09565b6020026020010151905061674d828585846172bd565b8860200151868151811061676357616763618a09565b6020908102919091010152505085516001018652506153839050565b6005831415615383575082517fffffffffffffffffffffffffffffffffffffffffffffffffffffffffffffffff601f8316918290030180855290600783901c906003600585901c16908360008267ffffffffffffffff8111156167e4576167e4617996565b60405190808252806020026020018201604052801561680d578160200160208202803683370190505b50905060005b83811015616862578960200151838151811061683157616831618a09565b602002602001015182828151811061684b5761684b618a09565b602090810291909101015260019283019201616813565b5060008960200151838151811061687b5761687b618a09565b6020026020010151905061689182828888617363565b8a6020015188815181106168a7576168a7618a09565b60209081029190910101525050875160010188525050505050505050565b6002821061692f576040517f08c379a000000000000000000000000000000000000000000000000000000000815260206004820152600a60248201527f4d41585f4f50434f44450000000000000000000000000000000000000000000060448201526064016105d7565b81616a815782517fffffffffffffffffffffffffffffffffffffffffffffffffffffffffffffffff810184526020840151805190917ffffffffffffffffffffffffffffffffffffffffffffffffffffffffffffffffe0190811061699557616995618a09565b602002602001015173ffffffffffffffffffffffffffffffffffffffff166370a0823184602001518560000151815181106169d2576169d2618a09565b60200260200101516040518263ffffffff1660e01b8152600401616a12919073ffffffffffffffffffffffffffffffffffffffff91909116815260200190565b602060405180830381865afa158015616a2f573d6000803e3d6000fd5b505050506040513d601f19601f82011682018060405250810190616a539190618acf565b8360200151600185600001510381518110616a7057616a70618a09565b602002602001018181525050505050565b6001821415611bb1578260200151600184600001510381518110616aa757616aa7618a09565b602002602001015173ffffffffffffffffffffffffffffffffffffffff166318160ddd6040518163ffffffff1660e01b8152600401602060405180830381865afa158015616a2f573d6000803e3d6000fd5b60028210616b63576040517f08c379a000000000000000000000000000000000000000000000000000000000815260206004820152600a60248201527f4d41585f4f50434f44450000000000000000000000000000000000000000000060448201526064016105d7565b82517fffffffffffffffffffffffffffffffffffffffffffffffffffffffffffffffff01835281616bab57826020015160018460000151038151811061699557616995618a09565b6001821415611bb1578260200151600184600001510381518110616bd157616bd1618a09565b602002602001015173ffffffffffffffffffffffffffffffffffffffff16636352211e8460200151856000015181518110616c0e57616c0e618a09565b60200260200101516040518263ffffffff1660e01b8152600401616c3491815260200190565b602060405180830381865afa158015616c51573d6000803e3d6000fd5b505050506040513d601f19601f82011682018060405250810190616c75919061924d565b73ffffffffffffffffffffffffffffffffffffffff168360200151600185600001510381518110616a7057616a70618a09565b60028210616d12576040517f08c379a000000000000000000000000000000000000000000000000000000000815260206004820152600a60248201527f4d41585f4f50434f44450000000000000000000000000000000000000000000060448201526064016105d7565b81616e5d5782517ffffffffffffffffffffffffffffffffffffffffffffffffffffffffffffffffe81018452602084015180517ffffffffffffffffffffffffffffffffffffffffffffffffffffffffffffffffd9092019182908110616d7a57616d7a618a09565b602002602001015173ffffffffffffffffffffffffffffffffffffffff1662fdd58e85602001518360010181518110616db557616db5618a09565b602002602001015186602001518460020181518110616dd657616dd6618a09565b60200260200101516040518363ffffffff1660e01b8152600401616e1c92919073ffffffffffffffffffffffffffffffffffffffff929092168252602082015260400190565b602060405180830381865afa158015616e39573d6000803e3d6000fd5b505050506040513d601f19601f82011682018060405250810190615d1a9190618acf565b6001821415611bb1576001810160008167ffffffffffffffff811115616e8557616e85617996565b604051908082528060200260200182016040528015616eae578160200160208202803683370190505b50905060008267ffffffffffffffff811115616ecc57616ecc617996565b604051908082528060200260200182016040528015616ef5578160200160208202803683370190505b5086518490037fffffffffffffffffffffffffffffffffffffffffffffffffffffffffffffffff8181018952602089015180519394509186900301916000919083908110616f4557616f45618a09565b6020026020010151905060005b85811015616ffc57886020015181840160010181518110616f7557616f75618a09565b6020026020010151858281518110616f8f57616f8f618a09565b73ffffffffffffffffffffffffffffffffffffffff90921660209283029190910182015289015180516001858901840101908110616fcf57616fcf618a09565b6020026020010151848281518110616fe957616fe9618a09565b6020908102919091010152600101616f52565b506040517f4e1273f400000000000000000000000000000000000000000000000000000000815260009073ffffffffffffffffffffffffffffffffffffffff831690634e1273f490617054908890889060040161926a565b600060405180830381865afa158015617071573d6000803e3d6000fd5b505050506040513d6000823e601f3d9081017fffffffffffffffffffffffffffffffffffffffffffffffffffffffffffffffe01682016040526170b7919081019061927d565b905060005b86811015617109578181815181106170d6576170d6618a09565b60200260200101518a60200151828601815181106170f6576170f6618a09565b60209081029190910101526001016170bc565b50505050505050505050565b60008160121415617127575081610612565b81601211156171575761713b826012618ab8565b61714690600a619241565b6171509084618b44565b9050610612565b617162601283618ab8565b61716d90600a619241565b6171509084618be5565b60006012821415617189575081610612565b816012111561719d57617162826012618ab8565b61713b601283618ab8565b600081810b6171b8575081610612565b60008260000b13156171cf5761714682600a6192b2565b6171db821960016192c1565b61716d90600a6192b2565b60008282018381106171f85780613aea565b7fffffffffffffffffffffffffffffffffffffffffffffffffffffffffffffffff949350505050565b6000818311617231576000611850565b50900390565b60008261724657506000610612565b8282028284828161725957617259618bb6565b0414156171f85780613aea565b60008060015b60088111610eb357600061728086836174b3565b9050600061728e86846174b3565b9050600061729c8383617221565b90506172ac856001860383617560565b9450506001909201915061726c9050565b600082600881111561732b576040517f08c379a000000000000000000000000000000000000000000000000000000000815260206004820152600860248201527f4d41585f5449455200000000000000000000000000000000000000000000000060448201526064016105d7565b6000855b858110156173575763ffffffff6020820290811b199890981685891b1797915060010161732f565b50959695505050505050565b835160009081908190819060015b600881116174a5576000925082876173aa57507fffffffffffffffffffffffffffffffffffffffffffffffffffffffffffffffff6173ae565b5060005b60005b83811015617463576173dc8c82815181106173ce576173ce618a09565b6020026020010151846174b3565b95508a861161742e57886173fb576173f486836175ea565b9150617425565b600189141561740e576173f48683617600565b60028914801561741c575084155b15617425578591505b6001945061745b565b8961745b577fffffffffffffffffffffffffffffffffffffffffffffffffffffffffffffffff9150617463565b6001016173b1565b508361748c57507fffffffffffffffffffffffffffffffffffffffffffffffffffffffffffffffff5b61749a866001840383617560565b955050600101617371565b509298975050505050505050565b6000816008811115617521576040517f08c379a000000000000000000000000000000000000000000000000000000000815260206004820152600860248201527f4d41585f5449455200000000000000000000000000000000000000000000000060448201526064016105d7565b8261752f576000915061547c565b50507fffffffffffffffffffffffffffffffffffffffffffffffffffffffffffffffff016020021c63ffffffff1690565b60008260088111156175ce576040517f08c379a000000000000000000000000000000000000000000000000000000000815260206004820152600860248201527f4d41585f5449455200000000000000000000000000000000000000000000000060448201526064016105d7565b505060209190910290811b63ffffffff90911b19919091161790565b60008183106175f95781611850565b5090919050565b6000818310156175f95781611850565b82805482825590600052602060002090810192821561764b579160200282015b8281111561764b578251825591602001919060010190617630565b506176579291506177a1565b5090565b8280548282559060005260206000209081019282156176a8579160200282015b828111156176a857825180516176989184916020909101906176b4565b509160200191906001019061767b565b506176579291506177b6565b8280546176c0906184ce565b90600052602060002090601f0160209004810192826176e2576000855561764b565b82601f106176fb57805160ff191683800117855561764b565b8280016001018555821561764b579182018281111561764b578251825591602001919060010190617630565b82805482825590600052602060002090810192821561764b579160200282015b8281111561764b57825182547fffffffffffffffffffffffff00000000000000000000000000000000000000001673ffffffffffffffffffffffffffffffffffffffff909116178255602090920191600190910190617747565b5b8082111561765757600081556001016177a2565b808211156176575760006177ca82826177d3565b506001016177b6565b5080546177df906184ce565b6000825580601f106177ef575050565b601f01602090049060005260206000209081019061326f91906177a1565b73ffffffffffffffffffffffffffffffffffffffff8116811461326f57600080fd5b6000806040838503121561784257600080fd5b823561784d8161780d565b946020939093013593505050565b600081518084526020808501945080840160005b8381101561788b5781518752958201959082019060010161786f565b509495945050505050565b602081526000611850602083018461785b565b7fffffffff000000000000000000000000000000000000000000000000000000008116811461326f57600080fd5b6000602082840312156178e957600080fd5b8135611850816178a9565b60006020828403121561790657600080fd5b5035919050565b60005b83811015617928578181015183820152602001617910565b838111156153835750506000910152565b6000815180845261795181602086016020860161790d565b601f017fffffffffffffffffffffffffffffffffffffffffffffffffffffffffffffffe0169290920160200192915050565b6020815260006118506020830184617939565b7f4e487b7100000000000000000000000000000000000000000000000000000000600052604160045260246000fd5b6080810181811067ffffffffffffffff821117156179e5576179e5617996565b60405250565b7fffffffffffffffffffffffffffffffffffffffffffffffffffffffffffffffe0601f830116810181811067ffffffffffffffff82111715617a2f57617a2f617996565b6040525050565b60405160c0810167ffffffffffffffff81118282101715617a5957617a59617996565b60405290565b60405160a0810167ffffffffffffffff81118282101715617a5957617a59617996565b600067ffffffffffffffff821115617a9c57617a9c617996565b5060051b60200190565b600067ffffffffffffffff821115617ac057617ac0617996565b50601f017fffffffffffffffffffffffffffffffffffffffffffffffffffffffffffffffe01660200190565b600082601f830112617afd57600080fd5b8135617b0881617aa6565b604051617b1582826179eb565b828152856020848701011115617b2a57600080fd5b82602086016020830137600092810160200192909252509392505050565b600082601f830112617b5957600080fd5b81356020617b6682617a82565b604051617b7382826179eb565b83815260059390931b8501820192828101915086841115617b9357600080fd5b8286015b84811015617bae5780358352918301918301617b97565b509695505050505050565b600060808284031215617bcb57600080fd5b604051617bd7816179c5565b809150823567ffffffffffffffff80821115617bf257600080fd5b818501915085601f830112617c0657600080fd5b81356020617c1382617a82565b604051617c2082826179eb565b83815260059390931b8501820192828101915089841115617c4057600080fd5b8286015b84811015617c7857803586811115617c5c5760008081fd5b617c6a8c86838b0101617aec565b845250918301918301617c44565b5086525086810135935082841115617c8f57600080fd5b617c9b88858901617b48565b818601525050505060408301356040820152606083013560608201525092915050565b600080600060608486031215617cd357600080fd5b8335925060208401359150604084013567ffffffffffffffff811115617cf857600080fd5b617d0486828701617bb9565b9150509250925092565b600080600060608486031215617d2357600080fd5b833567ffffffffffffffff80821115617d3b57600080fd5b617d4787838801617aec565b9450602091508186013581811115617d5e57600080fd5b617d6a88828901617aec565b945050604086013581811115617d7f57600080fd5b8601601f81018813617d9057600080fd5b8035617d9b81617a82565b604051617da882826179eb565b82815260059290921b830185019185810191508a831115617dc857600080fd5b8584015b83811015617e0057803586811115617de45760008081fd5b617df28d8983890101617aec565b845250918601918601617dcc565b508096505050505050509250925092565b600080600080600060a08688031215617e2957600080fd5b8535617e348161780d565b94506020860135617e448161780d565b9350604086013567ffffffffffffffff80821115617e6157600080fd5b617e6d89838a01617b48565b94506060880135915080821115617e8357600080fd5b617e8f89838a01617b48565b93506080880135915080821115617ea557600080fd5b50617eb288828901617aec565b9150509295509295909350565b600060208284031215617ed157600080fd5b813567ffffffffffffffff80821115617ee957600080fd5b9083019060408286031215617efd57600080fd5b604051604081018181108382111715617f1857617f18617996565b6040528235617f268161780d565b8152602083013582811115617f3a57600080fd5b617f4687828601617aec565b60208301525095945050505050565b600060208284031215617f6757600080fd5b81356118508161780d565b600082601f830112617f8357600080fd5b81356020617f9082617a82565b604051617f9d82826179eb565b83815260059390931b8501820192828101915086841115617fbd57600080fd5b8286015b84811015617bae578035617fd48161780d565b8352918301918301617fc1565b60008060408385031215617ff457600080fd5b823567ffffffffffffffff8082111561800c57600080fd5b61801886838701617f72565b9350602085013591508082111561802e57600080fd5b5061803b85828601617b48565b9150509250929050565b60006020828403121561805757600080fd5b813567ffffffffffffffff81111561806e57600080fd5b613aea84828501617aec565b60008060006060848603121561808f57600080fd5b8335925060208401356180a18161780d565b929592945050506040919091013590565b801515811461326f57600080fd5b600080604083850312156180d357600080fd5b82356180de8161780d565b915060208301356180ee816180b2565b809150509250929050565b60006020828403121561810b57600080fd5b813567ffffffffffffffff81111561812257600080fd5b613aea84828501617f72565b600081518084526020808501808196508360051b8101915082860160005b85811015618176578284038952618164848351617939565b9885019893509084019060010161814c565b5091979650505050505050565b805182526000602082015160a060208501526181a260a085018261785b565b9050604083015184820360408601526181bb828261812e565b915050606083015184820360608601526181d5828261785b565b915050608083015184820360808601526181ef828261785b565b95945050505050565b7f4e487b7100000000000000000000000000000000000000000000000000000000600052602160045260246000fd5b6005811061825e577f4e487b7100000000000000000000000000000000000000000000000000000000600052602160045260246000fd5b9052565b87815286602082015260e06040820152600061828160e0830188618183565b82810360608401526182938188618183565b9150508460808301526182a960a0830185618227565b73ffffffffffffffffffffffffffffffffffffffff831660c083015298975050505050505050565b600080604083850312156182e457600080fd5b50508035926020909101359150565b600081518084526020808501945080840160005b8381101561788b57815173ffffffffffffffffffffffffffffffffffffffff1687529582019590820190600101618307565b60208152600061185060208301846182f3565b6000806040838503121561835f57600080fd5b823561836a8161780d565b915060208301356180ee8161780d565b600080600080600060a0868803121561839257600080fd5b853561839d8161780d565b945060208601356183ad8161780d565b93506040860135925060608601359150608086013567ffffffffffffffff8111156183d757600080fd5b617eb288828901617aec565b803560ff811681146149ec57600080fd5b60006020828403121561840657600080fd5b813567ffffffffffffffff8082111561841e57600080fd5b9083019060c0828603121561843257600080fd5b61843a617a36565b8235815260208301358281111561845057600080fd5b61845c87828601617bb9565b60208301525060408301358281111561847457600080fd5b61848087828601617bb9565b60408301525060608301358281111561849857600080fd5b6184a487828601617f72565b606083015250608083013560808201526184c060a084016183e3565b60a082015295945050505050565b600181811c908216806184e257607f821691505b60208210811415614bbc577f4e487b7100000000000000000000000000000000000000000000000000000000600052602260045260246000fd5b6000815161852e81856020860161790d565b9290920192915050565b6000808554618546816184ce565b6001828116801561855e576001811461858d576185bc565b7fffffffffffffffffffffffffffffffffffffffffffffffffffffffffffffff008416875282870194506185bc565b8960005260208060002060005b858110156185b35781548a82015290840190820161859a565b50505082870194505b507f2f000000000000000000000000000000000000000000000000000000000000009250828452875191506185f78282860160208b0161790d565b92019182015261863661860d600283018661851c565b7f2e6a736f6e000000000000000000000000000000000000000000000000000000815260050190565b9695505050505050565b6000815480845260208085019450836000528060002060005b8381101561788b57815487529582019560019182019101618659565b8054825260006001602060a08186015261869460a08601838601618640565b600285016040878303818901528282548085528585019150858160051b86010160008581528781209550805b83811015618788577fffffffffffffffffffffffffffffffffffffffffffffffffffffffffffffffe08884030185528187546186fb816184ce565b808652818d168015618714576001811461874557618774565b7fffffffffffffffffffffffffffffffffffffffffffffffffffffffffffffff0083168d8801528987019350618774565b8a86528c8620865b8381101561876c5781548f828b0101528f820191508e8101905061874d565b88018e019450505b505050968a019694890194925089016186c0565b50508a810360608c015261879f8160038c01618640565b9750505050505050508381036080850152613aea8160048501618640565b6000815480845260208085019450836000528060002060005b8381101561788b57815473ffffffffffffffffffffffffffffffffffffffff16875295820195600191820191016187d6565b6000610100825484526001830154602085015280604085015261883081850160028501618675565b905083810360608501526188478160078501618675565b9050838103608085015261885e81600c85016187bd565b9050600d83015460a0850152600e83015461887f60c0860160ff8316618227565b600881901c73ffffffffffffffffffffffffffffffffffffffff1660e0860152610eb3565b60008151608084526188b9608085018261812e565b9050602083015184820360208601526188d2828261785b565b91505060408301516040850152606083015160608501528091505092915050565b83815260606020820152600061890c6060830185618808565b828103604084015261863681856188a4565b600060808201868352602060808185015281875180845260a08601915060a08160051b870101935082890160005b82811015618998577fffffffffffffffffffffffffffffffffffffffffffffffffffffffffffffff60888703018452618986868351617939565b9550928401929084019060010161894c565b505050505082810360408401526189af8186617939565b905082810360608401526189c38185617939565b979650505050505050565b6020815273ffffffffffffffffffffffffffffffffffffffff825116602082015260006020830151604080840152613aea6060840182617939565b7f4e487b7100000000000000000000000000000000000000000000000000000000600052603260045260246000fd5b7f4e487b7100000000000000000000000000000000000000000000000000000000600052601160045260246000fd5b60007fffffffffffffffffffffffffffffffffffffffffffffffffffffffffffffffff821415618a9957618a99618a38565b5060010190565b60008219821115618ab357618ab3618a38565b500190565b600082821015618aca57618aca618a38565b500390565b600060208284031215618ae157600080fd5b5051919050565b600060208284031215618afa57600080fd5b8151611850816180b2565b848152608060208201526000618b1e6080830186618808565b8281036040840152618b3081866188a4565b905082810360608401526189c381856188a4565b6000817fffffffffffffffffffffffffffffffffffffffffffffffffffffffffffffffff0483118215151615618b7c57618b7c618a38565b500290565b600081618b9057618b90618a38565b507fffffffffffffffffffffffffffffffffffffffffffffffffffffffffffffffff0190565b7f4e487b7100000000000000000000000000000000000000000000000000000000600052601260045260246000fd5b600082618bf457618bf4618bb6565b500490565b600082618c0857618c08618bb6565b500690565b6020815260006118506020830184618183565b600073ffffffffffffffffffffffffffffffffffffffff8086168352808516602084015250606060408301526181ef6060830184618183565b600082601f830112618c6a57600080fd5b81516020618c7782617a82565b604051618c8482826179eb565b83815260059390931b8501820192828101915086841115618ca457600080fd5b8286015b84811015617bae5780518352918301918301618ca8565b600082601f830112618cd057600080fd5b81516020618cdd82617a82565b60408051618ceb83826179eb565b84815260059490941b8601830193838101925087851115618d0b57600080fd5b8387015b85811015618d9057805167ffffffffffffffff811115618d2f5760008081fd5b8801603f81018a13618d415760008081fd5b85810151618d4e81617aa6565b8551618d5a82826179eb565b8281528c87848601011115618d7157600091508182fd5b618d80838a830189870161790d565b8752505050928401928401618d0f565b50979650505050505050565b600060208284031215618dae57600080fd5b815167ffffffffffffffff80821115618dc657600080fd5b9083019060a08286031215618dda57600080fd5b618de2617a5f565b82518152602083015182811115618df857600080fd5b618e0487828601618c59565b602083015250604083015182811115618e1c57600080fd5b618e2887828601618cbf565b604083015250606083015182811115618e4057600080fd5b618e4c87828601618c59565b606083015250608083015182811115618e6457600080fd5b618e7087828601618c59565b60808301525095945050505050565b604081526000618e92604083018561785b565b82810360208401526181ef818561785b565b6000815260008251618ebd81600185016020870161790d565b9190910160010192915050565b600073ffffffffffffffffffffffffffffffffffffffff808816835280871660208401525060a06040830152618f0360a083018661785b565b8281036060840152618f15818661785b565b90508281036080840152618f298185617939565b98975050505050505050565b600060208284031215618f4757600080fd5b8151611850816178a9565b600060033d1115618f6b5760046000803e5060005160e01c5b90565b600060443d1015618f7c5790565b6040517ffffffffffffffffffffffffffffffffffffffffffffffffffffffffffffffffc803d016004833e81513d67ffffffffffffffff8160248401118184111715618fca57505050505090565b8285019150815181811115618fe25750505050505090565b843d8701016020828501011115618ffc5750505050505090565b61900b602082860101876179eb565b509095945050505050565b7f4e487b7100000000000000000000000000000000000000000000000000000000600052603160045260246000fd5b600073ffffffffffffffffffffffffffffffffffffffff808816835280871660208401525084604083015283606083015260a060808301526189c360a0830184617939565b7f630000000000000000000000000000000000000000000000000000000000000081527fffffffff000000000000000000000000000000000000000000000000000000008360e01b1660018201527f80600e6000396000f3000000000000000000000000000000000000000000000060058201526000825161911381600e85016020870161790d565b91909101600e019392505050565b600181815b8085111561917a57817fffffffffffffffffffffffffffffffffffffffffffffffffffffffffffffffff0482111561916057619160618a38565b8085161561916d57918102915b93841c9390800290619126565b509250929050565b60008261919157506001610612565b8161919e57506000610612565b81600181146191b457600281146191be576191da565b6001915050610612565b60ff8411156191cf576191cf618a38565b50506001821b610612565b5060208310610133831016604e8410600b84101617156191fd575081810a610612565b6192078383619121565b807fffffffffffffffffffffffffffffffffffffffffffffffffffffffffffffffff0482111561923957619239618a38565b029392505050565b60006118508383619182565b60006020828403121561925f57600080fd5b81516118508161780d565b604081526000618e9260408301856182f3565b60006020828403121561928f57600080fd5b815167ffffffffffffffff8111156192a657600080fd5b613aea84828501618c59565b600061185060ff841683619182565b600060ff821660ff84168060ff038211156192de576192de618a38565b01939250505056fea2646970667358221220487cbca9c0b8ed25ca15f7e1c2d0f290aff199136bd253f1bc88f97299a655b964736f6c634300080a0033",
  "linkReferences": {},
  "deployedLinkReferences": {}
}