{
  "_format": "hh-sol-artifact-1",
  "contractName": "GameAssets",
  "sourceName": "contracts/GameAssets.sol",
  "abi": [
    {
      "inputs": [],
      "stateMutability": "nonpayable",
      "type": "constructor"
    },
    {
      "inputs": [
        {
          "internalType": "uint256",
          "name": "_size",
          "type": "uint256"
        },
        {
          "internalType": "uint256",
          "name": "_start",
          "type": "uint256"
        },
        {
          "internalType": "uint256",
          "name": "_end",
          "type": "uint256"
        }
      ],
      "name": "InvalidCodeAtRange",
      "type": "error"
    },
    {
      "inputs": [],
      "name": "WriteError",
      "type": "error"
    },
    {
      "anonymous": false,
      "inputs": [
        {
          "indexed": true,
          "internalType": "address",
          "name": "account",
          "type": "address"
        },
        {
          "indexed": true,
          "internalType": "address",
          "name": "operator",
          "type": "address"
        },
        {
          "indexed": false,
          "internalType": "bool",
          "name": "approved",
          "type": "bool"
        }
      ],
      "name": "ApprovalForAll",
      "type": "event"
    },
    {
      "anonymous": false,
      "inputs": [
        {
          "indexed": false,
          "internalType": "uint256",
          "name": "_assetId",
          "type": "uint256"
        },
        {
          "components": [
            {
              "internalType": "uint256",
              "name": "lootBoxId",
              "type": "uint256"
            },
            {
              "internalType": "uint256",
              "name": "id",
              "type": "uint256"
            },
            {
              "components": [
                {
                  "internalType": "uint256",
                  "name": "stackIndex",
                  "type": "uint256"
                },
                {
                  "internalType": "uint256[]",
                  "name": "stack",
                  "type": "uint256[]"
                },
                {
                  "internalType": "bytes[]",
                  "name": "sources",
                  "type": "bytes[]"
                },
                {
                  "internalType": "uint256[]",
                  "name": "constants",
                  "type": "uint256[]"
                },
                {
                  "internalType": "uint256[]",
                  "name": "arguments",
                  "type": "uint256[]"
                }
              ],
              "internalType": "struct State",
              "name": "priceConfig",
              "type": "tuple"
            },
            {
              "components": [
                {
                  "internalType": "uint256",
                  "name": "stackIndex",
                  "type": "uint256"
                },
                {
                  "internalType": "uint256[]",
                  "name": "stack",
                  "type": "uint256[]"
                },
                {
                  "internalType": "bytes[]",
                  "name": "sources",
                  "type": "bytes[]"
                },
                {
                  "internalType": "uint256[]",
                  "name": "constants",
                  "type": "uint256[]"
                },
                {
                  "internalType": "uint256[]",
                  "name": "arguments",
                  "type": "uint256[]"
                }
              ],
              "internalType": "struct State",
              "name": "canMintConfig",
              "type": "tuple"
            },
            {
              "internalType": "address[]",
              "name": "currencies",
              "type": "address[]"
            },
            {
              "internalType": "address",
              "name": "recepient",
              "type": "address"
            },
            {
              "internalType": "string",
              "name": "tokenURI",
              "type": "string"
            }
          ],
          "indexed": false,
          "internalType": "struct GameAssets.AssetDetails",
          "name": "_asset",
          "type": "tuple"
        },
        {
          "components": [
            {
              "internalType": "bytes[]",
              "name": "sources",
              "type": "bytes[]"
            },
            {
              "internalType": "uint256[]",
              "name": "constants",
              "type": "uint256[]"
            },
            {
              "internalType": "uint256",
              "name": "stackLength",
              "type": "uint256"
            },
            {
              "internalType": "uint256",
              "name": "argumentsLength",
              "type": "uint256"
            }
          ],
          "indexed": false,
          "internalType": "struct StateConfig",
          "name": "_priceConfig",
          "type": "tuple"
        },
        {
          "components": [
            {
              "internalType": "bytes[]",
              "name": "sources",
              "type": "bytes[]"
            },
            {
              "internalType": "uint256[]",
              "name": "constants",
              "type": "uint256[]"
            },
            {
              "internalType": "uint256",
              "name": "stackLength",
              "type": "uint256"
            },
            {
              "internalType": "uint256",
              "name": "argumentsLength",
              "type": "uint256"
            }
          ],
          "indexed": false,
          "internalType": "struct StateConfig",
          "name": "_canMintConfig",
          "type": "tuple"
        },
        {
          "indexed": false,
          "internalType": "string",
          "name": "_name",
          "type": "string"
        },
        {
          "indexed": false,
          "internalType": "string",
          "name": "_description",
          "type": "string"
        }
      ],
      "name": "AssetCreated",
      "type": "event"
    },
    {
      "anonymous": false,
      "inputs": [
        {
          "indexed": false,
          "internalType": "string[]",
          "name": "_classData",
          "type": "string[]"
        }
      ],
      "name": "ClassCreated",
      "type": "event"
    },
    {
      "anonymous": false,
      "inputs": [
        {
          "indexed": false,
          "internalType": "address",
          "name": "_deployer",
          "type": "address"
        }
      ],
      "name": "Initialize",
      "type": "event"
    },
    {
      "anonymous": false,
      "inputs": [
        {
          "indexed": false,
          "internalType": "address",
          "name": "sender",
          "type": "address"
        },
        {
          "indexed": false,
          "internalType": "address",
          "name": "pointer",
          "type": "address"
        },
        {
          "components": [
            {
              "internalType": "uint256",
              "name": "stackIndex",
              "type": "uint256"
            },
            {
              "internalType": "uint256[]",
              "name": "stack",
              "type": "uint256[]"
            },
            {
              "internalType": "bytes[]",
              "name": "sources",
              "type": "bytes[]"
            },
            {
              "internalType": "uint256[]",
              "name": "constants",
              "type": "uint256[]"
            },
            {
              "internalType": "uint256[]",
              "name": "arguments",
              "type": "uint256[]"
            }
          ],
          "indexed": false,
          "internalType": "struct State",
          "name": "state",
          "type": "tuple"
        }
      ],
      "name": "Snapshot",
      "type": "event"
    },
    {
      "anonymous": false,
      "inputs": [
        {
          "indexed": true,
          "internalType": "address",
          "name": "operator",
          "type": "address"
        },
        {
          "indexed": true,
          "internalType": "address",
          "name": "from",
          "type": "address"
        },
        {
          "indexed": true,
          "internalType": "address",
          "name": "to",
          "type": "address"
        },
        {
          "indexed": false,
          "internalType": "uint256[]",
          "name": "ids",
          "type": "uint256[]"
        },
        {
          "indexed": false,
          "internalType": "uint256[]",
          "name": "values",
          "type": "uint256[]"
        }
      ],
      "name": "TransferBatch",
      "type": "event"
    },
    {
      "anonymous": false,
      "inputs": [
        {
          "indexed": true,
          "internalType": "address",
          "name": "operator",
          "type": "address"
        },
        {
          "indexed": true,
          "internalType": "address",
          "name": "from",
          "type": "address"
        },
        {
          "indexed": true,
          "internalType": "address",
          "name": "to",
          "type": "address"
        },
        {
          "indexed": false,
          "internalType": "uint256",
          "name": "id",
          "type": "uint256"
        },
        {
          "indexed": false,
          "internalType": "uint256",
          "name": "value",
          "type": "uint256"
        }
      ],
      "name": "TransferSingle",
      "type": "event"
    },
    {
      "anonymous": false,
      "inputs": [
        {
          "indexed": false,
          "internalType": "string",
          "name": "value",
          "type": "string"
        },
        {
          "indexed": true,
          "internalType": "uint256",
          "name": "id",
          "type": "uint256"
        }
      ],
      "name": "URI",
      "type": "event"
    },
    {
      "inputs": [
        {
          "internalType": "uint256",
          "name": "",
          "type": "uint256"
        }
      ],
      "name": "assets",
      "outputs": [
        {
          "internalType": "uint256",
          "name": "lootBoxId",
          "type": "uint256"
        },
        {
          "internalType": "uint256",
          "name": "id",
          "type": "uint256"
        },
        {
          "components": [
            {
              "internalType": "uint256",
              "name": "stackIndex",
              "type": "uint256"
            },
            {
              "internalType": "uint256[]",
              "name": "stack",
              "type": "uint256[]"
            },
            {
              "internalType": "bytes[]",
              "name": "sources",
              "type": "bytes[]"
            },
            {
              "internalType": "uint256[]",
              "name": "constants",
              "type": "uint256[]"
            },
            {
              "internalType": "uint256[]",
              "name": "arguments",
              "type": "uint256[]"
            }
          ],
          "internalType": "struct State",
          "name": "priceConfig",
          "type": "tuple"
        },
        {
          "components": [
            {
              "internalType": "uint256",
              "name": "stackIndex",
              "type": "uint256"
            },
            {
              "internalType": "uint256[]",
              "name": "stack",
              "type": "uint256[]"
            },
            {
              "internalType": "bytes[]",
              "name": "sources",
              "type": "bytes[]"
            },
            {
              "internalType": "uint256[]",
              "name": "constants",
              "type": "uint256[]"
            },
            {
              "internalType": "uint256[]",
              "name": "arguments",
              "type": "uint256[]"
            }
          ],
          "internalType": "struct State",
          "name": "canMintConfig",
          "type": "tuple"
        },
        {
          "internalType": "address",
          "name": "recepient",
          "type": "address"
        },
        {
          "internalType": "string",
          "name": "tokenURI",
          "type": "string"
        }
      ],
      "stateMutability": "view",
      "type": "function"
    },
    {
      "inputs": [
        {
          "internalType": "address",
          "name": "account",
          "type": "address"
        },
        {
          "internalType": "uint256",
          "name": "id",
          "type": "uint256"
        }
      ],
      "name": "balanceOf",
      "outputs": [
        {
          "internalType": "uint256",
          "name": "",
          "type": "uint256"
        }
      ],
      "stateMutability": "view",
      "type": "function"
    },
    {
      "inputs": [
        {
          "internalType": "address[]",
          "name": "accounts",
          "type": "address[]"
        },
        {
          "internalType": "uint256[]",
          "name": "ids",
          "type": "uint256[]"
        }
      ],
      "name": "balanceOfBatch",
      "outputs": [
        {
          "internalType": "uint256[]",
          "name": "",
          "type": "uint256[]"
        }
      ],
      "stateMutability": "view",
      "type": "function"
    },
    {
      "inputs": [
        {
          "internalType": "uint256",
          "name": "_assetId",
          "type": "uint256"
        }
      ],
      "name": "canMint",
      "outputs": [],
      "stateMutability": "nonpayable",
      "type": "function"
    },
    {
      "inputs": [
        {
          "components": [
            {
              "internalType": "string",
              "name": "name",
              "type": "string"
            },
            {
              "internalType": "string",
              "name": "description",
              "type": "string"
            },
            {
              "internalType": "uint256",
              "name": "lootBoxId",
              "type": "uint256"
            },
            {
              "components": [
                {
                  "internalType": "bytes[]",
                  "name": "sources",
                  "type": "bytes[]"
                },
                {
                  "internalType": "uint256[]",
                  "name": "constants",
                  "type": "uint256[]"
                },
                {
                  "internalType": "uint256",
                  "name": "stackLength",
                  "type": "uint256"
                },
                {
                  "internalType": "uint256",
                  "name": "argumentsLength",
                  "type": "uint256"
                }
              ],
              "internalType": "struct StateConfig",
              "name": "priceConfig",
              "type": "tuple"
            },
            {
              "components": [
                {
                  "internalType": "bytes[]",
                  "name": "sources",
                  "type": "bytes[]"
                },
                {
                  "internalType": "uint256[]",
                  "name": "constants",
                  "type": "uint256[]"
                },
                {
                  "internalType": "uint256",
                  "name": "stackLength",
                  "type": "uint256"
                },
                {
                  "internalType": "uint256",
                  "name": "argumentsLength",
                  "type": "uint256"
                }
              ],
              "internalType": "struct StateConfig",
              "name": "canMintConfig",
              "type": "tuple"
            },
            {
              "internalType": "address[]",
              "name": "currencies",
              "type": "address[]"
            },
            {
              "internalType": "address",
              "name": "recepient",
              "type": "address"
            },
            {
              "internalType": "string",
              "name": "tokenURI",
              "type": "string"
            }
          ],
          "internalType": "struct AssetConfig",
          "name": "_config",
          "type": "tuple"
        }
      ],
      "name": "createNewAsset",
      "outputs": [],
      "stateMutability": "nonpayable",
      "type": "function"
    },
    {
      "inputs": [
        {
          "internalType": "uint256",
          "name": "id",
          "type": "uint256"
        }
      ],
      "name": "exists",
      "outputs": [
        {
          "internalType": "bool",
          "name": "",
          "type": "bool"
        }
      ],
      "stateMutability": "view",
      "type": "function"
    },
    {
      "inputs": [
        {
          "internalType": "uint256",
          "name": "_assetId",
          "type": "uint256"
        },
        {
          "internalType": "address",
          "name": "_paymentToken",
          "type": "address"
        },
        {
          "internalType": "uint256",
          "name": "_units",
          "type": "uint256"
        }
      ],
      "name": "getAssetPrice",
      "outputs": [
        {
          "internalType": "uint256[]",
          "name": "",
          "type": "uint256[]"
        }
      ],
      "stateMutability": "view",
      "type": "function"
    },
    {
      "inputs": [
        {
          "internalType": "address",
          "name": "account",
          "type": "address"
        },
        {
          "internalType": "address",
          "name": "operator",
          "type": "address"
        }
      ],
      "name": "isApprovedForAll",
      "outputs": [
        {
          "internalType": "bool",
          "name": "",
          "type": "bool"
        }
      ],
      "stateMutability": "view",
      "type": "function"
    },
    {
      "inputs": [
        {
          "internalType": "uint256",
          "name": "_assetId",
          "type": "uint256"
        },
        {
          "internalType": "uint256",
          "name": "_units",
          "type": "uint256"
        }
      ],
      "name": "mintAssets",
      "outputs": [],
      "stateMutability": "nonpayable",
      "type": "function"
    },
    {
      "inputs": [
        {
          "internalType": "address",
          "name": "from",
          "type": "address"
        },
        {
          "internalType": "address",
          "name": "to",
          "type": "address"
        },
        {
          "internalType": "uint256[]",
          "name": "ids",
          "type": "uint256[]"
        },
        {
          "internalType": "uint256[]",
          "name": "amounts",
          "type": "uint256[]"
        },
        {
          "internalType": "bytes",
          "name": "data",
          "type": "bytes"
        }
      ],
      "name": "safeBatchTransferFrom",
      "outputs": [],
      "stateMutability": "nonpayable",
      "type": "function"
    },
    {
      "inputs": [
        {
          "internalType": "address",
          "name": "from",
          "type": "address"
        },
        {
          "internalType": "address",
          "name": "to",
          "type": "address"
        },
        {
          "internalType": "uint256",
          "name": "id",
          "type": "uint256"
        },
        {
          "internalType": "uint256",
          "name": "amount",
          "type": "uint256"
        },
        {
          "internalType": "bytes",
          "name": "data",
          "type": "bytes"
        }
      ],
      "name": "safeTransferFrom",
      "outputs": [],
      "stateMutability": "nonpayable",
      "type": "function"
    },
    {
      "inputs": [
        {
          "internalType": "address",
          "name": "operator",
          "type": "address"
        },
        {
          "internalType": "bool",
          "name": "approved",
          "type": "bool"
        }
      ],
      "name": "setApprovalForAll",
      "outputs": [],
      "stateMutability": "nonpayable",
      "type": "function"
    },
    {
      "inputs": [
        {
          "internalType": "bytes4",
          "name": "interfaceId",
          "type": "bytes4"
        }
      ],
      "name": "supportsInterface",
      "outputs": [
        {
          "internalType": "bool",
          "name": "",
          "type": "bool"
        }
      ],
      "stateMutability": "view",
      "type": "function"
    },
    {
      "inputs": [],
      "name": "totalAssets",
      "outputs": [
        {
          "internalType": "uint256",
          "name": "",
          "type": "uint256"
        }
      ],
      "stateMutability": "view",
      "type": "function"
    },
    {
      "inputs": [
        {
          "internalType": "uint256",
          "name": "id",
          "type": "uint256"
        }
      ],
      "name": "totalSupply",
      "outputs": [
        {
          "internalType": "uint256",
          "name": "",
          "type": "uint256"
        }
      ],
      "stateMutability": "view",
      "type": "function"
    },
    {
      "inputs": [
        {
          "internalType": "uint256",
          "name": "_tokenId",
          "type": "uint256"
        }
      ],
      "name": "uri",
      "outputs": [
        {
          "internalType": "string",
          "name": "",
          "type": "string"
        }
      ],
      "stateMutability": "view",
      "type": "function"
    }
  ],
  "bytecode": "0x60a06040526002808060066007600b6200001b82600462000194565b62000027919062000194565b62000033919062000194565b6200003f919062000194565b6200004b919062000194565b62000057919062000194565b62000063919062000194565b6200007090600562000194565b6080523480156200008057600080fd5b506040805160208101909152600081526200009b81620000d5565b506040513381527f36b1453565f45af7b509b59d5e2eac8f1948ea9e3e193db6663b4101afb6382c9060200160405180910390a1620001f8565b8051620000ea906002906020840190620000ee565b5050565b828054620000fc90620001bb565b90600052602060002090601f0160209004810192826200012057600085556200016b565b82601f106200013b57805160ff19168380011785556200016b565b828001600101855582156200016b579182015b828111156200016b5782518255916020019190600101906200014e565b50620001799291506200017d565b5090565b5b808211156200017957600081556001016200017e565b60008219821115620001b657634e487b7160e01b600052601160045260246000fd5b500190565b600181811c90821680620001d057607f821691505b60208210811415620001f257634e487b7160e01b600052602260045260246000fd5b50919050565b60805161546d6200021b600039600081816122fa0152612335015261546d6000f3fe608060405234801561001057600080fd5b50600436106100df5760003560e01c806372509dcb1161008757806372509dcb146101c0578063a22cb465146101d3578063bd85b039146101e6578063ce5b15c814610206578063cf35bdd014610219578063d30402411461023e578063e985e9c514610251578063f242432a1461028d57600080fd5b8062fdd58e146100e457806301e1d1141461010a57806301ffc9a7146101135780630e89341c146101365780632eb2c2d6146101565780634e1273f41461016b5780634f558e791461018b5780635dd871a3146101ad575b600080fd5b6100f76100f2366004613f84565b6102a0565b6040519081526020015b60405180910390f35b6100f760045481565b610126610121366004613fc6565b61033a565b6040519015158152602001610101565b610149610144366004613fe3565b61038a565b6040516101019190614054565b610169610164366004614230565b61047c565b005b61017e61017936600461434c565b610513565b60405161010191906143ea565b610126610199366004613fe3565b600090815260036020526040902054151590565b6101696101bb366004613fe3565b61063c565b61017e6101ce3660046143fd565b6108d5565b6101696101e1366004614443565b610bd0565b6100f76101f4366004613fe3565b60009081526003602052604090205490565b610169610214366004614580565b610bdb565b61022c610227366004613fe3565b610e62565b60405161010196959493929190614786565b61016961024c3660046147e7565b61131d565b61012661025f366004614809565b6001600160a01b03918216600090815260016020908152604080832093909416825291909152205460ff1690565b61016961029b366004614837565b611647565b60006001600160a01b0383166103115760405162461bcd60e51b815260206004820152602b60248201527f455243313135353a2062616c616e636520717565727920666f7220746865207a60448201526a65726f206164647265737360a81b60648201526084015b60405180910390fd5b506000818152602081815260408083206001600160a01b03861684529091529020545b92915050565b60006001600160e01b03198216636cdb3d1360e11b148061036b57506001600160e01b031982166303a24d0760e21b145b8061033457506301ffc9a760e01b6001600160e01b0319831614610334565b6000818152600360205260409020546060906103db5760405162461bcd60e51b815260206004820152601060248201526f24b73b30b634b2102a37b5b2b724b21760811b6044820152606401610308565b6000828152600560205260409020600e0180546103f79061489f565b80601f01602080910402602001604051908101604052809291908181526020018280546104239061489f565b80156104705780601f1061044557610100808354040283529160200191610470565b820191906000526020600020905b81548152906001019060200180831161045357829003601f168201915b50505050509050919050565b6001600160a01b0385163314806104985750610498853361025f565b6104ff5760405162461bcd60e51b815260206004820152603260248201527f455243313135353a207472616e736665722063616c6c6572206973206e6f74206044820152711bdddb995c881b9bdc88185c1c1c9bdd995960721b6064820152608401610308565b61050c85858585856116ce565b5050505050565b606081518351146105785760405162461bcd60e51b815260206004820152602960248201527f455243313135353a206163636f756e747320616e6420696473206c656e677468604482015268040dad2e6dac2e8c6d60bb1b6064820152608401610308565b600083516001600160401b0381111561059357610593614067565b6040519080825280602002602001820160405280156105bc578160200160208202803683370190505b50905060005b8451811015610634576106078582815181106105e0576105e06148d4565b60200260200101518583815181106105fa576105fa6148d4565b60200260200101516102a0565b828281518110610619576106196148d4565b602090810291909101015261062d81614900565b90506105c2565b509392505050565b6000600560008381526020019081526020016000206007016040518060a001604052908160008201548152602001600182018054806020026020016040519081016040528092919081815260200182805480156106b857602002820191906000526020600020905b8154815260200190600101908083116106a4575b5050505050815260200160028201805480602002602001604051908101604052809291908181526020016000905b828210156107925783829060005260206000200180546107059061489f565b80601f01602080910402602001604051908101604052809291908181526020018280546107319061489f565b801561077e5780601f106107535761010080835404028352916020019161077e565b820191906000526020600020905b81548152906001019060200180831161076157829003601f168201915b5050505050815260200190600101906106e6565b505050508152602001600382018054806020026020016040519081016040528092919081815260200182805480156107e957602002820191906000526020600020905b8154815260200190600101908083116107d5575b505050505081526020016004820180548060200260200160405190810160405280929190818152602001828054801561084157602002820191906000526020600020905b81548152602001906001019080831161082d575b5050505050815250509050610867604051806020016040528060008152508260006118b9565b6020810151815161087a9060019061491b565b8151811061088a5761088a6148d4565b60200260200101516001146108d15760405162461bcd60e51b815260206004820152600d60248201526c21b0b7103737ba1036b4b73a1760991b6044820152606401610308565b5050565b606060005b6000858152600560205260409020600c018054829081106108fd576108fd6148d4565b6000918252602090912001546001600160a01b0385811691161461092d578061092581614900565b9150506108da565b6000600560008781526020019081526020016000206002016040518060a001604052908160008201548152602001600182018054806020026020016040519081016040528092919081815260200182805480156109a957602002820191906000526020600020905b815481526020019060010190808311610995575b5050505050815260200160028201805480602002602001604051908101604052809291908181526020016000905b82821015610a835783829060005260206000200180546109f69061489f565b80601f0160208091040260200160405190810160405280929190818152602001828054610a229061489f565b8015610a6f5780601f10610a4457610100808354040283529160200191610a6f565b820191906000526020600020905b815481529060010190602001808311610a5257829003601f168201915b5050505050815260200190600101906109d7565b50505050815260200160038201805480602002602001604051908101604052809291908181526020018280548015610ada57602002820191906000526020600020905b815481526020019060010190808311610ac6575b5050505050815260200160048201805480602002602001604051908101604052809291908181526020018280548015610b3257602002820191906000526020600020905b815481526020019060010190808311610b1e575b5050505050815250509050610b576040518060200160405280600081525082846118b9565b83816020015160018360000151610b6e919061491b565b81518110610b7e57610b7e6148d4565b6020026020010151610b909190614932565b60208201518251610ba39060019061491b565b81518110610bb357610bb36148d4565b6020026020010181815250508060200151925050505b9392505050565b6108d1338383611a61565b600454610be9906001614951565b6004819055506040518060e00160405280826040015181526020016004548152602001610c29610c24610c1f8560600151611b42565b611c44565b611cb2565b8152602001610c41610c24610c1f8560800151611b42565b81526020018260a0015181526020018260c001516001600160a01b031681526020018260e001518152506005600060045481526020019081526020016000206000820151816000015560208201518160010155604082015181600201600082015181600001556020820151816001019080519060200190610cc3929190613d58565b5060408201518051610cdf916002840191602090910190613da3565b5060608201518051610cfb916003840191602090910190613d58565b5060808201518051610d17916004840191602090910190613d58565b50505060608201518051600783019081556020808301518051610d409260088701920190613d58565b5060408201518051610d5c916002840191602090910190613da3565b5060608201518051610d78916003840191602090910190613d58565b5060808201518051610d94916004840191602090910190613d58565b50505060808201518051610db291600c840191602090910190613dfc565b5060a0820151600d820180546001600160a01b0319166001600160a01b0390921691909117905560c08201518051610df491600e840191602090910190613e51565b509050507fc6d5c6695614ec2197cf9d4700d7ebbe666f32bd4c7d275ba9939c38bc6f07276004546005600060045481526020019081526020016000208360600151846080015185600001518660200151604051610e5796959493929190614b76565b60405180910390a150565b6005602052806000526040600020600091509050806000015490806001015490806002016040518060a00160405290816000820154815260200160018201805480602002602001604051908101604052809291908181526020018280548015610eea57602002820191906000526020600020905b815481526020019060010190808311610ed6575b5050505050815260200160028201805480602002602001604051908101604052809291908181526020016000905b82821015610fc4578382906000526020600020018054610f379061489f565b80601f0160208091040260200160405190810160405280929190818152602001828054610f639061489f565b8015610fb05780601f10610f8557610100808354040283529160200191610fb0565b820191906000526020600020905b815481529060010190602001808311610f9357829003601f168201915b505050505081526020019060010190610f18565b5050505081526020016003820180548060200260200160405190810160405280929190818152602001828054801561101b57602002820191906000526020600020905b815481526020019060010190808311611007575b505050505081526020016004820180548060200260200160405190810160405280929190818152602001828054801561107357602002820191906000526020600020905b81548152602001906001019080831161105f575b50505050508152505090806007016040518060a001604052908160008201548152602001600182018054806020026020016040519081016040528092919081815260200182805480156110e557602002820191906000526020600020905b8154815260200190600101908083116110d1575b5050505050815260200160028201805480602002602001604051908101604052809291908181526020016000905b828210156111bf5783829060005260206000200180546111329061489f565b80601f016020809104026020016040519081016040528092919081815260200182805461115e9061489f565b80156111ab5780601f10611180576101008083540402835291602001916111ab565b820191906000526020600020905b81548152906001019060200180831161118e57829003601f168201915b505050505081526020019060010190611113565b5050505081526020016003820180548060200260200160405190810160405280929190818152602001828054801561121657602002820191906000526020600020905b815481526020019060010190808311611202575b505050505081526020016004820180548060200260200160405190810160405280929190818152602001828054801561126e57602002820191906000526020600020905b81548152602001906001019080831161125a575b50505091909252505050600d820154600e8301805492936001600160a01b039092169261129a9061489f565b80601f01602080910402602001604051908101604052809291908181526020018280546112c69061489f565b80156113135780601f106112e857610100808354040283529160200191611313565b820191906000526020600020905b8154815290600101906020018083116112f657829003601f168201915b5050505050905086565b6004548211156113615760405162461bcd60e51b815260206004820152600f60248201526e125b9d985b1a5908105cdcd95d1259608a1b6044820152606401610308565b61136a8261063c565b60005b6000838152600560205260409020600c015481101561162b576000838152600560205260408120600c0180546113ca918691859081106113af576113af6148d4565b6000918252602090912001546001600160a01b0316856108d5565b9050806000815181106113df576113df6148d4565b6020026020010151600014156114e6576000848152600560205260409020600c01805483908110611412576114126148d4565b600091825260208083209091015486835260059091526040909120600d015482516001600160a01b03928316926323b872dd9233929116908590600190811061145d5761145d6148d4565b60209081029190910101516040516001600160e01b031960e086901b1681526001600160a01b03938416600482015292909116602483015260448201526064016020604051808303816000875af11580156114bc573d6000803e3d6000fd5b505050506040513d601f19601f820116820180604052508101906114e09190614c6d565b50611618565b806000815181106114f9576114f96148d4565b602002602001015160011415611618576000848152600560205260409020600c0180548390811061152c5761152c6148d4565b600091825260208083209091015486835260059091526040909120600d015482516001600160a01b039283169263f242432a92339291169085906001908110611577576115776148d4565b602002602001015185600281518110611592576115926148d4565b60209081029190910101516040516001600160e01b031960e087901b1681526001600160a01b0394851660048201529390921660248401526044830152606482015260a06084820152600060a482015260c401600060405180830381600087803b1580156115ff57600080fd5b505af1158015611613573d6000803e3d6000fd5b505050505b50611624816001614951565b905061136d565b506108d133838360405180602001604052806000815250611cd6565b6001600160a01b0385163314806116635750611663853361025f565b6116c15760405162461bcd60e51b815260206004820152602960248201527f455243313135353a2063616c6c6572206973206e6f74206f776e6572206e6f7260448201526808185c1c1c9bdd995960ba1b6064820152608401610308565b61050c8585858585611de6565b81518351146117305760405162461bcd60e51b815260206004820152602860248201527f455243313135353a2069647320616e6420616d6f756e7473206c656e677468206044820152670dad2e6dac2e8c6d60c31b6064820152608401610308565b6001600160a01b0384166117565760405162461bcd60e51b815260040161030890614c8a565b33611765818787878787611f03565b60005b845181101561184b576000858281518110611785576117856148d4565b6020026020010151905060008583815181106117a3576117a36148d4565b602090810291909101810151600084815280835260408082206001600160a01b038e1683529093529190912054909150818110156117f35760405162461bcd60e51b815260040161030890614ccf565b6000838152602081815260408083206001600160a01b038e8116855292528083208585039055908b16825281208054849290611830908490614951565b925050819055505050508061184490614900565b9050611768565b50846001600160a01b0316866001600160a01b0316826001600160a01b03167f4a39dc06d4c0dbc64b70af90fd698a233a518aa5d07e595d983b8c0526c8f7fb878760405161189b929190614d19565b60405180910390a46118b181878787878761200f565b505050505050565b602082810151604084015183830201909101516060840151608085015182516000948594859492939092915b84881015611a54576002880197508784015180601e1a975080601f1a9650506005871015611a485760018714156119485781608087166119225750825b8a516020607f89160260200182015160208202602001840152600181018c5250506118e5565b60028714156119735789516020870260200182015160208202602001830152600181018b52506118e5565b600387141561198c576119878b8b8861216b565b6118e5565b60048714156119bd576119878a6040516020016119a99190614d3e565b6040516020818303038152906040526122b2565b607f6101fe600188901b161786166080871615611a0b578a5160001901808c5260208c0151805190919081106119f5576119f56148d4565b602002602001015160001415611a0b57506118e5565b8060000b600014611a425760008160000b1215611a3657801960020160020260ff1689039850611a42565b8060020260ff16890198505b506118e5565b6119878b8b89896122f8565b5050505050505050505050565b816001600160a01b0316836001600160a01b03161415611ad55760405162461bcd60e51b815260206004820152602960248201527f455243313135353a2073657474696e6720617070726f76616c20737461747573604482015268103337b91039b2b63360b91b6064820152608401610308565b6001600160a01b03838116600081815260016020908152604080832094871680845294825291829020805460ff191686151590811790915591519182527f17307eab39ab6107e8899845ad3d59bd9653f200f220920489ca2b5937696c31910160405180910390a3505050565b611b4a613ec4565b815151611b855760405162461bcd60e51b8152602060048201526009602482015268305f534f555243455360b81b6044820152606401610308565b6040518060a001604052806000815260200183604001516001600160401b03811115611bb357611bb3614067565b604051908082528060200260200182016040528015611bdc578160200160208202803683370190505b508152602001836000015181526020018360200151815260200183606001516001600160401b03811115611c1257611c12614067565b604051908082528060200260200182016040528015611c3b578160200160208202803683370190505b50905292915050565b600080611c6f83604051602001611c5b9190614d3e565b604051602081830303815290604052612401565b90507ff95eed63f55d96a35306669cc3b5f652f8d44552e3e4b17b2f78f13571114abd338285604051611ca493929190614d51565b60405180910390a192915050565b611cba613ec4565b611cc382612466565b8060200190518101906103349190614ebf565b6001600160a01b038416611d365760405162461bcd60e51b815260206004820152602160248201527f455243313135353a206d696e7420746f20746865207a65726f206164647265736044820152607360f81b6064820152608401610308565b33611d5681600087611d4788612476565b611d5088612476565b87611f03565b6000848152602081815260408083206001600160a01b038916845290915281208054859290611d86908490614951565b909155505060408051858152602081018590526001600160a01b0380881692600092918516917fc3d58168c5ae7397731d063d5bbf3d657854427343f4c083240f7aacaa2d0f62910160405180910390a461050c816000878787876124c1565b6001600160a01b038416611e0c5760405162461bcd60e51b815260040161030890614c8a565b33611e1c818787611d4788612476565b6000848152602081815260408083206001600160a01b038a16845290915290205483811015611e5d5760405162461bcd60e51b815260040161030890614ccf565b6000858152602081815260408083206001600160a01b038b8116855292528083208785039055908816825281208054869290611e9a908490614951565b909155505060408051868152602081018690526001600160a01b03808916928a821692918616917fc3d58168c5ae7397731d063d5bbf3d657854427343f4c083240f7aacaa2d0f62910160405180910390a4611efa8288888888886124c1565b50505050505050565b6001600160a01b038516611f8a5760005b8351811015611f8857828181518110611f2f57611f2f6148d4565b602002602001015160036000868481518110611f4d57611f4d6148d4565b602002602001015181526020019081526020016000206000828254611f729190614951565b90915550611f81905081614900565b9050611f14565b505b6001600160a01b0384166118b15760005b8351811015611efa57828181518110611fb657611fb66148d4565b602002602001015160036000868481518110611fd457611fd46148d4565b602002602001015181526020019081526020016000206000828254611ff9919061491b565b90915550612008905081614900565b9050611f9b565b6001600160a01b0384163b156118b15760405163bc197c8160e01b81526001600160a01b0385169063bc197c81906120539089908990889088908890600401614fa1565b6020604051808303816000875af192505050801561208e575060408051601f3d908101601f1916820190925261208b91810190614fff565b60015b61213b5761209a61501c565b806308c379a014156120d457506120af615038565b806120ba57506120d6565b8060405162461bcd60e51b81526004016103089190614054565b505b60405162461bcd60e51b815260206004820152603460248201527f455243313135353a207472616e7366657220746f206e6f6e20455243313135356044820152732932b1b2b4bb32b91034b6b83632b6b2b73a32b960611b6064820152608401610308565b6001600160e01b0319811663bc197c8160e01b14611efa5760405162461bcd60e51b8152600401610308906150c1565b8151600019600583901c918290030183526007821690610100600384811c1681901c9190829003906001016000816001600160401b038111156121b0576121b0614067565b6040519080825280602002602001820160405280156121d9578160200160208202803683370190505b50905060005b828110156122305787602001518189600001510181518110612203576122036148d4565b602002602001015182828151811061221d5761221d6148d4565b60209081029190910101526001016121df565b5060005b6101008110156122a75760005b83811015612294578482860384838151811061225f5761225f6148d4565b6020026020010151901b901c89608001518281518110612281576122816148d4565b6020908102919091010152600101612241565b506122a08989886118b9565b8401612234565b505050505050505050565b6122f5816040516024016122c69190614054565b60408051601f198184030181529190526020810180516001600160e01b03166305f3bfab60e11b17905261257c565b50565b7f00000000000000000000000000000000000000000000000000000000000000008210156123335761232e83600584038361259d565b6123fb565b7f000000000000000000000000000000000000000000000000000000000000000082039150600182106123785760405162461bcd60e51b815260040161030890615109565b6123ca8360200151600285600001510381518110612398576123986148d4565b602002602001015184602001516001866000015103815181106123bd576123bd6148d4565b6020026020010151612654565b83602001516002856000015103815181106123e7576123e76148d4565b602090810291909101015282516000190183525b50505050565b60008061242c83604051602001612418919061512d565b60405160208183030381529060405261268e565b90508051602082016000f091506001600160a01b0382166124605760405163046a55db60e11b815260040160405180910390fd5b50919050565b60606103348260016000196126ba565b604080516001808252818301909252606091600091906020808301908036833701905050905082816000815181106124b0576124b06148d4565b602090810291909101015292915050565b6001600160a01b0384163b156118b15760405163f23a6e6160e01b81526001600160a01b0385169063f23a6e61906125059089908990889088908890600401615153565b6020604051808303816000875af1925050508015612540575060408051601f3d908101601f1916820190925261253d91810190614fff565b60015b61254c5761209a61501c565b6001600160e01b0319811663f23a6e6160e01b14611efa5760405162461bcd60e51b8152600401610308906150c1565b80516a636f6e736f6c652e6c6f67602083016000808483855afa5050505050565b60048210156125b6576125b183838361276b565b505050565b601d8210156125fd57600b8210156125d6576125b1836004840383612837565b60168210156125ee576125b183600a19840183612ac1565b6125b183601519840183612e90565b6023821015612615576125b183601c19840183612ffd565b602582101561262d576125b1836022198401836133b8565b6027821015612645576125b18360241984018361353f565b6125b18360261984018361366c565b6000805b600881101561268457828160200285901c63ffffffff16111561267c579050610334565b600101612658565b5060089392505050565b60608151826040516020016126a4929190615198565b6040516020818303038152906040529050919050565b6060833b806126d9575050604080516020810190915260008152610bc9565b808411156126f7575050604080516020810190915260008152610bc9565b838310156127295760405163162544fd60e11b8152600481018290526024810185905260448101849052606401610308565b838303848203600082821061273e5782612740565b815b60408051603f8301601f19168101909152818152955090508087602087018a3c505050509392505050565b6004821061278b5760405162461bcd60e51b815260040161030890615109565b816127bc574383602001518460000151815181106127ab576127ab6148d4565b60200260200101818152505061282c565b60018214156127e0574283602001518460000151815181106127ab576127ab6148d4565b6002821415612804576020830151835181513392919081106127ab576127ab6148d4565b60208301518351815130929190811061281f5761281f6148d4565b6020026020010181815250505b505080516001019052565b600782106128575760405162461bcd60e51b815260040161030890615109565b600282101561296757825160011901826128e45783602001518160010181518110612884576128846148d4565b60200260200101516128bc83866020015184815181106128a6576128a66148d4565b60200260200101516139c890919063ffffffff16565b02846020015182815181106128d3576128d36148d4565b602002602001018181525050612959565b60018314156129595783602001518160010181518110612906576129066148d4565b602002602001015161292883866020015184815181106128a6576128a66148d4565b81612935576129356151e9565b048460200151828151811061294c5761294c6148d4565b6020026020010181815250505b508251600019018352505050565b6005821015612a5a5782516000190160028314156129c05761299982856020015183815181106128a6576128a66148d4565b846020015182815181106129af576129af6148d4565b6020026020010181815250506123fb565b60038314156129f95761299982856020015183815181106129e3576129e36148d4565b6020026020010151613a2a90919063ffffffff16565b60048314156123fb57612a328285602001518381518110612a1c57612a1c6148d4565b6020026020010151613a5b90919063ffffffff16565b84602001518281518110612a4857612a486148d4565b60200260200101818152505050505050565b6005821415612a9c57602083015183518151670de0b6b3a76400009291908110612a8657612a866148d4565b6020908102919091010152505080516001019052565b60068214156125b1576012836020015184600001518151811061281f5761281f6148d4565b600b8210612ae15760405162461bcd60e51b815260040161030890615109565b82516020840151805183830392600019019183916000919083908110612b0957612b096148d4565b602002602001015190506000861415612b61575b82821015612b5c576020870151805160019093019283908110612b4257612b426148d4565b602002602001015181612b559190614951565b9050612b1d565b612e61565b6001861415612bb2575b82821015612b5c578180600101925050612bab87602001518381518110612b9457612b946148d4565b602002602001015182613a9990919063ffffffff16565b9050612b6b565b6002861415612bfb575b82821015612b5c576020870151805160019093019283908110612be157612be16148d4565b602002602001015181612bf4919061491b565b9050612bbc565b6003861415612c4c575b82821015612b5c578180600101925050612c4587602001518381518110612c2e57612c2e6148d4565b602002602001015182613ab790919063ffffffff16565b9050612c05565b6004861415612c95575b82821015612b5c576020870151805160019093019283908110612c7b57612c7b6148d4565b602002602001015181612c8e9190614932565b9050612c56565b6005861415612ce6575b82821015612b5c578180600101925050612cdf87602001518381518110612cc857612cc86148d4565b602002602001015182613acd90919063ffffffff16565b9050612c9f565b6006861415612d2f575b82821015612b5c576020870151805160019093019283908110612d1557612d156148d4565b602002602001015181612d2891906151ff565b9050612cf0565b6007861415612d78575b82821015612b5c576020870151805160019093019283908110612d5e57612d5e6148d4565b602002602001015181612d719190615213565b9050612d39565b6008861415612dc1575b82821015612b5c576020870151805160019093019283908110612da757612da76148d4565b602002602001015181612dba919061530b565b9050612d82565b6009861415612e135760005b83831015612e0d576020880151805160019094019384908110612df257612df26148d4565b6020026020010151905081811015612e08578091505b612dcd565b50612e61565b600a861415612e615760005b83831015612e5f576020880151805160019094019384908110612e4457612e446148d4565b6020026020010151905081811115612e5a578091505b612e1f565b505b8087602001518581518110612e7857612e786148d4565b60209081029190910101525050506001019092525050565b60078210612eb05760405162461bcd60e51b815260040161030890615109565b82516020808501518183020101838015612ef95760018114612f085760028114612f375760038114612f515760048114612f6b5760058114612f855760068114612fbd576118b1565b601f19820180511590526118b1565b60011983018652605f19820180518015612f285760208201518252612f30565b604082015182525b50506118b1565b6001830386526040820360208101518151148152506118b1565b6001830386526040820360208101518151108152506118b1565b6001830386526040820360208101518151118152506118b1565b8315612fb8576001840383038652602084028203805b83811015612f30578051612fb0575060008152825b602001612f9b565b6118b1565b83156118b1576001840383038652602084028203805b83811015612ff35780518015612fea578491508083525b50602001612fd3565b5050505050505050565b6006821061301d5760405162461bcd60e51b815260040161030890615109565b6000826130ef575082516000198101845260208401518051600119909201918290811061304c5761304c6148d4565b60200260200101516001600160a01b031663e053ea318560200151836001018151811061307b5761307b6148d4565b60200260200101516040518263ffffffff1660e01b81526004016130ae91906001600160a01b0391909116815260200190565b602060405180830381865afa1580156130cb573d6000803e3d6000fd5b505050506040513d601f19601f820116820180604052508101906129999190615317565b600183141561312c576000198460200151856000015181518110613115576131156148d4565b6020908102919091010152835160010184526123fb565b60028314156131515760008460200151856000015181518110613115576131156148d4565b60038314156131e7575082516001190180845260208401518051600091908390811061317f5761317f6148d4565b602002602001015190506000856020015183600101815181106131a4576131a46148d4565b602002602001015190506131b88282613afc565b866020015184815181106131ce576131ce6148d4565b60209081029190910101525050835160010184526123fb565b6004831415613291575082516001190180845260208401518051600f80851692600486901c909116916000919085908110613224576132246148d4565b60200260200101519050600087602001518560010181518110613249576132496148d4565b6020026020010151905061325f82858584613b53565b88602001518681518110613275576132756148d4565b6020908102919091010152505085516001018652506123fb9050565b60058314156123fb57508251600019601f8316918290030180855290600783901c906003600585901c1690836000826001600160401b038111156132d7576132d7614067565b604051908082528060200260200182016040528015613300578160200160208202803683370190505b50905060005b838110156133555789602001518381518110613324576133246148d4565b602002602001015182828151811061333e5761333e6148d4565b602090810291909101015260019283019201613306565b5060008960200151838151811061336e5761336e6148d4565b6020026020010151905061338482828888613baf565b8a60200151888151811061339a5761339a6148d4565b60209081029190910101525050875160010188525050505050505050565b600282106133d85760405162461bcd60e51b815260040161030890615109565b816134d45782516000198101845260208401518051909160011901908110613402576134026148d4565b60200260200101516001600160a01b03166370a082318460200151856000015181518110613432576134326148d4565b60200260200101516040518263ffffffff1660e01b815260040161346591906001600160a01b0391909116815260200190565b602060405180830381865afa158015613482573d6000803e3d6000fd5b505050506040513d601f19601f820116820180604052508101906134a69190615317565b83602001516001856000015103815181106134c3576134c36148d4565b602002602001018181525050505050565b60018214156125b15782602001516001846000015103815181106134fa576134fa6148d4565b60200260200101516001600160a01b03166318160ddd6040518163ffffffff1660e01b8152600401602060405180830381865afa158015613482573d6000803e3d6000fd5b6002821061355f5760405162461bcd60e51b815260040161030890615109565b825160001901835281613589578260200151600184600001510381518110613402576134026148d4565b60018214156125b15782602001516001846000015103815181106135af576135af6148d4565b60200260200101516001600160a01b0316636352211e84602001518560000151815181106135df576135df6148d4565b60200260200101516040518263ffffffff1660e01b815260040161360591815260200190565b602060405180830381865afa158015613622573d6000803e3d6000fd5b505050506040513d601f19601f820116820180604052508101906136469190615330565b6001600160a01b031683602001516001856000015103815181106134c3576134c36148d4565b6002821061368c5760405162461bcd60e51b815260040161030890615109565b81613781578251600119810184526020840151805160021990920191829081106136b8576136b86148d4565b60200260200101516001600160a01b031662fdd58e856020015183600101815181106136e6576136e66148d4565b602002602001015186602001518460020181518110613707576137076148d4565b60200260200101516040518363ffffffff1660e01b81526004016137409291906001600160a01b03929092168252602082015260400190565b602060405180830381865afa15801561375d573d6000803e3d6000fd5b505050506040513d601f19601f82011682018060405250810190612a329190615317565b60018214156125b157600181016000816001600160401b038111156137a8576137a8614067565b6040519080825280602002602001820160405280156137d1578160200160208202803683370190505b5090506000826001600160401b038111156137ee576137ee614067565b604051908082528060200260200182016040528015613817578160200160208202803683370190505b5086518490036000198181018952602089015180519394509186900301916000919083908110613849576138496148d4565b6020026020010151905060005b858110156138f357886020015181840160010181518110613879576138796148d4565b6020026020010151858281518110613893576138936148d4565b6001600160a01b03909216602092830291909101820152890151805160018589018401019081106138c6576138c66148d4565b60200260200101518482815181106138e0576138e06148d4565b6020908102919091010152600101613856565b506040516313849cfd60e21b81526000906001600160a01b03831690634e1273f490613925908890889060040161534d565b600060405180830381865afa158015613942573d6000803e3d6000fd5b505050506040513d6000823e601f3d908101601f1916820160405261396a91908101906153ad565b905060005b868110156139bc57818181518110613989576139896148d4565b60200260200101518a60200151828601815181106139a9576139a96148d4565b602090810291909101015260010161396f565b50505050505050505050565b600081601214156139da575081610334565b8160121115613a0a576139ee82601261491b565b6139f990600a61530b565b613a039084614932565b9050610334565b613a1560128361491b565b613a2090600a61530b565b613a0390846151ff565b60006012821415613a3c575081610334565b8160121115613a5057613a1582601261491b565b6139ee60128361491b565b600081810b613a6b575081610334565b60008260000b1315613a82576139f982600a6153e1565b613a8e821960016153f0565b613a2090600a6153e1565b6000828201838110613aab5780613aaf565b6000195b949350505050565b6000818311613ac7576000610bc9565b50900390565b600082613adc57506000610334565b82820282848281613aef57613aef6151e9565b041415613aab5780613aaf565b60008060015b60088111610634576000613b168683613ca5565b90506000613b248684613ca5565b90506000613b328383613ab7565b9050613b42856001860383613cf2565b94505060019092019150613b029050565b6000826008811115613b775760405162461bcd60e51b815260040161030890615415565b6000855b85811015613ba35763ffffffff6020820290811b199890981685891b17979150600101613b7b565b50959695505050505050565b835160009081908190819060015b60088111613c9757600092508287613bd85750600019613bdc565b5060005b60005b83811015613c7357613c0a8c8281518110613bfc57613bfc6148d4565b602002602001015184613ca5565b95508a8611613c5c5788613c2957613c228683613d32565b9150613c53565b6001891415613c3c57613c228683613d48565b600289148015613c4a575084155b15613c53578591505b60019450613c6b565b89613c6b576000199150613c73565b600101613bdf565b5083613c7e57506000195b613c8c866001840383613cf2565b955050600101613bbd565b509298975050505050505050565b6000816008811115613cc95760405162461bcd60e51b815260040161030890615415565b82613cd75760009150613ceb565b63ffffffff602060001985010285901c1691505b5092915050565b6000826008811115613d165760405162461bcd60e51b815260040161030890615415565b505060209190910290811b63ffffffff90911b19919091161790565b6000818310613d415781610bc9565b5090919050565b600081831015613d415781610bc9565b828054828255906000526020600020908101928215613d93579160200282015b82811115613d93578251825591602001919060010190613d78565b50613d9f929150613ef3565b5090565b828054828255906000526020600020908101928215613df0579160200282015b82811115613df05782518051613de0918491602090910190613e51565b5091602001919060010190613dc3565b50613d9f929150613f08565b828054828255906000526020600020908101928215613d93579160200282015b82811115613d9357825182546001600160a01b0319166001600160a01b03909116178255602090920191600190910190613e1c565b828054613e5d9061489f565b90600052602060002090601f016020900481019282613e7f5760008555613d93565b82601f10613e9857805160ff1916838001178555613d93565b82800160010185558215613d935791820182811115613d93578251825591602001919060010190613d78565b6040518060a0016040528060008152602001606081526020016060815260200160608152602001606081525090565b5b80821115613d9f5760008155600101613ef4565b80821115613d9f576000613f1c8282613f25565b50600101613f08565b508054613f319061489f565b6000825580601f10613f41575050565b601f0160209004906000526020600020908101906122f59190613ef3565b6001600160a01b03811681146122f557600080fd5b8035613f7f81613f5f565b919050565b60008060408385031215613f9757600080fd5b8235613fa281613f5f565b946020939093013593505050565b6001600160e01b0319811681146122f557600080fd5b600060208284031215613fd857600080fd5b8135610bc981613fb0565b600060208284031215613ff557600080fd5b5035919050565b60005b83811015614017578181015183820152602001613fff565b838111156123fb5750506000910152565b60008151808452614040816020860160208601613ffc565b601f01601f19169290920160200192915050565b602081526000610bc96020830184614028565b634e487b7160e01b600052604160045260246000fd5b608081018181106001600160401b038211171561409c5761409c614067565b60405250565b601f8201601f191681016001600160401b03811182821017156140c7576140c7614067565b6040525050565b60405161010081016001600160401b03811182821017156140f1576140f1614067565b60405290565b60405160a081016001600160401b03811182821017156140f1576140f1614067565b60006001600160401b0382111561413257614132614067565b5060051b60200190565b600082601f83011261414d57600080fd5b8135602061415a82614119565b60405161416782826140a2565b83815260059390931b850182019282810191508684111561418757600080fd5b8286015b848110156141a2578035835291830191830161418b565b509695505050505050565b60006001600160401b038211156141c6576141c6614067565b50601f01601f191660200190565b600082601f8301126141e557600080fd5b81356141f0816141ad565b6040516141fd82826140a2565b82815285602084870101111561421257600080fd5b82602086016020830137600092810160200192909252509392505050565b600080600080600060a0868803121561424857600080fd5b853561425381613f5f565b9450602086013561426381613f5f565b935060408601356001600160401b038082111561427f57600080fd5b61428b89838a0161413c565b945060608801359150808211156142a157600080fd5b6142ad89838a0161413c565b935060808801359150808211156142c357600080fd5b506142d0888289016141d4565b9150509295509295909350565b600082601f8301126142ee57600080fd5b813560206142fb82614119565b60405161430882826140a2565b83815260059390931b850182019282810191508684111561432857600080fd5b8286015b848110156141a257803561433f81613f5f565b835291830191830161432c565b6000806040838503121561435f57600080fd5b82356001600160401b038082111561437657600080fd5b614382868387016142dd565b9350602085013591508082111561439857600080fd5b506143a58582860161413c565b9150509250929050565b600081518084526020808501945080840160005b838110156143df578151875295820195908201906001016143c3565b509495945050505050565b602081526000610bc960208301846143af565b60008060006060848603121561441257600080fd5b83359250602084013561442481613f5f565b929592945050506040919091013590565b80151581146122f557600080fd5b6000806040838503121561445657600080fd5b823561446181613f5f565b9150602083013561447181614435565b809150509250929050565b60006080828403121561448e57600080fd5b60405161449a8161407d565b80915082356001600160401b03808211156144b457600080fd5b818501915085601f8301126144c857600080fd5b813560206144d582614119565b6040516144e282826140a2565b83815260059390931b850182019282810191508984111561450257600080fd5b8286015b8481101561453a5780358681111561451e5760008081fd5b61452c8c86838b01016141d4565b845250918301918301614506565b508652508681013593508284111561455157600080fd5b61455d8885890161413c565b818601525050505060408301356040820152606083013560608201525092915050565b60006020828403121561459257600080fd5b81356001600160401b03808211156145a957600080fd5b9083019061010082860312156145be57600080fd5b6145c66140ce565b8235828111156145d557600080fd5b6145e1878286016141d4565b8252506020830135828111156145f657600080fd5b614602878286016141d4565b6020830152506040830135604082015260608301358281111561462457600080fd5b6146308782860161447c565b60608301525060808301358281111561464857600080fd5b6146548782860161447c565b60808301525060a08301358281111561466c57600080fd5b614678878286016142dd565b60a08301525061468a60c08401613f74565b60c082015260e0830135828111156146a157600080fd5b6146ad878286016141d4565b60e08301525095945050505050565b600081518084526020808501808196508360051b8101915082860160005b858110156147045782840389526146f2848351614028565b988501989350908401906001016146da565b5091979650505050505050565b805182526000602082015160a0602085015261473060a08501826143af565b90506040830151848203604086015261474982826146bc565b9150506060830151848203606086015261476382826143af565b9150506080830151848203608086015261477d82826143af565b95945050505050565b86815285602082015260c0604082015260006147a560c0830187614711565b82810360608401526147b78187614711565b6001600160a01b038616608085015283810360a085015290506147da8185614028565b9998505050505050505050565b600080604083850312156147fa57600080fd5b50508035926020909101359150565b6000806040838503121561481c57600080fd5b823561482781613f5f565b9150602083013561447181613f5f565b600080600080600060a0868803121561484f57600080fd5b853561485a81613f5f565b9450602086013561486a81613f5f565b9350604086013592506060860135915060808601356001600160401b0381111561489357600080fd5b6142d0888289016141d4565b600181811c908216806148b357607f821691505b6020821081141561246057634e487b7160e01b600052602260045260246000fd5b634e487b7160e01b600052603260045260246000fd5b634e487b7160e01b600052601160045260246000fd5b6000600019821415614914576149146148ea565b5060010190565b60008282101561492d5761492d6148ea565b500390565b600081600019048311821515161561494c5761494c6148ea565b500290565b60008219821115614964576149646148ea565b500190565b6000815480845260208085019450836000528060002060005b838110156143df57815487529582019560019182019101614982565b8054600090600181811c90808316806149b857607f831692505b60208084108214156149da57634e487b7160e01b600052602260045260246000fd5b8388528180156149f15760018114614a0557614a33565b60ff19861689830152604089019650614a33565b876000528160002060005b86811015614a2b5781548b8201850152908501908301614a10565b8a0183019750505b50505050505092915050565b8054825260006001602060a081860152614a5e60a08601838601614969565b6002850186820360408801528181548084528484019150848160051b8501018360005285600020935060005b82811015614ab657858203601f19018452614aa5828661499e565b948801949387019391508701614a8a565b5089810360608b0152614acc8160038b01614969565b96505050505050508381036080850152613aaf8160048501614969565b6000815480845260208085019450836000528060002060005b838110156143df5781546001600160a01b031687529582019560019182019101614b02565b6000815160808452614b3c60808501826146bc565b905060208301518482036020860152614b5582826143af565b91505060408301516040850152606083015160608501528091505092915050565b86815260c06020820152855460c0820152600186015460e082015260e06101008201526000614bac6101a0830160028901614a3f565b60bf198084830301610120850152614bc78260078b01614a3f565b91508084830301610140850152614be182600c8b01614ae9565b9150614bf7600d8a01546001600160a01b031690565b6001600160a01b031661016085015283820301610180840152614c1d81600e8a0161499e565b90508281036040840152614c318188614b27565b90508281036060840152614c458187614b27565b90508281036080840152614c598186614028565b905082810360a08401526147da8185614028565b600060208284031215614c7f57600080fd5b8151610bc981614435565b60208082526025908201527f455243313135353a207472616e7366657220746f20746865207a65726f206164604082015264647265737360d81b606082015260800190565b6020808252602a908201527f455243313135353a20696e73756666696369656e742062616c616e636520666f60408201526939103a3930b739b332b960b11b606082015260800190565b604081526000614d2c60408301856143af565b828103602084015261477d81856143af565b602081526000610bc96020830184614711565b6001600160a01b0384811682528316602082015260606040820181905260009061477d90830184614711565b600082601f830112614d8e57600080fd5b81516020614d9b82614119565b604051614da882826140a2565b83815260059390931b8501820192828101915086841115614dc857600080fd5b8286015b848110156141a25780518352918301918301614dcc565b600082601f830112614df457600080fd5b81516020614e0182614119565b60408051614e0f83826140a2565b84815260059490941b8601830193838101925087851115614e2f57600080fd5b8387015b85811015614eb35780516001600160401b03811115614e525760008081fd5b8801603f81018a13614e645760008081fd5b85810151614e71816141ad565b8551614e7d82826140a2565b8281528c87848601011115614e9457600091508182fd5b614ea3838a8301898701613ffc565b8752505050928401928401614e33565b50979650505050505050565b600060208284031215614ed157600080fd5b81516001600160401b0380821115614ee857600080fd5b9083019060a08286031215614efc57600080fd5b614f046140f7565b82518152602083015182811115614f1a57600080fd5b614f2687828601614d7d565b602083015250604083015182811115614f3e57600080fd5b614f4a87828601614de3565b604083015250606083015182811115614f6257600080fd5b614f6e87828601614d7d565b606083015250608083015182811115614f8657600080fd5b614f9287828601614d7d565b60808301525095945050505050565b6001600160a01b0386811682528516602082015260a060408201819052600090614fcd908301866143af565b8281036060840152614fdf81866143af565b90508281036080840152614ff38185614028565b98975050505050505050565b60006020828403121561501157600080fd5b8151610bc981613fb0565b600060033d11156150355760046000803e5060005160e01c5b90565b600060443d10156150465790565b6040516003193d81016004833e81513d6001600160401b03816024840111818411171561507557505050505090565b828501915081518181111561508d5750505050505090565b843d87010160208285010111156150a75750505050505090565b6150b6602082860101876140a2565b509095945050505050565b60208082526028908201527f455243313135353a204552433131353552656365697665722072656a656374656040820152676420746f6b656e7360c01b606082015260800190565b6020808252600a90820152694d41585f4f50434f444560b01b604082015260600190565b6000815260008251615146816001850160208701613ffc565b9190910160010192915050565b6001600160a01b03868116825285166020820152604081018490526060810183905260a06080820181905260009061518d90830184614028565b979650505050505050565b606360f81b815260e083901b6001600160e01b03191660018201526880600e6000396000f360b81b600582015281516000906151db81600e850160208701613ffc565b91909101600e019392505050565b634e487b7160e01b600052601260045260246000fd5b60008261520e5761520e6151e9565b500490565b600082615222576152226151e9565b500690565b600181815b80851115615262578160001904821115615248576152486148ea565b8085161561525557918102915b93841c939080029061522c565b509250929050565b60008261527957506001610334565b8161528657506000610334565b816001811461529c57600281146152a6576152c2565b6001915050610334565b60ff8411156152b7576152b76148ea565b50506001821b610334565b5060208310610133831016604e8410600b84101617156152e5575081810a610334565b6152ef8383615227565b8060001904821115615303576153036148ea565b029392505050565b6000610bc9838361526a565b60006020828403121561532957600080fd5b5051919050565b60006020828403121561534257600080fd5b8151610bc981613f5f565b604080825283519082018190526000906020906060840190828701845b8281101561538f5781516001600160a01b03168452928401929084019060010161536a565b505050838103828501526153a381866143af565b9695505050505050565b6000602082840312156153bf57600080fd5b81516001600160401b038111156153d557600080fd5b613aaf84828501614d7d565b6000610bc960ff84168361526a565b600060ff821660ff84168060ff0382111561540d5761540d6148ea565b019392505050565b60208082526008908201526726a0ac2faa24a2a960c11b60408201526060019056fea26469706673582212209031bc0b4dc0508152b1ea98df5291b5268e6eaf23d360245b3d792b76bb075264736f6c634300080a0033",
  "linkReferences": {},
  "deployedLinkReferences": {}
}