{
  "_format": "hh-sol-artifact-1",
  "contractName": "GameAssets",
  "sourceName": "contracts/GameAssets.sol",
  "abi": [
    {
      "inputs": [
        {
          "internalType": "uint256",
          "name": "_size",
          "type": "uint256"
        },
        {
          "internalType": "uint256",
          "name": "_start",
          "type": "uint256"
        },
        {
          "internalType": "uint256",
          "name": "_end",
          "type": "uint256"
        }
      ],
      "name": "InvalidCodeAtRange",
      "type": "error"
    },
    {
      "inputs": [],
      "name": "WriteError",
      "type": "error"
    },
    {
      "anonymous": false,
      "inputs": [
        {
          "indexed": true,
          "internalType": "address",
          "name": "account",
          "type": "address"
        },
        {
          "indexed": true,
          "internalType": "address",
          "name": "operator",
          "type": "address"
        },
        {
          "indexed": false,
          "internalType": "bool",
          "name": "approved",
          "type": "bool"
        }
      ],
      "name": "ApprovalForAll",
      "type": "event"
    },
    {
      "anonymous": false,
      "inputs": [
        {
          "indexed": false,
          "internalType": "uint256",
          "name": "_assetId",
          "type": "uint256"
        },
        {
          "components": [
            {
              "internalType": "uint256",
              "name": "lootBoxId",
              "type": "uint256"
            },
            {
              "internalType": "uint256",
              "name": "id",
              "type": "uint256"
            },
            {
              "components": [
                {
                  "internalType": "uint256",
                  "name": "stackIndex",
                  "type": "uint256"
                },
                {
                  "internalType": "uint256[]",
                  "name": "stack",
                  "type": "uint256[]"
                },
                {
                  "internalType": "bytes[]",
                  "name": "sources",
                  "type": "bytes[]"
                },
                {
                  "internalType": "uint256[]",
                  "name": "constants",
                  "type": "uint256[]"
                },
                {
                  "internalType": "uint256[]",
                  "name": "arguments",
                  "type": "uint256[]"
                }
              ],
              "internalType": "struct State",
              "name": "priceConfig",
              "type": "tuple"
            },
            {
              "components": [
                {
                  "internalType": "uint256",
                  "name": "stackIndex",
                  "type": "uint256"
                },
                {
                  "internalType": "uint256[]",
                  "name": "stack",
                  "type": "uint256[]"
                },
                {
                  "internalType": "bytes[]",
                  "name": "sources",
                  "type": "bytes[]"
                },
                {
                  "internalType": "uint256[]",
                  "name": "constants",
                  "type": "uint256[]"
                },
                {
                  "internalType": "uint256[]",
                  "name": "arguments",
                  "type": "uint256[]"
                }
              ],
              "internalType": "struct State",
              "name": "canMintConfig",
              "type": "tuple"
            },
            {
              "internalType": "address[]",
              "name": "currencies",
              "type": "address[]"
            },
            {
              "internalType": "uint256",
              "name": "assetClass",
              "type": "uint256"
            },
            {
              "internalType": "uint256",
              "name": "rarity",
              "type": "uint256"
            },
            {
              "internalType": "address",
              "name": "creator",
              "type": "address"
            }
          ],
          "indexed": false,
          "internalType": "struct GameAssets.AssetDetails",
          "name": "_asset",
          "type": "tuple"
        },
        {
          "components": [
            {
              "internalType": "bytes[]",
              "name": "sources",
              "type": "bytes[]"
            },
            {
              "internalType": "uint256[]",
              "name": "constants",
              "type": "uint256[]"
            },
            {
              "internalType": "uint256",
              "name": "stackLength",
              "type": "uint256"
            },
            {
              "internalType": "uint256",
              "name": "argumentsLength",
              "type": "uint256"
            }
          ],
          "indexed": false,
          "internalType": "struct StateConfig",
          "name": "_priceConfig",
          "type": "tuple"
        },
        {
          "components": [
            {
              "internalType": "bytes[]",
              "name": "sources",
              "type": "bytes[]"
            },
            {
              "internalType": "uint256[]",
              "name": "constants",
              "type": "uint256[]"
            },
            {
              "internalType": "uint256",
              "name": "stackLength",
              "type": "uint256"
            },
            {
              "internalType": "uint256",
              "name": "argumentsLength",
              "type": "uint256"
            }
          ],
          "indexed": false,
          "internalType": "struct StateConfig",
          "name": "_canMintConfig",
          "type": "tuple"
        },
        {
          "indexed": false,
          "internalType": "string",
          "name": "_name",
          "type": "string"
        },
        {
          "indexed": false,
          "internalType": "string",
          "name": "_description",
          "type": "string"
        }
      ],
      "name": "AssetCreated",
      "type": "event"
    },
    {
      "anonymous": false,
      "inputs": [
        {
          "indexed": false,
          "internalType": "string[]",
          "name": "_classData",
          "type": "string[]"
        }
      ],
      "name": "ClassCreated",
      "type": "event"
    },
    {
      "anonymous": false,
      "inputs": [
        {
          "components": [
            {
              "internalType": "address",
              "name": "_creator",
              "type": "address"
            },
            {
              "internalType": "string",
              "name": "_baseURI",
              "type": "string"
            }
          ],
          "indexed": false,
          "internalType": "struct GameAssetsConfig",
          "name": "config",
          "type": "tuple"
        }
      ],
      "name": "Initialize",
      "type": "event"
    },
    {
      "anonymous": false,
      "inputs": [
        {
          "indexed": false,
          "internalType": "address",
          "name": "sender",
          "type": "address"
        },
        {
          "indexed": false,
          "internalType": "address",
          "name": "pointer",
          "type": "address"
        },
        {
          "components": [
            {
              "internalType": "uint256",
              "name": "stackIndex",
              "type": "uint256"
            },
            {
              "internalType": "uint256[]",
              "name": "stack",
              "type": "uint256[]"
            },
            {
              "internalType": "bytes[]",
              "name": "sources",
              "type": "bytes[]"
            },
            {
              "internalType": "uint256[]",
              "name": "constants",
              "type": "uint256[]"
            },
            {
              "internalType": "uint256[]",
              "name": "arguments",
              "type": "uint256[]"
            }
          ],
          "indexed": false,
          "internalType": "struct State",
          "name": "state",
          "type": "tuple"
        }
      ],
      "name": "Snapshot",
      "type": "event"
    },
    {
      "anonymous": false,
      "inputs": [
        {
          "indexed": true,
          "internalType": "address",
          "name": "operator",
          "type": "address"
        },
        {
          "indexed": true,
          "internalType": "address",
          "name": "from",
          "type": "address"
        },
        {
          "indexed": true,
          "internalType": "address",
          "name": "to",
          "type": "address"
        },
        {
          "indexed": false,
          "internalType": "uint256[]",
          "name": "ids",
          "type": "uint256[]"
        },
        {
          "indexed": false,
          "internalType": "uint256[]",
          "name": "values",
          "type": "uint256[]"
        }
      ],
      "name": "TransferBatch",
      "type": "event"
    },
    {
      "anonymous": false,
      "inputs": [
        {
          "indexed": true,
          "internalType": "address",
          "name": "operator",
          "type": "address"
        },
        {
          "indexed": true,
          "internalType": "address",
          "name": "from",
          "type": "address"
        },
        {
          "indexed": true,
          "internalType": "address",
          "name": "to",
          "type": "address"
        },
        {
          "indexed": false,
          "internalType": "uint256",
          "name": "id",
          "type": "uint256"
        },
        {
          "indexed": false,
          "internalType": "uint256",
          "name": "value",
          "type": "uint256"
        }
      ],
      "name": "TransferSingle",
      "type": "event"
    },
    {
      "anonymous": false,
      "inputs": [
        {
          "indexed": false,
          "internalType": "string",
          "name": "value",
          "type": "string"
        },
        {
          "indexed": true,
          "internalType": "uint256",
          "name": "id",
          "type": "uint256"
        }
      ],
      "name": "URI",
      "type": "event"
    },
    {
      "inputs": [
        {
          "internalType": "uint256",
          "name": "",
          "type": "uint256"
        }
      ],
      "name": "assets",
      "outputs": [
        {
          "internalType": "uint256",
          "name": "lootBoxId",
          "type": "uint256"
        },
        {
          "internalType": "uint256",
          "name": "id",
          "type": "uint256"
        },
        {
          "components": [
            {
              "internalType": "uint256",
              "name": "stackIndex",
              "type": "uint256"
            },
            {
              "internalType": "uint256[]",
              "name": "stack",
              "type": "uint256[]"
            },
            {
              "internalType": "bytes[]",
              "name": "sources",
              "type": "bytes[]"
            },
            {
              "internalType": "uint256[]",
              "name": "constants",
              "type": "uint256[]"
            },
            {
              "internalType": "uint256[]",
              "name": "arguments",
              "type": "uint256[]"
            }
          ],
          "internalType": "struct State",
          "name": "priceConfig",
          "type": "tuple"
        },
        {
          "components": [
            {
              "internalType": "uint256",
              "name": "stackIndex",
              "type": "uint256"
            },
            {
              "internalType": "uint256[]",
              "name": "stack",
              "type": "uint256[]"
            },
            {
              "internalType": "bytes[]",
              "name": "sources",
              "type": "bytes[]"
            },
            {
              "internalType": "uint256[]",
              "name": "constants",
              "type": "uint256[]"
            },
            {
              "internalType": "uint256[]",
              "name": "arguments",
              "type": "uint256[]"
            }
          ],
          "internalType": "struct State",
          "name": "canMintConfig",
          "type": "tuple"
        },
        {
          "internalType": "uint256",
          "name": "assetClass",
          "type": "uint256"
        },
        {
          "internalType": "uint256",
          "name": "rarity",
          "type": "uint256"
        },
        {
          "internalType": "address",
          "name": "creator",
          "type": "address"
        }
      ],
      "stateMutability": "view",
      "type": "function"
    },
    {
      "inputs": [
        {
          "internalType": "address",
          "name": "account",
          "type": "address"
        },
        {
          "internalType": "uint256",
          "name": "id",
          "type": "uint256"
        }
      ],
      "name": "balanceOf",
      "outputs": [
        {
          "internalType": "uint256",
          "name": "",
          "type": "uint256"
        }
      ],
      "stateMutability": "view",
      "type": "function"
    },
    {
      "inputs": [
        {
          "internalType": "address[]",
          "name": "accounts",
          "type": "address[]"
        },
        {
          "internalType": "uint256[]",
          "name": "ids",
          "type": "uint256[]"
        }
      ],
      "name": "balanceOfBatch",
      "outputs": [
        {
          "internalType": "uint256[]",
          "name": "",
          "type": "uint256[]"
        }
      ],
      "stateMutability": "view",
      "type": "function"
    },
    {
      "inputs": [
        {
          "internalType": "uint256",
          "name": "_assetId",
          "type": "uint256"
        }
      ],
      "name": "canMint",
      "outputs": [],
      "stateMutability": "nonpayable",
      "type": "function"
    },
    {
      "inputs": [
        {
          "internalType": "string[]",
          "name": "_classData",
          "type": "string[]"
        }
      ],
      "name": "createClass",
      "outputs": [],
      "stateMutability": "nonpayable",
      "type": "function"
    },
    {
      "inputs": [
        {
          "components": [
            {
              "internalType": "string",
              "name": "name",
              "type": "string"
            },
            {
              "internalType": "string",
              "name": "description",
              "type": "string"
            },
            {
              "internalType": "uint256",
              "name": "lootBoxId",
              "type": "uint256"
            },
            {
              "components": [
                {
                  "internalType": "bytes[]",
                  "name": "sources",
                  "type": "bytes[]"
                },
                {
                  "internalType": "uint256[]",
                  "name": "constants",
                  "type": "uint256[]"
                },
                {
                  "internalType": "uint256",
                  "name": "stackLength",
                  "type": "uint256"
                },
                {
                  "internalType": "uint256",
                  "name": "argumentsLength",
                  "type": "uint256"
                }
              ],
              "internalType": "struct StateConfig",
              "name": "priceConfig",
              "type": "tuple"
            },
            {
              "components": [
                {
                  "internalType": "bytes[]",
                  "name": "sources",
                  "type": "bytes[]"
                },
                {
                  "internalType": "uint256[]",
                  "name": "constants",
                  "type": "uint256[]"
                },
                {
                  "internalType": "uint256",
                  "name": "stackLength",
                  "type": "uint256"
                },
                {
                  "internalType": "uint256",
                  "name": "argumentsLength",
                  "type": "uint256"
                }
              ],
              "internalType": "struct StateConfig",
              "name": "canMintConfig",
              "type": "tuple"
            },
            {
              "internalType": "address[]",
              "name": "currencies",
              "type": "address[]"
            },
            {
              "internalType": "uint256",
              "name": "assetClass",
              "type": "uint256"
            },
            {
              "internalType": "uint256",
              "name": "rarity",
              "type": "uint256"
            },
            {
              "internalType": "address",
              "name": "creator",
              "type": "address"
            }
          ],
          "internalType": "struct AssetConfig",
          "name": "_config",
          "type": "tuple"
        }
      ],
      "name": "createNewAsset",
      "outputs": [],
      "stateMutability": "nonpayable",
      "type": "function"
    },
    {
      "inputs": [
        {
          "internalType": "uint256",
          "name": "id",
          "type": "uint256"
        }
      ],
      "name": "exists",
      "outputs": [
        {
          "internalType": "bool",
          "name": "",
          "type": "bool"
        }
      ],
      "stateMutability": "view",
      "type": "function"
    },
    {
      "inputs": [
        {
          "internalType": "uint256",
          "name": "_assetId",
          "type": "uint256"
        },
        {
          "internalType": "address",
          "name": "_paymentToken",
          "type": "address"
        },
        {
          "internalType": "uint256",
          "name": "_units",
          "type": "uint256"
        }
      ],
      "name": "getAssetPrice",
      "outputs": [
        {
          "internalType": "uint256[]",
          "name": "",
          "type": "uint256[]"
        }
      ],
      "stateMutability": "view",
      "type": "function"
    },
    {
      "inputs": [
        {
          "components": [
            {
              "internalType": "address",
              "name": "_creator",
              "type": "address"
            },
            {
              "internalType": "string",
              "name": "_baseURI",
              "type": "string"
            }
          ],
          "internalType": "struct GameAssetsConfig",
          "name": "_config",
          "type": "tuple"
        }
      ],
      "name": "initialize",
      "outputs": [],
      "stateMutability": "nonpayable",
      "type": "function"
    },
    {
      "inputs": [
        {
          "internalType": "address",
          "name": "account",
          "type": "address"
        },
        {
          "internalType": "address",
          "name": "operator",
          "type": "address"
        }
      ],
      "name": "isApprovedForAll",
      "outputs": [
        {
          "internalType": "bool",
          "name": "",
          "type": "bool"
        }
      ],
      "stateMutability": "view",
      "type": "function"
    },
    {
      "inputs": [
        {
          "internalType": "uint256",
          "name": "_assetId",
          "type": "uint256"
        },
        {
          "internalType": "uint256",
          "name": "_units",
          "type": "uint256"
        }
      ],
      "name": "mintAssets",
      "outputs": [],
      "stateMutability": "nonpayable",
      "type": "function"
    },
    {
      "inputs": [
        {
          "internalType": "address",
          "name": "from",
          "type": "address"
        },
        {
          "internalType": "address",
          "name": "to",
          "type": "address"
        },
        {
          "internalType": "uint256[]",
          "name": "ids",
          "type": "uint256[]"
        },
        {
          "internalType": "uint256[]",
          "name": "amounts",
          "type": "uint256[]"
        },
        {
          "internalType": "bytes",
          "name": "data",
          "type": "bytes"
        }
      ],
      "name": "safeBatchTransferFrom",
      "outputs": [],
      "stateMutability": "nonpayable",
      "type": "function"
    },
    {
      "inputs": [
        {
          "internalType": "address",
          "name": "from",
          "type": "address"
        },
        {
          "internalType": "address",
          "name": "to",
          "type": "address"
        },
        {
          "internalType": "uint256",
          "name": "id",
          "type": "uint256"
        },
        {
          "internalType": "uint256",
          "name": "amount",
          "type": "uint256"
        },
        {
          "internalType": "bytes",
          "name": "data",
          "type": "bytes"
        }
      ],
      "name": "safeTransferFrom",
      "outputs": [],
      "stateMutability": "nonpayable",
      "type": "function"
    },
    {
      "inputs": [
        {
          "internalType": "address",
          "name": "operator",
          "type": "address"
        },
        {
          "internalType": "bool",
          "name": "approved",
          "type": "bool"
        }
      ],
      "name": "setApprovalForAll",
      "outputs": [],
      "stateMutability": "nonpayable",
      "type": "function"
    },
    {
      "inputs": [
        {
          "internalType": "bytes4",
          "name": "interfaceId",
          "type": "bytes4"
        }
      ],
      "name": "supportsInterface",
      "outputs": [
        {
          "internalType": "bool",
          "name": "",
          "type": "bool"
        }
      ],
      "stateMutability": "view",
      "type": "function"
    },
    {
      "inputs": [],
      "name": "totalAssets",
      "outputs": [
        {
          "internalType": "uint256",
          "name": "",
          "type": "uint256"
        }
      ],
      "stateMutability": "view",
      "type": "function"
    },
    {
      "inputs": [
        {
          "internalType": "uint256",
          "name": "id",
          "type": "uint256"
        }
      ],
      "name": "totalSupply",
      "outputs": [
        {
          "internalType": "uint256",
          "name": "",
          "type": "uint256"
        }
      ],
      "stateMutability": "view",
      "type": "function"
    },
    {
      "inputs": [
        {
          "internalType": "uint256",
          "name": "_tokenId",
          "type": "uint256"
        }
      ],
      "name": "uri",
      "outputs": [
        {
          "internalType": "string",
          "name": "",
          "type": "string"
        }
      ],
      "stateMutability": "view",
      "type": "function"
    }
  ],
  "bytecode": "0x60a06040526002808060066007600b6200001b82600462000087565b62000027919062000087565b62000033919062000087565b6200003f919062000087565b6200004b919062000087565b62000057919062000087565b62000063919062000087565b6200007090600562000087565b6080523480156200008057600080fd5b50620000ae565b60008219821115620000a957634e487b7160e01b600052601160045260246000fd5b500190565b608051615a6d620000d16000396000818161270d01526127480152615a6d6000f3fe608060405234801561001057600080fd5b50600436106100f55760003560e01c80635dd871a3116100925780635dd871a3146101e95780635e85227a146101fc57806372509dcb1461020f578063a22cb46514610222578063bd85b03914610235578063cf35bdd014610255578063d30402411461027b578063e985e9c51461028e578063f242432a146102ca57600080fd5b8062fdd58e146100fa57806301e1d1141461012057806301ffc9a7146101295780630e89341c1461014c5780632caa69f01461016c5780632eb2c2d6146101815780633744dd83146101945780634e1273f4146101a75780634f558e79146101c7575b600080fd5b61010d61010836600461430b565b6102dd565b6040519081526020015b60405180910390f35b61010d60c95481565b61013c61013736600461434d565b610379565b6040519015158152602001610117565b61015f61015a36600461436a565b6103c9565b60405161011791906143db565b61017f61017a36600461472a565b61044c565b005b61017f61018f36600461485b565b6106cc565b61017f6101a2366004614908565b610763565b6101ba6101b536600461499d565b610873565b6040516101179190614a3b565b61013c6101d536600461436a565b600090815260976020526040902054151590565b61017f6101f736600461436a565b61099c565b61017f61020a366004614a4e565b610c3a565b6101ba61021d366004614b09565b610c69565b61017f610230366004614b4f565b610f64565b61010d61024336600461436a565b60009081526097602052604090205490565b61026861026336600461436a565b610f6f565b6040516101179796959493929190614c52565b61017f610289366004614cac565b6113a5565b61013c61029c366004614cce565b6001600160a01b03918216600090815260666020908152604080832093909416825291909152205460ff1690565b61017f6102d8366004614cfc565b6116cf565b60006001600160a01b03831661034e5760405162461bcd60e51b815260206004820152602b60248201527f455243313135353a2062616c616e636520717565727920666f7220746865207a60448201526a65726f206164647265737360a81b60648201526084015b60405180910390fd5b5060008181526065602090815260408083206001600160a01b03861684529091529020545b92915050565b60006001600160e01b03198216636cdb3d1360e11b14806103aa57506001600160e01b031982166303a24d0760e21b145b8061037357506301ffc9a760e01b6001600160e01b0319831614610373565b60606000821161040e5760405162461bcd60e51b815260206004820152601060248201526f24b73b30b634b2102a37b5b2b724b21760811b6044820152606401610345565b60cb61041b306014611756565b610424846118f1565b60405160200161043693929190614db5565b6040516020818303038152906040529050919050565b60c95461045a906001614e81565b60c9819055506040518061010001604052808260400151815260200160c954815260200161049b61049661049185606001516119f6565b611af8565b611b66565b81526020016104b361049661049185608001516119f6565b81526020018260a0015181526020018260c0015181526020018260e0015181526020018261010001516001600160a01b031681525060ca600060c954815260200190815260200160002060008201518160000155602082015181600101556040820151816002016000820151816000015560208201518160010190805190602001906105409291906140df565b506040820151805161055c91600284019160209091019061412a565b50606082015180516105789160038401916020909101906140df565b50608082015180516105949160048401916020909101906140df565b505050606082015180516007830190815560208083015180516105bd92600887019201906140df565b50604082015180516105d991600284019160209091019061412a565b50606082015180516105f59160038401916020909101906140df565b50608082015180516106119160048401916020909101906140df565b5050506080820151805161062f91600c840191602090910190614183565b5060a0820151600d82015560c0820151600e82015560e090910151600f90910180546001600160a01b0319166001600160a01b0390921691909117905560c954600081815260ca60209081526040918290206060850151608086015186519387015194517fce578b1cd5a1c73c0a0823f539c774c70de7fa104408da435608b87acceca180966106c196909591615067565b60405180910390a150565b6001600160a01b0385163314806106e857506106e8853361029c565b61074f5760405162461bcd60e51b815260206004820152603260248201527f455243313135353a207472616e736665722063616c6c6572206973206e6f74206044820152711bdddb995c881b9bdc88185c1c1c9bdd995960721b6064820152608401610345565b61075c8585858585611b8a565b5050505050565b600054610100900460ff1661077e5760005460ff1615610782565b303b155b6107e55760405162461bcd60e51b815260206004820152602e60248201527f496e697469616c697a61626c653a20636f6e747261637420697320616c72656160448201526d191e481a5b9a5d1a585b1a5e995960921b6064820152608401610345565b600054610100900460ff16158015610807576000805461ffff19166101011790555b602080830151805161081d9260cb9201906141d8565b50610826611d78565b7f2bf9425e0baa8fedeb3c184d73be1248daf76733362d08b840b48ff7db574d1b82604051610855919061516a565b60405180910390a1801561086f576000805461ff00191690555b5050565b606081518351146108d85760405162461bcd60e51b815260206004820152602960248201527f455243313135353a206163636f756e747320616e6420696473206c656e677468604482015268040dad2e6dac2e8c6d60bb1b6064820152608401610345565b600083516001600160401b038111156108f3576108f36143ee565b60405190808252806020026020018201604052801561091c578160200160208202803683370190505b50905060005b84518110156109945761096785828151811061094057610940615197565b602002602001015185838151811061095a5761095a615197565b60200260200101516102dd565b82828151811061097957610979615197565b602090810291909101015261098d816151ad565b9050610922565b509392505050565b600060ca60008381526020019081526020016000206007016040518060a00160405290816000820154815260200160018201805480602002602001604051908101604052809291908181526020018280548015610a1857602002820191906000526020600020905b815481526020019060010190808311610a04575b5050505050815260200160028201805480602002602001604051908101604052809291908181526020016000905b82821015610af2578382906000526020600020018054610a6590614d64565b80601f0160208091040260200160405190810160405280929190818152602001828054610a9190614d64565b8015610ade5780601f10610ab357610100808354040283529160200191610ade565b820191906000526020600020905b815481529060010190602001808311610ac157829003601f168201915b505050505081526020019060010190610a46565b50505050815260200160038201805480602002602001604051908101604052809291908181526020018280548015610b4957602002820191906000526020600020905b815481526020019060010190808311610b35575b5050505050815260200160048201805480602002602001604051908101604052809291908181526020018280548015610ba157602002820191906000526020600020905b815481526020019060010190808311610b8d575b5050505050815250509050610bc760405180602001604052806000815250826000611de5565b60208101518151610bda906001906151c8565b81518110610bea57610bea615197565b602002602001015160011461086f5760405162461bcd60e51b8152602060048201526016602482015275556e73617469736669656420636f6e646974696f6e7360501b6044820152606401610345565b7f64ab42706105fb3ddf566669fbf1f7a47f0e30ff6bfda9898e6c51f3b41e420f816040516106c191906151df565b606060005b600085815260ca60205260409020600c01805482908110610c9157610c91615197565b6000918252602090912001546001600160a01b03858116911614610cc15780610cb9816151ad565b915050610c6e565b600060ca60008781526020019081526020016000206002016040518060a00160405290816000820154815260200160018201805480602002602001604051908101604052809291908181526020018280548015610d3d57602002820191906000526020600020905b815481526020019060010190808311610d29575b5050505050815260200160028201805480602002602001604051908101604052809291908181526020016000905b82821015610e17578382906000526020600020018054610d8a90614d64565b80601f0160208091040260200160405190810160405280929190818152602001828054610db690614d64565b8015610e035780601f10610dd857610100808354040283529160200191610e03565b820191906000526020600020905b815481529060010190602001808311610de657829003601f168201915b505050505081526020019060010190610d6b565b50505050815260200160038201805480602002602001604051908101604052809291908181526020018280548015610e6e57602002820191906000526020600020905b815481526020019060010190808311610e5a575b5050505050815260200160048201805480602002602001604051908101604052809291908181526020018280548015610ec657602002820191906000526020600020905b815481526020019060010190808311610eb2575b5050505050815250509050610eeb604051806020016040528060008152508284611de5565b83816020015160018360000151610f0291906151c8565b81518110610f1257610f12615197565b6020026020010151610f249190615241565b60208201518251610f37906001906151c8565b81518110610f4757610f47615197565b6020026020010181815250508060200151925050505b9392505050565b61086f338383611f8d565b60ca602052806000526040600020600091509050806000015490806001015490806002016040518060a00160405290816000820154815260200160018201805480602002602001604051908101604052809291908181526020018280548015610ff757602002820191906000526020600020905b815481526020019060010190808311610fe3575b5050505050815260200160028201805480602002602001604051908101604052809291908181526020016000905b828210156110d157838290600052602060002001805461104490614d64565b80601f016020809104026020016040519081016040528092919081815260200182805461107090614d64565b80156110bd5780601f10611092576101008083540402835291602001916110bd565b820191906000526020600020905b8154815290600101906020018083116110a057829003601f168201915b505050505081526020019060010190611025565b5050505081526020016003820180548060200260200160405190810160405280929190818152602001828054801561112857602002820191906000526020600020905b815481526020019060010190808311611114575b505050505081526020016004820180548060200260200160405190810160405280929190818152602001828054801561118057602002820191906000526020600020905b81548152602001906001019080831161116c575b50505050508152505090806007016040518060a001604052908160008201548152602001600182018054806020026020016040519081016040528092919081815260200182805480156111f257602002820191906000526020600020905b8154815260200190600101908083116111de575b5050505050815260200160028201805480602002602001604051908101604052809291908181526020016000905b828210156112cc57838290600052602060002001805461123f90614d64565b80601f016020809104026020016040519081016040528092919081815260200182805461126b90614d64565b80156112b85780601f1061128d576101008083540402835291602001916112b8565b820191906000526020600020905b81548152906001019060200180831161129b57829003601f168201915b505050505081526020019060010190611220565b5050505081526020016003820180548060200260200160405190810160405280929190818152602001828054801561132357602002820191906000526020600020905b81548152602001906001019080831161130f575b505050505081526020016004820180548060200260200160405190810160405280929190818152602001828054801561137b57602002820191906000526020600020905b815481526020019060010190808311611367575b50505091909252505050600d820154600e830154600f90930154919290916001600160a01b031687565b60c9548211156113e95760405162461bcd60e51b815260206004820152600f60248201526e125b9d985b1a5908105cdcd95d1259608a1b6044820152606401610345565b6113f28261099c565b60005b600083815260ca60205260409020600c01548110156116b357600083815260ca60205260408120600c0180546114529186918590811061143757611437615197565b6000918252602090912001546001600160a01b031685610c69565b90508060008151811061146757611467615197565b60200260200101516000141561156e57600084815260ca60205260409020600c0180548390811061149a5761149a615197565b600091825260208083209091015486835260ca9091526040909120600f015482516001600160a01b03928316926323b872dd923392911690859060019081106114e5576114e5615197565b60209081029190910101516040516001600160e01b031960e086901b1681526001600160a01b03938416600482015292909116602483015260448201526064016020604051808303816000875af1158015611544573d6000803e3d6000fd5b505050506040513d601f19601f820116820180604052508101906115689190615260565b506116a0565b8060008151811061158157611581615197565b6020026020010151600114156116a057600084815260ca60205260409020600c018054839081106115b4576115b4615197565b600091825260208083209091015486835260ca9091526040909120600f015482516001600160a01b039283169263f242432a923392911690859060019081106115ff576115ff615197565b60200260200101518560028151811061161a5761161a615197565b60209081029190910101516040516001600160e01b031960e087901b1681526001600160a01b0394851660048201529390921660248401526044830152606482015260a06084820152600060a482015260c401600060405180830381600087803b15801561168757600080fd5b505af115801561169b573d6000803e3d6000fd5b505050505b506116ac816001614e81565b90506113f5565b5061086f3383836040518060200160405280600081525061206e565b6001600160a01b0385163314806116eb57506116eb853361029c565b6117495760405162461bcd60e51b815260206004820152602960248201527f455243313135353a2063616c6c6572206973206e6f74206f776e6572206e6f7260448201526808185c1c1c9bdd995960ba1b6064820152608401610345565b61075c8585858585612180565b60606000611765836002615241565b611770906002614e81565b6001600160401b03811115611787576117876143ee565b6040519080825280601f01601f1916602001820160405280156117b1576020820181803683370190505b509050600360fc1b816000815181106117cc576117cc615197565b60200101906001600160f81b031916908160001a905350600f60fb1b816001815181106117fb576117fb615197565b60200101906001600160f81b031916908160001a905350600061181f846002615241565b61182a906001614e81565b90505b60018111156118a2576f181899199a1a9b1b9c1cb0b131b232b360811b85600f166010811061185e5761185e615197565b1a60f81b82828151811061187457611874615197565b60200101906001600160f81b031916908160001a90535060049490941c9361189b8161527d565b905061182d565b508315610f5d5760405162461bcd60e51b815260206004820181905260248201527f537472696e67733a20686578206c656e67746820696e73756666696369656e746044820152606401610345565b6060816119155750506040805180820190915260018152600360fc1b602082015290565b8160005b811561193f5780611929816151ad565b91506119389050600a836152aa565b9150611919565b6000816001600160401b03811115611959576119596143ee565b6040519080825280601f01601f191660200182016040528015611983576020820181803683370190505b5090505b84156119ee576119986001836151c8565b91506119a5600a866152be565b6119b0906030614e81565b60f81b8183815181106119c5576119c5615197565b60200101906001600160f81b031916908160001a9053506119e7600a866152aa565b9450611987565b949350505050565b6119fe61424b565b815151611a395760405162461bcd60e51b8152602060048201526009602482015268305f534f555243455360b81b6044820152606401610345565b6040518060a001604052806000815260200183604001516001600160401b03811115611a6757611a676143ee565b604051908082528060200260200182016040528015611a90578160200160208202803683370190505b508152602001836000015181526020018360200151815260200183606001516001600160401b03811115611ac657611ac66143ee565b604051908082528060200260200182016040528015611aef578160200160208202803683370190505b50905292915050565b600080611b2383604051602001611b0f91906152d2565b6040516020818303038152906040526122a1565b90507ff95eed63f55d96a35306669cc3b5f652f8d44552e3e4b17b2f78f13571114abd338285604051611b58939291906152e5565b60405180910390a192915050565b611b6e61424b565b611b7782612306565b8060200190518101906103739190615453565b8151835114611bec5760405162461bcd60e51b815260206004820152602860248201527f455243313135353a2069647320616e6420616d6f756e7473206c656e677468206044820152670dad2e6dac2e8c6d60c31b6064820152608401610345565b6001600160a01b038416611c125760405162461bcd60e51b815260040161034590615535565b33611c21818787878787612316565b60005b8451811015611d0a576000858281518110611c4157611c41615197565b602002602001015190506000858381518110611c5f57611c5f615197565b60209081029190910181015160008481526065835260408082206001600160a01b038e168352909352919091205490915081811015611cb05760405162461bcd60e51b81526004016103459061557a565b60008381526065602090815260408083206001600160a01b038e8116855292528083208585039055908b16825281208054849290611cef908490614e81565b9250508190555050505080611d03906151ad565b9050611c24565b50846001600160a01b0316866001600160a01b0316826001600160a01b03167f4a39dc06d4c0dbc64b70af90fd698a233a518aa5d07e595d983b8c0526c8f7fb8787604051611d5a9291906155c4565b60405180910390a4611d70818787878787612422565b505050505050565b600054610100900460ff16611de35760405162461bcd60e51b815260206004820152602b60248201527f496e697469616c697a61626c653a20636f6e7472616374206973206e6f74206960448201526a6e697469616c697a696e6760a81b6064820152608401610345565b565b602082810151604084015183830201909101516060840151608085015182516000948594859492939092915b84881015611f80576002880197508784015180601e1a975080601f1a9650506005871015611f74576001871415611e74578160808716611e4e5750825b8a516020607f89160260200182015160208202602001840152600181018c525050611e11565b6002871415611e9f5789516020870260200182015160208202602001830152600181018b5250611e11565b6003871415611eb857611eb38b8b8861257e565b611e11565b6004871415611ee957611eb38a604051602001611ed591906152d2565b6040516020818303038152906040526126c5565b607f6101fe600188901b161786166080871615611f37578a5160001901808c5260208c015180519091908110611f2157611f21615197565b602002602001015160001415611f375750611e11565b8060000b600014611f6e5760008160000b1215611f6257801960020160020260ff1689039850611f6e565b8060020260ff16890198505b50611e11565b611eb38b8b898961270b565b5050505050505050505050565b816001600160a01b0316836001600160a01b031614156120015760405162461bcd60e51b815260206004820152602960248201527f455243313135353a2073657474696e6720617070726f76616c20737461747573604482015268103337b91039b2b63360b91b6064820152608401610345565b6001600160a01b03838116600081815260666020908152604080832094871680845294825291829020805460ff191686151590811790915591519182527f17307eab39ab6107e8899845ad3d59bd9653f200f220920489ca2b5937696c31910160405180910390a3505050565b6001600160a01b0384166120ce5760405162461bcd60e51b815260206004820152602160248201527f455243313135353a206d696e7420746f20746865207a65726f206164647265736044820152607360f81b6064820152608401610345565b336120ee816000876120df88612814565b6120e888612814565b87612316565b60008481526065602090815260408083206001600160a01b038916845290915281208054859290612120908490614e81565b909155505060408051858152602081018590526001600160a01b0380881692600092918516917fc3d58168c5ae7397731d063d5bbf3d657854427343f4c083240f7aacaa2d0f62910160405180910390a461075c8160008787878761285f565b6001600160a01b0384166121a65760405162461bcd60e51b815260040161034590615535565b336121b68187876120df88612814565b60008481526065602090815260408083206001600160a01b038a168452909152902054838110156121f95760405162461bcd60e51b81526004016103459061557a565b60008581526065602090815260408083206001600160a01b038b8116855292528083208785039055908816825281208054869290612238908490614e81565b909155505060408051868152602081018690526001600160a01b03808916928a821692918616917fc3d58168c5ae7397731d063d5bbf3d657854427343f4c083240f7aacaa2d0f62910160405180910390a461229882888888888861285f565b50505050505050565b6000806122cc836040516020016122b891906155e9565b60405160208183030381529060405261291a565b90508051602082016000f091506001600160a01b0382166123005760405163046a55db60e11b815260040160405180910390fd5b50919050565b6060610373826001600019612930565b6001600160a01b03851661239d5760005b835181101561239b5782818151811061234257612342615197565b60200260200101516097600086848151811061236057612360615197565b6020026020010151815260200190815260200160002060008282546123859190614e81565b909155506123949050816151ad565b9050612327565b505b6001600160a01b038416611d705760005b8351811015612298578281815181106123c9576123c9615197565b6020026020010151609760008684815181106123e7576123e7615197565b60200260200101518152602001908152602001600020600082825461240c91906151c8565b9091555061241b9050816151ad565b90506123ae565b6001600160a01b0384163b15611d705760405163bc197c8160e01b81526001600160a01b0385169063bc197c8190612466908990899088908890889060040161560f565b6020604051808303816000875af19250505080156124a1575060408051601f3d908101601f1916820190925261249e9181019061566d565b60015b61254e576124ad61568a565b806308c379a014156124e757506124c26156a6565b806124cd57506124e9565b8060405162461bcd60e51b815260040161034591906143db565b505b60405162461bcd60e51b815260206004820152603460248201527f455243313135353a207472616e7366657220746f206e6f6e20455243313135356044820152732932b1b2b4bb32b91034b6b83632b6b2b73a32b960611b6064820152608401610345565b6001600160e01b0319811663bc197c8160e01b146122985760405162461bcd60e51b81526004016103459061572f565b8151600019600583901c918290030183526007821690610100600384811c1681901c9190829003906001016000816001600160401b038111156125c3576125c36143ee565b6040519080825280602002602001820160405280156125ec578160200160208202803683370190505b50905060005b82811015612643578760200151818960000151018151811061261657612616615197565b602002602001015182828151811061263057612630615197565b60209081029190910101526001016125f2565b5060005b6101008110156126ba5760005b838110156126a7578482860384838151811061267257612672615197565b6020026020010151901b901c8960800151828151811061269457612694615197565b6020908102919091010152600101612654565b506126b3898988611de5565b8401612647565b505050505050505050565b612708816040516024016126d991906143db565b60408051601f198184030181529190526020810180516001600160e01b03166305f3bfab60e11b1790526129e1565b50565b7f000000000000000000000000000000000000000000000000000000000000000082101561274657612741836005840383612a02565b61280e565b7f0000000000000000000000000000000000000000000000000000000000000000820391506001821061278b5760405162461bcd60e51b815260040161034590615777565b6127dd83602001516002856000015103815181106127ab576127ab615197565b602002602001015184602001516001866000015103815181106127d0576127d0615197565b6020026020010151612ab9565b83602001516002856000015103815181106127fa576127fa615197565b602090810291909101015282516000190183525b50505050565b6040805160018082528183019092526060916000919060208083019080368337019050509050828160008151811061284e5761284e615197565b602090810291909101015292915050565b6001600160a01b0384163b15611d705760405163f23a6e6160e01b81526001600160a01b0385169063f23a6e61906128a3908990899088908890889060040161579b565b6020604051808303816000875af19250505080156128de575060408051601f3d908101601f191682019092526128db9181019061566d565b60015b6128ea576124ad61568a565b6001600160e01b0319811663f23a6e6160e01b146122985760405162461bcd60e51b81526004016103459061572f565b60608151826040516020016104369291906157e0565b6060833b8061294f575050604080516020810190915260008152610f5d565b8084111561296d575050604080516020810190915260008152610f5d565b8383101561299f5760405163162544fd60e11b8152600481018290526024810185905260448101849052606401610345565b83830384820360008282106129b457826129b6565b815b60408051603f8301601f19168101909152818152955090508087602087018a3c505050509392505050565b80516a636f6e736f6c652e6c6f67602083016000808483855afa5050505050565b6004821015612a1b57612a16838383612af3565b505050565b601d821015612a6257600b821015612a3b57612a16836004840383612bbf565b6016821015612a5357612a1683600a19840183612e49565b612a1683601519840183613218565b6023821015612a7a57612a1683601c19840183613385565b6025821015612a9257612a1683602219840183613740565b6027821015612aaa57612a16836024198401836138c7565b612a16836026198401836139f4565b6000805b6008811015612ae957828160200285901c63ffffffff161115612ae1579050610373565b600101612abd565b5060089392505050565b60048210612b135760405162461bcd60e51b815260040161034590615777565b81612b4457438360200151846000015181518110612b3357612b33615197565b602002602001018181525050612bb4565b6001821415612b6857428360200151846000015181518110612b3357612b33615197565b6002821415612b8c57602083015183518151339291908110612b3357612b33615197565b602083015183518151309291908110612ba757612ba7615197565b6020026020010181815250505b505080516001019052565b60078210612bdf5760405162461bcd60e51b815260040161034590615777565b6002821015612cef5782516001190182612c6c5783602001518160010181518110612c0c57612c0c615197565b6020026020010151612c448386602001518481518110612c2e57612c2e615197565b6020026020010151613d5090919063ffffffff16565b0284602001518281518110612c5b57612c5b615197565b602002602001018181525050612ce1565b6001831415612ce15783602001518160010181518110612c8e57612c8e615197565b6020026020010151612cb08386602001518481518110612c2e57612c2e615197565b81612cbd57612cbd615294565b0484602001518281518110612cd457612cd4615197565b6020026020010181815250505b508251600019018352505050565b6005821015612de2578251600019016002831415612d4857612d218285602001518381518110612c2e57612c2e615197565b84602001518281518110612d3757612d37615197565b60200260200101818152505061280e565b6003831415612d8157612d218285602001518381518110612d6b57612d6b615197565b6020026020010151613db290919063ffffffff16565b600483141561280e57612dba8285602001518381518110612da457612da4615197565b6020026020010151613de390919063ffffffff16565b84602001518281518110612dd057612dd0615197565b60200260200101818152505050505050565b6005821415612e2457602083015183518151670de0b6b3a76400009291908110612e0e57612e0e615197565b6020908102919091010152505080516001019052565b6006821415612a165760128360200151846000015181518110612ba757612ba7615197565b600b8210612e695760405162461bcd60e51b815260040161034590615777565b82516020840151805183830392600019019183916000919083908110612e9157612e91615197565b602002602001015190506000861415612ee9575b82821015612ee4576020870151805160019093019283908110612eca57612eca615197565b602002602001015181612edd9190614e81565b9050612ea5565b6131e9565b6001861415612f3a575b82821015612ee4578180600101925050612f3387602001518381518110612f1c57612f1c615197565b602002602001015182613e2190919063ffffffff16565b9050612ef3565b6002861415612f83575b82821015612ee4576020870151805160019093019283908110612f6957612f69615197565b602002602001015181612f7c91906151c8565b9050612f44565b6003861415612fd4575b82821015612ee4578180600101925050612fcd87602001518381518110612fb657612fb6615197565b602002602001015182613e3e90919063ffffffff16565b9050612f8d565b600486141561301d575b82821015612ee457602087015180516001909301928390811061300357613003615197565b6020026020010151816130169190615241565b9050612fde565b600586141561306e575b82821015612ee45781806001019250506130678760200151838151811061305057613050615197565b602002602001015182613e5490919063ffffffff16565b9050613027565b60068614156130b7575b82821015612ee457602087015180516001909301928390811061309d5761309d615197565b6020026020010151816130b091906152aa565b9050613078565b6007861415613100575b82821015612ee45760208701518051600190930192839081106130e6576130e6615197565b6020026020010151816130f991906152be565b90506130c1565b6008861415613149575b82821015612ee457602087015180516001909301928390811061312f5761312f615197565b6020026020010151816131429190615915565b905061310a565b600986141561319b5760005b8383101561319557602088015180516001909401938490811061317a5761317a615197565b6020026020010151905081811015613190578091505b613155565b506131e9565b600a8614156131e95760005b838310156131e75760208801518051600190940193849081106131cc576131cc615197565b60200260200101519050818111156131e2578091505b6131a7565b505b808760200151858151811061320057613200615197565b60209081029190910101525050506001019092525050565b600782106132385760405162461bcd60e51b815260040161034590615777565b82516020808501518183020101838015613281576001811461329057600281146132bf57600381146132d957600481146132f3576005811461330d576006811461334557611d70565b601f1982018051159052611d70565b60011983018652605f198201805180156132b057602082015182526132b8565b604082015182525b5050611d70565b600183038652604082036020810151815114815250611d70565b600183038652604082036020810151815110815250611d70565b600183038652604082036020810151815111815250611d70565b8315613340576001840383038652602084028203805b838110156132b8578051613338575060008152825b602001613323565b611d70565b8315611d70576001840383038652602084028203805b8381101561337b5780518015613372578491508083525b5060200161335b565b5050505050505050565b600682106133a55760405162461bcd60e51b815260040161034590615777565b60008261347757508251600019810184526020840151805160011990920191829081106133d4576133d4615197565b60200260200101516001600160a01b031663e053ea318560200151836001018151811061340357613403615197565b60200260200101516040518263ffffffff1660e01b815260040161343691906001600160a01b0391909116815260200190565b602060405180830381865afa158015613453573d6000803e3d6000fd5b505050506040513d601f19601f82011682018060405250810190612d219190615921565b60018314156134b457600019846020015185600001518151811061349d5761349d615197565b60209081029190910101528351600101845261280e565b60028314156134d9576000846020015185600001518151811061349d5761349d615197565b600383141561356f575082516001190180845260208401518051600091908390811061350757613507615197565b6020026020010151905060008560200151836001018151811061352c5761352c615197565b602002602001015190506135408282613e83565b8660200151848151811061355657613556615197565b602090810291909101015250508351600101845261280e565b6004831415613619575082516001190180845260208401518051600f80851692600486901c9091169160009190859081106135ac576135ac615197565b602002602001015190506000876020015185600101815181106135d1576135d1615197565b602002602001015190506135e782858584613eda565b886020015186815181106135fd576135fd615197565b60209081029190910101525050855160010186525061280e9050565b600583141561280e57508251600019601f8316918290030180855290600783901c906003600585901c1690836000826001600160401b0381111561365f5761365f6143ee565b604051908082528060200260200182016040528015613688578160200160208202803683370190505b50905060005b838110156136dd57896020015183815181106136ac576136ac615197565b60200260200101518282815181106136c6576136c6615197565b60209081029190910101526001928301920161368e565b506000896020015183815181106136f6576136f6615197565b6020026020010151905061370c82828888613f36565b8a60200151888151811061372257613722615197565b60209081029190910101525050875160010188525050505050505050565b600282106137605760405162461bcd60e51b815260040161034590615777565b8161385c578251600019810184526020840151805190916001190190811061378a5761378a615197565b60200260200101516001600160a01b03166370a0823184602001518560000151815181106137ba576137ba615197565b60200260200101516040518263ffffffff1660e01b81526004016137ed91906001600160a01b0391909116815260200190565b602060405180830381865afa15801561380a573d6000803e3d6000fd5b505050506040513d601f19601f8201168201806040525081019061382e9190615921565b836020015160018560000151038151811061384b5761384b615197565b602002602001018181525050505050565b6001821415612a1657826020015160018460000151038151811061388257613882615197565b60200260200101516001600160a01b03166318160ddd6040518163ffffffff1660e01b8152600401602060405180830381865afa15801561380a573d6000803e3d6000fd5b600282106138e75760405162461bcd60e51b815260040161034590615777565b82516000190183528161391157826020015160018460000151038151811061378a5761378a615197565b6001821415612a1657826020015160018460000151038151811061393757613937615197565b60200260200101516001600160a01b0316636352211e846020015185600001518151811061396757613967615197565b60200260200101516040518263ffffffff1660e01b815260040161398d91815260200190565b602060405180830381865afa1580156139aa573d6000803e3d6000fd5b505050506040513d601f19601f820116820180604052508101906139ce919061593a565b6001600160a01b0316836020015160018560000151038151811061384b5761384b615197565b60028210613a145760405162461bcd60e51b815260040161034590615777565b81613b0957825160011981018452602084015180516002199092019182908110613a4057613a40615197565b60200260200101516001600160a01b031662fdd58e85602001518360010181518110613a6e57613a6e615197565b602002602001015186602001518460020181518110613a8f57613a8f615197565b60200260200101516040518363ffffffff1660e01b8152600401613ac89291906001600160a01b03929092168252602082015260400190565b602060405180830381865afa158015613ae5573d6000803e3d6000fd5b505050506040513d601f19601f82011682018060405250810190612dba9190615921565b6001821415612a1657600181016000816001600160401b03811115613b3057613b306143ee565b604051908082528060200260200182016040528015613b59578160200160208202803683370190505b5090506000826001600160401b03811115613b7657613b766143ee565b604051908082528060200260200182016040528015613b9f578160200160208202803683370190505b5086518490036000198181018952602089015180519394509186900301916000919083908110613bd157613bd1615197565b6020026020010151905060005b85811015613c7b57886020015181840160010181518110613c0157613c01615197565b6020026020010151858281518110613c1b57613c1b615197565b6001600160a01b0390921660209283029190910182015289015180516001858901840101908110613c4e57613c4e615197565b6020026020010151848281518110613c6857613c68615197565b6020908102919091010152600101613bde565b506040516313849cfd60e21b81526000906001600160a01b03831690634e1273f490613cad9088908890600401615957565b600060405180830381865afa158015613cca573d6000803e3d6000fd5b505050506040513d6000823e601f3d908101601f19168201604052613cf291908101906159ad565b905060005b86811015613d4457818181518110613d1157613d11615197565b60200260200101518a6020015182860181518110613d3157613d31615197565b6020908102919091010152600101613cf7565b50505050505050505050565b60008160121415613d62575081610373565b8160121115613d9257613d768260126151c8565b613d8190600a615915565b613d8b9084615241565b9050610373565b613d9d6012836151c8565b613da890600a615915565b613d8b90846152aa565b60006012821415613dc4575081610373565b8160121115613dd857613d9d8260126151c8565b613d766012836151c8565b600081810b613df3575081610373565b60008260000b1315613e0a57613d8182600a6159e1565b613e16821960016159f0565b613da890600a6159e1565b6000828201838110613e3357806119ee565b600019949350505050565b6000818311613e4e576000610f5d565b50900390565b600082613e6357506000610373565b82820282848281613e7657613e76615294565b041415613e3357806119ee565b60008060015b60088111610994576000613e9d868361402c565b90506000613eab868461402c565b90506000613eb98383613e3e565b9050613ec9856001860383614079565b94505060019092019150613e899050565b6000826008811115613efe5760405162461bcd60e51b815260040161034590615a15565b6000855b85811015613f2a5763ffffffff6020820290811b199890981685891b17979150600101613f02565b50959695505050505050565b835160009081908190819060015b6008811161401e57600092508287613f5f5750600019613f63565b5060005b60005b83811015613ffa57613f918c8281518110613f8357613f83615197565b60200260200101518461402c565b95508a8611613fe35788613fb057613fa986836140b9565b9150613fda565b6001891415613fc357613fa986836140cf565b600289148015613fd1575084155b15613fda578591505b60019450613ff2565b89613ff2576000199150613ffa565b600101613f66565b508361400557506000195b614013866001840383614079565b955050600101613f44565b509298975050505050505050565b60008160088111156140505760405162461bcd60e51b815260040161034590615a15565b8261405e5760009150614072565b63ffffffff602060001985010285901c1691505b5092915050565b600082600881111561409d5760405162461bcd60e51b815260040161034590615a15565b505060209190910290811b63ffffffff90911b19919091161790565b60008183106140c85781610f5d565b5090919050565b6000818310156140c85781610f5d565b82805482825590600052602060002090810192821561411a579160200282015b8281111561411a5782518255916020019190600101906140ff565b5061412692915061427a565b5090565b828054828255906000526020600020908101928215614177579160200282015b8281111561417757825180516141679184916020909101906141d8565b509160200191906001019061414a565b5061412692915061428f565b82805482825590600052602060002090810192821561411a579160200282015b8281111561411a57825182546001600160a01b0319166001600160a01b039091161782556020909201916001909101906141a3565b8280546141e490614d64565b90600052602060002090601f016020900481019282614206576000855561411a565b82601f1061421f57805160ff191683800117855561411a565b8280016001018555821561411a579182018281111561411a5782518255916020019190600101906140ff565b6040518060a0016040528060008152602001606081526020016060815260200160608152602001606081525090565b5b80821115614126576000815560010161427b565b808211156141265760006142a382826142ac565b5060010161428f565b5080546142b890614d64565b6000825580601f106142c8575050565b601f016020900490600052602060002090810190612708919061427a565b6001600160a01b038116811461270857600080fd5b8035614306816142e6565b919050565b6000806040838503121561431e57600080fd5b8235614329816142e6565b946020939093013593505050565b6001600160e01b03198116811461270857600080fd5b60006020828403121561435f57600080fd5b8135610f5d81614337565b60006020828403121561437c57600080fd5b5035919050565b60005b8381101561439e578181015183820152602001614386565b8381111561280e5750506000910152565b600081518084526143c7816020860160208601614383565b601f01601f19169290920160200192915050565b602081526000610f5d60208301846143af565b634e487b7160e01b600052604160045260246000fd5b608081018181106001600160401b0382111715614423576144236143ee565b60405250565b601f8201601f191681016001600160401b038111828210171561444e5761444e6143ee565b6040525050565b60405161012081016001600160401b0381118282101715614478576144786143ee565b60405290565b60405160a081016001600160401b0381118282101715614478576144786143ee565b60006001600160401b038211156144b9576144b96143ee565b50601f01601f191660200190565b600082601f8301126144d857600080fd5b81356144e3816144a0565b6040516144f08282614429565b82815285602084870101111561450557600080fd5b82602086016020830137600092810160200192909252509392505050565b60006001600160401b0382111561453c5761453c6143ee565b5060051b60200190565b600082601f83011261455757600080fd5b8135602061456482614523565b6040516145718282614429565b83815260059390931b850182019282810191508684111561459157600080fd5b8286015b848110156145ac5780358352918301918301614595565b509695505050505050565b6000608082840312156145c957600080fd5b6040516145d581614404565b80915082356001600160401b03808211156145ef57600080fd5b818501915085601f83011261460357600080fd5b8135602061461082614523565b60405161461d8282614429565b83815260059390931b850182019282810191508984111561463d57600080fd5b8286015b84811015614675578035868111156146595760008081fd5b6146678c86838b01016144c7565b845250918301918301614641565b508652508681013593508284111561468c57600080fd5b61469888858901614546565b818601525050505060408301356040820152606083013560608201525092915050565b600082601f8301126146cc57600080fd5b813560206146d982614523565b6040516146e68282614429565b83815260059390931b850182019282810191508684111561470657600080fd5b8286015b848110156145ac57803561471d816142e6565b835291830191830161470a565b60006020828403121561473c57600080fd5b81356001600160401b038082111561475357600080fd5b90830190610120828603121561476857600080fd5b614770614455565b82358281111561477f57600080fd5b61478b878286016144c7565b8252506020830135828111156147a057600080fd5b6147ac878286016144c7565b602083015250604083013560408201526060830135828111156147ce57600080fd5b6147da878286016145b7565b6060830152506080830135828111156147f257600080fd5b6147fe878286016145b7565b60808301525060a08301358281111561481657600080fd5b614822878286016146bb565b60a08301525060c083013560c082015260e083013560e0820152610100915061484c8284016142fb565b91810191909152949350505050565b600080600080600060a0868803121561487357600080fd5b853561487e816142e6565b9450602086013561488e816142e6565b935060408601356001600160401b03808211156148aa57600080fd5b6148b689838a01614546565b945060608801359150808211156148cc57600080fd5b6148d889838a01614546565b935060808801359150808211156148ee57600080fd5b506148fb888289016144c7565b9150509295509295909350565b60006020828403121561491a57600080fd5b81356001600160401b038082111561493157600080fd5b908301906040828603121561494557600080fd5b604051604081018181108382111715614960576149606143ee565b604052823561496e816142e6565b815260208301358281111561498257600080fd5b61498e878286016144c7565b60208301525095945050505050565b600080604083850312156149b057600080fd5b82356001600160401b03808211156149c757600080fd5b6149d3868387016146bb565b935060208501359150808211156149e957600080fd5b506149f685828601614546565b9150509250929050565b600081518084526020808501945080840160005b83811015614a3057815187529582019590820190600101614a14565b509495945050505050565b602081526000610f5d6020830184614a00565b60006020808385031215614a6157600080fd5b82356001600160401b0380821115614a7857600080fd5b818501915085601f830112614a8c57600080fd5b8135614a9781614523565b604051614aa48282614429565b82815260059290921b8401850191858101915088831115614ac457600080fd5b8585015b83811015614afc57803585811115614ae05760008081fd5b614aee8b89838a01016144c7565b845250918601918601614ac8565b5098975050505050505050565b600080600060608486031215614b1e57600080fd5b833592506020840135614b30816142e6565b929592945050506040919091013590565b801515811461270857600080fd5b60008060408385031215614b6257600080fd5b8235614b6d816142e6565b91506020830135614b7d81614b41565b809150509250929050565b600081518084526020808501808196508360051b8101915082860160005b85811015614bd0578284038952614bbe8483516143af565b98850198935090840190600101614ba6565b5091979650505050505050565b805182526000602082015160a06020850152614bfc60a0850182614a00565b905060408301518482036040860152614c158282614b88565b91505060608301518482036060860152614c2f8282614a00565b91505060808301518482036080860152614c498282614a00565b95945050505050565b87815286602082015260e060408201526000614c7160e0830188614bdd565b8281036060840152614c838188614bdd565b6080840196909652505060a08101929092526001600160a01b031660c090910152949350505050565b60008060408385031215614cbf57600080fd5b50508035926020909101359150565b60008060408385031215614ce157600080fd5b8235614cec816142e6565b91506020830135614b7d816142e6565b600080600080600060a08688031215614d1457600080fd5b8535614d1f816142e6565b94506020860135614d2f816142e6565b9350604086013592506060860135915060808601356001600160401b03811115614d5857600080fd5b6148fb888289016144c7565b600181811c90821680614d7857607f821691505b6020821081141561230057634e487b7160e01b600052602260045260246000fd5b60008151614dab818560208601614383565b9290920192915050565b6000808554614dc381614d64565b60018281168015614ddb5760018114614dec57614e1b565b60ff19841687528287019450614e1b565b8960005260208060002060005b85811015614e125781548a820152908401908201614df9565b50505082870194505b50602f60f81b925082845287519150614e3a8282860160208b01614383565b920191820152614e61614e506002830186614d99565b64173539b7b760d91b815260050190565b9695505050505050565b634e487b7160e01b600052601160045260246000fd5b60008219821115614e9457614e94614e6b565b500190565b6000815480845260208085019450836000528060002060005b83811015614a3057815487529582019560019182019101614eb2565b8054825260006001602060a081860152614eed60a08601838601614e99565b600285016040878303818901528282548085528585019150858160051b86010160008581528781209550805b83811015614fa557601f19888403018552818754614f3681614d64565b808652818d168015614f4f5760018114614f6257614f91565b60ff198316878e01528987019350614f91565b8a86528c8620865b83811015614f895781548f828b0101528f820191508e81019050614f6a565b88018e019450505b505050968a01969489019492508901614f19565b50508a810360608c0152614fbc8160038c01614e99565b97505050505050505083810360808501526119ee8160048501614e99565b6000815480845260208085019450836000528060002060005b83811015614a305781546001600160a01b031687529582019560019182019101614ff3565b600081516080845261502d6080850182614b88565b9050602083015184820360208601526150468282614a00565b91505060408301516040850152606083015160608501528091505092915050565b86815260c06020820152855460c0820152600186015460e0820152600061010080818401525061509e6101c0830160028901614ece565b60bf1980848303016101208501526150b98260078b01614ece565b91508084830301610140850152506150d481600c8a01614fda565b9050600d880154610160840152600e880154610180840152615100600f8901546001600160a01b031690565b6001600160a01b03166101a084015282810360408401526151218188615018565b905082810360608401526151358187615018565b9050828103608084015261514981866143af565b905082810360a084015261515d81856143af565b9998505050505050505050565b602080825282516001600160a01b0316828201528201516040808301526000906119ee60608401826143af565b634e487b7160e01b600052603260045260246000fd5b60006000198214156151c1576151c1614e6b565b5060010190565b6000828210156151da576151da614e6b565b500390565b6000602080830181845280855180835260408601915060408160051b870101925083870160005b8281101561523457603f198886030184526152228583516143af565b94509285019290850190600101615206565b5092979650505050505050565b600081600019048311821515161561525b5761525b614e6b565b500290565b60006020828403121561527257600080fd5b8151610f5d81614b41565b60008161528c5761528c614e6b565b506000190190565b634e487b7160e01b600052601260045260246000fd5b6000826152b9576152b9615294565b500490565b6000826152cd576152cd615294565b500690565b602081526000610f5d6020830184614bdd565b6001600160a01b03848116825283166020820152606060408201819052600090614c4990830184614bdd565b600082601f83011261532257600080fd5b8151602061532f82614523565b60405161533c8282614429565b83815260059390931b850182019282810191508684111561535c57600080fd5b8286015b848110156145ac5780518352918301918301615360565b600082601f83011261538857600080fd5b8151602061539582614523565b604080516153a38382614429565b84815260059490941b86018301938381019250878511156153c357600080fd5b8387015b858110156154475780516001600160401b038111156153e65760008081fd5b8801603f81018a136153f85760008081fd5b85810151615405816144a0565b85516154118282614429565b8281528c8784860101111561542857600091508182fd5b615437838a8301898701614383565b87525050509284019284016153c7565b50979650505050505050565b60006020828403121561546557600080fd5b81516001600160401b038082111561547c57600080fd5b9083019060a0828603121561549057600080fd5b61549861447e565b825181526020830151828111156154ae57600080fd5b6154ba87828601615311565b6020830152506040830151828111156154d257600080fd5b6154de87828601615377565b6040830152506060830151828111156154f657600080fd5b61550287828601615311565b60608301525060808301518281111561551a57600080fd5b61552687828601615311565b60808301525095945050505050565b60208082526025908201527f455243313135353a207472616e7366657220746f20746865207a65726f206164604082015264647265737360d81b606082015260800190565b6020808252602a908201527f455243313135353a20696e73756666696369656e742062616c616e636520666f60408201526939103a3930b739b332b960b11b606082015260800190565b6040815260006155d76040830185614a00565b8281036020840152614c498185614a00565b6000815260008251615602816001850160208701614383565b9190910160010192915050565b6001600160a01b0386811682528516602082015260a06040820181905260009061563b90830186614a00565b828103606084015261564d8186614a00565b9050828103608084015261566181856143af565b98975050505050505050565b60006020828403121561567f57600080fd5b8151610f5d81614337565b600060033d11156156a35760046000803e5060005160e01c5b90565b600060443d10156156b45790565b6040516003193d81016004833e81513d6001600160401b0381602484011181841117156156e357505050505090565b82850191508151818111156156fb5750505050505090565b843d87010160208285010111156157155750505050505090565b61572460208286010187614429565b509095945050505050565b60208082526028908201527f455243313135353a204552433131353552656365697665722072656a656374656040820152676420746f6b656e7360c01b606082015260800190565b6020808252600a90820152694d41585f4f50434f444560b01b604082015260600190565b6001600160a01b03868116825285166020820152604081018490526060810183905260a0608082018190526000906157d5908301846143af565b979650505050505050565b606360f81b815260e083901b6001600160e01b03191660018201526880600e6000396000f360b81b6005820152815160009061582381600e850160208701614383565b91909101600e019392505050565b600181815b8085111561586c57816000190482111561585257615852614e6b565b8085161561585f57918102915b93841c9390800290615836565b509250929050565b60008261588357506001610373565b8161589057506000610373565b81600181146158a657600281146158b0576158cc565b6001915050610373565b60ff8411156158c1576158c1614e6b565b50506001821b610373565b5060208310610133831016604e8410600b84101617156158ef575081810a610373565b6158f98383615831565b806000190482111561590d5761590d614e6b565b029392505050565b6000610f5d8383615874565b60006020828403121561593357600080fd5b5051919050565b60006020828403121561594c57600080fd5b8151610f5d816142e6565b604080825283519082018190526000906020906060840190828701845b828110156159995781516001600160a01b031684529284019290840190600101615974565b50505083810382850152614e618186614a00565b6000602082840312156159bf57600080fd5b81516001600160401b038111156159d557600080fd5b6119ee84828501615311565b6000610f5d60ff841683615874565b600060ff821660ff84168060ff03821115615a0d57615a0d614e6b565b019392505050565b60208082526008908201526726a0ac2faa24a2a960c11b60408201526060019056fea2646970667358221220dca98a720040983b91d2ded9a8fb46600b10b9e3885ba1dc123727cfcc69440d64736f6c634300080a0033",
  "linkReferences": {},
  "deployedLinkReferences": {}
}