{
  "_format": "hh-sol-artifact-1",
  "contractName": "Rain1155",
  "sourceName": "contracts/Rain1155.sol",
  "abi": [
    {
      "inputs": [
        {
          "components": [
            {
              "internalType": "address",
              "name": "vmStateBuilder",
              "type": "address"
            }
          ],
          "internalType": "struct Rain1155Config",
          "name": "config_",
          "type": "tuple"
        }
      ],
      "stateMutability": "nonpayable",
      "type": "constructor"
    },
    {
      "inputs": [
        {
          "internalType": "uint256",
          "name": "_size",
          "type": "uint256"
        },
        {
          "internalType": "uint256",
          "name": "_start",
          "type": "uint256"
        },
        {
          "internalType": "uint256",
          "name": "_end",
          "type": "uint256"
        }
      ],
      "name": "InvalidCodeAtRange",
      "type": "error"
    },
    {
      "inputs": [],
      "name": "WriteError",
      "type": "error"
    },
    {
      "anonymous": false,
      "inputs": [
        {
          "indexed": true,
          "internalType": "address",
          "name": "account",
          "type": "address"
        },
        {
          "indexed": true,
          "internalType": "address",
          "name": "operator",
          "type": "address"
        },
        {
          "indexed": false,
          "internalType": "bool",
          "name": "approved",
          "type": "bool"
        }
      ],
      "name": "ApprovalForAll",
      "type": "event"
    },
    {
      "anonymous": false,
      "inputs": [
        {
          "indexed": false,
          "internalType": "uint256",
          "name": "assetId_",
          "type": "uint256"
        },
        {
          "components": [
            {
              "internalType": "uint256",
              "name": "lootBoxId",
              "type": "uint256"
            },
            {
              "internalType": "uint256",
              "name": "id",
              "type": "uint256"
            },
            {
              "internalType": "address[]",
              "name": "currencies",
              "type": "address[]"
            },
            {
              "components": [
                {
                  "internalType": "bytes[]",
                  "name": "sources",
                  "type": "bytes[]"
                },
                {
                  "internalType": "uint256[]",
                  "name": "constants",
                  "type": "uint256[]"
                }
              ],
              "internalType": "struct StateConfig",
              "name": "vmStateConfig",
              "type": "tuple"
            },
            {
              "internalType": "address",
              "name": "vmStatePointer",
              "type": "address"
            },
            {
              "internalType": "address",
              "name": "recipient",
              "type": "address"
            },
            {
              "internalType": "string",
              "name": "tokenURI",
              "type": "string"
            }
          ],
          "indexed": false,
          "internalType": "struct Rain1155.AssetDetails",
          "name": "asset_",
          "type": "tuple"
        },
        {
          "indexed": false,
          "internalType": "string",
          "name": "name_",
          "type": "string"
        },
        {
          "indexed": false,
          "internalType": "string",
          "name": "description_",
          "type": "string"
        }
      ],
      "name": "AssetCreated",
      "type": "event"
    },
    {
      "anonymous": false,
      "inputs": [
        {
          "indexed": false,
          "internalType": "address",
          "name": "deployer_",
          "type": "address"
        },
        {
          "components": [
            {
              "internalType": "address",
              "name": "vmStateBuilder",
              "type": "address"
            }
          ],
          "indexed": false,
          "internalType": "struct Rain1155Config",
          "name": "config_",
          "type": "tuple"
        }
      ],
      "name": "Initialize",
      "type": "event"
    },
    {
      "anonymous": false,
      "inputs": [
        {
          "indexed": true,
          "internalType": "address",
          "name": "operator",
          "type": "address"
        },
        {
          "indexed": true,
          "internalType": "address",
          "name": "from",
          "type": "address"
        },
        {
          "indexed": true,
          "internalType": "address",
          "name": "to",
          "type": "address"
        },
        {
          "indexed": false,
          "internalType": "uint256[]",
          "name": "ids",
          "type": "uint256[]"
        },
        {
          "indexed": false,
          "internalType": "uint256[]",
          "name": "values",
          "type": "uint256[]"
        }
      ],
      "name": "TransferBatch",
      "type": "event"
    },
    {
      "anonymous": false,
      "inputs": [
        {
          "indexed": true,
          "internalType": "address",
          "name": "operator",
          "type": "address"
        },
        {
          "indexed": true,
          "internalType": "address",
          "name": "from",
          "type": "address"
        },
        {
          "indexed": true,
          "internalType": "address",
          "name": "to",
          "type": "address"
        },
        {
          "indexed": false,
          "internalType": "uint256",
          "name": "id",
          "type": "uint256"
        },
        {
          "indexed": false,
          "internalType": "uint256",
          "name": "value",
          "type": "uint256"
        }
      ],
      "name": "TransferSingle",
      "type": "event"
    },
    {
      "anonymous": false,
      "inputs": [
        {
          "indexed": false,
          "internalType": "string",
          "name": "value",
          "type": "string"
        },
        {
          "indexed": true,
          "internalType": "uint256",
          "name": "id",
          "type": "uint256"
        }
      ],
      "name": "URI",
      "type": "event"
    },
    {
      "inputs": [
        {
          "internalType": "uint256",
          "name": "",
          "type": "uint256"
        }
      ],
      "name": "assets",
      "outputs": [
        {
          "internalType": "uint256",
          "name": "lootBoxId",
          "type": "uint256"
        },
        {
          "internalType": "uint256",
          "name": "id",
          "type": "uint256"
        },
        {
          "components": [
            {
              "internalType": "bytes[]",
              "name": "sources",
              "type": "bytes[]"
            },
            {
              "internalType": "uint256[]",
              "name": "constants",
              "type": "uint256[]"
            }
          ],
          "internalType": "struct StateConfig",
          "name": "vmStateConfig",
          "type": "tuple"
        },
        {
          "internalType": "address",
          "name": "vmStatePointer",
          "type": "address"
        },
        {
          "internalType": "address",
          "name": "recipient",
          "type": "address"
        },
        {
          "internalType": "string",
          "name": "tokenURI",
          "type": "string"
        }
      ],
      "stateMutability": "view",
      "type": "function"
    },
    {
      "inputs": [
        {
          "internalType": "address",
          "name": "account",
          "type": "address"
        },
        {
          "internalType": "uint256",
          "name": "id",
          "type": "uint256"
        }
      ],
      "name": "balanceOf",
      "outputs": [
        {
          "internalType": "uint256",
          "name": "",
          "type": "uint256"
        }
      ],
      "stateMutability": "view",
      "type": "function"
    },
    {
      "inputs": [
        {
          "internalType": "address[]",
          "name": "accounts",
          "type": "address[]"
        },
        {
          "internalType": "uint256[]",
          "name": "ids",
          "type": "uint256[]"
        }
      ],
      "name": "balanceOfBatch",
      "outputs": [
        {
          "internalType": "uint256[]",
          "name": "",
          "type": "uint256[]"
        }
      ],
      "stateMutability": "view",
      "type": "function"
    },
    {
      "inputs": [
        {
          "internalType": "uint256",
          "name": "assetId_",
          "type": "uint256"
        },
        {
          "internalType": "address",
          "name": "account_",
          "type": "address"
        }
      ],
      "name": "canMint",
      "outputs": [
        {
          "internalType": "bool",
          "name": "",
          "type": "bool"
        }
      ],
      "stateMutability": "view",
      "type": "function"
    },
    {
      "inputs": [
        {
          "components": [
            {
              "internalType": "string",
              "name": "name",
              "type": "string"
            },
            {
              "internalType": "string",
              "name": "description",
              "type": "string"
            },
            {
              "internalType": "uint256",
              "name": "lootBoxId",
              "type": "uint256"
            },
            {
              "components": [
                {
                  "internalType": "bytes[]",
                  "name": "sources",
                  "type": "bytes[]"
                },
                {
                  "internalType": "uint256[]",
                  "name": "constants",
                  "type": "uint256[]"
                }
              ],
              "internalType": "struct StateConfig",
              "name": "vmStateConfig",
              "type": "tuple"
            },
            {
              "internalType": "address[]",
              "name": "currencies",
              "type": "address[]"
            },
            {
              "internalType": "address",
              "name": "recipient",
              "type": "address"
            },
            {
              "internalType": "string",
              "name": "tokenURI",
              "type": "string"
            }
          ],
          "internalType": "struct AssetConfig",
          "name": "config_",
          "type": "tuple"
        }
      ],
      "name": "createNewAsset",
      "outputs": [],
      "stateMutability": "nonpayable",
      "type": "function"
    },
    {
      "inputs": [
        {
          "internalType": "uint256",
          "name": "id",
          "type": "uint256"
        }
      ],
      "name": "exists",
      "outputs": [
        {
          "internalType": "bool",
          "name": "",
          "type": "bool"
        }
      ],
      "stateMutability": "view",
      "type": "function"
    },
    {
      "inputs": [],
      "name": "fnPtrs",
      "outputs": [
        {
          "internalType": "bytes",
          "name": "",
          "type": "bytes"
        }
      ],
      "stateMutability": "pure",
      "type": "function"
    },
    {
      "inputs": [
        {
          "internalType": "uint256",
          "name": "assetId",
          "type": "uint256"
        },
        {
          "internalType": "address",
          "name": "paymentToken",
          "type": "address"
        },
        {
          "internalType": "uint256",
          "name": "units",
          "type": "uint256"
        }
      ],
      "name": "getAssetPrice",
      "outputs": [
        {
          "internalType": "uint256[]",
          "name": "",
          "type": "uint256[]"
        }
      ],
      "stateMutability": "view",
      "type": "function"
    },
    {
      "inputs": [
        {
          "internalType": "address",
          "name": "account",
          "type": "address"
        },
        {
          "internalType": "address",
          "name": "operator",
          "type": "address"
        }
      ],
      "name": "isApprovedForAll",
      "outputs": [
        {
          "internalType": "bool",
          "name": "",
          "type": "bool"
        }
      ],
      "stateMutability": "view",
      "type": "function"
    },
    {
      "inputs": [
        {
          "internalType": "uint256",
          "name": "assetId_",
          "type": "uint256"
        },
        {
          "internalType": "uint256",
          "name": "units_",
          "type": "uint256"
        }
      ],
      "name": "mintAssets",
      "outputs": [],
      "stateMutability": "nonpayable",
      "type": "function"
    },
    {
      "inputs": [
        {
          "internalType": "address",
          "name": "from",
          "type": "address"
        },
        {
          "internalType": "address",
          "name": "to",
          "type": "address"
        },
        {
          "internalType": "uint256[]",
          "name": "ids",
          "type": "uint256[]"
        },
        {
          "internalType": "uint256[]",
          "name": "amounts",
          "type": "uint256[]"
        },
        {
          "internalType": "bytes",
          "name": "data",
          "type": "bytes"
        }
      ],
      "name": "safeBatchTransferFrom",
      "outputs": [],
      "stateMutability": "nonpayable",
      "type": "function"
    },
    {
      "inputs": [
        {
          "internalType": "address",
          "name": "from",
          "type": "address"
        },
        {
          "internalType": "address",
          "name": "to",
          "type": "address"
        },
        {
          "internalType": "uint256",
          "name": "id",
          "type": "uint256"
        },
        {
          "internalType": "uint256",
          "name": "amount",
          "type": "uint256"
        },
        {
          "internalType": "bytes",
          "name": "data",
          "type": "bytes"
        }
      ],
      "name": "safeTransferFrom",
      "outputs": [],
      "stateMutability": "nonpayable",
      "type": "function"
    },
    {
      "inputs": [
        {
          "internalType": "address",
          "name": "operator",
          "type": "address"
        },
        {
          "internalType": "bool",
          "name": "approved",
          "type": "bool"
        }
      ],
      "name": "setApprovalForAll",
      "outputs": [],
      "stateMutability": "nonpayable",
      "type": "function"
    },
    {
      "inputs": [],
      "name": "storageOpcodesRange",
      "outputs": [
        {
          "components": [
            {
              "internalType": "uint256",
              "name": "pointer",
              "type": "uint256"
            },
            {
              "internalType": "uint256",
              "name": "length",
              "type": "uint256"
            }
          ],
          "internalType": "struct StorageOpcodesRange",
          "name": "",
          "type": "tuple"
        }
      ],
      "stateMutability": "pure",
      "type": "function"
    },
    {
      "inputs": [
        {
          "internalType": "bytes4",
          "name": "interfaceId",
          "type": "bytes4"
        }
      ],
      "name": "supportsInterface",
      "outputs": [
        {
          "internalType": "bool",
          "name": "",
          "type": "bool"
        }
      ],
      "stateMutability": "view",
      "type": "function"
    },
    {
      "inputs": [],
      "name": "totalAssets",
      "outputs": [
        {
          "internalType": "uint256",
          "name": "",
          "type": "uint256"
        }
      ],
      "stateMutability": "view",
      "type": "function"
    },
    {
      "inputs": [
        {
          "internalType": "uint256",
          "name": "id",
          "type": "uint256"
        }
      ],
      "name": "totalSupply",
      "outputs": [
        {
          "internalType": "uint256",
          "name": "",
          "type": "uint256"
        }
      ],
      "stateMutability": "view",
      "type": "function"
    },
    {
      "inputs": [
        {
          "internalType": "uint256",
          "name": "_tokenId",
          "type": "uint256"
        }
      ],
      "name": "uri",
      "outputs": [
        {
          "internalType": "string",
          "name": "",
          "type": "string"
        }
      ],
      "stateMutability": "view",
      "type": "function"
    }
  ],
  "bytecode": "0x60c06040523480156200001157600080fd5b5060405162004cc938038062004cc9833981016040819052620000349162000165565b6040805160208101909152600081526200004e81620000a6565b503060805280516001600160a01b0390811660a05260408051338152835190921660208301527f44788c2de8ef11f7319be42eeb662b7294d2ddd71cad90e02f888701a34fa828910160405180910390a1506200020a565b8051620000bb906002906020840190620000bf565b5050565b828054620000cd90620001cd565b90600052602060002090601f016020900481019282620000f157600085556200013c565b82601f106200010c57805160ff19168380011785556200013c565b828001600101855582156200013c579182015b828111156200013c5782518255916020019190600101906200011f565b506200014a9291506200014e565b5090565b5b808211156200014a57600081556001016200014f565b6000602082840312156200017857600080fd5b604051602081016001600160401b0381118282101715620001a957634e487b7160e01b600052604160045260246000fd5b60405282516001600160a01b0381168114620001c457600080fd5b81529392505050565b600181811c90821680620001e257607f821691505b602082108114156200020457634e487b7160e01b600052602260045260246000fd5b50919050565b60805160a051614a9962000230600039600061084b015260006108780152614a996000f3fe608060405234801561001057600080fd5b50600436106100f55760003560e01c80638f4e76b9116100925780638f4e76b9146101e9578063a22cb465146101fc578063bd85b0391461020f578063cf35bdd01461022f578063d304024114610254578063e0419ae314610267578063e985e9c51461029f578063f242432a146102db578063f2cd6c08146102ee57600080fd5b8062fdd58e146100fa57806301e1d1141461012057806301ffc9a7146101295780630e89341c1461014c5780632eb2c2d61461016c5780634be187a7146101815780634e1273f4146101945780634f558e79146101b457806372509dcb146101d6575b600080fd5b61010d6101083660046136c7565b610496565b6040519081526020015b60405180910390f35b61010d60045481565b61013c610137366004613709565b610530565b6040519015158152602001610117565b61015f61015a366004613726565b610580565b604051610117919061379b565b61017f61017a366004613954565b610672565b005b61017f61018f366004613b60565b610709565b6101a76101a2366004613c77565b610a6d565b6040516101179190613d15565b61013c6101c2366004613726565b600090815260036020526040902054151590565b6101a76101e4366004613d28565b610b96565b61013c6101f7366004613d60565b610e1c565b61017f61020a366004613d9e565b610e98565b61010d61021d366004613726565b60009081526003602052604090205490565b61024261023d366004613726565b610ea7565b60405161011796959493929190613e58565b61017f610262366004613ead565b6110aa565b604080518082018252600080825260209182018190528251808401845281815282018181528351918252519181019190915201610117565b61013c6102ad366004613ecf565b6001600160a01b03918216600090815260016020908152604080832093909416825291909152205460ff1690565b61017f6102e9366004613efd565b61140b565b604080516105e081018252600060208201819052918101829052606081018290526080810182905260a0810182905260c08101919091526124f560e082018190526125876101008301526126066101208301526126a76101408301526101608201526126ee6101808201526127876101a08201526127db6101c08201526129746101e082015261297f61020082015261298a6102208201526129956102408201526129a06102608201526129b66102808201526129e06102a0820152612a0a6102c0820152612a206102e0820152612a36610300820152612a6b610320820152612a8a610340820152612aa4610360820152612acd610380820152612ae86103a0820152612af76103c0820152612b126103e0820152612b5f610400820152612b9e610420820152612bdc610440820152612c15610460820152612c49610480820152612c7b6104a0820152612cad6104c0820152612cdf6104e0820152612d13610500820152612d65610520820152612d9e610540820152612dee610560820152612e9b610580820152612ebb6105a0820152612f746105c080830191909152815261015f565b60006001600160a01b0383166105075760405162461bcd60e51b815260206004820152602b60248201527f455243313135353a2062616c616e636520717565727920666f7220746865207a60448201526a65726f206164647265737360a81b60648201526084015b60405180910390fd5b506000818152602081815260408083206001600160a01b03861684529091529020545b92915050565b60006001600160e01b03198216636cdb3d1360e11b148061056157506001600160e01b031982166303a24d0760e21b145b8061052a57506301ffc9a760e01b6001600160e01b031983161461052a565b6000818152600360205260409020546060906105d15760405162461bcd60e51b815260206004820152601060248201526f24b73b30b634b2102a37b5b2b724b21760811b60448201526064016104fe565b600082815260066020526040902060070180546105ed90613f65565b80601f016020809104026020016040519081016040528092919081815260200182805461061990613f65565b80156106665780601f1061063b57610100808354040283529160200191610666565b820191906000526020600020905b81548152906001019060200180831161064957829003601f168201915b50505050509050919050565b6001600160a01b03851633148061068e575061068e85336102ad565b6106f55760405162461bcd60e51b815260206004820152603260248201527f455243313135353a207472616e736665722063616c6c6572206973206e6f74206044820152711bdddb995c881b9bdc88185c1c1c9bdd995960721b60648201526084016104fe565b6107028585858585611492565b5050505050565b600454610717906001613fb0565b60045561072261345e565b6000815261072e61345e565b6001815260408051600280825260608201909252600091816020015b61075261345e565b81526020019060019003908161074a579050509050828160008151811061077b5761077b613fc8565b6020026020010181905250818160018151811061079a5761079a613fc8565b602002602001018190525060005b84608001515181101561082c576107c0816001613fb0565b6005600060045481526020019081526020016000206000876080015184815181106107ed576107ed613fc8565b60200260200101516001600160a01b03166001600160a01b0316815260200190815260200160002081905550808061082490613fde565b9150506107a8565b50606084015160405162b9bb5760e51b81526000916001600160a01b037f000000000000000000000000000000000000000000000000000000000000000016916317376ae0916108a3917f000000000000000000000000000000000000000000000000000000000000000091908790600401613ff9565b6000604051808303816000875af11580156108c2573d6000803e3d6000fd5b505050506040513d6000823e601f3d908101601f191682016040526108ea91908101906140a0565b90506040518060e0016040528086604001518152602001600454815260200186608001518152602001866060015181526020016109268361167d565b6001600160a01b03908116825260a08801511660208083019190915260c08801516040928301526004546000908152600682528290208351815583820151600182015591830151805161097f926002850192019061349b565b50606082015180518051600384019161099d91839160200190613500565b5060208281015180516109b69260018501920190613559565b50505060808201516005820180546001600160a01b039283166001600160a01b03199182161790915560a084015160068401805491909316911617905560c08201518051610a0e916007840191602090910190613594565b50506004546000818152600660209081526040918290208951918a015192517f69f86bdee2d29424ac2125f6c9f3abfef3cd9ab64c29b7026cd56fd98c5a69cb9550610a5e9493919291906142ab565b60405180910390a15050505050565b60608151835114610ad25760405162461bcd60e51b815260206004820152602960248201527f455243313135353a206163636f756e747320616e6420696473206c656e677468604482015268040dad2e6dac2e8c6d60bb1b60648201526084016104fe565b600083516001600160401b03811115610aed57610aed6137ae565b604051908082528060200260200182016040528015610b16578160200160208202803683370190505b50905060005b8451811015610b8e57610b61858281518110610b3a57610b3a613fc8565b6020026020010151858381518110610b5457610b54613fc8565b6020026020010151610496565b828281518110610b7357610b73613fc8565b6020908102919091010152610b8781613fde565b9050610b1c565b509392505050565b60606000610ba3856116e2565b9050610bc060405180602001604052806000815250826001611717565b506020810151600080610bd38888611999565b905060005b610be3600183614377565b811015610c5257838381518110610bfc57610bfc613fc8565b602002602001015160001415610c1757826002019250610c40565b838381518110610c2957610c29613fc8565b602002602001015160011415610c40578260030192505b80610c4a81613fde565b915050610bd8565b506040805160038082526080820190925260009160208201606080368337019050509050838381518110610c8857610c88613fc8565b602002602001015160001415610d2357838381518110610caa57610caa613fc8565b602002602001015181600081518110610cc557610cc5613fc8565b60209081029190910101528684610cdd856001613fb0565b81518110610ced57610ced613fc8565b6020026020010151610cff919061438e565b81600181518110610d1257610d12613fc8565b602002602001018181525050610e0e565b838381518110610d3557610d35613fc8565b602002602001015160011415610e0e57838381518110610d5757610d57613fc8565b602002602001015181600081518110610d7257610d72613fc8565b602090810291909101015283610d89846001613fb0565b81518110610d9957610d99613fc8565b602002602001015181600181518110610db457610db4613fc8565b60209081029190910101528684610dcc856002613fb0565b81518110610ddc57610ddc613fc8565b6020026020010151610dee919061438e565b81600281518110610e0157610e01613fc8565b6020026020010181815250505b9450505050505b9392505050565b6040805160208082528183019092526000918291906020820181803683370190505090508260208201526000610e51856116e2565b9050610e5f82826000611717565b5060208101518151610e7390600190614377565b81518110610e8357610e83613fc8565b60200260200101516001149250505092915050565b610ea3338383611a01565b5050565b600660209081526000918252604080832080546001820154835160038401805460609781028301880187529582018681529397929694959194909385939092859290919085015b82821015610f9a578382906000526020600020018054610f0d90613f65565b80601f0160208091040260200160405190810160405280929190818152602001828054610f3990613f65565b8015610f865780601f10610f5b57610100808354040283529160200191610f86565b820191906000526020600020905b815481529060010190602001808311610f6957829003601f168201915b505050505081526020019060010190610eee565b50505050815260200160018201805480602002602001604051908101604052809291908181526020018280548015610ff157602002820191906000526020600020905b815481526020019060010190808311610fdd575b505050919092525050506005820154600683015460078401805493946001600160a01b0393841694939092169261102790613f65565b80601f016020809104026020016040519081016040528092919081815260200182805461105390613f65565b80156110a05780601f10611075576101008083540402835291602001916110a0565b820191906000526020600020905b81548152906001019060200180831161108357829003601f168201915b5050505050905086565b6004548211156110ee5760405162461bcd60e51b815260206004820152600f60248201526e125b9d985b1a5908105cdcd95d1259608a1b60448201526064016104fe565b6110f88233610e1c565b6111305760405162461bcd60e51b815260206004820152600960248201526810d85b9d08135a5b9d60ba1b60448201526064016104fe565b60005b6000838152600660205260409020600201548110156113ef57600083815260066020526040812060020180546111909186918590811061117557611175613fc8565b6000918252602090912001546001600160a01b031685610b96565b9050806000815181106111a5576111a5613fc8565b6020026020010151600014156112ab5760008481526006602052604090206002018054839081106111d8576111d8613fc8565b60009182526020808320909101548683526006918290526040909220015482516001600160a01b03928316926323b872dd9233929116908590600190811061122257611222613fc8565b60209081029190910101516040516001600160e01b031960e086901b1681526001600160a01b03938416600482015292909116602483015260448201526064016020604051808303816000875af1158015611281573d6000803e3d6000fd5b505050506040513d601f19601f820116820180604052508101906112a591906143ad565b506113dc565b806000815181106112be576112be613fc8565b6020026020010151600114156113dc5760008481526006602052604090206002018054839081106112f1576112f1613fc8565b60009182526020808320909101548683526006918290526040909220015482516001600160a01b039283169263f242432a9233929116908590600190811061133b5761133b613fc8565b60200260200101518560028151811061135657611356613fc8565b60209081029190910101516040516001600160e01b031960e087901b1681526001600160a01b0394851660048201529390921660248401526044830152606482015260a06084820152600060a482015260c401600060405180830381600087803b1580156113c357600080fd5b505af11580156113d7573d6000803e3d6000fd5b505050505b506113e8816001613fb0565b9050611133565b50610ea333838360405180602001604052806000815250611ae2565b6001600160a01b038516331480611427575061142785336102ad565b6114855760405162461bcd60e51b815260206004820152602960248201527f455243313135353a2063616c6c6572206973206e6f74206f776e6572206e6f7260448201526808185c1c1c9bdd995960ba1b60648201526084016104fe565b6107028585858585611c05565b81518351146114f45760405162461bcd60e51b815260206004820152602860248201527f455243313135353a2069647320616e6420616d6f756e7473206c656e677468206044820152670dad2e6dac2e8c6d60c31b60648201526084016104fe565b6001600160a01b03841661151a5760405162461bcd60e51b81526004016104fe906143ca565b33611529818787878787611d3d565b60005b845181101561160f57600085828151811061154957611549613fc8565b60200260200101519050600085838151811061156757611567613fc8565b602090810291909101810151600084815280835260408082206001600160a01b038e1683529093529190912054909150818110156115b75760405162461bcd60e51b81526004016104fe9061440f565b6000838152602081815260408083206001600160a01b038e8116855292528083208585039055908b168252812080548492906115f4908490613fb0565b925050819055505050508061160890613fde565b905061152c565b50846001600160a01b0316866001600160a01b0316826001600160a01b03167f4a39dc06d4c0dbc64b70af90fd698a233a518aa5d07e595d983b8c0526c8f7fb878760405161165f929190614459565b60405180910390a4611675818787878787611eb6565b505050505050565b6000806116a883604051602001611694919061447e565b604051602081830303815290604052612012565b90508051602082016000f091506001600160a01b0382166116dc5760405163046a55db60e11b815260040160405180910390fd5b50919050565b6116ea613607565b60008281526006602052604090206005015461052a90611712906001600160a01b031661203e565b61204e565b60208281015183516040850151848402018301518051606087015160a088015160009687968796879695948301938284019391820290920101906002015b84891015611981576003890198508886015180601f1a975061ffff8160081c169850506006881015611922578761179a57866020028401518252602082019150611935565b60018814156117b757602087028301518252602082019150611935565b600288141561181b578c5187602002106118045760405162461bcd60e51b815260206004820152600e60248201526d0869e9ca88ab0a8be988a9c8ea8960931b60448201526064016104fe565b866020026020018d01518252602082019150611935565b60038814156118635760006118516040805180820182526000808252602091820181905282518084019093528083529082015290565b51880154835250602090910190611935565b600488141561187f576118788d8d848a612164565b9150611935565b6060876118ad578c60405160200161189791906144a4565b604051602081830303815290604052905061190c565b60018814156118c6576118bf8d6122a8565b905061190c565b60028814156118e2576020808e0151604051611897920161451d565b600388141561190c578c516040805160208101929092520160405160208183030381529060405290505b80511561191c5761191c816123a9565b50611935565b87611931888463ffffffff8416565b9250505b60208c0151518c51111561197c5760405162461bcd60e51b815260206004820152600e60248201526d535441434b5f4f564552464c4f5760901b60448201526064016104fe565b611755565b602083830304909b529b9a5050505050505050505050565b60008281526005602090815260408083206001600160a01b03851684529091529020548061052a5760405162461bcd60e51b815260206004820152601560248201527424b73b30b634b2103830bcb6b2b73a103a37b5b2b760591b60448201526064016104fe565b816001600160a01b0316836001600160a01b03161415611a755760405162461bcd60e51b815260206004820152602960248201527f455243313135353a2073657474696e6720617070726f76616c20737461747573604482015268103337b91039b2b63360b91b60648201526084016104fe565b6001600160a01b03838116600081815260016020908152604080832094871680845294825291829020805460ff191686151590811790915591519182527f17307eab39ab6107e8899845ad3d59bd9653f200f220920489ca2b5937696c31910160405180910390a3505050565b6001600160a01b038416611b425760405162461bcd60e51b815260206004820152602160248201527f455243313135353a206d696e7420746f20746865207a65726f206164647265736044820152607360f81b60648201526084016104fe565b336000611b4e856123ef565b90506000611b5b856123ef565b9050611b6c83600089858589611d3d565b6000868152602081815260408083206001600160a01b038b16845290915281208054879290611b9c908490613fb0565b909155505060408051878152602081018790526001600160a01b03808a1692600092918716917fc3d58168c5ae7397731d063d5bbf3d657854427343f4c083240f7aacaa2d0f62910160405180910390a4611bfc8360008989898961243a565b50505050505050565b6001600160a01b038416611c2b5760405162461bcd60e51b81526004016104fe906143ca565b336000611c37856123ef565b90506000611c44856123ef565b9050611c54838989858589611d3d565b6000868152602081815260408083206001600160a01b038c16845290915290205485811015611c955760405162461bcd60e51b81526004016104fe9061440f565b6000878152602081815260408083206001600160a01b038d8116855292528083208985039055908a16825281208054889290611cd2908490613fb0565b909155505060408051888152602081018890526001600160a01b03808b16928c821692918816917fc3d58168c5ae7397731d063d5bbf3d657854427343f4c083240f7aacaa2d0f62910160405180910390a4611d32848a8a8a8a8a61243a565b505050505050505050565b6001600160a01b038516611dc45760005b8351811015611dc257828181518110611d6957611d69613fc8565b602002602001015160036000868481518110611d8757611d87613fc8565b602002602001015181526020019081526020016000206000828254611dac9190613fb0565b90915550611dbb905081613fde565b9050611d4e565b505b6001600160a01b0384166116755760005b8351811015611bfc576000848281518110611df257611df2613fc8565b602002602001015190506000848381518110611e1057611e10613fc8565b6020026020010151905060006003600084815260200190815260200160002054905081811015611e935760405162461bcd60e51b815260206004820152602860248201527f455243313135353a206275726e20616d6f756e74206578636565647320746f74604482015267616c537570706c7960c01b60648201526084016104fe565b60009283526003602052604090922091039055611eaf81613fde565b9050611dd5565b6001600160a01b0384163b156116755760405163bc197c8160e01b81526001600160a01b0385169063bc197c8190611efa9089908990889088908890600401614569565b6020604051808303816000875af1925050508015611f35575060408051601f3d908101601f19168201909252611f32918101906145c7565b60015b611fe257611f416145e4565b806308c379a01415611f7b5750611f56614600565b80611f615750611f7d565b8060405162461bcd60e51b81526004016104fe919061379b565b505b60405162461bcd60e51b815260206004820152603460248201527f455243313135353a207472616e7366657220746f206e6f6e20455243313135356044820152732932b1b2b4bb32b91034b6b83632b6b2b73a32b960611b60648201526084016104fe565b6001600160e01b0319811663bc197c8160e01b14611bfc5760405162461bcd60e51b81526004016104fe90614689565b60608151826040516020016120289291906146d1565b6040516020818303038152906040529050919050565b606061052a826001600019612fb4565b612056613607565b61205e613607565b60208301805160ff8082168352606084019290925290600882901c166001600160401b03811115612091576120916137ae565b6040519080825280602002602001820160405280156120ba578160200160208202803683370190505b50602083015260ff601082901c81166080840152601882901c1660606000826001600160401b038111156120f0576120f06137ae565b604051908082528060200260200182016040528015612119578160200160208202803683370190505b5090506020870151602002604001870160005b8481101561215357816020820260200184015281516020018201915060018101905061212c565b505060408501525091949350505050565b600060078216600383811c16828082612185575060001990506101006121c6565b82600114156121a057506001600160801b03905060806121c6565b82600214156121bb57506001600160401b03905060406121c6565b5063ffffffff905060205b6001600587901c016000816001600160401b038111156121e8576121e86137ae565b604051908082528060200260200182016040528015612211578160200160208202803683370190505b50905060208082019083028a03815b8b821015612238578151815260209182019101612220565b505060608b015160808c015160209081029091010160005b6101008110156122965760208502830182845b8281101561227f578051841c8a16825260209182019101612263565b50505061228d8e8e8b611717565b9b508501612250565b50999c9b505050505050505050505050565b606060008260600151905060006018846040015151901b60108560800151901b6008866020015151901b866060015151171717905060008160001b836040516020016122f4919061451d565b60408051601f19818403018152908290526123129291602001614722565b604051602081830303815290604052905060005b8560400151518110156123a057818660400151828151811061234a5761234a613fc8565b60200260200101515160001b8760400151838151811061236c5761236c613fc8565b602002602001015160405160200161238693929190614748565b60408051601f198184030181529190529150600101612326565b50949350505050565b6123ec816040516024016123bd919061379b565b60408051601f198184030181529190526020810180516001600160e01b03166305f3bfab60e11b179052613065565b50565b6040805160018082528183019092526060916000919060208083019080368337019050509050828160008151811061242957612429613fc8565b602090810291909101015292915050565b6001600160a01b0384163b156116755760405163f23a6e6160e01b81526001600160a01b0385169063f23a6e619061247e908990899088908890889060040161477f565b6020604051808303816000875af19250505080156124b9575060408051601f3d908101601f191682019092526124b6918101906145c7565b60015b6124c557611f416145e4565b6001600160e01b0319811663f23a6e6160e01b14611bfc5760405162461bcd60e51b81526004016104fe90614689565b603f1981018051601f1990920180516040516370a0823160e01b81526001600160a01b03808316600483015292946000949390929185918416906370a08231906024015b602060405180830381865afa158015612556573d6000803e3d6000fd5b505050506040513d601f19601f8201168201806040525081019061257a91906147b9565b9093525092949350505050565b6000806000602084039150815190506000816001600160a01b03166318160ddd6040518163ffffffff1660e01b8152600401602060405180830381865afa1580156125d6573d6000803e3d6000fd5b505050506040513d601f19601f820116820180604052508101906125fa91906147b9565b90925250919392505050565b605f1981018051603f1983018051601f199094015160405163277166bf60e11b81526001600160a01b03808716600483015260248201839052929560009594939092918691851690634ee2cd7e906044015b602060405180830381865afa158015612675573d6000803e3d6000fd5b505050506040513d601f19601f8201168201806040525081019061269991906147b9565b909452509395945050505050565b603f1981018051601f199092018051604051630981b24d60e41b81526004810182905291936000939290919084906001600160a01b0384169063981b24d090602401612539565b603f1981018051601f1990920180516040516331a9108f60e11b81526004810182905291936000939290919084906001600160a01b03841690636352211e90602401602060405180830381865afa15801561274d573d6000803e3d6000fd5b505050506040513d601f19601f8201168201806040525081019061277191906147d2565b6001600160a01b03169093525092949350505050565b605f1981018051603f1983018051601f1990940151604051627eeac760e11b81526001600160a01b0380871660048301526024820183905292956000959493909291869185169062fdd58e90604401612658565b6000806000846001600160401b038111156127f8576127f86137ae565b604051908082528060200260200182016040528015612821578160200160208202803683370190505b5090506000856001600160401b0381111561283e5761283e6137ae565b604051908082528060200260200182016040528015612867578160200160208202803683370190505b50604087028603601f1981018051909550919250602080890282019085015b8183101561289e578251815260209283019201612886565b5050602088028101602084015b818310156128c35782518152602092830192016128ab565b50506040516313849cfd60e21b8152600091506001600160a01b03831690634e1273f4906128f790879087906004016147ef565b600060405180830381865afa158015612914573d6000803e3d6000fd5b505050506040513d6000823e601f3d908101601f1916820160405261293c9190810190614845565b9050846020820160208a0281015b8082101561296557815183526020928301929091019061294a565b50909998505050505050505050565b438152602001919050565b338152602001919050565b308152602001919050565b428152602001919050565b601f198101805160009190826125fa8287613086565b603f1981018051601f1990920180519092600092918361257a826129da858a613086565b906130e9565b603f1981018051601f1990920180519092600092918361257a82612a04858a613086565b90613108565b601f198101805160009190826125fa828761311d565b601f198101805160009190826125fa8287613168565b6000602083028203805b83811015612a605780518015612a57578252612a60565b50602001612a40565b506020019392505050565b605f1981018051156020028201603f1990810151909152018092915050565b601f1981018051603f199092018051909214909152919050565b6000602083028203805b83811015612a60578051612ac55760008252612a60565b602001612aae565b601f1981018051603f19909201805192909211909152919050565b601f1981018051159052919050565b601f1981018051603f19909201805192909210909152919050565b6020828102820380516000928201835b8582108015612b32575060001983105b15612b5157508051602090910190612b4a83826131a8565b9250612b22565b505081526020019392505050565b6020828102820380516000928201835b8582108015612b7f575060001983105b15612b5157508051602090910190612b9783826131c6565b9250612b6f565b6020828102820380516000928201835b8582108015612bbd5750826000105b15612b5157508051602090910190612bd583826131f5565b9250612bae565b600060208302820380516000602083015b85811015612b515780518301915082821015612c0857600080fd5b9091508190602001612bed565b600060208302820380516000602083015b85811015612b51578051915081612c3c57600080fd5b9181900491602001612c26565b6020828102820380516000928201835b85821015612b5157508051602090910190612c7481846149b9565b9250612c59565b6020828102820380516000928201835b85821015612b515750805182811115612ca2578092505b602082019150612c8b565b6020828102820380516000928201835b85821015612b515750805182811015612cd4578092505b602082019150612cbd565b600060208302820380516000602083015b85811015612b51578051915081612d0657600080fd5b9181900691602001612cf0565b60006020830282038051600080602084015b86811015612d56578315612d4e578051925082840291508284830414612d4a57600080fd5b8193505b602001612d25565b50505081526020019392505050565b600060208302820380516000602083015b85811015612b515780518303915082821115612d9157600080fd5b9091508190602001612d76565b819003603f1981018051601f199092018051848252604051632235a18160e21b8152919360009392909190859085906001600160a01b038516906388d686049061265890869086906004016149c5565b819003605f1981018051603f19830151601f19909301805185825260405163caa0eb3b60e01b815291946000949392909190869086906001600160a01b0386169063caa0eb3b90612e47908790879087906004016149e9565b602060405180830381865afa158015612e64573d6000803e3d6000fd5b505050506040513d601f19601f82011682018060405250810190612e8891906147b9565b8652505060209093019695505050505050565b603f1981018051601f1990920180519092600092918361257a838361320b565b6000600783901c6003600585901c16601f85168380826001600160401b03811115612ee857612ee86137ae565b604051908082528060200260200182016040528015612f11578160200160208202803683370190505b509050600060206001850102880392506020840283018360005b82821015612f4d57815181602001860152602082019150602081019050612f2b565b50505190506000612f6083838989613262565b845250506020909101979650505050505050565b603f1981018051601f199092018051909260009291600f80871691600488901c9091169085612fa585858585613358565b90955250949695505050505050565b6060833b80612fd3575050604080516020810190915260008152610e15565b80841115612ff1575050604080516020810190915260008152610e15565b838310156130235760405163162544fd60e11b81526004810182905260248101859052604481018490526064016104fe565b8383038482036000828210613038578261303a565b815b60408051603f8301601f19168101909152818152955090508087602087018a3c505050509392505050565b80516a636f6e736f6c652e6c6f67602083016000808483855afa5050505050565b600080826012141561309b578391505061052a565b82601211156130c7575060128290036130b581600a6149b9565b6130bf908561438e565b91505061052a565b5060111982016130d881600a6149b9565b6130bf9085614a10565b5092915050565b6000816130fe670de0b6b3a76400008561438e565b610e159190614a10565b6000670de0b6b3a76400006130fe838561438e565b600081810b61312d57508161052a565b60008260000b13156131555761314482600a614a32565b61314e908461438e565b905061052a565b60ff6000839003166130d881600a6149b9565b600080601283141561317d578391505061052a565b8260121115613197575060128290036130d881600a6149b9565b5060111982016130b581600a6149b9565b60008282018381106131ba57806131be565b6000195b949350505050565b6000826131d55750600061052a565b828202828482816131e8576131e8614553565b0414156131ba57806131be565b6000818311613205576000610e15565b50900390565b60008060015b60088111610b8e57600061322586836133b4565b9050600061323386846133b4565b9050600061324183836131f5565b90506132518560018603836133f9565b945050600190920191506132119050565b835160009081908190819060015b6008811161334a5760009250828761328b575060001961328f565b5060005b60005b83811015613326576132bd8c82815181106132af576132af613fc8565b6020026020010151846133b4565b95508a861161330f57886132dc576132d58683613438565b9150613306565b60018914156132ef576132d5868361344e565b6002891480156132fd575084155b15613306578591505b6001945061331e565b8961331e576000199150613326565b600101613292565b508361333157506000195b61333f8660018403836133f9565b955050600101613270565b509298975050505050505050565b600082600881111561337c5760405162461bcd60e51b81526004016104fe90614a41565b6000855b858110156133a85763ffffffff6020820290811b199890981685891b17979150600101613380565b50959695505050505050565b60008160088111156133d85760405162461bcd60e51b81526004016104fe90614a41565b826133e657600091506130e2565b5050600019016020021c63ffffffff1690565b600082600881111561341d5760405162461bcd60e51b81526004016104fe90614a41565b505063ffffffff602090920291821b199290921691901b1790565b60008183106134475781610e15565b5090919050565b6000818310156134475781610e15565b6040518060e00160405280600081526020016000815260200160008152602001600081526020016000815260200160008152602001600081525090565b8280548282559060005260206000209081019282156134f0579160200282015b828111156134f057825182546001600160a01b0319166001600160a01b039091161782556020909201916001909101906134bb565b506134fc929150613636565b5090565b82805482825590600052602060002090810192821561354d579160200282015b8281111561354d578251805161353d918491602090910190613594565b5091602001919060010190613520565b506134fc92915061364b565b8280548282559060005260206000209081019282156134f0579160200282015b828111156134f0578251825591602001919060010190613579565b8280546135a090613f65565b90600052602060002090601f0160209004810192826135c257600085556134f0565b82601f106135db57805160ff19168380011785556134f0565b828001600101855582156134f057918201828111156134f0578251825591602001919060010190613579565b6040518060a0016040528060008152602001606081526020016060815260200160608152602001600081525090565b5b808211156134fc5760008155600101613637565b808211156134fc57600061365f8282613668565b5060010161364b565b50805461367490613f65565b6000825580601f10613684575050565b601f0160209004906000526020600020908101906123ec9190613636565b6001600160a01b03811681146123ec57600080fd5b80356136c2816136a2565b919050565b600080604083850312156136da57600080fd5b82356136e5816136a2565b946020939093013593505050565b6001600160e01b0319811681146123ec57600080fd5b60006020828403121561371b57600080fd5b8135610e15816136f3565b60006020828403121561373857600080fd5b5035919050565b60005b8381101561375a578181015183820152602001613742565b83811115613769576000848401525b50505050565b6000815180845261378781602086016020860161373f565b601f01601f19169290920160200192915050565b602081526000610e15602083018461376f565b634e487b7160e01b600052604160045260246000fd5b604081018181106001600160401b03821117156137e3576137e36137ae565b60405250565b601f8201601f191681016001600160401b038111828210171561380e5761380e6137ae565b6040525050565b60405160e081016001600160401b0381118282101715613837576138376137ae565b60405290565b60006001600160401b03821115613856576138566137ae565b5060051b60200190565b600082601f83011261387157600080fd5b8135602061387e8261383d565b60405161388b82826137e9565b83815260059390931b85018201928281019150868411156138ab57600080fd5b8286015b848110156138c657803583529183019183016138af565b509695505050505050565b60006001600160401b038211156138ea576138ea6137ae565b50601f01601f191660200190565b600082601f83011261390957600080fd5b8135613914816138d1565b60405161392182826137e9565b82815285602084870101111561393657600080fd5b82602086016020830137600092810160200192909252509392505050565b600080600080600060a0868803121561396c57600080fd5b8535613977816136a2565b94506020860135613987816136a2565b935060408601356001600160401b03808211156139a357600080fd5b6139af89838a01613860565b945060608801359150808211156139c557600080fd5b6139d189838a01613860565b935060808801359150808211156139e757600080fd5b506139f4888289016138f8565b9150509295509295909350565b600060408284031215613a1357600080fd5b604051613a1f816137c4565b80915082356001600160401b0380821115613a3957600080fd5b818501915085601f830112613a4d57600080fd5b81356020613a5a8261383d565b604051613a6782826137e9565b83815260059390931b8501820192828101915089841115613a8757600080fd5b8286015b84811015613abf57803586811115613aa35760008081fd5b613ab18c86838b01016138f8565b845250918301918301613a8b565b5086525086810135935082841115613ad657600080fd5b613ae288858901613860565b81860152505050505092915050565b600082601f830112613b0257600080fd5b81356020613b0f8261383d565b604051613b1c82826137e9565b83815260059390931b8501820192828101915086841115613b3c57600080fd5b8286015b848110156138c6578035613b53816136a2565b8352918301918301613b40565b600060208284031215613b7257600080fd5b81356001600160401b0380821115613b8957600080fd5b9083019060e08286031215613b9d57600080fd5b613ba5613815565b823582811115613bb457600080fd5b613bc0878286016138f8565b825250602083013582811115613bd557600080fd5b613be1878286016138f8565b60208301525060408301356040820152606083013582811115613c0357600080fd5b613c0f87828601613a01565b606083015250608083013582811115613c2757600080fd5b613c3387828601613af1565b608083015250613c4560a084016136b7565b60a082015260c083013582811115613c5c57600080fd5b613c68878286016138f8565b60c08301525095945050505050565b60008060408385031215613c8a57600080fd5b82356001600160401b0380821115613ca157600080fd5b613cad86838701613af1565b93506020850135915080821115613cc357600080fd5b50613cd085828601613860565b9150509250929050565b600081518084526020808501945080840160005b83811015613d0a57815187529582019590820190600101613cee565b509495945050505050565b602081526000610e156020830184613cda565b600080600060608486031215613d3d57600080fd5b833592506020840135613d4f816136a2565b929592945050506040919091013590565b60008060408385031215613d7357600080fd5b823591506020830135613d85816136a2565b809150509250929050565b80151581146123ec57600080fd5b60008060408385031215613db157600080fd5b8235613dbc816136a2565b91506020830135613d8581613d90565b600081518084526020808501808196508360051b8101915082860160005b85811015613e14578284038952613e0284835161376f565b98850198935090840190600101613dea565b5091979650505050505050565b6000815160408452613e366040850182613dcc565b905060208301518482036020860152613e4f8282613cda565b95945050505050565b86815285602082015260c060408201526000613e7760c0830187613e21565b6001600160a01b0386811660608501528516608084015282810360a0840152613ea0818561376f565b9998505050505050505050565b60008060408385031215613ec057600080fd5b50508035926020909101359150565b60008060408385031215613ee257600080fd5b8235613eed816136a2565b91506020830135613d85816136a2565b600080600080600060a08688031215613f1557600080fd5b8535613f20816136a2565b94506020860135613f30816136a2565b9350604086013592506060860135915060808601356001600160401b03811115613f5957600080fd5b6139f4888289016138f8565b600181811c90821680613f7957607f821691505b602082108114156116dc57634e487b7160e01b600052602260045260246000fd5b634e487b7160e01b600052601160045260246000fd5b60008219821115613fc357613fc3613f9a565b500190565b634e487b7160e01b600052603260045260246000fd5b6000600019821415613ff257613ff2613f9a565b5060010190565b6001600160a01b0384168152606060208083018290526000919061401f84830187613e21565b84810360408681019190915286518083528388019284019060005b81811015614090578451805184528681015187850152848101518585015287810151888501526080808201519085015260a0808201519085015260c090810151908401529385019360e09092019160010161403a565b50909a9950505050505050505050565b6000602082840312156140b257600080fd5b81516001600160401b038111156140c857600080fd5b8201601f810184136140d957600080fd5b80516140e4816138d1565b6040516140f182826137e9565b82815286602084860101111561410657600080fd5b61411783602083016020870161373f565b9695505050505050565b6000815480845260208085019450836000528060002060005b83811015613d0a5781546001600160a01b03168752958201956001918201910161413a565b8054600090600181811c908083168061417957607f831692505b602080841082141561419b57634e487b7160e01b600052602260045260246000fd5b8388528180156141b257600181146141c6576141f4565b60ff198616898301526040890196506141f4565b876000528160002060005b868110156141ec5781548b82018501529085019083016141d1565b8a0183019750505b50505050505092915050565b6000604083016040845280835480835260608601915060608160051b870101925060008581526020808220825b8481101561425a57898703605f19018652614248878361415f565b9650948201946001918201910161422d565b50508785038189015260018781018054808852908452828420969195509293508392908201905b8085101561429e5786548252958501959385019390820190614281565b5098975050505050505050565b8481526080602082015283546080820152600184015460a082015260e060c082015260006142e0610160830160028701614121565b607f19808483030160e08501526142fa8260038901614200565b915061431060058801546001600160a01b031690565b6001600160a01b0390811661010086015260068801541661012085015283820301610140840152614344816007880161415f565b90508281036040840152614358818661376f565b9050828103606084015261436c818561376f565b979650505050505050565b60008282101561438957614389613f9a565b500390565b60008160001904831182151516156143a8576143a8613f9a565b500290565b6000602082840312156143bf57600080fd5b8151610e1581613d90565b60208082526025908201527f455243313135353a207472616e7366657220746f20746865207a65726f206164604082015264647265737360d81b606082015260800190565b6020808252602a908201527f455243313135353a20696e73756666696369656e742062616c616e636520666f60408201526939103a3930b739b332b960b11b606082015260800190565b60408152600061446c6040830185613cda565b8281036020840152613e4f8185613cda565b600081526000825161449781600185016020870161373f565b9190910160010192915050565b60208152815160208201526000602083015160a060408401526144ca60c0840182613cda565b90506040840151601f19808584030160608601526144e88383613dcc565b92506060860151915080858403016080860152506145068282613cda565b915050608084015160a08401528091505092915050565b815160009082906020808601845b838110156145475781518552938201939082019060010161452b565b50929695505050505050565b634e487b7160e01b600052601260045260246000fd5b6001600160a01b0386811682528516602082015260a06040820181905260009061459590830186613cda565b82810360608401526145a78186613cda565b905082810360808401526145bb818561376f565b98975050505050505050565b6000602082840312156145d957600080fd5b8151610e15816136f3565b600060033d11156145fd5760046000803e5060005160e01c5b90565b600060443d101561460e5790565b6040516003193d81016004833e81513d6001600160401b03816024840111818411171561463d57505050505090565b82850191508151818111156146555750505050505090565b843d870101602082850101111561466f5750505050505090565b61467e602082860101876137e9565b509095945050505050565b60208082526028908201527f455243313135353a204552433131353552656365697665722072656a656374656040820152676420746f6b656e7360c01b606082015260800190565b606360f81b815260e083901b6001600160e01b03191660018201526880600e6000396000f360b81b6005820152815160009061471481600e85016020870161373f565b91909101600e019392505050565b8281526000825161473a81602085016020870161373f565b919091016020019392505050565b6000845161475a81846020890161373f565b8201848152835161477281602080850190880161373f565b0160200195945050505050565b6001600160a01b03868116825285166020820152604081018490526060810183905260a06080820181905260009061436c9083018461376f565b6000602082840312156147cb57600080fd5b5051919050565b6000602082840312156147e457600080fd5b8151610e15816136a2565b604080825283519082018190526000906020906060840190828701845b828110156148315781516001600160a01b03168452928401929084019060010161480c565b505050838103828501526141178186613cda565b6000602080838503121561485857600080fd5b82516001600160401b0381111561486e57600080fd5b8301601f8101851361487f57600080fd5b805161488a8161383d565b60405161489782826137e9565b82815260059290921b83018401918481019150878311156148b757600080fd5b928401925b8284101561436c578351825292840192908401906148bc565b600181815b808511156149105781600019048211156148f6576148f6613f9a565b8085161561490357918102915b93841c93908002906148da565b509250929050565b6000826149275750600161052a565b816149345750600061052a565b816001811461494a576002811461495457614970565b600191505061052a565b60ff84111561496557614965613f9a565b50506001821b61052a565b5060208310610133831016604e8410600b8410161715614993575081810a61052a565b61499d83836148d5565b80600019048211156149b1576149b1613f9a565b029392505050565b6000610e158383614918565b6001600160a01b03831681526040602082018190526000906131be90830184613cda565b60018060a01b0384168152826020820152606060408201526000613e4f6060830184613cda565b600082614a2d57634e487b7160e01b600052601260045260246000fd5b500490565b6000610e1560ff841683614918565b60208082526008908201526726a0ac2faa24a2a960c11b60408201526060019056fea2646970667358221220b0d564472d7cf62d58929152034ec344e7a006599ae7e5c472ad3c765f7638e364736f6c634300080a0033",
  "linkReferences": {},
  "deployedLinkReferences": {}
}