{
  "_format": "hh-sol-artifact-1",
  "contractName": "Rain1155",
  "sourceName": "contracts/Rain1155.sol",
  "abi": [
    {
      "inputs": [
        {
          "components": [
            {
              "internalType": "address",
              "name": "vmStateBuilder",
              "type": "address"
            }
          ],
          "internalType": "struct Rain1155Config",
          "name": "config_",
          "type": "tuple"
        }
      ],
      "stateMutability": "nonpayable",
      "type": "constructor"
    },
    {
      "inputs": [
        {
          "internalType": "uint256",
          "name": "_size",
          "type": "uint256"
        },
        {
          "internalType": "uint256",
          "name": "_start",
          "type": "uint256"
        },
        {
          "internalType": "uint256",
          "name": "_end",
          "type": "uint256"
        }
      ],
      "name": "InvalidCodeAtRange",
      "type": "error"
    },
    {
      "inputs": [],
      "name": "WriteError",
      "type": "error"
    },
    {
      "anonymous": false,
      "inputs": [
        {
          "indexed": true,
          "internalType": "address",
          "name": "account",
          "type": "address"
        },
        {
          "indexed": true,
          "internalType": "address",
          "name": "operator",
          "type": "address"
        },
        {
          "indexed": false,
          "internalType": "bool",
          "name": "approved",
          "type": "bool"
        }
      ],
      "name": "ApprovalForAll",
      "type": "event"
    },
    {
      "anonymous": false,
      "inputs": [
        {
          "indexed": false,
          "internalType": "uint256",
          "name": "assetId_",
          "type": "uint256"
        },
        {
          "components": [
            {
              "internalType": "uint256",
              "name": "lootBoxId",
              "type": "uint256"
            },
            {
              "internalType": "uint256",
              "name": "id",
              "type": "uint256"
            },
            {
              "components": [
                {
                  "internalType": "bytes[]",
                  "name": "sources",
                  "type": "bytes[]"
                },
                {
                  "internalType": "uint256[]",
                  "name": "constants",
                  "type": "uint256[]"
                }
              ],
              "internalType": "struct StateConfig",
              "name": "vmStateConfig",
              "type": "tuple"
            },
            {
              "internalType": "address",
              "name": "vmStatePointer",
              "type": "address"
            },
            {
              "components": [
                {
                  "internalType": "address[]",
                  "name": "token",
                  "type": "address[]"
                },
                {
                  "internalType": "uint256[]",
                  "name": "tokenId",
                  "type": "uint256[]"
                }
              ],
              "internalType": "struct CurrencyConfig",
              "name": "currencies",
              "type": "tuple"
            },
            {
              "internalType": "address",
              "name": "recipient",
              "type": "address"
            },
            {
              "internalType": "string",
              "name": "tokenURI",
              "type": "string"
            }
          ],
          "indexed": false,
          "internalType": "struct Rain1155.AssetDetails",
          "name": "asset_",
          "type": "tuple"
        },
        {
          "indexed": false,
          "internalType": "string",
          "name": "name_",
          "type": "string"
        },
        {
          "indexed": false,
          "internalType": "string",
          "name": "description_",
          "type": "string"
        }
      ],
      "name": "AssetCreated",
      "type": "event"
    },
    {
      "anonymous": false,
      "inputs": [
        {
          "indexed": false,
          "internalType": "address",
          "name": "deployer_",
          "type": "address"
        },
        {
          "components": [
            {
              "internalType": "address",
              "name": "vmStateBuilder",
              "type": "address"
            }
          ],
          "indexed": false,
          "internalType": "struct Rain1155Config",
          "name": "config_",
          "type": "tuple"
        }
      ],
      "name": "Initialize",
      "type": "event"
    },
    {
      "anonymous": false,
      "inputs": [
        {
          "indexed": true,
          "internalType": "address",
          "name": "operator",
          "type": "address"
        },
        {
          "indexed": true,
          "internalType": "address",
          "name": "from",
          "type": "address"
        },
        {
          "indexed": true,
          "internalType": "address",
          "name": "to",
          "type": "address"
        },
        {
          "indexed": false,
          "internalType": "uint256[]",
          "name": "ids",
          "type": "uint256[]"
        },
        {
          "indexed": false,
          "internalType": "uint256[]",
          "name": "values",
          "type": "uint256[]"
        }
      ],
      "name": "TransferBatch",
      "type": "event"
    },
    {
      "anonymous": false,
      "inputs": [
        {
          "indexed": true,
          "internalType": "address",
          "name": "operator",
          "type": "address"
        },
        {
          "indexed": true,
          "internalType": "address",
          "name": "from",
          "type": "address"
        },
        {
          "indexed": true,
          "internalType": "address",
          "name": "to",
          "type": "address"
        },
        {
          "indexed": false,
          "internalType": "uint256",
          "name": "id",
          "type": "uint256"
        },
        {
          "indexed": false,
          "internalType": "uint256",
          "name": "value",
          "type": "uint256"
        }
      ],
      "name": "TransferSingle",
      "type": "event"
    },
    {
      "anonymous": false,
      "inputs": [
        {
          "indexed": false,
          "internalType": "string",
          "name": "value",
          "type": "string"
        },
        {
          "indexed": true,
          "internalType": "uint256",
          "name": "id",
          "type": "uint256"
        }
      ],
      "name": "URI",
      "type": "event"
    },
    {
      "inputs": [
        {
          "internalType": "uint256",
          "name": "",
          "type": "uint256"
        }
      ],
      "name": "assets",
      "outputs": [
        {
          "internalType": "uint256",
          "name": "lootBoxId",
          "type": "uint256"
        },
        {
          "internalType": "uint256",
          "name": "id",
          "type": "uint256"
        },
        {
          "components": [
            {
              "internalType": "bytes[]",
              "name": "sources",
              "type": "bytes[]"
            },
            {
              "internalType": "uint256[]",
              "name": "constants",
              "type": "uint256[]"
            }
          ],
          "internalType": "struct StateConfig",
          "name": "vmStateConfig",
          "type": "tuple"
        },
        {
          "internalType": "address",
          "name": "vmStatePointer",
          "type": "address"
        },
        {
          "components": [
            {
              "internalType": "address[]",
              "name": "token",
              "type": "address[]"
            },
            {
              "internalType": "uint256[]",
              "name": "tokenId",
              "type": "uint256[]"
            }
          ],
          "internalType": "struct CurrencyConfig",
          "name": "currencies",
          "type": "tuple"
        },
        {
          "internalType": "address",
          "name": "recipient",
          "type": "address"
        },
        {
          "internalType": "string",
          "name": "tokenURI",
          "type": "string"
        }
      ],
      "stateMutability": "view",
      "type": "function"
    },
    {
      "inputs": [
        {
          "internalType": "address",
          "name": "account",
          "type": "address"
        },
        {
          "internalType": "uint256",
          "name": "id",
          "type": "uint256"
        }
      ],
      "name": "balanceOf",
      "outputs": [
        {
          "internalType": "uint256",
          "name": "",
          "type": "uint256"
        }
      ],
      "stateMutability": "view",
      "type": "function"
    },
    {
      "inputs": [
        {
          "internalType": "address[]",
          "name": "accounts",
          "type": "address[]"
        },
        {
          "internalType": "uint256[]",
          "name": "ids",
          "type": "uint256[]"
        }
      ],
      "name": "balanceOfBatch",
      "outputs": [
        {
          "internalType": "uint256[]",
          "name": "",
          "type": "uint256[]"
        }
      ],
      "stateMutability": "view",
      "type": "function"
    },
    {
      "inputs": [
        {
          "components": [
            {
              "internalType": "string",
              "name": "name",
              "type": "string"
            },
            {
              "internalType": "string",
              "name": "description",
              "type": "string"
            },
            {
              "internalType": "uint256",
              "name": "lootBoxId",
              "type": "uint256"
            },
            {
              "components": [
                {
                  "internalType": "bytes[]",
                  "name": "sources",
                  "type": "bytes[]"
                },
                {
                  "internalType": "uint256[]",
                  "name": "constants",
                  "type": "uint256[]"
                }
              ],
              "internalType": "struct StateConfig",
              "name": "vmStateConfig",
              "type": "tuple"
            },
            {
              "components": [
                {
                  "internalType": "address[]",
                  "name": "token",
                  "type": "address[]"
                },
                {
                  "internalType": "uint256[]",
                  "name": "tokenId",
                  "type": "uint256[]"
                }
              ],
              "internalType": "struct CurrencyConfig",
              "name": "currencies",
              "type": "tuple"
            },
            {
              "internalType": "address",
              "name": "recipient",
              "type": "address"
            },
            {
              "internalType": "string",
              "name": "tokenURI",
              "type": "string"
            }
          ],
          "internalType": "struct AssetConfig",
          "name": "config_",
          "type": "tuple"
        }
      ],
      "name": "createNewAsset",
      "outputs": [],
      "stateMutability": "nonpayable",
      "type": "function"
    },
    {
      "inputs": [
        {
          "internalType": "uint256",
          "name": "id",
          "type": "uint256"
        }
      ],
      "name": "exists",
      "outputs": [
        {
          "internalType": "bool",
          "name": "",
          "type": "bool"
        }
      ],
      "stateMutability": "view",
      "type": "function"
    },
    {
      "inputs": [],
      "name": "fnPtrs",
      "outputs": [
        {
          "internalType": "bytes",
          "name": "",
          "type": "bytes"
        }
      ],
      "stateMutability": "pure",
      "type": "function"
    },
    {
      "inputs": [
        {
          "internalType": "uint256",
          "name": "assetId_",
          "type": "uint256"
        },
        {
          "internalType": "address",
          "name": "account_",
          "type": "address"
        },
        {
          "internalType": "uint256",
          "name": "units_",
          "type": "uint256"
        }
      ],
      "name": "getAssetCost",
      "outputs": [
        {
          "internalType": "uint256",
          "name": "",
          "type": "uint256"
        },
        {
          "internalType": "uint256[]",
          "name": "",
          "type": "uint256[]"
        }
      ],
      "stateMutability": "view",
      "type": "function"
    },
    {
      "inputs": [
        {
          "internalType": "uint256",
          "name": "assetId_",
          "type": "uint256"
        },
        {
          "internalType": "address",
          "name": "account_",
          "type": "address"
        },
        {
          "internalType": "uint256",
          "name": "units_",
          "type": "uint256"
        }
      ],
      "name": "getAssetMaxUnits",
      "outputs": [
        {
          "internalType": "uint256",
          "name": "",
          "type": "uint256"
        }
      ],
      "stateMutability": "view",
      "type": "function"
    },
    {
      "inputs": [
        {
          "internalType": "uint256",
          "name": "assetId_",
          "type": "uint256"
        },
        {
          "internalType": "address",
          "name": "paymentToken_",
          "type": "address"
        },
        {
          "internalType": "address",
          "name": "account_",
          "type": "address"
        },
        {
          "internalType": "uint256",
          "name": "units_",
          "type": "uint256"
        }
      ],
      "name": "getCurrencyPrice",
      "outputs": [
        {
          "internalType": "uint256",
          "name": "",
          "type": "uint256"
        }
      ],
      "stateMutability": "view",
      "type": "function"
    },
    {
      "inputs": [
        {
          "internalType": "address",
          "name": "account",
          "type": "address"
        },
        {
          "internalType": "address",
          "name": "operator",
          "type": "address"
        }
      ],
      "name": "isApprovedForAll",
      "outputs": [
        {
          "internalType": "bool",
          "name": "",
          "type": "bool"
        }
      ],
      "stateMutability": "view",
      "type": "function"
    },
    {
      "inputs": [
        {
          "internalType": "uint256",
          "name": "assetId_",
          "type": "uint256"
        },
        {
          "internalType": "uint256",
          "name": "units_",
          "type": "uint256"
        }
      ],
      "name": "mintAssets",
      "outputs": [],
      "stateMutability": "nonpayable",
      "type": "function"
    },
    {
      "inputs": [
        {
          "internalType": "address",
          "name": "from",
          "type": "address"
        },
        {
          "internalType": "address",
          "name": "to",
          "type": "address"
        },
        {
          "internalType": "uint256[]",
          "name": "ids",
          "type": "uint256[]"
        },
        {
          "internalType": "uint256[]",
          "name": "amounts",
          "type": "uint256[]"
        },
        {
          "internalType": "bytes",
          "name": "data",
          "type": "bytes"
        }
      ],
      "name": "safeBatchTransferFrom",
      "outputs": [],
      "stateMutability": "nonpayable",
      "type": "function"
    },
    {
      "inputs": [
        {
          "internalType": "address",
          "name": "from",
          "type": "address"
        },
        {
          "internalType": "address",
          "name": "to",
          "type": "address"
        },
        {
          "internalType": "uint256",
          "name": "id",
          "type": "uint256"
        },
        {
          "internalType": "uint256",
          "name": "amount",
          "type": "uint256"
        },
        {
          "internalType": "bytes",
          "name": "data",
          "type": "bytes"
        }
      ],
      "name": "safeTransferFrom",
      "outputs": [],
      "stateMutability": "nonpayable",
      "type": "function"
    },
    {
      "inputs": [
        {
          "internalType": "address",
          "name": "operator",
          "type": "address"
        },
        {
          "internalType": "bool",
          "name": "approved",
          "type": "bool"
        }
      ],
      "name": "setApprovalForAll",
      "outputs": [],
      "stateMutability": "nonpayable",
      "type": "function"
    },
    {
      "inputs": [],
      "name": "storageOpcodesRange",
      "outputs": [
        {
          "components": [
            {
              "internalType": "uint256",
              "name": "pointer",
              "type": "uint256"
            },
            {
              "internalType": "uint256",
              "name": "length",
              "type": "uint256"
            }
          ],
          "internalType": "struct StorageOpcodesRange",
          "name": "",
          "type": "tuple"
        }
      ],
      "stateMutability": "pure",
      "type": "function"
    },
    {
      "inputs": [
        {
          "internalType": "bytes4",
          "name": "interfaceId",
          "type": "bytes4"
        }
      ],
      "name": "supportsInterface",
      "outputs": [
        {
          "internalType": "bool",
          "name": "",
          "type": "bool"
        }
      ],
      "stateMutability": "view",
      "type": "function"
    },
    {
      "inputs": [],
      "name": "totalAssets",
      "outputs": [
        {
          "internalType": "uint256",
          "name": "",
          "type": "uint256"
        }
      ],
      "stateMutability": "view",
      "type": "function"
    },
    {
      "inputs": [
        {
          "internalType": "uint256",
          "name": "id",
          "type": "uint256"
        }
      ],
      "name": "totalSupply",
      "outputs": [
        {
          "internalType": "uint256",
          "name": "",
          "type": "uint256"
        }
      ],
      "stateMutability": "view",
      "type": "function"
    },
    {
      "inputs": [
        {
          "internalType": "uint256",
          "name": "_tokenId",
          "type": "uint256"
        }
      ],
      "name": "uri",
      "outputs": [
        {
          "internalType": "string",
          "name": "",
          "type": "string"
        }
      ],
      "stateMutability": "view",
      "type": "function"
    }
  ],
  "bytecode": "0x60c06040523480156200001157600080fd5b506040516200500f3803806200500f833981016040819052620000349162000165565b6040805160208101909152600081526200004e81620000a6565b503060805280516001600160a01b0390811660a05260408051338152835190921660208301527f44788c2de8ef11f7319be42eeb662b7294d2ddd71cad90e02f888701a34fa828910160405180910390a1506200020a565b8051620000bb906002906020840190620000bf565b5050565b828054620000cd90620001cd565b90600052602060002090601f016020900481019282620000f157600085556200013c565b82601f106200010c57805160ff19168380011785556200013c565b828001600101855582156200013c579182015b828111156200013c5782518255916020019190600101906200011f565b506200014a9291506200014e565b5090565b5b808211156200014a57600081556001016200014f565b6000602082840312156200017857600080fd5b604051602081016001600160401b0381118282101715620001a957634e487b7160e01b600052604160045260246000fd5b60405282516001600160a01b0381168114620001c457600080fd5b81529392505050565b600181811c90821680620001e257607f821691505b602082108114156200020457634e487b7160e01b600052602260045260246000fd5b50919050565b60805160a051614ddf620002306000396000610b8001526000610bad0152614ddf6000f3fe608060405234801561001057600080fd5b50600436106101105760003560e01c8063959e70d3116100ad578063d304024111610071578063d304024114610291578063e0419ae3146102a4578063e985e9c5146102dc578063f242432a14610318578063f2cd6c081461032b57600080fd5b8063959e70d31461021257806396d17bdc14610225578063a22cb46514610238578063bd85b0391461024b578063cf35bdd01461026b57600080fd5b8062fdd58e1461011557806301e1d1141461013b57806301ffc9a71461014457806303906c90146101675780630e89341c146101885780632eb2c2d6146101a85780634e1273f4146101bd5780634f558e79146101dd5780637d9d3414146101ff575b600080fd5b61012861012336600461386b565b6104d3565b6040519081526020015b60405180910390f35b61012860045481565b6101576101523660046138ad565b61056c565b6040519015158152602001610132565b61017a6101753660046138ca565b6105bc565b60405161013292919061393d565b61019b610196366004613956565b6107bf565b60405161013291906139cb565b6101bb6101b6366004613b84565b6108b1565b005b6101d06101cb366004613ca0565b6108fd565b6040516101329190613d03565b6101576101eb366004613956565b600090815260036020526040902054151590565b6101bb61020d366004613e7a565b610a26565b6101286102203660046138ca565b610dec565b610128610233366004613f91565b610e06565b6101bb610246366004613fe7565b610e4b565b610128610259366004613956565b60009081526003602052604090205490565b61027e610279366004613956565b610e5a565b60405161013297969594939291906140e5565b6101bb61029f366004614174565b611127565b604080518082018252600080825260209182018190528251808401845281815282018181528351918252519181019190915201610132565b6101576102ea366004614196565b6001600160a01b03918216600090815260016020908152604080832093909416825291909152205460ff1690565b6101bb6103263660046141c4565b6114ac565b604080516105e081018252600060208201819052918101829052606081018290526080810182905260a0810182905260c081019190915261269660e082018190526127286101008301526127a761012083015261284861014083015261016082015261288f6101808201526129286101a082015261297c6101c0820152612b156101e0820152612b20610200820152612b2b610220820152612b36610240820152612b41610260820152612b57610280820152612b816102a0820152612bab6102c0820152612bc16102e0820152612bd7610300820152612c0c610320820152612c2b610340820152612c45610360820152612c6e610380820152612c896103a0820152612c986103c0820152612cb36103e0820152612d00610400820152612d3f610420820152612d7d610440820152612db6610460820152612dea610480820152612e1c6104a0820152612e4e6104c0820152612e806104e0820152612eb4610500820152612f06610520820152612f3f610540820152612f8f61056082015261303c61058082015261305c6105a08201526131156105c080830191909152815261019b565b60006001600160a01b0383166105435760405162461bcd60e51b815260206004820152602a60248201527f455243313135353a2061646472657373207a65726f206973206e6f742061207660448201526930b634b21037bbb732b960b11b60648201526084015b60405180910390fd5b506000818152602081815260408083206001600160a01b03861684529091529020545b92915050565b60006001600160e01b03198216636cdb3d1360e11b148061059d57506001600160e01b031982166303a24d0760e21b145b8061056657506301ffc9a760e01b6001600160e01b0319831614610566565b600060606105c86135e9565b6001600160a01b03851681526020810184905260006105e6876114f1565b9050610613826040516020016105fc9190614242565b604051602081830303815290604052826000611526565b5060008781526006602090815260408083206005018054825181850281018501909352808352919290919083018282801561067757602002820191906000526020600020905b81546001600160a01b03168152600190910190602001808311610659575b50505050509050600060018360000151610691919061428c565b905060008360200151600285600001516106ab919061428c565b815181106106bb576106bb61422c565b60200260200101519050600083516001600160401b038111156106e0576106e06139de565b604051908082528060200260200182016040528015610709578160200160208202803683370190505b50905060005b84518110156107ae576000816001018651039050866020015185815181106107395761073961422c565b60200260200101518382815181106107535761075361422c565b6020026020010181815250506107928760200151600187038151811061077b5761077b61422c565b6020026020010151856117a890919063ffffffff16565b93506002850394505080806107a6906142a3565b91505061070f565b50909a909950975050505050505050565b6000818152600360205260409020546060906108105760405162461bcd60e51b815260206004820152601060248201526f24b73b30b634b2102a37b5b2b724b21760811b604482015260640161053a565b6000828152600660205260409020600801805461082c906142be565b80601f0160208091040260200160405190810160405280929190818152602001828054610858906142be565b80156108a55780601f1061087a576101008083540402835291602001916108a5565b820191906000526020600020905b81548152906001019060200180831161088857829003601f168201915b50505050509050919050565b6001600160a01b0385163314806108cd57506108cd85336102ea565b6108e95760405162461bcd60e51b815260040161053a906142f3565b6108f685858585856117be565b5050505050565b606081518351146109625760405162461bcd60e51b815260206004820152602960248201527f455243313135353a206163636f756e747320616e6420696473206c656e677468604482015268040dad2e6dac2e8c6d60bb1b606482015260840161053a565b600083516001600160401b0381111561097d5761097d6139de565b6040519080825280602002602001820160405280156109a6578160200160208202803683370190505b50905060005b8451811015610a1e576109f18582815181106109ca576109ca61422c565b60200260200101518583815181106109e4576109e461422c565b60200260200101516104d3565b828281518110610a0357610a0361422c565b6020908102919091010152610a17816142a3565b90506109ac565b509392505050565b60005b60808201515151811015610a7457610a618260800151600001518281518110610a5457610a5461422c565b60200260200101516119a9565b5080610a6c816142a3565b915050610a29565b50600454610a83906001614342565b600455610a8e613607565b600080825260408051600180825281830190925290816020015b610ab0613607565b815260200190600190039081610aa85790505090508181600081518110610ad957610ad961422c565b602002602001018190525060005b60808401515151811015610b6157600454600090815260056020526040812060808601515180518493919084908110610b2257610b2261422c565b60200260200101516001600160a01b03166001600160a01b03168152602001908152602001600020819055508080610b59906142a3565b915050610ae7565b50606083015160405162b9bb5760e51b81526000916001600160a01b037f000000000000000000000000000000000000000000000000000000000000000016916317376ae091610bd8917f00000000000000000000000000000000000000000000000000000000000000009190879060040161435a565b6000604051808303816000875af1158015610bf7573d6000803e3d6000fd5b505050506040513d6000823e601f3d908101601f19168201604052610c1f9190810190614401565b90506040518060e0016040528085604001518152602001600454815260200185606001518152602001610c5183611a9c565b6001600160a01b03168152602001856080015181526020018560a001516001600160a01b031681526020018560c0015181525060066000600454815260200190815260200160002060008201518160000155602082015181600101556040820151816002016000820151816000019080519060200190610cd2929190613644565b506020828101518051610ceb92600185019201906136a1565b50505060608201516004820180546001600160a01b0319166001600160a01b039092169190911790556080820151805180516005840191610d31918391602001906136e8565b506020828101518051610d4a92600185019201906136a1565b50505060a08201516007820180546001600160a01b0319166001600160a01b0390921691909117905560c08201518051610d8e91600884019160209091019061373d565b505060045460008181526006602090815260409182902088519189015192517fd627402b9ba4b05761ad9c7041d6ce87d346c5a13b2081124592fec990cc3c949550610dde94939192919061462d565b60405180910390a150505050565b600080610dfa8585856105bc565b509150505b9392505050565b600080610e148685856105bc565b9150506000610e238787611b01565b9050818181518110610e3757610e3761422c565b602002602001015192505050949350505050565b610e56338383611ba2565b5050565b600660209081526000918252604080832080546001820154835160028401805460609781028301880187529582018681529397929694959194909385939092859290919085015b82821015610f4d578382906000526020600020018054610ec0906142be565b80601f0160208091040260200160405190810160405280929190818152602001828054610eec906142be565b8015610f395780601f10610f0e57610100808354040283529160200191610f39565b820191906000526020600020905b815481529060010190602001808311610f1c57829003601f168201915b505050505081526020019060010190610ea1565b50505050815260200160018201805480602002602001604051908101604052809291908181526020018280548015610fa457602002820191906000526020600020905b815481526020019060010190808311610f90575b5050509190925250505060048201546040805160058501805460606020820284018101855293830181815295966001600160a01b03909516959293919284929091849184018282801561102057602002820191906000526020600020905b81546001600160a01b03168152600190910190602001808311611002575b505050505081526020016001820180548060200260200160405190810160405280929190818152602001828054801561107857602002820191906000526020600020905b815481526020019060010190808311611064575b50505091909252505050600782015460088301805492936001600160a01b03909216926110a4906142be565b80601f01602080910402602001604051908101604052809291908181526020018280546110d0906142be565b801561111d5780601f106110f25761010080835404028352916020019161111d565b820191906000526020600020905b81548152906001019060200180831161110057829003601f168201915b5050505050905087565b60045482111561116b5760405162461bcd60e51b815260206004820152600f60248201526e125b9d985b1a5908105cdcd95d1259608a1b604482015260640161053a565b6000806111798433856105bc565b91509150600082116111b95760405162461bcd60e51b815260206004820152600960248201526810d85b9d08135a5b9d60ba1b604482015260640161053a565b6111c382846117a8565b91506000805b600086815260066020526040902060050154811015611490576000868152600660205260408120600501805461122491908490811061120a5761120a61422c565b6000918252602090912001546001600160a01b03166119a9565b9050600084838151811061123a5761123a61422c565b6020026020010151111561147d578061134c5760008781526006602052604090206005018054839081106112705761127061422c565b6000918252602080832090910154898352600690915260409091206007015485516001600160a01b03928316926323b872dd92339291169089908990889081106112bc576112bc61422c565b60200260200101516112ce91906146ff565b6040516001600160e01b031960e086901b1681526001600160a01b03938416600482015292909116602483015260448201526064016020604051808303816000875af1158015611322573d6000803e3d6000fd5b505050506040513d601f19601f82011682018060405250810190611346919061471e565b5061147d565b806001141561147d5760008781526006602052604090206005018054839081106113785761137861422c565b600091825260208083209091015489835260069182905260409092206007810154910180546001600160a01b039384169363f242432a933393911691889081106113c4576113c461422c565b9060005260206000200154898988815181106113e2576113e261422c565b60200260200101516113f491906146ff565b6040516001600160e01b031960e087901b1681526001600160a01b0394851660048201529390921660248401526044830152606482015260a06084820152600060a482015260c401600060405180830381600087803b15801561145657600080fd5b505af115801561146a573d6000803e3d6000fd5b505050508280611479906142a3565b9350505b5080611488816142a3565b9150506111c9565b506108f633868560405180602001604052806000815250611c83565b6001600160a01b0385163314806114c857506114c885336102ea565b6114e45760405162461bcd60e51b815260040161053a906142f3565b6108f68585858585611da6565b6114f96137b0565b60008281526006602052604090206004015461056690611521906001600160a01b0316611ede565b611eee565b60208281015183516040850151848402018301518051606087015160a088015160009687968796879695948301938284019391820290920101906002015b84891015611790576003890198508886015180601f1a975061ffff8160081c16985050600688101561173157876115a957866020028401518252602082019150611744565b60018814156115c657602087028301518252602082019150611744565b600288141561162a578c5187602002106116135760405162461bcd60e51b815260206004820152600e60248201526d0869e9ca88ab0a8be988a9c8ea8960931b604482015260640161053a565b866020026020018d01518252602082019150611744565b60038814156116725760006116606040805180820182526000808252602091820181905282518084019093528083529082015290565b51880154835250602090910190611744565b600488141561168e576116878d8d848a612004565b9150611744565b6060876116bc578c6040516020016116a6919061473b565b604051602081830303815290604052905061171b565b60018814156116d5576116ce8d612148565b905061171b565b60028814156116f1576020808e01516040516116a692016147b4565b600388141561171b578c516040805160208101929092520160405160208183030381529060405290505b80511561172b5761172b81612249565b50611744565b87611740888463ffffffff8416565b9250505b60208c0151518c51111561178b5760405162461bcd60e51b815260206004820152600e60248201526d535441434b5f4f564552464c4f5760901b604482015260640161053a565b611564565b602083830304909b529b9a5050505050505050505050565b60008183106117b75781610dff565b5090919050565b81518351146118205760405162461bcd60e51b815260206004820152602860248201527f455243313135353a2069647320616e6420616d6f756e7473206c656e677468206044820152670dad2e6dac2e8c6d60c31b606482015260840161053a565b6001600160a01b0384166118465760405162461bcd60e51b815260040161053a90614800565b3361185581878787878761228f565b60005b845181101561193b5760008582815181106118755761187561422c565b6020026020010151905060008583815181106118935761189361422c565b602090810291909101810151600084815280835260408082206001600160a01b038e1683529093529190912054909150818110156118e35760405162461bcd60e51b815260040161053a90614845565b6000838152602081815260408083206001600160a01b038e8116855292528083208585039055908b16825281208054849290611920908490614342565b9250508190555050505080611934906142a3565b9050611858565b50846001600160a01b0316866001600160a01b0316826001600160a01b03167f4a39dc06d4c0dbc64b70af90fd698a233a518aa5d07e595d983b8c0526c8f7fb878760405161198b92919061488f565b60405180910390a46119a1818787878787612408565b505050505050565b6040516301ffc9a760e01b81526000906001600160a01b038316906301ffc9a7906119dc906380ac58cd906004016148b4565b602060405180830381865afa925050508015611a15575060408051601f3d908101601f19168201909252611a129181019061471e565b60015b611a8e576040516301ffc9a760e01b81526001600160a01b038316906301ffc9a790611a499063d9b67a26906004016148b4565b602060405180830381865afa925050508015611a82575060408051601f3d908101601f19168201909252611a7f9181019061471e565b60015b611a8e57506000919050565b50600192915050565b919050565b600080611ac783604051602001611ab391906148cc565b604051602081830303815290604052612564565b90508051602082016000f091506001600160a01b038216611afb5760405163046a55db60e11b815260040160405180910390fd5b50919050565b60008281526005602081815260408084206001600160a01b0386168086529083528185205487865260069093529320909101805491929183908110611b4857611b4861422c565b6000918252602090912001546001600160a01b0316146105665760405162461bcd60e51b815260206004820152601560248201527424b73b30b634b2103830bcb6b2b73a103a37b5b2b760591b604482015260640161053a565b816001600160a01b0316836001600160a01b03161415611c165760405162461bcd60e51b815260206004820152602960248201527f455243313135353a2073657474696e6720617070726f76616c20737461747573604482015268103337b91039b2b63360b91b606482015260840161053a565b6001600160a01b03838116600081815260016020908152604080832094871680845294825291829020805460ff191686151590811790915591519182527f17307eab39ab6107e8899845ad3d59bd9653f200f220920489ca2b5937696c31910160405180910390a3505050565b6001600160a01b038416611ce35760405162461bcd60e51b815260206004820152602160248201527f455243313135353a206d696e7420746f20746865207a65726f206164647265736044820152607360f81b606482015260840161053a565b336000611cef85612590565b90506000611cfc85612590565b9050611d0d8360008985858961228f565b6000868152602081815260408083206001600160a01b038b16845290915281208054879290611d3d908490614342565b909155505060408051878152602081018790526001600160a01b03808a1692600092918716917fc3d58168c5ae7397731d063d5bbf3d657854427343f4c083240f7aacaa2d0f62910160405180910390a4611d9d836000898989896125db565b50505050505050565b6001600160a01b038416611dcc5760405162461bcd60e51b815260040161053a90614800565b336000611dd885612590565b90506000611de585612590565b9050611df583898985858961228f565b6000868152602081815260408083206001600160a01b038c16845290915290205485811015611e365760405162461bcd60e51b815260040161053a90614845565b6000878152602081815260408083206001600160a01b038d8116855292528083208985039055908a16825281208054889290611e73908490614342565b909155505060408051888152602081018890526001600160a01b03808b16928c821692918816917fc3d58168c5ae7397731d063d5bbf3d657854427343f4c083240f7aacaa2d0f62910160405180910390a4611ed3848a8a8a8a8a6125db565b505050505050505050565b6060610566826001600019613155565b611ef66137b0565b611efe6137b0565b60208301805160ff8082168352606084019290925290600882901c166001600160401b03811115611f3157611f316139de565b604051908082528060200260200182016040528015611f5a578160200160208202803683370190505b50602083015260ff601082901c81166080840152601882901c1660606000826001600160401b03811115611f9057611f906139de565b604051908082528060200260200182016040528015611fb9578160200160208202803683370190505b5090506020870151602002604001870160005b84811015611ff3578160208202602001840152815160200182019150600181019050611fcc565b505060408501525091949350505050565b600060078216600383811c1682808261202557506000199050610100612066565b826001141561204057506001600160801b0390506080612066565b826002141561205b57506001600160401b0390506040612066565b5063ffffffff905060205b6001600587901c016000816001600160401b03811115612088576120886139de565b6040519080825280602002602001820160405280156120b1578160200160208202803683370190505b50905060208082019083028a03815b8b8210156120d85781518152602091820191016120c0565b505060608b015160808c015160209081029091010160005b6101008110156121365760208502830182845b8281101561211f578051841c8a16825260209182019101612103565b50505061212d8e8e8b611526565b9b5085016120f0565b50999c9b505050505050505050505050565b606060008260600151905060006018846040015151901b60108560800151901b6008866020015151901b866060015151171717905060008160001b8360405160200161219491906147b4565b60408051601f19818403018152908290526121b292916020016148f2565b604051602081830303815290604052905060005b8560400151518110156122405781866040015182815181106121ea576121ea61422c565b60200260200101515160001b8760400151838151811061220c5761220c61422c565b602002602001015160405160200161222693929190614918565b60408051601f1981840301815291905291506001016121c6565b50949350505050565b61228c8160405160240161225d91906139cb565b60408051601f198184030181529190526020810180516001600160e01b03166305f3bfab60e11b179052613206565b50565b6001600160a01b0385166123165760005b8351811015612314578281815181106122bb576122bb61422c565b6020026020010151600360008684815181106122d9576122d961422c565b6020026020010151815260200190815260200160002060008282546122fe9190614342565b9091555061230d9050816142a3565b90506122a0565b505b6001600160a01b0384166119a15760005b8351811015611d9d5760008482815181106123445761234461422c565b6020026020010151905060008483815181106123625761236261422c565b60200260200101519050600060036000848152602001908152602001600020549050818110156123e55760405162461bcd60e51b815260206004820152602860248201527f455243313135353a206275726e20616d6f756e74206578636565647320746f74604482015267616c537570706c7960c01b606482015260840161053a565b60009283526003602052604090922091039055612401816142a3565b9050612327565b6001600160a01b0384163b156119a15760405163bc197c8160e01b81526001600160a01b0385169063bc197c819061244c908990899088908890889060040161494f565b6020604051808303816000875af1925050508015612487575060408051601f3d908101601f19168201909252612484918101906149ad565b60015b612534576124936149ca565b806308c379a014156124cd57506124a86149e6565b806124b357506124cf565b8060405162461bcd60e51b815260040161053a91906139cb565b505b60405162461bcd60e51b815260206004820152603460248201527f455243313135353a207472616e7366657220746f206e6f6e20455243313135356044820152732932b1b2b4bb32b91034b6b83632b6b2b73a32b960611b606482015260840161053a565b6001600160e01b0319811663bc197c8160e01b14611d9d5760405162461bcd60e51b815260040161053a90614a6f565b606081518260405160200161257a929190614ab7565b6040516020818303038152906040529050919050565b604080516001808252818301909252606091600091906020808301908036833701905050905082816000815181106125ca576125ca61422c565b602090810291909101015292915050565b6001600160a01b0384163b156119a15760405163f23a6e6160e01b81526001600160a01b0385169063f23a6e619061261f9089908990889088908890600401614b08565b6020604051808303816000875af192505050801561265a575060408051601f3d908101601f19168201909252612657918101906149ad565b60015b612666576124936149ca565b6001600160e01b0319811663f23a6e6160e01b14611d9d5760405162461bcd60e51b815260040161053a90614a6f565b603f1981018051601f1990920180516040516370a0823160e01b81526001600160a01b03808316600483015292946000949390929185918416906370a08231906024015b602060405180830381865afa1580156126f7573d6000803e3d6000fd5b505050506040513d601f19601f8201168201806040525081019061271b9190614b42565b9093525092949350505050565b6000806000602084039150815190506000816001600160a01b03166318160ddd6040518163ffffffff1660e01b8152600401602060405180830381865afa158015612777573d6000803e3d6000fd5b505050506040513d601f19601f8201168201806040525081019061279b9190614b42565b90925250919392505050565b605f1981018051603f1983018051601f199094015160405163277166bf60e11b81526001600160a01b03808716600483015260248201839052929560009594939092918691851690634ee2cd7e906044015b602060405180830381865afa158015612816573d6000803e3d6000fd5b505050506040513d601f19601f8201168201806040525081019061283a9190614b42565b909452509395945050505050565b603f1981018051601f199092018051604051630981b24d60e41b81526004810182905291936000939290919084906001600160a01b0384169063981b24d0906024016126da565b603f1981018051601f1990920180516040516331a9108f60e11b81526004810182905291936000939290919084906001600160a01b03841690636352211e90602401602060405180830381865afa1580156128ee573d6000803e3d6000fd5b505050506040513d601f19601f820116820180604052508101906129129190614b5b565b6001600160a01b03169093525092949350505050565b605f1981018051603f1983018051601f1990940151604051627eeac760e11b81526001600160a01b0380871660048301526024820183905292956000959493909291869185169062fdd58e906044016127f9565b6000806000846001600160401b03811115612999576129996139de565b6040519080825280602002602001820160405280156129c2578160200160208202803683370190505b5090506000856001600160401b038111156129df576129df6139de565b604051908082528060200260200182016040528015612a08578160200160208202803683370190505b50604087028603601f1981018051909550919250602080890282019085015b81831015612a3f578251815260209283019201612a27565b5050602088028101602084015b81831015612a64578251815260209283019201612a4c565b50506040516313849cfd60e21b8152600091506001600160a01b03831690634e1273f490612a989087908790600401614b78565b600060405180830381865afa158015612ab5573d6000803e3d6000fd5b505050506040513d6000823e601f3d908101601f19168201604052612add9190810190614b8b565b9050846020820160208a0281015b80821015612b06578151835260209283019290910190612aeb565b50909998505050505050505050565b438152602001919050565b338152602001919050565b308152602001919050565b428152602001919050565b601f1981018051600091908261279b8287613227565b603f1981018051601f1990920180519092600092918361271b82612b7b858a613227565b9061328a565b603f1981018051601f1990920180519092600092918361271b82612ba5858a613227565b906132a9565b601f1981018051600091908261279b82876132be565b601f1981018051600091908261279b8287613309565b6000602083028203805b83811015612c015780518015612bf8578252612c01565b50602001612be1565b506020019392505050565b605f1981018051156020028201603f1990810151909152018092915050565b601f1981018051603f199092018051909214909152919050565b6000602083028203805b83811015612c01578051612c665760008252612c01565b602001612c4f565b601f1981018051603f19909201805192909211909152919050565b601f1981018051159052919050565b601f1981018051603f19909201805192909210909152919050565b6020828102820380516000928201835b8582108015612cd3575060001983105b15612cf257508051602090910190612ceb8382613349565b9250612cc3565b505081526020019392505050565b6020828102820380516000928201835b8582108015612d20575060001983105b15612cf257508051602090910190612d388382613367565b9250612d10565b6020828102820380516000928201835b8582108015612d5e5750826000105b15612cf257508051602090910190612d768382613396565b9250612d4f565b600060208302820380516000602083015b85811015612cf25780518301915082821015612da957600080fd5b9091508190602001612d8e565b600060208302820380516000602083015b85811015612cf2578051915081612ddd57600080fd5b9181900491602001612dc7565b6020828102820380516000928201835b85821015612cf257508051602090910190612e158184614cff565b9250612dfa565b6020828102820380516000928201835b85821015612cf25750805182811115612e43578092505b602082019150612e2c565b6020828102820380516000928201835b85821015612cf25750805182811015612e75578092505b602082019150612e5e565b600060208302820380516000602083015b85811015612cf2578051915081612ea757600080fd5b9181900691602001612e91565b60006020830282038051600080602084015b86811015612ef7578315612eef578051925082840291508284830414612eeb57600080fd5b8193505b602001612ec6565b50505081526020019392505050565b600060208302820380516000602083015b85811015612cf25780518303915082821115612f3257600080fd5b9091508190602001612f17565b819003603f1981018051601f199092018051848252604051632235a18160e21b8152919360009392909190859085906001600160a01b038516906388d68604906127f99086908690600401614d0b565b819003605f1981018051603f19830151601f19909301805185825260405163caa0eb3b60e01b815291946000949392909190869086906001600160a01b0386169063caa0eb3b90612fe890879087908790600401614d2f565b602060405180830381865afa158015613005573d6000803e3d6000fd5b505050506040513d601f19601f820116820180604052508101906130299190614b42565b8652505060209093019695505050505050565b603f1981018051601f1990920180519092600092918361271b83836133ac565b6000600783901c6003600585901c16601f85168380826001600160401b03811115613089576130896139de565b6040519080825280602002602001820160405280156130b2578160200160208202803683370190505b509050600060206001850102880392506020840283018360005b828210156130ee578151816020018601526020820191506020810190506130cc565b5050519050600061310183838989613403565b845250506020909101979650505050505050565b603f1981018051601f199092018051909260009291600f80871691600488901c9091169085613146858585856134f9565b90955250949695505050505050565b6060833b80613174575050604080516020810190915260008152610dff565b80841115613192575050604080516020810190915260008152610dff565b838310156131c45760405163162544fd60e11b815260048101829052602481018590526044810184905260640161053a565b83830384820360008282106131d957826131db565b815b60408051603f8301601f19168101909152818152955090508087602087018a3c505050509392505050565b80516a636f6e736f6c652e6c6f67602083016000808483855afa5050505050565b600080826012141561323c5783915050610566565b82601211156132685750601282900361325681600a614cff565b61326090856146ff565b915050610566565b50601119820161327981600a614cff565b6132609085614d56565b5092915050565b60008161329f670de0b6b3a7640000856146ff565b610dff9190614d56565b6000670de0b6b3a764000061329f83856146ff565b600081810b6132ce575081610566565b60008260000b13156132f6576132e582600a614d78565b6132ef90846146ff565b9050610566565b60ff60008390031661327981600a614cff565b600080601283141561331e5783915050610566565b82601211156133385750601282900361327981600a614cff565b50601119820161325681600a614cff565b600082820183811061335b578061335f565b6000195b949350505050565b60008261337657506000610566565b82820282848281613389576133896147ea565b04141561335b578061335f565b60008183116133a6576000610dff565b50900390565b60008060015b60088111610a1e5760006133c68683613555565b905060006133d48684613555565b905060006133e28383613396565b90506133f285600186038361359a565b945050600190920191506133b29050565b835160009081908190819060015b600881116134eb5760009250828761342c5750600019613430565b5060005b60005b838110156134c75761345e8c82815181106134505761345061422c565b602002602001015184613555565b95508a86116134b0578861347d5761347686836117a8565b91506134a7565b60018914156134905761347686836135d9565b60028914801561349e575084155b156134a7578591505b600194506134bf565b896134bf5760001991506134c7565b600101613433565b50836134d257506000195b6134e086600184038361359a565b955050600101613411565b509298975050505050505050565b600082600881111561351d5760405162461bcd60e51b815260040161053a90614d87565b6000855b858110156135495763ffffffff6020820290811b199890981685891b17979150600101613521565b50959695505050505050565b60008160088111156135795760405162461bcd60e51b815260040161053a90614d87565b826135875760009150613283565b5050600019016020021c63ffffffff1690565b60008260088111156135be5760405162461bcd60e51b815260040161053a90614d87565b505063ffffffff602090920291821b199290921691901b1790565b6000818310156117b75781610dff565b60405180604001604052806002906020820280368337509192915050565b6040518060e00160405280600081526020016000815260200160008152602001600081526020016000815260200160008152602001600081525090565b828054828255906000526020600020908101928215613691579160200282015b82811115613691578251805161368191849160209091019061373d565b5091602001919060010190613664565b5061369d9291506137df565b5090565b8280548282559060005260206000209081019282156136dc579160200282015b828111156136dc5782518255916020019190600101906136c1565b5061369d9291506137fc565b8280548282559060005260206000209081019282156136dc579160200282015b828111156136dc57825182546001600160a01b0319166001600160a01b03909116178255602090920191600190910190613708565b828054613749906142be565b90600052602060002090601f01602090048101928261376b57600085556136dc565b82601f1061378457805160ff19168380011785556136dc565b828001600101855582156136dc57918201828111156136dc5782518255916020019190600101906136c1565b6040518060a0016040528060008152602001606081526020016060815260200160608152602001600081525090565b8082111561369d5760006137f38282613811565b506001016137df565b5b8082111561369d57600081556001016137fd565b50805461381d906142be565b6000825580601f1061382d575050565b601f01602090049060005260206000209081019061228c91906137fc565b6001600160a01b038116811461228c57600080fd5b8035611a978161384b565b6000806040838503121561387e57600080fd5b82356138898161384b565b946020939093013593505050565b6001600160e01b03198116811461228c57600080fd5b6000602082840312156138bf57600080fd5b8135610dff81613897565b6000806000606084860312156138df57600080fd5b8335925060208401356138f18161384b565b929592945050506040919091013590565b600081518084526020808501945080840160005b8381101561393257815187529582019590820190600101613916565b509495945050505050565b82815260406020820152600061335f6040830184613902565b60006020828403121561396857600080fd5b5035919050565b60005b8381101561398a578181015183820152602001613972565b83811115613999576000848401525b50505050565b600081518084526139b781602086016020860161396f565b601f01601f19169290920160200192915050565b602081526000610dff602083018461399f565b634e487b7160e01b600052604160045260246000fd5b604081018181106001600160401b0382111715613a1357613a136139de565b60405250565b601f8201601f191681016001600160401b0381118282101715613a3e57613a3e6139de565b6040525050565b60405160e081016001600160401b0381118282101715613a6757613a676139de565b60405290565b60006001600160401b03821115613a8657613a866139de565b5060051b60200190565b600082601f830112613aa157600080fd5b81356020613aae82613a6d565b604051613abb8282613a19565b83815260059390931b8501820192828101915086841115613adb57600080fd5b8286015b84811015613af65780358352918301918301613adf565b509695505050505050565b60006001600160401b03821115613b1a57613b1a6139de565b50601f01601f191660200190565b600082601f830112613b3957600080fd5b8135613b4481613b01565b604051613b518282613a19565b828152856020848701011115613b6657600080fd5b82602086016020830137600092810160200192909252509392505050565b600080600080600060a08688031215613b9c57600080fd5b8535613ba78161384b565b94506020860135613bb78161384b565b935060408601356001600160401b0380821115613bd357600080fd5b613bdf89838a01613a90565b94506060880135915080821115613bf557600080fd5b613c0189838a01613a90565b93506080880135915080821115613c1757600080fd5b50613c2488828901613b28565b9150509295509295909350565b600082601f830112613c4257600080fd5b81356020613c4f82613a6d565b604051613c5c8282613a19565b83815260059390931b8501820192828101915086841115613c7c57600080fd5b8286015b84811015613af6578035613c938161384b565b8352918301918301613c80565b60008060408385031215613cb357600080fd5b82356001600160401b0380821115613cca57600080fd5b613cd686838701613c31565b93506020850135915080821115613cec57600080fd5b50613cf985828601613a90565b9150509250929050565b602081526000610dff6020830184613902565b600060408284031215613d2857600080fd5b604051613d34816139f4565b80915082356001600160401b0380821115613d4e57600080fd5b818501915085601f830112613d6257600080fd5b81356020613d6f82613a6d565b604051613d7c8282613a19565b83815260059390931b8501820192828101915089841115613d9c57600080fd5b8286015b84811015613dd457803586811115613db85760008081fd5b613dc68c86838b0101613b28565b845250918301918301613da0565b5086525086810135935082841115613deb57600080fd5b613df788858901613a90565b81860152505050505092915050565b600060408284031215613e1857600080fd5b604051613e24816139f4565b80915082356001600160401b0380821115613e3e57600080fd5b613e4a86838701613c31565b83526020850135915080821115613e6057600080fd5b50613e6d85828601613a90565b6020830152505092915050565b600060208284031215613e8c57600080fd5b81356001600160401b0380821115613ea357600080fd5b9083019060e08286031215613eb757600080fd5b613ebf613a45565b823582811115613ece57600080fd5b613eda87828601613b28565b825250602083013582811115613eef57600080fd5b613efb87828601613b28565b60208301525060408301356040820152606083013582811115613f1d57600080fd5b613f2987828601613d16565b606083015250608083013582811115613f4157600080fd5b613f4d87828601613e06565b608083015250613f5f60a08401613860565b60a082015260c083013582811115613f7657600080fd5b613f8287828601613b28565b60c08301525095945050505050565b60008060008060808587031215613fa757600080fd5b843593506020850135613fb98161384b565b92506040850135613fc98161384b565b9396929550929360600135925050565b801515811461228c57600080fd5b60008060408385031215613ffa57600080fd5b82356140058161384b565b9150602083013561401581613fd9565b809150509250929050565b600081518084526020808501808196508360051b8101915082860160005b8581101561406857828403895261405684835161399f565b9885019893509084019060010161403e565b5091979650505050505050565b600081516040845261408a6040850182614020565b9050602083015184820360208601526140a38282613902565b95945050505050565b600081518084526020808501945080840160005b838110156139325781516001600160a01b0316875295820195908201906001016140c0565b87815286602082015260e06040820152600061410460e0830188614075565b6001600160a01b03878116606085015283820360808501528651604080845261412f908401826140ac565b9050602088015183820360208501526141488282613902565b92881660a0870152505083810360c08501529050614166818561399f565b9a9950505050505050505050565b6000806040838503121561418757600080fd5b50508035926020909101359150565b600080604083850312156141a957600080fd5b82356141b48161384b565b915060208301356140158161384b565b600080600080600060a086880312156141dc57600080fd5b85356141e78161384b565b945060208601356141f78161384b565b9350604086013592506060860135915060808601356001600160401b0381111561422057600080fd5b613c2488828901613b28565b634e487b7160e01b600052603260045260246000fd5b60008183825b6002811015614267578151835260209283019290910190600101614248565b50505060408201905092915050565b634e487b7160e01b600052601160045260246000fd5b60008282101561429e5761429e614276565b500390565b60006000198214156142b7576142b7614276565b5060010190565b600181811c908216806142d257607f821691505b60208210811415611afb57634e487b7160e01b600052602260045260246000fd5b6020808252602f908201527f455243313135353a2063616c6c6572206973206e6f7420746f6b656e206f776e60408201526e195c881b9bdc88185c1c1c9bdd9959608a1b606082015260800190565b6000821982111561435557614355614276565b500190565b6001600160a01b0384168152606060208083018290526000919061438084830187614075565b84810360408681019190915286518083528388019284019060005b818110156143f1578451805184528681015187850152848101518585015287810151888501526080808201519085015260a0808201519085015260c090810151908401529385019360e09092019160010161439b565b50909a9950505050505050505050565b60006020828403121561441357600080fd5b81516001600160401b0381111561442957600080fd5b8201601f8101841361443a57600080fd5b805161444581613b01565b6040516144528282613a19565b82815286602084860101111561446757600080fd5b61447883602083016020870161396f565b9695505050505050565b8054600090600181811c908083168061449c57607f831692505b60208084108214156144be57634e487b7160e01b600052602260045260246000fd5b8388528180156144d557600181146144e957614517565b60ff19861689830152604089019650614517565b876000528160002060005b8681101561450f5781548b82018501529085019083016144f4565b8a0183019750505b50505050505092915050565b6000815480845260208085019450836000528060002060005b838110156139325781548752958201956001918201910161453c565b6000604083016040845280835480835260608601915060608160051b87010192508460005260208060002060005b838110156145b357888603605f190185526145a18683614482565b95509382019360019182019101614586565b50508684038188015250505061335f8160018501614523565b6000604083016040845280835480835260608601915084600052602092508260002060005b828110156146165781546001600160a01b0316845292840192600191820191016145f1565b505050848103828601526140a38160018601614523565b8481526080602082015283546080820152600184015460a082015260e060c08201526000614662610160830160028701614558565b60048601546001600160a01b031660e0840152607f19838203810161010085015261469082600589016145cc565b91506146a660078801546001600160a01b031690565b6001600160a01b0316610120850152838203016101408401526146cc8160088801614482565b905082810360408401526146e0818661399f565b905082810360608401526146f4818561399f565b979650505050505050565b600081600019048311821515161561471957614719614276565b500290565b60006020828403121561473057600080fd5b8151610dff81613fd9565b60208152815160208201526000602083015160a0604084015261476160c0840182613902565b90506040840151601f198085840301606086015261477f8383614020565b925060608601519150808584030160808601525061479d8282613902565b915050608084015160a08401528091505092915050565b815160009082906020808601845b838110156147de578151855293820193908201906001016147c2565b50929695505050505050565b634e487b7160e01b600052601260045260246000fd5b60208082526025908201527f455243313135353a207472616e7366657220746f20746865207a65726f206164604082015264647265737360d81b606082015260800190565b6020808252602a908201527f455243313135353a20696e73756666696369656e742062616c616e636520666f60408201526939103a3930b739b332b960b11b606082015260800190565b6040815260006148a26040830185613902565b82810360208401526140a38185613902565b60e09190911b6001600160e01b031916815260200190565b60008152600082516148e581600185016020870161396f565b9190910160010192915050565b8281526000825161490a81602085016020870161396f565b919091016020019392505050565b6000845161492a81846020890161396f565b8201848152835161494281602080850190880161396f565b0160200195945050505050565b6001600160a01b0386811682528516602082015260a06040820181905260009061497b90830186613902565b828103606084015261498d8186613902565b905082810360808401526149a1818561399f565b98975050505050505050565b6000602082840312156149bf57600080fd5b8151610dff81613897565b600060033d11156149e35760046000803e5060005160e01c5b90565b600060443d10156149f45790565b6040516003193d81016004833e81513d6001600160401b038160248401118184111715614a2357505050505090565b8285019150815181811115614a3b5750505050505090565b843d8701016020828501011115614a555750505050505090565b614a6460208286010187613a19565b509095945050505050565b60208082526028908201527f455243313135353a204552433131353552656365697665722072656a656374656040820152676420746f6b656e7360c01b606082015260800190565b606360f81b815260e083901b6001600160e01b03191660018201526880600e6000396000f360b81b60058201528151600090614afa81600e85016020870161396f565b91909101600e019392505050565b6001600160a01b03868116825285166020820152604081018490526060810183905260a0608082018190526000906146f49083018461399f565b600060208284031215614b5457600080fd5b5051919050565b600060208284031215614b6d57600080fd5b8151610dff8161384b565b6040815260006148a260408301856140ac565b60006020808385031215614b9e57600080fd5b82516001600160401b03811115614bb457600080fd5b8301601f81018513614bc557600080fd5b8051614bd081613a6d565b604051614bdd8282613a19565b82815260059290921b8301840191848101915087831115614bfd57600080fd5b928401925b828410156146f457835182529284019290840190614c02565b600181815b80851115614c56578160001904821115614c3c57614c3c614276565b80851615614c4957918102915b93841c9390800290614c20565b509250929050565b600082614c6d57506001610566565b81614c7a57506000610566565b8160018114614c905760028114614c9a57614cb6565b6001915050610566565b60ff841115614cab57614cab614276565b50506001821b610566565b5060208310610133831016604e8410600b8410161715614cd9575081810a610566565b614ce38383614c1b565b8060001904821115614cf757614cf7614276565b029392505050565b6000610dff8383614c5e565b6001600160a01b038316815260406020820181905260009061335f90830184613902565b60018060a01b03841681528260208201526060604082015260006140a36060830184613902565b600082614d7357634e487b7160e01b600052601260045260246000fd5b500490565b6000610dff60ff841683614c5e565b60208082526008908201526726a0ac2faa24a2a960c11b60408201526060019056fea26469706673582212200bc53552fb2353674f8573f240274debff342805c06f92098a81a4d9a896e49164736f6c634300080a0033",
  "linkReferences": {},
  "deployedLinkReferences": {}
}