{
  "_format": "hh-sol-artifact-1",
  "contractName": "Rain1155",
  "sourceName": "contracts/Rain1155.sol",
  "abi": [
    {
      "inputs": [
        {
          "components": [
            {
              "internalType": "address",
              "name": "vmStateBuilder",
              "type": "address"
            }
          ],
          "internalType": "struct Rain1155Config",
          "name": "config_",
          "type": "tuple"
        }
      ],
      "stateMutability": "nonpayable",
      "type": "constructor"
    },
    {
      "inputs": [
        {
          "internalType": "uint256",
          "name": "_size",
          "type": "uint256"
        },
        {
          "internalType": "uint256",
          "name": "_start",
          "type": "uint256"
        },
        {
          "internalType": "uint256",
          "name": "_end",
          "type": "uint256"
        }
      ],
      "name": "InvalidCodeAtRange",
      "type": "error"
    },
    {
      "inputs": [],
      "name": "WriteError",
      "type": "error"
    },
    {
      "anonymous": false,
      "inputs": [
        {
          "indexed": true,
          "internalType": "address",
          "name": "account",
          "type": "address"
        },
        {
          "indexed": true,
          "internalType": "address",
          "name": "operator",
          "type": "address"
        },
        {
          "indexed": false,
          "internalType": "bool",
          "name": "approved",
          "type": "bool"
        }
      ],
      "name": "ApprovalForAll",
      "type": "event"
    },
    {
      "anonymous": false,
      "inputs": [
        {
          "indexed": false,
          "internalType": "uint256",
          "name": "assetId_",
          "type": "uint256"
        },
        {
          "components": [
            {
              "internalType": "uint256",
              "name": "lootBoxId",
              "type": "uint256"
            },
            {
              "internalType": "uint256",
              "name": "id",
              "type": "uint256"
            },
            {
              "components": [
                {
                  "internalType": "bytes[]",
                  "name": "sources",
                  "type": "bytes[]"
                },
                {
                  "internalType": "uint256[]",
                  "name": "constants",
                  "type": "uint256[]"
                }
              ],
              "internalType": "struct StateConfig",
              "name": "vmStateConfig",
              "type": "tuple"
            },
            {
              "internalType": "address",
              "name": "vmStatePointer",
              "type": "address"
            },
            {
              "components": [
                {
                  "internalType": "address[]",
                  "name": "token",
                  "type": "address[]"
                },
                {
                  "internalType": "uint256[]",
                  "name": "tokenType",
                  "type": "uint256[]"
                },
                {
                  "internalType": "uint256[]",
                  "name": "tokenId",
                  "type": "uint256[]"
                }
              ],
              "internalType": "struct CurrencyConfig",
              "name": "currencies",
              "type": "tuple"
            },
            {
              "internalType": "address",
              "name": "recipient",
              "type": "address"
            },
            {
              "internalType": "string",
              "name": "tokenURI",
              "type": "string"
            }
          ],
          "indexed": false,
          "internalType": "struct Rain1155.AssetDetails",
          "name": "asset_",
          "type": "tuple"
        },
        {
          "indexed": false,
          "internalType": "string",
          "name": "name_",
          "type": "string"
        },
        {
          "indexed": false,
          "internalType": "string",
          "name": "description_",
          "type": "string"
        }
      ],
      "name": "AssetCreated",
      "type": "event"
    },
    {
      "anonymous": false,
      "inputs": [
        {
          "indexed": false,
          "internalType": "address",
          "name": "deployer_",
          "type": "address"
        },
        {
          "components": [
            {
              "internalType": "address",
              "name": "vmStateBuilder",
              "type": "address"
            }
          ],
          "indexed": false,
          "internalType": "struct Rain1155Config",
          "name": "config_",
          "type": "tuple"
        }
      ],
      "name": "Initialize",
      "type": "event"
    },
    {
      "anonymous": false,
      "inputs": [
        {
          "indexed": true,
          "internalType": "address",
          "name": "operator",
          "type": "address"
        },
        {
          "indexed": true,
          "internalType": "address",
          "name": "from",
          "type": "address"
        },
        {
          "indexed": true,
          "internalType": "address",
          "name": "to",
          "type": "address"
        },
        {
          "indexed": false,
          "internalType": "uint256[]",
          "name": "ids",
          "type": "uint256[]"
        },
        {
          "indexed": false,
          "internalType": "uint256[]",
          "name": "values",
          "type": "uint256[]"
        }
      ],
      "name": "TransferBatch",
      "type": "event"
    },
    {
      "anonymous": false,
      "inputs": [
        {
          "indexed": true,
          "internalType": "address",
          "name": "operator",
          "type": "address"
        },
        {
          "indexed": true,
          "internalType": "address",
          "name": "from",
          "type": "address"
        },
        {
          "indexed": true,
          "internalType": "address",
          "name": "to",
          "type": "address"
        },
        {
          "indexed": false,
          "internalType": "uint256",
          "name": "id",
          "type": "uint256"
        },
        {
          "indexed": false,
          "internalType": "uint256",
          "name": "value",
          "type": "uint256"
        }
      ],
      "name": "TransferSingle",
      "type": "event"
    },
    {
      "anonymous": false,
      "inputs": [
        {
          "indexed": false,
          "internalType": "string",
          "name": "value",
          "type": "string"
        },
        {
          "indexed": true,
          "internalType": "uint256",
          "name": "id",
          "type": "uint256"
        }
      ],
      "name": "URI",
      "type": "event"
    },
    {
      "inputs": [
        {
          "internalType": "uint256",
          "name": "",
          "type": "uint256"
        }
      ],
      "name": "assets",
      "outputs": [
        {
          "internalType": "uint256",
          "name": "lootBoxId",
          "type": "uint256"
        },
        {
          "internalType": "uint256",
          "name": "id",
          "type": "uint256"
        },
        {
          "components": [
            {
              "internalType": "bytes[]",
              "name": "sources",
              "type": "bytes[]"
            },
            {
              "internalType": "uint256[]",
              "name": "constants",
              "type": "uint256[]"
            }
          ],
          "internalType": "struct StateConfig",
          "name": "vmStateConfig",
          "type": "tuple"
        },
        {
          "internalType": "address",
          "name": "vmStatePointer",
          "type": "address"
        },
        {
          "components": [
            {
              "internalType": "address[]",
              "name": "token",
              "type": "address[]"
            },
            {
              "internalType": "uint256[]",
              "name": "tokenType",
              "type": "uint256[]"
            },
            {
              "internalType": "uint256[]",
              "name": "tokenId",
              "type": "uint256[]"
            }
          ],
          "internalType": "struct CurrencyConfig",
          "name": "currencies",
          "type": "tuple"
        },
        {
          "internalType": "address",
          "name": "recipient",
          "type": "address"
        },
        {
          "internalType": "string",
          "name": "tokenURI",
          "type": "string"
        }
      ],
      "stateMutability": "view",
      "type": "function"
    },
    {
      "inputs": [
        {
          "internalType": "address",
          "name": "account",
          "type": "address"
        },
        {
          "internalType": "uint256",
          "name": "id",
          "type": "uint256"
        }
      ],
      "name": "balanceOf",
      "outputs": [
        {
          "internalType": "uint256",
          "name": "",
          "type": "uint256"
        }
      ],
      "stateMutability": "view",
      "type": "function"
    },
    {
      "inputs": [
        {
          "internalType": "address[]",
          "name": "accounts",
          "type": "address[]"
        },
        {
          "internalType": "uint256[]",
          "name": "ids",
          "type": "uint256[]"
        }
      ],
      "name": "balanceOfBatch",
      "outputs": [
        {
          "internalType": "uint256[]",
          "name": "",
          "type": "uint256[]"
        }
      ],
      "stateMutability": "view",
      "type": "function"
    },
    {
      "inputs": [
        {
          "components": [
            {
              "internalType": "string",
              "name": "name",
              "type": "string"
            },
            {
              "internalType": "string",
              "name": "description",
              "type": "string"
            },
            {
              "internalType": "uint256",
              "name": "lootBoxId",
              "type": "uint256"
            },
            {
              "components": [
                {
                  "internalType": "bytes[]",
                  "name": "sources",
                  "type": "bytes[]"
                },
                {
                  "internalType": "uint256[]",
                  "name": "constants",
                  "type": "uint256[]"
                }
              ],
              "internalType": "struct StateConfig",
              "name": "vmStateConfig",
              "type": "tuple"
            },
            {
              "components": [
                {
                  "internalType": "address[]",
                  "name": "token",
                  "type": "address[]"
                },
                {
                  "internalType": "uint256[]",
                  "name": "tokenType",
                  "type": "uint256[]"
                },
                {
                  "internalType": "uint256[]",
                  "name": "tokenId",
                  "type": "uint256[]"
                }
              ],
              "internalType": "struct CurrencyConfig",
              "name": "currencies",
              "type": "tuple"
            },
            {
              "internalType": "address",
              "name": "recipient",
              "type": "address"
            },
            {
              "internalType": "string",
              "name": "tokenURI",
              "type": "string"
            }
          ],
          "internalType": "struct AssetConfig",
          "name": "config_",
          "type": "tuple"
        }
      ],
      "name": "createNewAsset",
      "outputs": [],
      "stateMutability": "nonpayable",
      "type": "function"
    },
    {
      "inputs": [
        {
          "internalType": "uint256",
          "name": "id",
          "type": "uint256"
        }
      ],
      "name": "exists",
      "outputs": [
        {
          "internalType": "bool",
          "name": "",
          "type": "bool"
        }
      ],
      "stateMutability": "view",
      "type": "function"
    },
    {
      "inputs": [],
      "name": "fnPtrs",
      "outputs": [
        {
          "internalType": "bytes",
          "name": "",
          "type": "bytes"
        }
      ],
      "stateMutability": "pure",
      "type": "function"
    },
    {
      "inputs": [
        {
          "internalType": "uint256",
          "name": "assetId_",
          "type": "uint256"
        },
        {
          "internalType": "address",
          "name": "account_",
          "type": "address"
        },
        {
          "internalType": "uint256",
          "name": "units_",
          "type": "uint256"
        }
      ],
      "name": "getAssetCost",
      "outputs": [
        {
          "internalType": "uint256",
          "name": "",
          "type": "uint256"
        },
        {
          "internalType": "uint256[]",
          "name": "",
          "type": "uint256[]"
        }
      ],
      "stateMutability": "view",
      "type": "function"
    },
    {
      "inputs": [
        {
          "internalType": "uint256",
          "name": "assetId_",
          "type": "uint256"
        },
        {
          "internalType": "address",
          "name": "account_",
          "type": "address"
        },
        {
          "internalType": "uint256",
          "name": "units_",
          "type": "uint256"
        }
      ],
      "name": "getAssetMaxUnits",
      "outputs": [
        {
          "internalType": "uint256",
          "name": "",
          "type": "uint256"
        }
      ],
      "stateMutability": "view",
      "type": "function"
    },
    {
      "inputs": [
        {
          "internalType": "uint256",
          "name": "assetId_",
          "type": "uint256"
        },
        {
          "internalType": "address",
          "name": "paymentToken_",
          "type": "address"
        },
        {
          "internalType": "address",
          "name": "account_",
          "type": "address"
        },
        {
          "internalType": "uint256",
          "name": "units_",
          "type": "uint256"
        }
      ],
      "name": "getCurrencyPrice",
      "outputs": [
        {
          "internalType": "uint256",
          "name": "",
          "type": "uint256"
        },
        {
          "internalType": "uint256",
          "name": "",
          "type": "uint256"
        },
        {
          "internalType": "uint256",
          "name": "",
          "type": "uint256"
        }
      ],
      "stateMutability": "view",
      "type": "function"
    },
    {
      "inputs": [
        {
          "internalType": "address",
          "name": "account",
          "type": "address"
        },
        {
          "internalType": "address",
          "name": "operator",
          "type": "address"
        }
      ],
      "name": "isApprovedForAll",
      "outputs": [
        {
          "internalType": "bool",
          "name": "",
          "type": "bool"
        }
      ],
      "stateMutability": "view",
      "type": "function"
    },
    {
      "inputs": [
        {
          "internalType": "uint256",
          "name": "assetId_",
          "type": "uint256"
        },
        {
          "internalType": "uint256",
          "name": "units_",
          "type": "uint256"
        }
      ],
      "name": "mintAssets",
      "outputs": [],
      "stateMutability": "nonpayable",
      "type": "function"
    },
    {
      "inputs": [
        {
          "internalType": "address",
          "name": "from",
          "type": "address"
        },
        {
          "internalType": "address",
          "name": "to",
          "type": "address"
        },
        {
          "internalType": "uint256[]",
          "name": "ids",
          "type": "uint256[]"
        },
        {
          "internalType": "uint256[]",
          "name": "amounts",
          "type": "uint256[]"
        },
        {
          "internalType": "bytes",
          "name": "data",
          "type": "bytes"
        }
      ],
      "name": "safeBatchTransferFrom",
      "outputs": [],
      "stateMutability": "nonpayable",
      "type": "function"
    },
    {
      "inputs": [
        {
          "internalType": "address",
          "name": "from",
          "type": "address"
        },
        {
          "internalType": "address",
          "name": "to",
          "type": "address"
        },
        {
          "internalType": "uint256",
          "name": "id",
          "type": "uint256"
        },
        {
          "internalType": "uint256",
          "name": "amount",
          "type": "uint256"
        },
        {
          "internalType": "bytes",
          "name": "data",
          "type": "bytes"
        }
      ],
      "name": "safeTransferFrom",
      "outputs": [],
      "stateMutability": "nonpayable",
      "type": "function"
    },
    {
      "inputs": [
        {
          "internalType": "address",
          "name": "operator",
          "type": "address"
        },
        {
          "internalType": "bool",
          "name": "approved",
          "type": "bool"
        }
      ],
      "name": "setApprovalForAll",
      "outputs": [],
      "stateMutability": "nonpayable",
      "type": "function"
    },
    {
      "inputs": [],
      "name": "storageOpcodesRange",
      "outputs": [
        {
          "components": [
            {
              "internalType": "uint256",
              "name": "pointer",
              "type": "uint256"
            },
            {
              "internalType": "uint256",
              "name": "length",
              "type": "uint256"
            }
          ],
          "internalType": "struct StorageOpcodesRange",
          "name": "",
          "type": "tuple"
        }
      ],
      "stateMutability": "pure",
      "type": "function"
    },
    {
      "inputs": [
        {
          "internalType": "bytes4",
          "name": "interfaceId",
          "type": "bytes4"
        }
      ],
      "name": "supportsInterface",
      "outputs": [
        {
          "internalType": "bool",
          "name": "",
          "type": "bool"
        }
      ],
      "stateMutability": "view",
      "type": "function"
    },
    {
      "inputs": [],
      "name": "totalAssets",
      "outputs": [
        {
          "internalType": "uint256",
          "name": "",
          "type": "uint256"
        }
      ],
      "stateMutability": "view",
      "type": "function"
    },
    {
      "inputs": [
        {
          "internalType": "uint256",
          "name": "id",
          "type": "uint256"
        }
      ],
      "name": "totalSupply",
      "outputs": [
        {
          "internalType": "uint256",
          "name": "",
          "type": "uint256"
        }
      ],
      "stateMutability": "view",
      "type": "function"
    },
    {
      "inputs": [
        {
          "internalType": "uint256",
          "name": "_tokenId",
          "type": "uint256"
        }
      ],
      "name": "uri",
      "outputs": [
        {
          "internalType": "string",
          "name": "",
          "type": "string"
        }
      ],
      "stateMutability": "view",
      "type": "function"
    }
  ],
  "bytecode": "0x60c06040523480156200001157600080fd5b506040516200519f3803806200519f833981016040819052620000349162000165565b6040805160208101909152600081526200004e81620000a6565b503060805280516001600160a01b0390811660a05260408051338152835190921660208301527f44788c2de8ef11f7319be42eeb662b7294d2ddd71cad90e02f888701a34fa828910160405180910390a1506200020a565b8051620000bb906002906020840190620000bf565b5050565b828054620000cd90620001cd565b90600052602060002090601f016020900481019282620000f157600085556200013c565b82601f106200010c57805160ff19168380011785556200013c565b828001600101855582156200013c579182015b828111156200013c5782518255916020019190600101906200011f565b506200014a9291506200014e565b5090565b5b808211156200014a57600081556001016200014f565b6000602082840312156200017857600080fd5b604051602081016001600160401b0381118282101715620001a957634e487b7160e01b600052604160045260246000fd5b60405282516001600160a01b0381168114620001c457600080fd5b81529392505050565b600181811c90821680620001e257607f821691505b602082108114156200020457634e487b7160e01b600052602260045260246000fd5b50919050565b60805160a051614f6f620002306000396000611499015260006114c60152614f6f6000f3fe608060405234801561001057600080fd5b50600436106101105760003560e01c806396d17bdc116100ad578063e0419ae311610071578063e0419ae3146102ac578063e985e9c5146102e4578063f242432a14610320578063f2cd6c0814610333578063f812af84146104db57600080fd5b806396d17bdc14610212578063a22cb46514610240578063bd85b03914610253578063cf35bdd014610273578063d30402411461029957600080fd5b8062fdd58e1461011557806301e1d1141461013b57806301ffc9a71461014457806303906c90146101675780630e89341c146101885780632eb2c2d6146101a85780634e1273f4146101bd5780634f558e79146101dd578063959e70d3146101ff575b600080fd5b610128610123366004613982565b6104ee565b6040519081526020015b60405180910390f35b61012860045481565b6101576101523660046139c4565b610587565b6040519015158152602001610132565b61017a6101753660046139e1565b6105d7565b604051610132929190613a54565b61019b610196366004613a6d565b6107d0565b6040516101329190613ade565b6101bb6101b6366004613c97565b6108c2565b005b6101d06101cb366004613db3565b61090e565b6040516101329190613e16565b6101576101eb366004613a6d565b600090815260036020526040902054151590565b61012861020d3660046139e1565b610a37565b610225610220366004613e29565b610a51565b60408051938452602084019290925290820152606001610132565b6101bb61024e366004613e7f565b610b09565b610128610261366004613a6d565b60009081526003602052604090205490565b610286610281366004613a6d565b610b18565b6040516101329796959493929190613f7d565b6101bb6102a7366004614025565b610e3f565b604080518082018252600080825260209182018190528251808401845281815282018181528351918252519181019190915201610132565b6101576102f2366004614047565b6001600160a01b03918216600090815260016020908152604080832093909416825291909152205460ff1690565b6101bb61032e366004614075565b6111b6565b604080516105e081018252600060208201819052918101829052606081018290526080810182905260a0810182905260c081019190915261277c60e0820181905261280e61010083015261288d61012083015261292e610140830152610160820152612975610180820152612a0e6101a0820152612a626101c0820152612bfb6101e0820152612c06610200820152612c11610220820152612c1c610240820152612c27610260820152612c3d610280820152612c676102a0820152612c916102c0820152612ca76102e0820152612cbd610300820152612cf2610320820152612d11610340820152612d2b610360820152612d54610380820152612d6f6103a0820152612d7e6103c0820152612d996103e0820152612de6610400820152612e25610420820152612e63610440820152612e9c610460820152612ed0610480820152612f026104a0820152612f346104c0820152612f666104e0820152612f9a610500820152612fec6105208201526130256105408201526130756105608201526131226105808201526131426105a08201526131fb6105c080830191909152815261019b565b6101bb6104e936600461427b565b6111fb565b60006001600160a01b03831661055e5760405162461bcd60e51b815260206004820152602a60248201527f455243313135353a2061646472657373207a65726f206973206e6f742061207660448201526930b634b21037bbb732b960b11b60648201526084015b60405180910390fd5b506000818152602081815260408083206001600160a01b03861684529091529020545b92915050565b60006001600160e01b03198216636cdb3d1360e11b14806105b857506001600160e01b031982166303a24d0760e21b145b8061058157506301ffc9a760e01b6001600160e01b0319831614610581565b600060606105e36136fb565b6001600160a01b038516815260208101849052600061060187611721565b905061062e8260405160200161061791906143a8565b604051602081830303815290604052826000611756565b5060008781526006602090815260408083206007018054825181850281018501909352808352919290919083018282801561068857602002820191906000526020600020905b815481526020019060010190808311610674575b505050505090506000600183600001516106a291906143f2565b905060008360200151600285600001516106bc91906143f2565b815181106106cc576106cc614392565b60200260200101519050600083516001600160401b038111156106f1576106f1613af1565b60405190808252806020026020018201604052801561071a578160200160208202803683370190505b50905060005b84518110156107bf5760008160010186510390508660200151858151811061074a5761074a614392565b602002602001015183828151811061076457610764614392565b6020026020010181815250506107a38760200151600187038151811061078c5761078c614392565b6020026020010151856119d890919063ffffffff16565b93506002850394505080806107b790614409565b915050610720565b50909a909950975050505050505050565b6000818152600360205260409020546060906108215760405162461bcd60e51b815260206004820152601060248201526f24b73b30b634b2102a37b5b2b724b21760811b6044820152606401610555565b6000828152600660205260409020600901805461083d90614424565b80601f016020809104026020016040519081016040528092919081815260200182805461086990614424565b80156108b65780601f1061088b576101008083540402835291602001916108b6565b820191906000526020600020905b81548152906001019060200180831161089957829003601f168201915b50505050509050919050565b6001600160a01b0385163314806108de57506108de85336102f2565b6108fa5760405162461bcd60e51b815260040161055590614459565b61090785858585856119ee565b5050505050565b606081518351146109735760405162461bcd60e51b815260206004820152602960248201527f455243313135353a206163636f756e747320616e6420696473206c656e677468604482015268040dad2e6dac2e8c6d60bb1b6064820152608401610555565b600083516001600160401b0381111561098e5761098e613af1565b6040519080825280602002602001820160405280156109b7578160200160208202803683370190505b50905060005b8451811015610a2f57610a028582815181106109db576109db614392565b60200260200101518583815181106109f5576109f5614392565b60200260200101516104ee565b828281518110610a1457610a14614392565b6020908102919091010152610a2881614409565b90506109bd565b509392505050565b600080610a458585856105d7565b509150505b9392505050565b600080600080610a628887876105d7565b9150506000610a718989611bd9565b9050818181518110610a8557610a85614392565b6020026020010151600660008b81526020019081526020016000206005016001018281548110610ab757610ab7614392565b9060005260206000200154600660008c81526020019081526020016000206005016002018381548110610aec57610aec614392565b906000526020600020015494509450945050509450945094915050565b610b14338383611c4f565b5050565b600660209081526000918252604080832080546001820154835160028401805460609781028301880187529582018681529397929694959194909385939092859290919085015b82821015610c0b578382906000526020600020018054610b7e90614424565b80601f0160208091040260200160405190810160405280929190818152602001828054610baa90614424565b8015610bf75780601f10610bcc57610100808354040283529160200191610bf7565b820191906000526020600020905b815481529060010190602001808311610bda57829003601f168201915b505050505081526020019060010190610b5f565b50505050815260200160018201805480602002602001604051908101604052809291908181526020018280548015610c6257602002820191906000526020600020905b815481526020019060010190808311610c4e575b50505091909252505050600482015460408051600585018054608060208202840181019094526060830181815295966001600160a01b039095169592939192849290918491840182828015610ce057602002820191906000526020600020905b81546001600160a01b03168152600190910190602001808311610cc2575b5050505050815260200160018201805480602002602001604051908101604052809291908181526020018280548015610d3857602002820191906000526020600020905b815481526020019060010190808311610d24575b5050505050815260200160028201805480602002602001604051908101604052809291908181526020018280548015610d9057602002820191906000526020600020905b815481526020019060010190808311610d7c575b50505091909252505050600882015460098301805492936001600160a01b0390921692610dbc90614424565b80601f0160208091040260200160405190810160405280929190818152602001828054610de890614424565b8015610e355780601f10610e0a57610100808354040283529160200191610e35565b820191906000526020600020905b815481529060010190602001808311610e1857829003601f168201915b5050505050905087565b600454821115610e835760405162461bcd60e51b815260206004820152600f60248201526e125b9d985b1a5908105cdcd95d1259608a1b6044820152606401610555565b600080610e918433856105d7565b9150915060008211610ed15760405162461bcd60e51b815260206004820152600960248201526810d85b9d08135a5b9d60ba1b6044820152606401610555565b610edb82846119d8565b915060005b60008581526006602052604090206005015481101561119457600085815260066020819052604090912001805482908110610f1d57610f1d614392565b90600052602060002001546000141561102f576000858152600660205260409020600501805482908110610f5357610f53614392565b6000918252602080832090910154878352600690915260409091206008015483516001600160a01b03928316926323b872dd9233929116908790879087908110610f9f57610f9f614392565b6020026020010151610fb191906144a8565b6040516001600160e01b031960e086901b1681526001600160a01b03938416600482015292909116602483015260448201526064016020604051808303816000875af1158015611005573d6000803e3d6000fd5b505050506040513d601f19601f8201168201806040525081019061102991906144c7565b50611182565b60008581526006602081905260409091200180548290811061105357611053614392565b90600052602060002001546001141561118257600085815260066020526040902060050180548290811061108957611089614392565b6000918252602080832090910154878352600690915260409091206008810154600790910180546001600160a01b039384169363f242432a933393911691869081106110d7576110d7614392565b9060005260206000200154878787815181106110f5576110f5614392565b602002602001015161110791906144a8565b6040516001600160e01b031960e087901b1681526001600160a01b0394851660048201529390921660248401526044830152606482015260a06084820152600060a482015260c401600060405180830381600087803b15801561116957600080fd5b505af115801561117d573d6000803e3d6000fd5b505050505b8061118c81614409565b915050610ee0565b506111b033858460405180602001604052806000815250611d30565b50505050565b6001600160a01b0385163314806111d257506111d285336102f2565b6111ee5760405162461bcd60e51b815260040161055590614459565b6109078585858585611e53565b6080810151602081015151905151146112265760405162461bcd60e51b8152600401610555906144e4565b6080810151604081015151905151146112515760405162461bcd60e51b8152600401610555906144e4565b60005b6080820151515181101561138d576001826080015160200151828151811061127e5761127e614392565b602002602001015111156112a45760405162461bcd60e51b8152600401610555906144e4565b81608001516020015181815181106112be576112be614392565b60200260200101516000141561130f5781608001516040015181815181106112e8576112e8614392565b602002602001015160001461130f5760405162461bcd60e51b8152600401610555906144e4565b816080015160200151818151811061132957611329614392565b60200260200101516001141561137b57816080015160400151818151811061135357611353614392565b60200260200101516000141561137b5760405162461bcd60e51b8152600401610555906144e4565b8061138581614409565b915050611254565b5060045461139c90600161450e565b6004556113a7613719565b600080825260408051600180825281830190925290816020015b6113c9613719565b8152602001906001900390816113c157905050905081816000815181106113f2576113f2614392565b602002602001018190525060005b6080840151515181101561147a5760045460009081526005602052604081206080860151518051849391908490811061143b5761143b614392565b60200260200101516001600160a01b03166001600160a01b0316815260200190815260200160002081905550808061147290614409565b915050611400565b50606083015160405162b9bb5760e51b81526000916001600160a01b037f000000000000000000000000000000000000000000000000000000000000000016916317376ae0916114f1917f000000000000000000000000000000000000000000000000000000000000000091908790600401614526565b6000604051808303816000875af1158015611510573d6000803e3d6000fd5b505050506040513d6000823e601f3d908101601f1916820160405261153891908101906145cd565b90506040518060e001604052808560400151815260200160045481526020018560600151815260200161156a83611f8b565b6001600160a01b03168152602001856080015181526020018560a001516001600160a01b031681526020018560c00151815250600660006004548152602001908152602001600020600082015181600001556020820151816001015560408201518160020160008201518160000190805190602001906115eb929190613756565b50602082810151805161160492600185019201906137b3565b50505060608201516004820180546001600160a01b0319166001600160a01b03909216919091179055608082015180518051600584019161164a918391602001906137fa565b50602082810151805161166392600185019201906137b3565b506040820151805161167f9160028401916020909101906137b3565b50505060a08201516008820180546001600160a01b0319166001600160a01b0390921691909117905560c082015180516116c391600984019160209091019061384f565b505060045460008181526006602090815260409182902088519189015192517f2c60302e47b38000abd8c2f44e36eb00fcc7159a569caeb6487a52cf34d95b449550611713949391929190614811565b60405180910390a150505050565b6117296138c2565b60008281526006602052604090206004015461058190611751906001600160a01b0316611ff0565b612000565b60208281015183516040850151848402018301518051606087015160a088015160009687968796879695948301938284019391820290920101906002015b848910156119c0576003890198508886015180601f1a975061ffff8160081c16985050600688101561196157876117d957866020028401518252602082019150611974565b60018814156117f657602087028301518252602082019150611974565b600288141561185a578c5187602002106118435760405162461bcd60e51b815260206004820152600e60248201526d0869e9ca88ab0a8be988a9c8ea8960931b6044820152606401610555565b866020026020018d01518252602082019150611974565b60038814156118a25760006118906040805180820182526000808252602091820181905282518084019093528083529082015290565b51880154835250602090910190611974565b60048814156118be576118b78d8d848a612116565b9150611974565b6060876118ec578c6040516020016118d691906148e3565b604051602081830303815290604052905061194b565b6001881415611905576118fe8d61225a565b905061194b565b6002881415611921576020808e01516040516118d6920161495c565b600388141561194b578c516040805160208101929092520160405160208183030381529060405290505b80511561195b5761195b8161235b565b50611974565b87611970888463ffffffff8416565b9250505b60208c0151518c5111156119bb5760405162461bcd60e51b815260206004820152600e60248201526d535441434b5f4f564552464c4f5760901b6044820152606401610555565b611794565b602083830304909b529b9a5050505050505050505050565b60008183106119e75781610a4a565b5090919050565b8151835114611a505760405162461bcd60e51b815260206004820152602860248201527f455243313135353a2069647320616e6420616d6f756e7473206c656e677468206044820152670dad2e6dac2e8c6d60c31b6064820152608401610555565b6001600160a01b038416611a765760405162461bcd60e51b8152600401610555906149a8565b33611a858187878787876123a1565b60005b8451811015611b6b576000858281518110611aa557611aa5614392565b602002602001015190506000858381518110611ac357611ac3614392565b602090810291909101810151600084815280835260408082206001600160a01b038e168352909352919091205490915081811015611b135760405162461bcd60e51b8152600401610555906149ed565b6000838152602081815260408083206001600160a01b038e8116855292528083208585039055908b16825281208054849290611b5090849061450e565b9250508190555050505080611b6490614409565b9050611a88565b50846001600160a01b0316866001600160a01b0316826001600160a01b03167f4a39dc06d4c0dbc64b70af90fd698a233a518aa5d07e595d983b8c0526c8f7fb8787604051611bbb929190614a37565b60405180910390a4611bd181878787878761251a565b505050505050565b60008281526005602081815260408084206001600160a01b03861685528252808420548685526006909252909220015481106105815760405162461bcd60e51b815260206004820152601560248201527424b73b30b634b2103830bcb6b2b73a103a37b5b2b760591b6044820152606401610555565b816001600160a01b0316836001600160a01b03161415611cc35760405162461bcd60e51b815260206004820152602960248201527f455243313135353a2073657474696e6720617070726f76616c20737461747573604482015268103337b91039b2b63360b91b6064820152608401610555565b6001600160a01b03838116600081815260016020908152604080832094871680845294825291829020805460ff191686151590811790915591519182527f17307eab39ab6107e8899845ad3d59bd9653f200f220920489ca2b5937696c31910160405180910390a3505050565b6001600160a01b038416611d905760405162461bcd60e51b815260206004820152602160248201527f455243313135353a206d696e7420746f20746865207a65726f206164647265736044820152607360f81b6064820152608401610555565b336000611d9c85612676565b90506000611da985612676565b9050611dba836000898585896123a1565b6000868152602081815260408083206001600160a01b038b16845290915281208054879290611dea90849061450e565b909155505060408051878152602081018790526001600160a01b03808a1692600092918716917fc3d58168c5ae7397731d063d5bbf3d657854427343f4c083240f7aacaa2d0f62910160405180910390a4611e4a836000898989896126c1565b50505050505050565b6001600160a01b038416611e795760405162461bcd60e51b8152600401610555906149a8565b336000611e8585612676565b90506000611e9285612676565b9050611ea28389898585896123a1565b6000868152602081815260408083206001600160a01b038c16845290915290205485811015611ee35760405162461bcd60e51b8152600401610555906149ed565b6000878152602081815260408083206001600160a01b038d8116855292528083208985039055908a16825281208054889290611f2090849061450e565b909155505060408051888152602081018890526001600160a01b03808b16928c821692918816917fc3d58168c5ae7397731d063d5bbf3d657854427343f4c083240f7aacaa2d0f62910160405180910390a4611f80848a8a8a8a8a6126c1565b505050505050505050565b600080611fb683604051602001611fa29190614a5c565b60405160208183030381529060405261323b565b90508051602082016000f091506001600160a01b038216611fea5760405163046a55db60e11b815260040160405180910390fd5b50919050565b6060610581826001600019613267565b6120086138c2565b6120106138c2565b60208301805160ff8082168352606084019290925290600882901c166001600160401b0381111561204357612043613af1565b60405190808252806020026020018201604052801561206c578160200160208202803683370190505b50602083015260ff601082901c81166080840152601882901c1660606000826001600160401b038111156120a2576120a2613af1565b6040519080825280602002602001820160405280156120cb578160200160208202803683370190505b5090506020870151602002604001870160005b848110156121055781602082026020018401528151602001820191506001810190506120de565b505060408501525091949350505050565b600060078216600383811c1682808261213757506000199050610100612178565b826001141561215257506001600160801b0390506080612178565b826002141561216d57506001600160401b0390506040612178565b5063ffffffff905060205b6001600587901c016000816001600160401b0381111561219a5761219a613af1565b6040519080825280602002602001820160405280156121c3578160200160208202803683370190505b50905060208082019083028a03815b8b8210156121ea5781518152602091820191016121d2565b505060608b015160808c015160209081029091010160005b6101008110156122485760208502830182845b82811015612231578051841c8a16825260209182019101612215565b50505061223f8e8e8b611756565b9b508501612202565b50999c9b505050505050505050505050565b606060008260600151905060006018846040015151901b60108560800151901b6008866020015151901b866060015151171717905060008160001b836040516020016122a6919061495c565b60408051601f19818403018152908290526122c49291602001614a82565b604051602081830303815290604052905060005b8560400151518110156123525781866040015182815181106122fc576122fc614392565b60200260200101515160001b8760400151838151811061231e5761231e614392565b602002602001015160405160200161233893929190614aa8565b60408051601f1981840301815291905291506001016122d8565b50949350505050565b61239e8160405160240161236f9190613ade565b60408051601f198184030181529190526020810180516001600160e01b03166305f3bfab60e11b179052613318565b50565b6001600160a01b0385166124285760005b8351811015612426578281815181106123cd576123cd614392565b6020026020010151600360008684815181106123eb576123eb614392565b602002602001015181526020019081526020016000206000828254612410919061450e565b9091555061241f905081614409565b90506123b2565b505b6001600160a01b038416611bd15760005b8351811015611e4a57600084828151811061245657612456614392565b60200260200101519050600084838151811061247457612474614392565b60200260200101519050600060036000848152602001908152602001600020549050818110156124f75760405162461bcd60e51b815260206004820152602860248201527f455243313135353a206275726e20616d6f756e74206578636565647320746f74604482015267616c537570706c7960c01b6064820152608401610555565b6000928352600360205260409092209103905561251381614409565b9050612439565b6001600160a01b0384163b15611bd15760405163bc197c8160e01b81526001600160a01b0385169063bc197c819061255e9089908990889088908890600401614adf565b6020604051808303816000875af1925050508015612599575060408051601f3d908101601f1916820190925261259691810190614b3d565b60015b612646576125a5614b5a565b806308c379a014156125df57506125ba614b76565b806125c557506125e1565b8060405162461bcd60e51b81526004016105559190613ade565b505b60405162461bcd60e51b815260206004820152603460248201527f455243313135353a207472616e7366657220746f206e6f6e20455243313135356044820152732932b1b2b4bb32b91034b6b83632b6b2b73a32b960611b6064820152608401610555565b6001600160e01b0319811663bc197c8160e01b14611e4a5760405162461bcd60e51b815260040161055590614bff565b604080516001808252818301909252606091600091906020808301908036833701905050905082816000815181106126b0576126b0614392565b602090810291909101015292915050565b6001600160a01b0384163b15611bd15760405163f23a6e6160e01b81526001600160a01b0385169063f23a6e61906127059089908990889088908890600401614c47565b6020604051808303816000875af1925050508015612740575060408051601f3d908101601f1916820190925261273d91810190614b3d565b60015b61274c576125a5614b5a565b6001600160e01b0319811663f23a6e6160e01b14611e4a5760405162461bcd60e51b815260040161055590614bff565b603f1981018051601f1990920180516040516370a0823160e01b81526001600160a01b03808316600483015292946000949390929185918416906370a08231906024015b602060405180830381865afa1580156127dd573d6000803e3d6000fd5b505050506040513d601f19601f820116820180604052508101906128019190614c81565b9093525092949350505050565b6000806000602084039150815190506000816001600160a01b03166318160ddd6040518163ffffffff1660e01b8152600401602060405180830381865afa15801561285d573d6000803e3d6000fd5b505050506040513d601f19601f820116820180604052508101906128819190614c81565b90925250919392505050565b605f1981018051603f1983018051601f199094015160405163277166bf60e11b81526001600160a01b03808716600483015260248201839052929560009594939092918691851690634ee2cd7e906044015b602060405180830381865afa1580156128fc573d6000803e3d6000fd5b505050506040513d601f19601f820116820180604052508101906129209190614c81565b909452509395945050505050565b603f1981018051601f199092018051604051630981b24d60e41b81526004810182905291936000939290919084906001600160a01b0384169063981b24d0906024016127c0565b603f1981018051601f1990920180516040516331a9108f60e11b81526004810182905291936000939290919084906001600160a01b03841690636352211e90602401602060405180830381865afa1580156129d4573d6000803e3d6000fd5b505050506040513d601f19601f820116820180604052508101906129f89190614c9a565b6001600160a01b03169093525092949350505050565b605f1981018051603f1983018051601f1990940151604051627eeac760e11b81526001600160a01b0380871660048301526024820183905292956000959493909291869185169062fdd58e906044016128df565b6000806000846001600160401b03811115612a7f57612a7f613af1565b604051908082528060200260200182016040528015612aa8578160200160208202803683370190505b5090506000856001600160401b03811115612ac557612ac5613af1565b604051908082528060200260200182016040528015612aee578160200160208202803683370190505b50604087028603601f1981018051909550919250602080890282019085015b81831015612b25578251815260209283019201612b0d565b5050602088028101602084015b81831015612b4a578251815260209283019201612b32565b50506040516313849cfd60e21b8152600091506001600160a01b03831690634e1273f490612b7e9087908790600401614cb7565b600060405180830381865afa158015612b9b573d6000803e3d6000fd5b505050506040513d6000823e601f3d908101601f19168201604052612bc39190810190614cca565b9050846020820160208a0281015b80821015612bec578151835260209283019290910190612bd1565b50909998505050505050505050565b438152602001919050565b338152602001919050565b308152602001919050565b428152602001919050565b601f198101805160009190826128818287613339565b603f1981018051601f1990920180519092600092918361280182612c61858a613339565b9061339c565b603f1981018051601f1990920180519092600092918361280182612c8b858a613339565b906133bb565b601f1981018051600091908261288182876133d0565b601f19810180516000919082612881828761341b565b6000602083028203805b83811015612ce75780518015612cde578252612ce7565b50602001612cc7565b506020019392505050565b605f1981018051156020028201603f1990810151909152018092915050565b601f1981018051603f199092018051909214909152919050565b6000602083028203805b83811015612ce7578051612d4c5760008252612ce7565b602001612d35565b601f1981018051603f19909201805192909211909152919050565b601f1981018051159052919050565b601f1981018051603f19909201805192909210909152919050565b6020828102820380516000928201835b8582108015612db9575060001983105b15612dd857508051602090910190612dd1838261345b565b9250612da9565b505081526020019392505050565b6020828102820380516000928201835b8582108015612e06575060001983105b15612dd857508051602090910190612e1e8382613479565b9250612df6565b6020828102820380516000928201835b8582108015612e445750826000105b15612dd857508051602090910190612e5c83826134a8565b9250612e35565b600060208302820380516000602083015b85811015612dd85780518301915082821015612e8f57600080fd5b9091508190602001612e74565b600060208302820380516000602083015b85811015612dd8578051915081612ec357600080fd5b9181900491602001612ead565b6020828102820380516000928201835b85821015612dd857508051602090910190612efb8184614e3e565b9250612ee0565b6020828102820380516000928201835b85821015612dd85750805182811115612f29578092505b602082019150612f12565b6020828102820380516000928201835b85821015612dd85750805182811015612f5b578092505b602082019150612f44565b600060208302820380516000602083015b85811015612dd8578051915081612f8d57600080fd5b9181900691602001612f77565b60006020830282038051600080602084015b86811015612fdd578315612fd5578051925082840291508284830414612fd157600080fd5b8193505b602001612fac565b50505081526020019392505050565b600060208302820380516000602083015b85811015612dd8578051830391508282111561301857600080fd5b9091508190602001612ffd565b819003603f1981018051601f199092018051848252604051632235a18160e21b8152919360009392909190859085906001600160a01b038516906388d68604906128df9086908690600401614e4a565b819003605f1981018051603f19830151601f19909301805185825260405163caa0eb3b60e01b815291946000949392909190869086906001600160a01b0386169063caa0eb3b906130ce90879087908790600401614e6e565b602060405180830381865afa1580156130eb573d6000803e3d6000fd5b505050506040513d601f19601f8201168201806040525081019061310f9190614c81565b8652505060209093019695505050505050565b603f1981018051601f1990920180519092600092918361280183836134be565b6000600783901c6003600585901c16601f85168380826001600160401b0381111561316f5761316f613af1565b604051908082528060200260200182016040528015613198578160200160208202803683370190505b509050600060206001850102880392506020840283018360005b828210156131d4578151816020018601526020820191506020810190506131b2565b505051905060006131e783838989613515565b845250506020909101979650505050505050565b603f1981018051601f199092018051909260009291600f80871691600488901c909116908561322c8585858561360b565b90955250949695505050505050565b6060815182604051602001613251929190614e95565b6040516020818303038152906040529050919050565b6060833b80613286575050604080516020810190915260008152610a4a565b808411156132a4575050604080516020810190915260008152610a4a565b838310156132d65760405163162544fd60e11b8152600481018290526024810185905260448101849052606401610555565b83830384820360008282106132eb57826132ed565b815b60408051603f8301601f19168101909152818152955090508087602087018a3c505050509392505050565b80516a636f6e736f6c652e6c6f67602083016000808483855afa5050505050565b600080826012141561334e5783915050610581565b826012111561337a5750601282900361336881600a614e3e565b61337290856144a8565b915050610581565b50601119820161338b81600a614e3e565b6133729085614ee6565b5092915050565b6000816133b1670de0b6b3a7640000856144a8565b610a4a9190614ee6565b6000670de0b6b3a76400006133b183856144a8565b600081810b6133e0575081610581565b60008260000b1315613408576133f782600a614f08565b61340190846144a8565b9050610581565b60ff60008390031661338b81600a614e3e565b60008060128314156134305783915050610581565b826012111561344a5750601282900361338b81600a614e3e565b50601119820161336881600a614e3e565b600082820183811061346d5780613471565b6000195b949350505050565b60008261348857506000610581565b8282028284828161349b5761349b614992565b04141561346d5780613471565b60008183116134b8576000610a4a565b50900390565b60008060015b60088111610a2f5760006134d88683613667565b905060006134e68684613667565b905060006134f483836134a8565b90506135048560018603836136ac565b945050600190920191506134c49050565b835160009081908190819060015b600881116135fd5760009250828761353e5750600019613542565b5060005b60005b838110156135d9576135708c828151811061356257613562614392565b602002602001015184613667565b95508a86116135c2578861358f5761358886836119d8565b91506135b9565b60018914156135a25761358886836136eb565b6002891480156135b0575084155b156135b9578591505b600194506135d1565b896135d15760001991506135d9565b600101613545565b50836135e457506000195b6135f28660018403836136ac565b955050600101613523565b509298975050505050505050565b600082600881111561362f5760405162461bcd60e51b815260040161055590614f17565b6000855b8581101561365b5763ffffffff6020820290811b199890981685891b17979150600101613633565b50959695505050505050565b600081600881111561368b5760405162461bcd60e51b815260040161055590614f17565b826136995760009150613395565b5050600019016020021c63ffffffff1690565b60008260088111156136d05760405162461bcd60e51b815260040161055590614f17565b505063ffffffff602090920291821b199290921691901b1790565b6000818310156119e75781610a4a565b60405180604001604052806002906020820280368337509192915050565b6040518060e00160405280600081526020016000815260200160008152602001600081526020016000815260200160008152602001600081525090565b8280548282559060005260206000209081019282156137a3579160200282015b828111156137a3578251805161379391849160209091019061384f565b5091602001919060010190613776565b506137af9291506138f1565b5090565b8280548282559060005260206000209081019282156137ee579160200282015b828111156137ee5782518255916020019190600101906137d3565b506137af92915061390e565b8280548282559060005260206000209081019282156137ee579160200282015b828111156137ee57825182546001600160a01b0319166001600160a01b0390911617825560209092019160019091019061381a565b82805461385b90614424565b90600052602060002090601f01602090048101928261387d57600085556137ee565b82601f1061389657805160ff19168380011785556137ee565b828001600101855582156137ee57918201828111156137ee5782518255916020019190600101906137d3565b6040518060a0016040528060008152602001606081526020016060815260200160608152602001600081525090565b808211156137af5760006139058282613923565b506001016138f1565b5b808211156137af576000815560010161390f565b50805461392f90614424565b6000825580601f1061393f575050565b601f01602090049060005260206000209081019061239e919061390e565b6001600160a01b038116811461239e57600080fd5b803561397d8161395d565b919050565b6000806040838503121561399557600080fd5b82356139a08161395d565b946020939093013593505050565b6001600160e01b03198116811461239e57600080fd5b6000602082840312156139d657600080fd5b8135610a4a816139ae565b6000806000606084860312156139f657600080fd5b833592506020840135613a088161395d565b929592945050506040919091013590565b600081518084526020808501945080840160005b83811015613a4957815187529582019590820190600101613a2d565b509495945050505050565b8281526040602082015260006134716040830184613a19565b600060208284031215613a7f57600080fd5b5035919050565b60005b83811015613aa1578181015183820152602001613a89565b838111156111b05750506000910152565b60008151808452613aca816020860160208601613a86565b601f01601f19169290920160200192915050565b602081526000610a4a6020830184613ab2565b634e487b7160e01b600052604160045260246000fd5b604081018181106001600160401b0382111715613b2657613b26613af1565b60405250565b601f8201601f191681016001600160401b0381118282101715613b5157613b51613af1565b6040525050565b60405160e081016001600160401b0381118282101715613b7a57613b7a613af1565b60405290565b60006001600160401b03821115613b9957613b99613af1565b5060051b60200190565b600082601f830112613bb457600080fd5b81356020613bc182613b80565b604051613bce8282613b2c565b83815260059390931b8501820192828101915086841115613bee57600080fd5b8286015b84811015613c095780358352918301918301613bf2565b509695505050505050565b60006001600160401b03821115613c2d57613c2d613af1565b50601f01601f191660200190565b600082601f830112613c4c57600080fd5b8135613c5781613c14565b604051613c648282613b2c565b828152856020848701011115613c7957600080fd5b82602086016020830137600092810160200192909252509392505050565b600080600080600060a08688031215613caf57600080fd5b8535613cba8161395d565b94506020860135613cca8161395d565b935060408601356001600160401b0380821115613ce657600080fd5b613cf289838a01613ba3565b94506060880135915080821115613d0857600080fd5b613d1489838a01613ba3565b93506080880135915080821115613d2a57600080fd5b50613d3788828901613c3b565b9150509295509295909350565b600082601f830112613d5557600080fd5b81356020613d6282613b80565b604051613d6f8282613b2c565b83815260059390931b8501820192828101915086841115613d8f57600080fd5b8286015b84811015613c09578035613da68161395d565b8352918301918301613d93565b60008060408385031215613dc657600080fd5b82356001600160401b0380821115613ddd57600080fd5b613de986838701613d44565b93506020850135915080821115613dff57600080fd5b50613e0c85828601613ba3565b9150509250929050565b602081526000610a4a6020830184613a19565b60008060008060808587031215613e3f57600080fd5b843593506020850135613e518161395d565b92506040850135613e618161395d565b9396929550929360600135925050565b801515811461239e57600080fd5b60008060408385031215613e9257600080fd5b8235613e9d8161395d565b91506020830135613ead81613e71565b809150509250929050565b600081518084526020808501808196508360051b8101915082860160005b85811015613f00578284038952613eee848351613ab2565b98850198935090840190600101613ed6565b5091979650505050505050565b6000815160408452613f226040850182613eb8565b905060208301518482036020860152613f3b8282613a19565b95945050505050565b600081518084526020808501945080840160005b83811015613a495781516001600160a01b031687529582019590820190600101613f58565b87815286602082015260e060408201526000613f9c60e0830188613f0d565b60018060a01b0380881660608501528382036080850152865160608352613fc66060840182613f44565b905060208801518382036020850152613fdf8282613a19565b91505060408801518382036040850152613ff98282613a19565b92881660a0870152505083810360c085015290506140178185613ab2565b9a9950505050505050505050565b6000806040838503121561403857600080fd5b50508035926020909101359150565b6000806040838503121561405a57600080fd5b82356140658161395d565b91506020830135613ead8161395d565b600080600080600060a0868803121561408d57600080fd5b85356140988161395d565b945060208601356140a88161395d565b9350604086013592506060860135915060808601356001600160401b038111156140d157600080fd5b613d3788828901613c3b565b6000604082840312156140ef57600080fd5b6040516140fb81613b07565b80915082356001600160401b038082111561411557600080fd5b818501915085601f83011261412957600080fd5b8135602061413682613b80565b6040516141438282613b2c565b83815260059390931b850182019282810191508984111561416357600080fd5b8286015b8481101561419b5780358681111561417f5760008081fd5b61418d8c86838b0101613c3b565b845250918301918301614167565b50865250868101359350828411156141b257600080fd5b6141be88858901613ba3565b81860152505050505092915050565b6000606082840312156141df57600080fd5b604051606081016001600160401b03828210818311171561420257614202613af1565b81604052829350843591508082111561421a57600080fd5b61422686838701613d44565b8352602085013591508082111561423c57600080fd5b61424886838701613ba3565b6020840152604085013591508082111561426157600080fd5b5061426e85828601613ba3565b6040830152505092915050565b60006020828403121561428d57600080fd5b81356001600160401b03808211156142a457600080fd5b9083019060e082860312156142b857600080fd5b6142c0613b58565b8235828111156142cf57600080fd5b6142db87828601613c3b565b8252506020830135828111156142f057600080fd5b6142fc87828601613c3b565b6020830152506040830135604082015260608301358281111561431e57600080fd5b61432a878286016140dd565b60608301525060808301358281111561434257600080fd5b61434e878286016141cd565b60808301525061436060a08401613972565b60a082015260c08301358281111561437757600080fd5b61438387828601613c3b565b60c08301525095945050505050565b634e487b7160e01b600052603260045260246000fd5b60008183825b60028110156143cd5781518352602092830192909101906001016143ae565b50505060408201905092915050565b634e487b7160e01b600052601160045260246000fd5b600082821015614404576144046143dc565b500390565b600060001982141561441d5761441d6143dc565b5060010190565b600181811c9082168061443857607f821691505b60208210811415611fea57634e487b7160e01b600052602260045260246000fd5b6020808252602f908201527f455243313135353a2063616c6c6572206973206e6f7420746f6b656e206f776e60408201526e195c881b9bdc88185c1c1c9bdd9959608a1b606082015260800190565b60008160001904831182151516156144c2576144c26143dc565b500290565b6000602082840312156144d957600080fd5b8151610a4a81613e71565b60208082526010908201526f125b9d985b1a5908105c99dd5b595b9d60821b604082015260600190565b60008219821115614521576145216143dc565b500190565b6001600160a01b0384168152606060208083018290526000919061454c84830187613f0d565b84810360408681019190915286518083528388019284019060005b818110156145bd578451805184528681015187850152848101518585015287810151888501526080808201519085015260a0808201519085015260c090810151908401529385019360e090920191600101614567565b50909a9950505050505050505050565b6000602082840312156145df57600080fd5b81516001600160401b038111156145f557600080fd5b8201601f8101841361460657600080fd5b805161461181613c14565b60405161461e8282613b2c565b82815286602084860101111561463357600080fd5b614644836020830160208701613a86565b9695505050505050565b8054600090600181811c908083168061466857607f831692505b602080841082141561468a57634e487b7160e01b600052602260045260246000fd5b8388528180156146a157600181146146b5576146e3565b60ff198616898301526040890196506146e3565b876000528160002060005b868110156146db5781548b82018501529085019083016146c0565b8a0183019750505b50505050505092915050565b6000815480845260208085019450836000528060002060005b83811015613a4957815487529582019560019182019101614708565b6000604083016040845280835480835260608601915060608160051b87010192508460005260208060002060005b8381101561477f57888603605f1901855261476d868361464e565b95509382019360019182019101614752565b50508684038188015250505061347181600185016146ef565b6000606083016060845280835480835260808601915084600052602092508260002060005b828110156147e25781546001600160a01b0316845292840192600191820191016147bd565b505050848103828601526147f981600186016146ef565b915050838103604085015261347181600285016146ef565b8481526080602082015283546080820152600184015460a082015260e060c08201526000614846610160830160028701614724565b60048601546001600160a01b031660e0840152607f1983820381016101008501526148748260058901614798565b915061488a60088801546001600160a01b031690565b6001600160a01b0316610120850152838203016101408401526148b0816009880161464e565b905082810360408401526148c48186613ab2565b905082810360608401526148d88185613ab2565b979650505050505050565b60208152815160208201526000602083015160a0604084015261490960c0840182613a19565b90506040840151601f19808584030160608601526149278383613eb8565b92506060860151915080858403016080860152506149458282613a19565b915050608084015160a08401528091505092915050565b815160009082906020808601845b838110156149865781518552938201939082019060010161496a565b50929695505050505050565b634e487b7160e01b600052601260045260246000fd5b60208082526025908201527f455243313135353a207472616e7366657220746f20746865207a65726f206164604082015264647265737360d81b606082015260800190565b6020808252602a908201527f455243313135353a20696e73756666696369656e742062616c616e636520666f60408201526939103a3930b739b332b960b11b606082015260800190565b604081526000614a4a6040830185613a19565b8281036020840152613f3b8185613a19565b6000815260008251614a75816001850160208701613a86565b9190910160010192915050565b82815260008251614a9a816020850160208701613a86565b919091016020019392505050565b60008451614aba818460208901613a86565b82018481528351614ad2816020808501908801613a86565b0160200195945050505050565b6001600160a01b0386811682528516602082015260a060408201819052600090614b0b90830186613a19565b8281036060840152614b1d8186613a19565b90508281036080840152614b318185613ab2565b98975050505050505050565b600060208284031215614b4f57600080fd5b8151610a4a816139ae565b600060033d1115614b735760046000803e5060005160e01c5b90565b600060443d1015614b845790565b6040516003193d81016004833e81513d6001600160401b038160248401118184111715614bb357505050505090565b8285019150815181811115614bcb5750505050505090565b843d8701016020828501011115614be55750505050505090565b614bf460208286010187613b2c565b509095945050505050565b60208082526028908201527f455243313135353a204552433131353552656365697665722072656a656374656040820152676420746f6b656e7360c01b606082015260800190565b6001600160a01b03868116825285166020820152604081018490526060810183905260a0608082018190526000906148d890830184613ab2565b600060208284031215614c9357600080fd5b5051919050565b600060208284031215614cac57600080fd5b8151610a4a8161395d565b604081526000614a4a6040830185613f44565b60006020808385031215614cdd57600080fd5b82516001600160401b03811115614cf357600080fd5b8301601f81018513614d0457600080fd5b8051614d0f81613b80565b604051614d1c8282613b2c565b82815260059290921b8301840191848101915087831115614d3c57600080fd5b928401925b828410156148d857835182529284019290840190614d41565b600181815b80851115614d95578160001904821115614d7b57614d7b6143dc565b80851615614d8857918102915b93841c9390800290614d5f565b509250929050565b600082614dac57506001610581565b81614db957506000610581565b8160018114614dcf5760028114614dd957614df5565b6001915050610581565b60ff841115614dea57614dea6143dc565b50506001821b610581565b5060208310610133831016604e8410600b8410161715614e18575081810a610581565b614e228383614d5a565b8060001904821115614e3657614e366143dc565b029392505050565b6000610a4a8383614d9d565b6001600160a01b038316815260406020820181905260009061347190830184613a19565b60018060a01b0384168152826020820152606060408201526000613f3b6060830184613a19565b606360f81b815260e083901b6001600160e01b03191660018201526880600e6000396000f360b81b60058201528151600090614ed881600e850160208701613a86565b91909101600e019392505050565b600082614f0357634e487b7160e01b600052601260045260246000fd5b500490565b6000610a4a60ff841683614d9d565b60208082526008908201526726a0ac2faa24a2a960c11b60408201526060019056fea264697066735822122062d975cb6a827cb4532febb70ad7562d2b17995813d1dee9086315c378e6f34564736f6c634300080a0033",
  "linkReferences": {},
  "deployedLinkReferences": {}
}