{
  "_format": "hh-sol-artifact-1",
  "contractName": "Rain1155",
  "sourceName": "contracts/Rain1155.sol",
  "abi": [
    {
      "inputs": [],
      "stateMutability": "nonpayable",
      "type": "constructor"
    },
    {
      "inputs": [
        {
          "internalType": "uint256",
          "name": "_size",
          "type": "uint256"
        },
        {
          "internalType": "uint256",
          "name": "_start",
          "type": "uint256"
        },
        {
          "internalType": "uint256",
          "name": "_end",
          "type": "uint256"
        }
      ],
      "name": "InvalidCodeAtRange",
      "type": "error"
    },
    {
      "inputs": [],
      "name": "WriteError",
      "type": "error"
    },
    {
      "anonymous": false,
      "inputs": [
        {
          "indexed": true,
          "internalType": "address",
          "name": "account",
          "type": "address"
        },
        {
          "indexed": true,
          "internalType": "address",
          "name": "operator",
          "type": "address"
        },
        {
          "indexed": false,
          "internalType": "bool",
          "name": "approved",
          "type": "bool"
        }
      ],
      "name": "ApprovalForAll",
      "type": "event"
    },
    {
      "anonymous": false,
      "inputs": [
        {
          "indexed": false,
          "internalType": "uint256",
          "name": "_assetId",
          "type": "uint256"
        },
        {
          "components": [
            {
              "internalType": "uint256",
              "name": "lootBoxId",
              "type": "uint256"
            },
            {
              "internalType": "uint256",
              "name": "id",
              "type": "uint256"
            },
            {
              "components": [
                {
                  "internalType": "uint256",
                  "name": "stackIndex",
                  "type": "uint256"
                },
                {
                  "internalType": "uint256[]",
                  "name": "stack",
                  "type": "uint256[]"
                },
                {
                  "internalType": "bytes[]",
                  "name": "sources",
                  "type": "bytes[]"
                },
                {
                  "internalType": "uint256[]",
                  "name": "constants",
                  "type": "uint256[]"
                },
                {
                  "internalType": "uint256[]",
                  "name": "arguments",
                  "type": "uint256[]"
                }
              ],
              "internalType": "struct State",
              "name": "priceScript",
              "type": "tuple"
            },
            {
              "components": [
                {
                  "internalType": "uint256",
                  "name": "stackIndex",
                  "type": "uint256"
                },
                {
                  "internalType": "uint256[]",
                  "name": "stack",
                  "type": "uint256[]"
                },
                {
                  "internalType": "bytes[]",
                  "name": "sources",
                  "type": "bytes[]"
                },
                {
                  "internalType": "uint256[]",
                  "name": "constants",
                  "type": "uint256[]"
                },
                {
                  "internalType": "uint256[]",
                  "name": "arguments",
                  "type": "uint256[]"
                }
              ],
              "internalType": "struct State",
              "name": "canMintScript",
              "type": "tuple"
            },
            {
              "internalType": "address[]",
              "name": "currencies",
              "type": "address[]"
            },
            {
              "internalType": "address",
              "name": "recipient",
              "type": "address"
            },
            {
              "internalType": "string",
              "name": "tokenURI",
              "type": "string"
            }
          ],
          "indexed": false,
          "internalType": "struct Rain1155.AssetDetails",
          "name": "_asset",
          "type": "tuple"
        },
        {
          "components": [
            {
              "internalType": "bytes[]",
              "name": "sources",
              "type": "bytes[]"
            },
            {
              "internalType": "uint256[]",
              "name": "constants",
              "type": "uint256[]"
            },
            {
              "internalType": "uint256",
              "name": "stackLength",
              "type": "uint256"
            },
            {
              "internalType": "uint256",
              "name": "argumentsLength",
              "type": "uint256"
            }
          ],
          "indexed": false,
          "internalType": "struct StateConfig",
          "name": "_priceScript",
          "type": "tuple"
        },
        {
          "components": [
            {
              "internalType": "bytes[]",
              "name": "sources",
              "type": "bytes[]"
            },
            {
              "internalType": "uint256[]",
              "name": "constants",
              "type": "uint256[]"
            },
            {
              "internalType": "uint256",
              "name": "stackLength",
              "type": "uint256"
            },
            {
              "internalType": "uint256",
              "name": "argumentsLength",
              "type": "uint256"
            }
          ],
          "indexed": false,
          "internalType": "struct StateConfig",
          "name": "_canMintScript",
          "type": "tuple"
        },
        {
          "indexed": false,
          "internalType": "string",
          "name": "_name",
          "type": "string"
        },
        {
          "indexed": false,
          "internalType": "string",
          "name": "_description",
          "type": "string"
        }
      ],
      "name": "AssetCreated",
      "type": "event"
    },
    {
      "anonymous": false,
      "inputs": [
        {
          "indexed": false,
          "internalType": "address",
          "name": "_deployer",
          "type": "address"
        }
      ],
      "name": "Initialize",
      "type": "event"
    },
    {
      "anonymous": false,
      "inputs": [
        {
          "indexed": false,
          "internalType": "address",
          "name": "sender",
          "type": "address"
        },
        {
          "indexed": false,
          "internalType": "address",
          "name": "pointer",
          "type": "address"
        },
        {
          "components": [
            {
              "internalType": "uint256",
              "name": "stackIndex",
              "type": "uint256"
            },
            {
              "internalType": "uint256[]",
              "name": "stack",
              "type": "uint256[]"
            },
            {
              "internalType": "bytes[]",
              "name": "sources",
              "type": "bytes[]"
            },
            {
              "internalType": "uint256[]",
              "name": "constants",
              "type": "uint256[]"
            },
            {
              "internalType": "uint256[]",
              "name": "arguments",
              "type": "uint256[]"
            }
          ],
          "indexed": false,
          "internalType": "struct State",
          "name": "state",
          "type": "tuple"
        }
      ],
      "name": "Snapshot",
      "type": "event"
    },
    {
      "anonymous": false,
      "inputs": [
        {
          "indexed": true,
          "internalType": "address",
          "name": "operator",
          "type": "address"
        },
        {
          "indexed": true,
          "internalType": "address",
          "name": "from",
          "type": "address"
        },
        {
          "indexed": true,
          "internalType": "address",
          "name": "to",
          "type": "address"
        },
        {
          "indexed": false,
          "internalType": "uint256[]",
          "name": "ids",
          "type": "uint256[]"
        },
        {
          "indexed": false,
          "internalType": "uint256[]",
          "name": "values",
          "type": "uint256[]"
        }
      ],
      "name": "TransferBatch",
      "type": "event"
    },
    {
      "anonymous": false,
      "inputs": [
        {
          "indexed": true,
          "internalType": "address",
          "name": "operator",
          "type": "address"
        },
        {
          "indexed": true,
          "internalType": "address",
          "name": "from",
          "type": "address"
        },
        {
          "indexed": true,
          "internalType": "address",
          "name": "to",
          "type": "address"
        },
        {
          "indexed": false,
          "internalType": "uint256",
          "name": "id",
          "type": "uint256"
        },
        {
          "indexed": false,
          "internalType": "uint256",
          "name": "value",
          "type": "uint256"
        }
      ],
      "name": "TransferSingle",
      "type": "event"
    },
    {
      "anonymous": false,
      "inputs": [
        {
          "indexed": false,
          "internalType": "string",
          "name": "value",
          "type": "string"
        },
        {
          "indexed": true,
          "internalType": "uint256",
          "name": "id",
          "type": "uint256"
        }
      ],
      "name": "URI",
      "type": "event"
    },
    {
      "inputs": [
        {
          "internalType": "uint256",
          "name": "",
          "type": "uint256"
        }
      ],
      "name": "assets",
      "outputs": [
        {
          "internalType": "uint256",
          "name": "lootBoxId",
          "type": "uint256"
        },
        {
          "internalType": "uint256",
          "name": "id",
          "type": "uint256"
        },
        {
          "components": [
            {
              "internalType": "uint256",
              "name": "stackIndex",
              "type": "uint256"
            },
            {
              "internalType": "uint256[]",
              "name": "stack",
              "type": "uint256[]"
            },
            {
              "internalType": "bytes[]",
              "name": "sources",
              "type": "bytes[]"
            },
            {
              "internalType": "uint256[]",
              "name": "constants",
              "type": "uint256[]"
            },
            {
              "internalType": "uint256[]",
              "name": "arguments",
              "type": "uint256[]"
            }
          ],
          "internalType": "struct State",
          "name": "priceScript",
          "type": "tuple"
        },
        {
          "components": [
            {
              "internalType": "uint256",
              "name": "stackIndex",
              "type": "uint256"
            },
            {
              "internalType": "uint256[]",
              "name": "stack",
              "type": "uint256[]"
            },
            {
              "internalType": "bytes[]",
              "name": "sources",
              "type": "bytes[]"
            },
            {
              "internalType": "uint256[]",
              "name": "constants",
              "type": "uint256[]"
            },
            {
              "internalType": "uint256[]",
              "name": "arguments",
              "type": "uint256[]"
            }
          ],
          "internalType": "struct State",
          "name": "canMintScript",
          "type": "tuple"
        },
        {
          "internalType": "address",
          "name": "recipient",
          "type": "address"
        },
        {
          "internalType": "string",
          "name": "tokenURI",
          "type": "string"
        }
      ],
      "stateMutability": "view",
      "type": "function"
    },
    {
      "inputs": [
        {
          "internalType": "address",
          "name": "account",
          "type": "address"
        },
        {
          "internalType": "uint256",
          "name": "id",
          "type": "uint256"
        }
      ],
      "name": "balanceOf",
      "outputs": [
        {
          "internalType": "uint256",
          "name": "",
          "type": "uint256"
        }
      ],
      "stateMutability": "view",
      "type": "function"
    },
    {
      "inputs": [
        {
          "internalType": "address[]",
          "name": "accounts",
          "type": "address[]"
        },
        {
          "internalType": "uint256[]",
          "name": "ids",
          "type": "uint256[]"
        }
      ],
      "name": "balanceOfBatch",
      "outputs": [
        {
          "internalType": "uint256[]",
          "name": "",
          "type": "uint256[]"
        }
      ],
      "stateMutability": "view",
      "type": "function"
    },
    {
      "inputs": [
        {
          "internalType": "uint256",
          "name": "_assetId",
          "type": "uint256"
        },
        {
          "internalType": "address",
          "name": "_account",
          "type": "address"
        }
      ],
      "name": "canMint",
      "outputs": [
        {
          "internalType": "bool",
          "name": "",
          "type": "bool"
        }
      ],
      "stateMutability": "view",
      "type": "function"
    },
    {
      "inputs": [
        {
          "components": [
            {
              "internalType": "string",
              "name": "name",
              "type": "string"
            },
            {
              "internalType": "string",
              "name": "description",
              "type": "string"
            },
            {
              "internalType": "uint256",
              "name": "lootBoxId",
              "type": "uint256"
            },
            {
              "components": [
                {
                  "internalType": "bytes[]",
                  "name": "sources",
                  "type": "bytes[]"
                },
                {
                  "internalType": "uint256[]",
                  "name": "constants",
                  "type": "uint256[]"
                },
                {
                  "internalType": "uint256",
                  "name": "stackLength",
                  "type": "uint256"
                },
                {
                  "internalType": "uint256",
                  "name": "argumentsLength",
                  "type": "uint256"
                }
              ],
              "internalType": "struct StateConfig",
              "name": "priceScript",
              "type": "tuple"
            },
            {
              "components": [
                {
                  "internalType": "bytes[]",
                  "name": "sources",
                  "type": "bytes[]"
                },
                {
                  "internalType": "uint256[]",
                  "name": "constants",
                  "type": "uint256[]"
                },
                {
                  "internalType": "uint256",
                  "name": "stackLength",
                  "type": "uint256"
                },
                {
                  "internalType": "uint256",
                  "name": "argumentsLength",
                  "type": "uint256"
                }
              ],
              "internalType": "struct StateConfig",
              "name": "canMintScript",
              "type": "tuple"
            },
            {
              "internalType": "address[]",
              "name": "currencies",
              "type": "address[]"
            },
            {
              "internalType": "address",
              "name": "recipient",
              "type": "address"
            },
            {
              "internalType": "string",
              "name": "tokenURI",
              "type": "string"
            }
          ],
          "internalType": "struct AssetConfig",
          "name": "_config",
          "type": "tuple"
        }
      ],
      "name": "createNewAsset",
      "outputs": [],
      "stateMutability": "nonpayable",
      "type": "function"
    },
    {
      "inputs": [
        {
          "internalType": "uint256",
          "name": "id",
          "type": "uint256"
        }
      ],
      "name": "exists",
      "outputs": [
        {
          "internalType": "bool",
          "name": "",
          "type": "bool"
        }
      ],
      "stateMutability": "view",
      "type": "function"
    },
    {
      "inputs": [
        {
          "internalType": "uint256",
          "name": "_assetId",
          "type": "uint256"
        },
        {
          "internalType": "address",
          "name": "_paymentToken",
          "type": "address"
        },
        {
          "internalType": "uint256",
          "name": "_units",
          "type": "uint256"
        }
      ],
      "name": "getAssetPrice",
      "outputs": [
        {
          "internalType": "uint256[]",
          "name": "",
          "type": "uint256[]"
        }
      ],
      "stateMutability": "view",
      "type": "function"
    },
    {
      "inputs": [
        {
          "internalType": "address",
          "name": "account",
          "type": "address"
        },
        {
          "internalType": "address",
          "name": "operator",
          "type": "address"
        }
      ],
      "name": "isApprovedForAll",
      "outputs": [
        {
          "internalType": "bool",
          "name": "",
          "type": "bool"
        }
      ],
      "stateMutability": "view",
      "type": "function"
    },
    {
      "inputs": [
        {
          "internalType": "uint256",
          "name": "_assetId",
          "type": "uint256"
        },
        {
          "internalType": "uint256",
          "name": "_units",
          "type": "uint256"
        }
      ],
      "name": "mintAssets",
      "outputs": [],
      "stateMutability": "nonpayable",
      "type": "function"
    },
    {
      "inputs": [
        {
          "internalType": "address",
          "name": "from",
          "type": "address"
        },
        {
          "internalType": "address",
          "name": "to",
          "type": "address"
        },
        {
          "internalType": "uint256[]",
          "name": "ids",
          "type": "uint256[]"
        },
        {
          "internalType": "uint256[]",
          "name": "amounts",
          "type": "uint256[]"
        },
        {
          "internalType": "bytes",
          "name": "data",
          "type": "bytes"
        }
      ],
      "name": "safeBatchTransferFrom",
      "outputs": [],
      "stateMutability": "nonpayable",
      "type": "function"
    },
    {
      "inputs": [
        {
          "internalType": "address",
          "name": "from",
          "type": "address"
        },
        {
          "internalType": "address",
          "name": "to",
          "type": "address"
        },
        {
          "internalType": "uint256",
          "name": "id",
          "type": "uint256"
        },
        {
          "internalType": "uint256",
          "name": "amount",
          "type": "uint256"
        },
        {
          "internalType": "bytes",
          "name": "data",
          "type": "bytes"
        }
      ],
      "name": "safeTransferFrom",
      "outputs": [],
      "stateMutability": "nonpayable",
      "type": "function"
    },
    {
      "inputs": [
        {
          "internalType": "address",
          "name": "operator",
          "type": "address"
        },
        {
          "internalType": "bool",
          "name": "approved",
          "type": "bool"
        }
      ],
      "name": "setApprovalForAll",
      "outputs": [],
      "stateMutability": "nonpayable",
      "type": "function"
    },
    {
      "inputs": [
        {
          "internalType": "bytes4",
          "name": "interfaceId",
          "type": "bytes4"
        }
      ],
      "name": "supportsInterface",
      "outputs": [
        {
          "internalType": "bool",
          "name": "",
          "type": "bool"
        }
      ],
      "stateMutability": "view",
      "type": "function"
    },
    {
      "inputs": [],
      "name": "totalAssets",
      "outputs": [
        {
          "internalType": "uint256",
          "name": "",
          "type": "uint256"
        }
      ],
      "stateMutability": "view",
      "type": "function"
    },
    {
      "inputs": [
        {
          "internalType": "uint256",
          "name": "id",
          "type": "uint256"
        }
      ],
      "name": "totalSupply",
      "outputs": [
        {
          "internalType": "uint256",
          "name": "",
          "type": "uint256"
        }
      ],
      "stateMutability": "view",
      "type": "function"
    },
    {
      "inputs": [
        {
          "internalType": "uint256",
          "name": "_tokenId",
          "type": "uint256"
        }
      ],
      "name": "uri",
      "outputs": [
        {
          "internalType": "string",
          "name": "",
          "type": "string"
        }
      ],
      "stateMutability": "view",
      "type": "function"
    }
  ],
  "bytecode": "0x60a06040526002808060066007600b6200001b82600462000194565b62000027919062000194565b62000033919062000194565b6200003f919062000194565b6200004b919062000194565b62000057919062000194565b62000063919062000194565b6200007090600562000194565b6080523480156200008057600080fd5b506040805160208101909152600081526200009b81620000d5565b506040513381527f36b1453565f45af7b509b59d5e2eac8f1948ea9e3e193db6663b4101afb6382c9060200160405180910390a1620001f8565b8051620000ea906002906020840190620000ee565b5050565b828054620000fc90620001bb565b90600052602060002090601f0160209004810192826200012057600085556200016b565b82601f106200013b57805160ff19168380011785556200016b565b828001600101855582156200016b579182015b828111156200016b5782518255916020019190600101906200014e565b50620001799291506200017d565b5090565b5b808211156200017957600081556001016200017e565b60008219821115620001b657634e487b7160e01b600052601160045260246000fd5b500190565b600181811c90821680620001d057607f821691505b60208210811415620001f257634e487b7160e01b600052602260045260246000fd5b50919050565b6080516155916200021b600039600081816123a101526123dc01526155916000f3fe608060405234801561001057600080fd5b50600436106100df5760003560e01c80638f4e76b9116100875780638f4e76b9146101c0578063a22cb465146101d3578063bd85b039146101e6578063ce5b15c814610206578063cf35bdd014610219578063d30402411461023e578063e985e9c514610251578063f242432a1461028d57600080fd5b8062fdd58e146100e457806301e1d1141461010a57806301ffc9a7146101135780630e89341c146101365780632eb2c2d6146101565780634e1273f41461016b5780634f558e791461018b57806372509dcb146101ad575b600080fd5b6100f76100f236600461406f565b6102a0565b6040519081526020015b60405180910390f35b6100f760045481565b6101266101213660046140b1565b61033a565b6040519015158152602001610101565b6101496101443660046140ce565b61038a565b604051610101919061413f565b61016961016436600461431b565b61047c565b005b61017e610179366004614437565b610513565b60405161010191906144d5565b6101266101993660046140ce565b600090815260036020526040902054151590565b61017e6101bb3660046144e8565b61063c565b6101266101ce366004614520565b610937565b6101696101e136600461455e565b610baa565b6100f76101f43660046140ce565b60009081526003602052604090205490565b610169610214366004614690565b610bb9565b61022c6102273660046140ce565b610e40565b60405161010196959493929190614896565b61016961024c3660046148f7565b6112fb565b61012661025f366004614919565b6001600160a01b03918216600090815260016020908152604080832093909416825291909152205460ff1690565b61016961029b366004614947565b61165e565b60006001600160a01b0383166103115760405162461bcd60e51b815260206004820152602b60248201527f455243313135353a2062616c616e636520717565727920666f7220746865207a60448201526a65726f206164647265737360a81b60648201526084015b60405180910390fd5b506000818152602081815260408083206001600160a01b03861684529091529020545b92915050565b60006001600160e01b03198216636cdb3d1360e11b148061036b57506001600160e01b031982166303a24d0760e21b145b8061033457506301ffc9a760e01b6001600160e01b0319831614610334565b6000818152600360205260409020546060906103db5760405162461bcd60e51b815260206004820152601060248201526f24b73b30b634b2102a37b5b2b724b21760811b6044820152606401610308565b6000828152600560205260409020600e0180546103f7906149af565b80601f0160208091040260200160405190810160405280929190818152602001828054610423906149af565b80156104705780601f1061044557610100808354040283529160200191610470565b820191906000526020600020905b81548152906001019060200180831161045357829003601f168201915b50505050509050919050565b6001600160a01b0385163314806104985750610498853361025f565b6104ff5760405162461bcd60e51b815260206004820152603260248201527f455243313135353a207472616e736665722063616c6c6572206973206e6f74206044820152711bdddb995c881b9bdc88185c1c1c9bdd995960721b6064820152608401610308565b61050c85858585856116e5565b5050505050565b606081518351146105785760405162461bcd60e51b815260206004820152602960248201527f455243313135353a206163636f756e747320616e6420696473206c656e677468604482015268040dad2e6dac2e8c6d60bb1b6064820152608401610308565b600083516001600160401b0381111561059357610593614152565b6040519080825280602002602001820160405280156105bc578160200160208202803683370190505b50905060005b8451811015610634576106078582815181106105e0576105e06149e4565b60200260200101518583815181106105fa576105fa6149e4565b60200260200101516102a0565b828281518110610619576106196149e4565b602090810291909101015261062d81614a10565b90506105c2565b509392505050565b606060005b6000858152600560205260409020600c01805482908110610664576106646149e4565b6000918252602090912001546001600160a01b03858116911614610694578061068c81614a10565b915050610641565b6000600560008781526020019081526020016000206002016040518060a0016040529081600082015481526020016001820180548060200260200160405190810160405280929190818152602001828054801561071057602002820191906000526020600020905b8154815260200190600101908083116106fc575b5050505050815260200160028201805480602002602001604051908101604052809291908181526020016000905b828210156107ea57838290600052602060002001805461075d906149af565b80601f0160208091040260200160405190810160405280929190818152602001828054610789906149af565b80156107d65780601f106107ab576101008083540402835291602001916107d6565b820191906000526020600020905b8154815290600101906020018083116107b957829003601f168201915b50505050508152602001906001019061073e565b5050505081526020016003820180548060200260200160405190810160405280929190818152602001828054801561084157602002820191906000526020600020905b81548152602001906001019080831161082d575b505050505081526020016004820180548060200260200160405190810160405280929190818152602001828054801561089957602002820191906000526020600020905b815481526020019060010190808311610885575b50505050508152505090506108be6040518060200160405280600081525082846118d0565b838160200151600183600001516108d59190614a2b565b815181106108e5576108e56149e4565b60200260200101516108f79190614a42565b6020820151825161090a90600190614a2b565b8151811061091a5761091a6149e4565b6020026020010181815250508060200151925050505b9392505050565b600080600560008581526020019081526020016000206007016040518060a001604052908160008201548152602001600182018054806020026020016040519081016040528092919081815260200182805480156109b457602002820191906000526020600020905b8154815260200190600101908083116109a0575b5050505050815260200160028201805480602002602001604051908101604052809291908181526020016000905b82821015610a8e578382906000526020600020018054610a01906149af565b80601f0160208091040260200160405190810160405280929190818152602001828054610a2d906149af565b8015610a7a5780601f10610a4f57610100808354040283529160200191610a7a565b820191906000526020600020905b815481529060010190602001808311610a5d57829003601f168201915b5050505050815260200190600101906109e2565b50505050815260200160038201805480602002602001604051908101604052809291908181526020018280548015610ae557602002820191906000526020600020905b815481526020019060010190808311610ad1575b5050505050815260200160048201805480602002602001604051908101604052809291908181526020018280548015610b3d57602002820191906000526020600020905b815481526020019060010190808311610b29575b5050505050815250509050610b7383604051602001610b5c9190614a61565b6040516020818303038152906040528260006118d0565b60208101518151610b8690600190614a2b565b81518110610b9657610b966149e4565b602002602001015160011491505092915050565b610bb5338383611a78565b5050565b600454610bc7906001614a75565b6004819055506040518060e00160405280826040015181526020016004548152602001610c07610c02610bfd8560600151611b59565b611c5b565b611cc9565b8152602001610c1f610c02610bfd8560800151611b59565b81526020018260a0015181526020018260c001516001600160a01b031681526020018260e001518152506005600060045481526020019081526020016000206000820151816000015560208201518160010155604082015181600201600082015181600001556020820151816001019080519060200190610ca1929190613e43565b5060408201518051610cbd916002840191602090910190613e8e565b5060608201518051610cd9916003840191602090910190613e43565b5060808201518051610cf5916004840191602090910190613e43565b50505060608201518051600783019081556020808301518051610d1e9260088701920190613e43565b5060408201518051610d3a916002840191602090910190613e8e565b5060608201518051610d56916003840191602090910190613e43565b5060808201518051610d72916004840191602090910190613e43565b50505060808201518051610d9091600c840191602090910190613ee7565b5060a0820151600d820180546001600160a01b0319166001600160a01b0390921691909117905560c08201518051610dd291600e840191602090910190613f3c565b509050507fc6d5c6695614ec2197cf9d4700d7ebbe666f32bd4c7d275ba9939c38bc6f07276004546005600060045481526020019081526020016000208360600151846080015185600001518660200151604051610e3596959493929190614c9a565b60405180910390a150565b6005602052806000526040600020600091509050806000015490806001015490806002016040518060a00160405290816000820154815260200160018201805480602002602001604051908101604052809291908181526020018280548015610ec857602002820191906000526020600020905b815481526020019060010190808311610eb4575b5050505050815260200160028201805480602002602001604051908101604052809291908181526020016000905b82821015610fa2578382906000526020600020018054610f15906149af565b80601f0160208091040260200160405190810160405280929190818152602001828054610f41906149af565b8015610f8e5780601f10610f6357610100808354040283529160200191610f8e565b820191906000526020600020905b815481529060010190602001808311610f7157829003601f168201915b505050505081526020019060010190610ef6565b50505050815260200160038201805480602002602001604051908101604052809291908181526020018280548015610ff957602002820191906000526020600020905b815481526020019060010190808311610fe5575b505050505081526020016004820180548060200260200160405190810160405280929190818152602001828054801561105157602002820191906000526020600020905b81548152602001906001019080831161103d575b50505050508152505090806007016040518060a001604052908160008201548152602001600182018054806020026020016040519081016040528092919081815260200182805480156110c357602002820191906000526020600020905b8154815260200190600101908083116110af575b5050505050815260200160028201805480602002602001604051908101604052809291908181526020016000905b8282101561119d578382906000526020600020018054611110906149af565b80601f016020809104026020016040519081016040528092919081815260200182805461113c906149af565b80156111895780601f1061115e57610100808354040283529160200191611189565b820191906000526020600020905b81548152906001019060200180831161116c57829003601f168201915b5050505050815260200190600101906110f1565b505050508152602001600382018054806020026020016040519081016040528092919081815260200182805480156111f457602002820191906000526020600020905b8154815260200190600101908083116111e0575b505050505081526020016004820180548060200260200160405190810160405280929190818152602001828054801561124c57602002820191906000526020600020905b815481526020019060010190808311611238575b50505091909252505050600d820154600e8301805492936001600160a01b0390921692611278906149af565b80601f01602080910402602001604051908101604052809291908181526020018280546112a4906149af565b80156112f15780601f106112c6576101008083540402835291602001916112f1565b820191906000526020600020905b8154815290600101906020018083116112d457829003601f168201915b5050505050905086565b60045482111561133f5760405162461bcd60e51b815260206004820152600f60248201526e125b9d985b1a5908105cdcd95d1259608a1b6044820152606401610308565b6113498233610937565b6113815760405162461bcd60e51b815260206004820152600960248201526810d85b9d08135a5b9d60ba1b6044820152606401610308565b60005b6000838152600560205260409020600c0154811015611642576000838152600560205260408120600c0180546113e1918691859081106113c6576113c66149e4565b6000918252602090912001546001600160a01b03168561063c565b9050806000815181106113f6576113f66149e4565b6020026020010151600014156114fd576000848152600560205260409020600c01805483908110611429576114296149e4565b600091825260208083209091015486835260059091526040909120600d015482516001600160a01b03928316926323b872dd92339291169085906001908110611474576114746149e4565b60209081029190910101516040516001600160e01b031960e086901b1681526001600160a01b03938416600482015292909116602483015260448201526064016020604051808303816000875af11580156114d3573d6000803e3d6000fd5b505050506040513d601f19601f820116820180604052508101906114f79190614d91565b5061162f565b80600081518110611510576115106149e4565b60200260200101516001141561162f576000848152600560205260409020600c01805483908110611543576115436149e4565b600091825260208083209091015486835260059091526040909120600d015482516001600160a01b039283169263f242432a9233929116908590600190811061158e5761158e6149e4565b6020026020010151856002815181106115a9576115a96149e4565b60209081029190910101516040516001600160e01b031960e087901b1681526001600160a01b0394851660048201529390921660248401526044830152606482015260a06084820152600060a482015260c401600060405180830381600087803b15801561161657600080fd5b505af115801561162a573d6000803e3d6000fd5b505050505b5061163b816001614a75565b9050611384565b50610bb533838360405180602001604052806000815250611ced565b6001600160a01b03851633148061167a575061167a853361025f565b6116d85760405162461bcd60e51b815260206004820152602960248201527f455243313135353a2063616c6c6572206973206e6f74206f776e6572206e6f7260448201526808185c1c1c9bdd995960ba1b6064820152608401610308565b61050c8585858585611e10565b81518351146117475760405162461bcd60e51b815260206004820152602860248201527f455243313135353a2069647320616e6420616d6f756e7473206c656e677468206044820152670dad2e6dac2e8c6d60c31b6064820152608401610308565b6001600160a01b03841661176d5760405162461bcd60e51b815260040161030890614dae565b3361177c818787878787611f48565b60005b845181101561186257600085828151811061179c5761179c6149e4565b6020026020010151905060008583815181106117ba576117ba6149e4565b602090810291909101810151600084815280835260408082206001600160a01b038e16835290935291909120549091508181101561180a5760405162461bcd60e51b815260040161030890614df3565b6000838152602081815260408083206001600160a01b038e8116855292528083208585039055908b16825281208054849290611847908490614a75565b925050819055505050508061185b90614a10565b905061177f565b50846001600160a01b0316866001600160a01b0316826001600160a01b03167f4a39dc06d4c0dbc64b70af90fd698a233a518aa5d07e595d983b8c0526c8f7fb87876040516118b2929190614e3d565b60405180910390a46118c88187878787876120c1565b505050505050565b602082810151604084015183830201909101516060840151608085015182516000948594859492939092915b84881015611a6b576002880197508784015180601e1a975080601f1a9650506005871015611a5f57600187141561195f5781608087166119395750825b8a516020607f89160260200182015160208202602001840152600181018c5250506118fc565b600287141561198a5789516020870260200182015160208202602001830152600181018b52506118fc565b60038714156119a35761199e8b8b8861221d565b6118fc565b60048714156119d45761199e8a6040516020016119c09190614e62565b604051602081830303815290604052612359565b607f6101fe600188901b161786166080871615611a22578a5160001901808c5260208c015180519091908110611a0c57611a0c6149e4565b602002602001015160001415611a2257506118fc565b8060000b600014611a595760008160000b1215611a4d57801960020160020260ff1689039850611a59565b8060020260ff16890198505b506118fc565b61199e8b8b898961239f565b5050505050505050505050565b816001600160a01b0316836001600160a01b03161415611aec5760405162461bcd60e51b815260206004820152602960248201527f455243313135353a2073657474696e6720617070726f76616c20737461747573604482015268103337b91039b2b63360b91b6064820152608401610308565b6001600160a01b03838116600081815260016020908152604080832094871680845294825291829020805460ff191686151590811790915591519182527f17307eab39ab6107e8899845ad3d59bd9653f200f220920489ca2b5937696c31910160405180910390a3505050565b611b61613faf565b815151611b9c5760405162461bcd60e51b8152602060048201526009602482015268305f534f555243455360b81b6044820152606401610308565b6040518060a001604052806000815260200183604001516001600160401b03811115611bca57611bca614152565b604051908082528060200260200182016040528015611bf3578160200160208202803683370190505b508152602001836000015181526020018360200151815260200183606001516001600160401b03811115611c2957611c29614152565b604051908082528060200260200182016040528015611c52578160200160208202803683370190505b50905292915050565b600080611c8683604051602001611c729190614e62565b60405160208183030381529060405261250a565b90507ff95eed63f55d96a35306669cc3b5f652f8d44552e3e4b17b2f78f13571114abd338285604051611cbb93929190614e75565b60405180910390a192915050565b611cd1613faf565b611cda8261256f565b8060200190518101906103349190614fe3565b6001600160a01b038416611d4d5760405162461bcd60e51b815260206004820152602160248201527f455243313135353a206d696e7420746f20746865207a65726f206164647265736044820152607360f81b6064820152608401610308565b336000611d598561257f565b90506000611d668561257f565b9050611d7783600089858589611f48565b6000868152602081815260408083206001600160a01b038b16845290915281208054879290611da7908490614a75565b909155505060408051878152602081018790526001600160a01b03808a1692600092918716917fc3d58168c5ae7397731d063d5bbf3d657854427343f4c083240f7aacaa2d0f62910160405180910390a4611e07836000898989896125ca565b50505050505050565b6001600160a01b038416611e365760405162461bcd60e51b815260040161030890614dae565b336000611e428561257f565b90506000611e4f8561257f565b9050611e5f838989858589611f48565b6000868152602081815260408083206001600160a01b038c16845290915290205485811015611ea05760405162461bcd60e51b815260040161030890614df3565b6000878152602081815260408083206001600160a01b038d8116855292528083208985039055908a16825281208054889290611edd908490614a75565b909155505060408051888152602081018890526001600160a01b03808b16928c821692918816917fc3d58168c5ae7397731d063d5bbf3d657854427343f4c083240f7aacaa2d0f62910160405180910390a4611f3d848a8a8a8a8a6125ca565b505050505050505050565b6001600160a01b038516611fcf5760005b8351811015611fcd57828181518110611f7457611f746149e4565b602002602001015160036000868481518110611f9257611f926149e4565b602002602001015181526020019081526020016000206000828254611fb79190614a75565b90915550611fc6905081614a10565b9050611f59565b505b6001600160a01b0384166118c85760005b8351811015611e07576000848281518110611ffd57611ffd6149e4565b60200260200101519050600084838151811061201b5761201b6149e4565b602002602001015190506000600360008481526020019081526020016000205490508181101561209e5760405162461bcd60e51b815260206004820152602860248201527f455243313135353a206275726e20616d6f756e74206578636565647320746f74604482015267616c537570706c7960c01b6064820152608401610308565b600092835260036020526040909220910390556120ba81614a10565b9050611fe0565b6001600160a01b0384163b156118c85760405163bc197c8160e01b81526001600160a01b0385169063bc197c819061210590899089908890889088906004016150c5565b6020604051808303816000875af1925050508015612140575060408051601f3d908101601f1916820190925261213d91810190615123565b60015b6121ed5761214c615140565b806308c379a01415612186575061216161515c565b8061216c5750612188565b8060405162461bcd60e51b8152600401610308919061413f565b505b60405162461bcd60e51b815260206004820152603460248201527f455243313135353a207472616e7366657220746f206e6f6e20455243313135356044820152732932b1b2b4bb32b91034b6b83632b6b2b73a32b960611b6064820152608401610308565b6001600160e01b0319811663bc197c8160e01b14611e075760405162461bcd60e51b8152600401610308906151e5565b8151600019600583901c918290030183526007821690610100600384811c1681901c9190829003906001016000816001600160401b0381111561226257612262614152565b60405190808252806020026020018201604052801561228b578160200160208202803683370190505b50905060005b828110156122e257876020015181896000015101815181106122b5576122b56149e4565b60200260200101518282815181106122cf576122cf6149e4565b6020908102919091010152600101612291565b5060005b610100811015611f3d5760005b838110156123465784828603848381518110612311576123116149e4565b6020026020010151901b901c89608001518281518110612333576123336149e4565b60209081029190910101526001016122f3565b506123528989886118d0565b84016122e6565b61239c8160405160240161236d919061413f565b60408051601f198184030181529190526020810180516001600160e01b03166305f3bfab60e11b179052612685565b50565b7f00000000000000000000000000000000000000000000000000000000000000008210156123da576123d58360058403836126a6565b612504565b7f0000000000000000000000000000000000000000000000000000000000000000820391506002821061241f5760405162461bcd60e51b81526004016103089061522d565b816124ab576124768360200151600285600001510381518110612444576124446149e4565b60200260200101518460200151600186600001510381518110612469576124696149e4565b602002602001015161275d565b8360200151600285600001510381518110612493576124936149e4565b60209081029190910101528251600019018352612504565b6001821415612504576000848060200190518101906124ca9190615251565b9050806001600160a01b031684602001518560000151815181106124f0576124f06149e4565b602090810291909101015250825160010183525b50505050565b60008061253583604051602001612521919061526e565b604051602081830303815290604052612797565b90508051602082016000f091506001600160a01b0382166125695760405163046a55db60e11b815260040160405180910390fd5b50919050565b60606103348260016000196127c3565b604080516001808252818301909252606091600091906020808301908036833701905050905082816000815181106125b9576125b96149e4565b602090810291909101015292915050565b6001600160a01b0384163b156118c85760405163f23a6e6160e01b81526001600160a01b0385169063f23a6e619061260e9089908990889088908890600401615294565b6020604051808303816000875af1925050508015612649575060408051601f3d908101601f1916820190925261264691810190615123565b60015b6126555761214c615140565b6001600160e01b0319811663f23a6e6160e01b14611e075760405162461bcd60e51b8152600401610308906151e5565b80516a636f6e736f6c652e6c6f67602083016000808483855afa5050505050565b60048210156126bf576126ba838383612874565b505050565b601d82101561270657600b8210156126df576126ba836004840383612940565b60168210156126f7576126ba83600a19840183612bca565b6126ba83601519840183612f99565b602382101561271e576126ba83601c19840183613106565b6025821015612736576126ba836022198401836134b2565b602782101561274e576126ba8360241984018361362a565b6126ba83602619840183613757565b6000805b600881101561278d57828160200285901c63ffffffff161115612785579050610334565b600101612761565b5060089392505050565b60608151826040516020016127ad9291906152d9565b6040516020818303038152906040529050919050565b6060833b806127e2575050604080516020810190915260008152610930565b80841115612800575050604080516020810190915260008152610930565b838310156128325760405163162544fd60e11b8152600481018290526024810185905260448101849052606401610308565b83830384820360008282106128475782612849565b815b60408051603f8301601f19168101909152818152955090508087602087018a3c505050509392505050565b600482106128945760405162461bcd60e51b81526004016103089061522d565b816128c5574383602001518460000151815181106128b4576128b46149e4565b602002602001018181525050612935565b60018214156128e9574283602001518460000151815181106128b4576128b46149e4565b600282141561290d576020830151835181513392919081106128b4576128b46149e4565b602083015183518151309291908110612928576129286149e4565b6020026020010181815250505b505080516001019052565b600782106129605760405162461bcd60e51b81526004016103089061522d565b6002821015612a7057825160011901826129ed578360200151816001018151811061298d5761298d6149e4565b60200260200101516129c583866020015184815181106129af576129af6149e4565b6020026020010151613ab390919063ffffffff16565b02846020015182815181106129dc576129dc6149e4565b602002602001018181525050612a62565b6001831415612a625783602001518160010181518110612a0f57612a0f6149e4565b6020026020010151612a3183866020015184815181106129af576129af6149e4565b81612a3e57612a3e61532a565b0484602001518281518110612a5557612a556149e4565b6020026020010181815250505b508251600019018352505050565b6005821015612b63578251600019016002831415612ac957612aa282856020015183815181106129af576129af6149e4565b84602001518281518110612ab857612ab86149e4565b602002602001018181525050612504565b6003831415612b0257612aa28285602001518381518110612aec57612aec6149e4565b6020026020010151613b1590919063ffffffff16565b600483141561250457612b3b8285602001518381518110612b2557612b256149e4565b6020026020010151613b4690919063ffffffff16565b84602001518281518110612b5157612b516149e4565b60200260200101818152505050505050565b6005821415612ba557602083015183518151670de0b6b3a76400009291908110612b8f57612b8f6149e4565b6020908102919091010152505080516001019052565b60068214156126ba5760128360200151846000015181518110612928576129286149e4565b600b8210612bea5760405162461bcd60e51b81526004016103089061522d565b82516020840151805183830392600019019183916000919083908110612c1257612c126149e4565b602002602001015190506000861415612c6a575b82821015612c65576020870151805160019093019283908110612c4b57612c4b6149e4565b602002602001015181612c5e9190614a75565b9050612c26565b612f6a565b6001861415612cbb575b82821015612c65578180600101925050612cb487602001518381518110612c9d57612c9d6149e4565b602002602001015182613b8490919063ffffffff16565b9050612c74565b6002861415612d04575b82821015612c65576020870151805160019093019283908110612cea57612cea6149e4565b602002602001015181612cfd9190614a2b565b9050612cc5565b6003861415612d55575b82821015612c65578180600101925050612d4e87602001518381518110612d3757612d376149e4565b602002602001015182613ba290919063ffffffff16565b9050612d0e565b6004861415612d9e575b82821015612c65576020870151805160019093019283908110612d8457612d846149e4565b602002602001015181612d979190614a42565b9050612d5f565b6005861415612def575b82821015612c65578180600101925050612de887602001518381518110612dd157612dd16149e4565b602002602001015182613bb890919063ffffffff16565b9050612da8565b6006861415612e38575b82821015612c65576020870151805160019093019283908110612e1e57612e1e6149e4565b602002602001015181612e319190615340565b9050612df9565b6007861415612e81575b82821015612c65576020870151805160019093019283908110612e6757612e676149e4565b602002602001015181612e7a9190615354565b9050612e42565b6008861415612eca575b82821015612c65576020870151805160019093019283908110612eb057612eb06149e4565b602002602001015181612ec3919061544c565b9050612e8b565b6009861415612f1c5760005b83831015612f16576020880151805160019094019384908110612efb57612efb6149e4565b6020026020010151905081811015612f11578091505b612ed6565b50612f6a565b600a861415612f6a5760005b83831015612f68576020880151805160019094019384908110612f4d57612f4d6149e4565b6020026020010151905081811115612f63578091505b612f28565b505b8087602001518581518110612f8157612f816149e4565b60209081029190910101525050506001019092525050565b60078210612fb95760405162461bcd60e51b81526004016103089061522d565b8251602080850151818302010183801561300257600181146130115760028114613040576003811461305a5760048114613074576005811461308e57600681146130c6576118c8565b601f19820180511590526118c8565b60011983018652605f198201805180156130315760208201518252613039565b604082015182525b50506118c8565b6001830386526040820360208101518151148152506118c8565b6001830386526040820360208101518151108152506118c8565b6001830386526040820360208101518151118152506118c8565b83156130c1576001840383038652602084028203805b838110156130395780516130b9575060008152825b6020016130a4565b6118c8565b83156118c8576001840383038652602084028203805b838110156130fc57805180156130f3578491508083525b506020016130dc565b5050505050505050565b600682106131265760405162461bcd60e51b81526004016103089061522d565b6000826131e95750825160001981018452602084015180516001199092019182908110613155576131556149e4565b60200260200101516001600160a01b031663e053ea3185602001518360010181518110613184576131846149e4565b60200260200101516040518263ffffffff1660e01b81526004016131a89190614a61565b602060405180830381865afa1580156131c5573d6000803e3d6000fd5b505050506040513d601f19601f82011682018060405250810190612aa29190615458565b600183141561322657600019846020015185600001518151811061320f5761320f6149e4565b602090810291909101015283516001018452612504565b600283141561324b576000846020015185600001518151811061320f5761320f6149e4565b60038314156132e15750825160011901808452602084015180516000919083908110613279576132796149e4565b6020026020010151905060008560200151836001018151811061329e5761329e6149e4565b602002602001015190506132b28282613be7565b866020015184815181106132c8576132c86149e4565b6020908102919091010152505083516001018452612504565b600483141561338b575082516001190180845260208401518051600f80851692600486901c90911691600091908590811061331e5761331e6149e4565b60200260200101519050600087602001518560010181518110613343576133436149e4565b6020026020010151905061335982858584613c3e565b8860200151868151811061336f5761336f6149e4565b6020908102919091010152505085516001018652506125049050565b600583141561250457508251600019601f8316918290030180855290600783901c906003600585901c1690836000826001600160401b038111156133d1576133d1614152565b6040519080825280602002602001820160405280156133fa578160200160208202803683370190505b50905060005b8381101561344f578960200151838151811061341e5761341e6149e4565b6020026020010151828281518110613438576134386149e4565b602090810291909101015260019283019201613400565b50600089602001518381518110613468576134686149e4565b6020026020010151905061347e82828888613c9a565b8a602001518881518110613494576134946149e4565b60209081029190910101525050875160010188525050505050505050565b600282106134d25760405162461bcd60e51b81526004016103089061522d565b816135bf57825160001981018452602084015180519091600119019081106134fc576134fc6149e4565b60200260200101516001600160a01b03166370a08231846020015185600001518151811061352c5761352c6149e4565b60200260200101516040518263ffffffff1660e01b81526004016135509190614a61565b602060405180830381865afa15801561356d573d6000803e3d6000fd5b505050506040513d601f19601f820116820180604052508101906135919190615458565b83602001516001856000015103815181106135ae576135ae6149e4565b602002602001018181525050505050565b60018214156126ba5782602001516001846000015103815181106135e5576135e56149e4565b60200260200101516001600160a01b03166318160ddd6040518163ffffffff1660e01b8152600401602060405180830381865afa15801561356d573d6000803e3d6000fd5b6002821061364a5760405162461bcd60e51b81526004016103089061522d565b8251600019018352816136745782602001516001846000015103815181106134fc576134fc6149e4565b60018214156126ba57826020015160018460000151038151811061369a5761369a6149e4565b60200260200101516001600160a01b0316636352211e84602001518560000151815181106136ca576136ca6149e4565b60200260200101516040518263ffffffff1660e01b81526004016136f091815260200190565b602060405180830381865afa15801561370d573d6000803e3d6000fd5b505050506040513d601f19601f820116820180604052508101906137319190615251565b6001600160a01b031683602001516001856000015103815181106135ae576135ae6149e4565b600282106137775760405162461bcd60e51b81526004016103089061522d565b8161386c578251600119810184526020840151805160021990920191829081106137a3576137a36149e4565b60200260200101516001600160a01b031662fdd58e856020015183600101815181106137d1576137d16149e4565b6020026020010151866020015184600201815181106137f2576137f26149e4565b60200260200101516040518363ffffffff1660e01b815260040161382b9291906001600160a01b03929092168252602082015260400190565b602060405180830381865afa158015613848573d6000803e3d6000fd5b505050506040513d601f19601f82011682018060405250810190612b3b9190615458565b60018214156126ba57600181016000816001600160401b0381111561389357613893614152565b6040519080825280602002602001820160405280156138bc578160200160208202803683370190505b5090506000826001600160401b038111156138d9576138d9614152565b604051908082528060200260200182016040528015613902578160200160208202803683370190505b5086518490036000198181018952602089015180519394509186900301916000919083908110613934576139346149e4565b6020026020010151905060005b858110156139de57886020015181840160010181518110613964576139646149e4565b602002602001015185828151811061397e5761397e6149e4565b6001600160a01b03909216602092830291909101820152890151805160018589018401019081106139b1576139b16149e4565b60200260200101518482815181106139cb576139cb6149e4565b6020908102919091010152600101613941565b506040516313849cfd60e21b81526000906001600160a01b03831690634e1273f490613a109088908890600401615471565b600060405180830381865afa158015613a2d573d6000803e3d6000fd5b505050506040513d6000823e601f3d908101601f19168201604052613a5591908101906154d1565b905060005b86811015613aa757818181518110613a7457613a746149e4565b60200260200101518a6020015182860181518110613a9457613a946149e4565b6020908102919091010152600101613a5a565b50505050505050505050565b60008160121415613ac5575081610334565b8160121115613af557613ad9826012614a2b565b613ae490600a61544c565b613aee9084614a42565b9050610334565b613b00601283614a2b565b613b0b90600a61544c565b613aee9084615340565b60006012821415613b27575081610334565b8160121115613b3b57613b00826012614a2b565b613ad9601283614a2b565b600081810b613b56575081610334565b60008260000b1315613b6d57613ae482600a615505565b613b7982196001615514565b613b0b90600a615505565b6000828201838110613b965780613b9a565b6000195b949350505050565b6000818311613bb2576000610930565b50900390565b600082613bc757506000610334565b82820282848281613bda57613bda61532a565b041415613b965780613b9a565b60008060015b60088111610634576000613c018683613d90565b90506000613c0f8684613d90565b90506000613c1d8383613ba2565b9050613c2d856001860383613ddd565b94505060019092019150613bed9050565b6000826008811115613c625760405162461bcd60e51b815260040161030890615539565b6000855b85811015613c8e5763ffffffff6020820290811b199890981685891b17979150600101613c66565b50959695505050505050565b835160009081908190819060015b60088111613d8257600092508287613cc35750600019613cc7565b5060005b60005b83811015613d5e57613cf58c8281518110613ce757613ce76149e4565b602002602001015184613d90565b95508a8611613d475788613d1457613d0d8683613e1d565b9150613d3e565b6001891415613d2757613d0d8683613e33565b600289148015613d35575084155b15613d3e578591505b60019450613d56565b89613d56576000199150613d5e565b600101613cca565b5083613d6957506000195b613d77866001840383613ddd565b955050600101613ca8565b509298975050505050505050565b6000816008811115613db45760405162461bcd60e51b815260040161030890615539565b82613dc25760009150613dd6565b63ffffffff602060001985010285901c1691505b5092915050565b6000826008811115613e015760405162461bcd60e51b815260040161030890615539565b505060209190910290811b63ffffffff90911b19919091161790565b6000818310613e2c5781610930565b5090919050565b600081831015613e2c5781610930565b828054828255906000526020600020908101928215613e7e579160200282015b82811115613e7e578251825591602001919060010190613e63565b50613e8a929150613fde565b5090565b828054828255906000526020600020908101928215613edb579160200282015b82811115613edb5782518051613ecb918491602090910190613f3c565b5091602001919060010190613eae565b50613e8a929150613ff3565b828054828255906000526020600020908101928215613e7e579160200282015b82811115613e7e57825182546001600160a01b0319166001600160a01b03909116178255602090920191600190910190613f07565b828054613f48906149af565b90600052602060002090601f016020900481019282613f6a5760008555613e7e565b82601f10613f8357805160ff1916838001178555613e7e565b82800160010185558215613e7e5791820182811115613e7e578251825591602001919060010190613e63565b6040518060a0016040528060008152602001606081526020016060815260200160608152602001606081525090565b5b80821115613e8a5760008155600101613fdf565b80821115613e8a5760006140078282614010565b50600101613ff3565b50805461401c906149af565b6000825580601f1061402c575050565b601f01602090049060005260206000209081019061239c9190613fde565b6001600160a01b038116811461239c57600080fd5b803561406a8161404a565b919050565b6000806040838503121561408257600080fd5b823561408d8161404a565b946020939093013593505050565b6001600160e01b03198116811461239c57600080fd5b6000602082840312156140c357600080fd5b81356109308161409b565b6000602082840312156140e057600080fd5b5035919050565b60005b838110156141025781810151838201526020016140ea565b838111156125045750506000910152565b6000815180845261412b8160208601602086016140e7565b601f01601f19169290920160200192915050565b6020815260006109306020830184614113565b634e487b7160e01b600052604160045260246000fd5b608081018181106001600160401b038211171561418757614187614152565b60405250565b601f8201601f191681016001600160401b03811182821017156141b2576141b2614152565b6040525050565b60405161010081016001600160401b03811182821017156141dc576141dc614152565b60405290565b60405160a081016001600160401b03811182821017156141dc576141dc614152565b60006001600160401b0382111561421d5761421d614152565b5060051b60200190565b600082601f83011261423857600080fd5b8135602061424582614204565b604051614252828261418d565b83815260059390931b850182019282810191508684111561427257600080fd5b8286015b8481101561428d5780358352918301918301614276565b509695505050505050565b60006001600160401b038211156142b1576142b1614152565b50601f01601f191660200190565b600082601f8301126142d057600080fd5b81356142db81614298565b6040516142e8828261418d565b8281528560208487010111156142fd57600080fd5b82602086016020830137600092810160200192909252509392505050565b600080600080600060a0868803121561433357600080fd5b853561433e8161404a565b9450602086013561434e8161404a565b935060408601356001600160401b038082111561436a57600080fd5b61437689838a01614227565b9450606088013591508082111561438c57600080fd5b61439889838a01614227565b935060808801359150808211156143ae57600080fd5b506143bb888289016142bf565b9150509295509295909350565b600082601f8301126143d957600080fd5b813560206143e682614204565b6040516143f3828261418d565b83815260059390931b850182019282810191508684111561441357600080fd5b8286015b8481101561428d57803561442a8161404a565b8352918301918301614417565b6000806040838503121561444a57600080fd5b82356001600160401b038082111561446157600080fd5b61446d868387016143c8565b9350602085013591508082111561448357600080fd5b5061449085828601614227565b9150509250929050565b600081518084526020808501945080840160005b838110156144ca578151875295820195908201906001016144ae565b509495945050505050565b602081526000610930602083018461449a565b6000806000606084860312156144fd57600080fd5b83359250602084013561450f8161404a565b929592945050506040919091013590565b6000806040838503121561453357600080fd5b8235915060208301356145458161404a565b809150509250929050565b801515811461239c57600080fd5b6000806040838503121561457157600080fd5b823561457c8161404a565b9150602083013561454581614550565b60006080828403121561459e57600080fd5b6040516145aa81614168565b80915082356001600160401b03808211156145c457600080fd5b818501915085601f8301126145d857600080fd5b813560206145e582614204565b6040516145f2828261418d565b83815260059390931b850182019282810191508984111561461257600080fd5b8286015b8481101561464a5780358681111561462e5760008081fd5b61463c8c86838b01016142bf565b845250918301918301614616565b508652508681013593508284111561466157600080fd5b61466d88858901614227565b818601525050505060408301356040820152606083013560608201525092915050565b6000602082840312156146a257600080fd5b81356001600160401b03808211156146b957600080fd5b9083019061010082860312156146ce57600080fd5b6146d66141b9565b8235828111156146e557600080fd5b6146f1878286016142bf565b82525060208301358281111561470657600080fd5b614712878286016142bf565b6020830152506040830135604082015260608301358281111561473457600080fd5b6147408782860161458c565b60608301525060808301358281111561475857600080fd5b6147648782860161458c565b60808301525060a08301358281111561477c57600080fd5b614788878286016143c8565b60a08301525061479a60c0840161405f565b60c082015260e0830135828111156147b157600080fd5b6147bd878286016142bf565b60e08301525095945050505050565b600081518084526020808501808196508360051b8101915082860160005b85811015614814578284038952614802848351614113565b988501989350908401906001016147ea565b5091979650505050505050565b805182526000602082015160a0602085015261484060a085018261449a565b90506040830151848203604086015261485982826147cc565b91505060608301518482036060860152614873828261449a565b9150506080830151848203608086015261488d828261449a565b95945050505050565b86815285602082015260c0604082015260006148b560c0830187614821565b82810360608401526148c78187614821565b6001600160a01b038616608085015283810360a085015290506148ea8185614113565b9998505050505050505050565b6000806040838503121561490a57600080fd5b50508035926020909101359150565b6000806040838503121561492c57600080fd5b82356149378161404a565b915060208301356145458161404a565b600080600080600060a0868803121561495f57600080fd5b853561496a8161404a565b9450602086013561497a8161404a565b9350604086013592506060860135915060808601356001600160401b038111156149a357600080fd5b6143bb888289016142bf565b600181811c908216806149c357607f821691505b6020821081141561256957634e487b7160e01b600052602260045260246000fd5b634e487b7160e01b600052603260045260246000fd5b634e487b7160e01b600052601160045260246000fd5b6000600019821415614a2457614a246149fa565b5060010190565b600082821015614a3d57614a3d6149fa565b500390565b6000816000190483118215151615614a5c57614a5c6149fa565b500290565b6001600160a01b0391909116815260200190565b60008219821115614a8857614a886149fa565b500190565b6000815480845260208085019450836000528060002060005b838110156144ca57815487529582019560019182019101614aa6565b8054600090600181811c9080831680614adc57607f831692505b6020808410821415614afe57634e487b7160e01b600052602260045260246000fd5b838852818015614b155760018114614b2957614b57565b60ff19861689830152604089019650614b57565b876000528160002060005b86811015614b4f5781548b8201850152908501908301614b34565b8a0183019750505b50505050505092915050565b8054825260006001602060a081860152614b8260a08601838601614a8d565b6002850186820360408801528181548084528484019150848160051b8501018360005285600020935060005b82811015614bda57858203601f19018452614bc98286614ac2565b948801949387019391508701614bae565b5089810360608b0152614bf08160038b01614a8d565b96505050505050508381036080850152613b9a8160048501614a8d565b6000815480845260208085019450836000528060002060005b838110156144ca5781546001600160a01b031687529582019560019182019101614c26565b6000815160808452614c6060808501826147cc565b905060208301518482036020860152614c79828261449a565b91505060408301516040850152606083015160608501528091505092915050565b86815260c06020820152855460c0820152600186015460e082015260e06101008201526000614cd06101a0830160028901614b63565b60bf198084830301610120850152614ceb8260078b01614b63565b91508084830301610140850152614d0582600c8b01614c0d565b9150614d1b600d8a01546001600160a01b031690565b6001600160a01b031661016085015283820301610180840152614d4181600e8a01614ac2565b90508281036040840152614d558188614c4b565b90508281036060840152614d698187614c4b565b90508281036080840152614d7d8186614113565b905082810360a08401526148ea8185614113565b600060208284031215614da357600080fd5b815161093081614550565b60208082526025908201527f455243313135353a207472616e7366657220746f20746865207a65726f206164604082015264647265737360d81b606082015260800190565b6020808252602a908201527f455243313135353a20696e73756666696369656e742062616c616e636520666f60408201526939103a3930b739b332b960b11b606082015260800190565b604081526000614e50604083018561449a565b828103602084015261488d818561449a565b6020815260006109306020830184614821565b6001600160a01b0384811682528316602082015260606040820181905260009061488d90830184614821565b600082601f830112614eb257600080fd5b81516020614ebf82614204565b604051614ecc828261418d565b83815260059390931b8501820192828101915086841115614eec57600080fd5b8286015b8481101561428d5780518352918301918301614ef0565b600082601f830112614f1857600080fd5b81516020614f2582614204565b60408051614f33838261418d565b84815260059490941b8601830193838101925087851115614f5357600080fd5b8387015b85811015614fd75780516001600160401b03811115614f765760008081fd5b8801603f81018a13614f885760008081fd5b85810151614f9581614298565b8551614fa1828261418d565b8281528c87848601011115614fb857600091508182fd5b614fc7838a83018987016140e7565b8752505050928401928401614f57565b50979650505050505050565b600060208284031215614ff557600080fd5b81516001600160401b038082111561500c57600080fd5b9083019060a0828603121561502057600080fd5b6150286141e2565b8251815260208301518281111561503e57600080fd5b61504a87828601614ea1565b60208301525060408301518281111561506257600080fd5b61506e87828601614f07565b60408301525060608301518281111561508657600080fd5b61509287828601614ea1565b6060830152506080830151828111156150aa57600080fd5b6150b687828601614ea1565b60808301525095945050505050565b6001600160a01b0386811682528516602082015260a0604082018190526000906150f19083018661449a565b8281036060840152615103818661449a565b905082810360808401526151178185614113565b98975050505050505050565b60006020828403121561513557600080fd5b81516109308161409b565b600060033d11156151595760046000803e5060005160e01c5b90565b600060443d101561516a5790565b6040516003193d81016004833e81513d6001600160401b03816024840111818411171561519957505050505090565b82850191508151818111156151b15750505050505090565b843d87010160208285010111156151cb5750505050505090565b6151da6020828601018761418d565b509095945050505050565b60208082526028908201527f455243313135353a204552433131353552656365697665722072656a656374656040820152676420746f6b656e7360c01b606082015260800190565b6020808252600a90820152694d41585f4f50434f444560b01b604082015260600190565b60006020828403121561526357600080fd5b81516109308161404a565b60008152600082516152878160018501602087016140e7565b9190910160010192915050565b6001600160a01b03868116825285166020820152604081018490526060810183905260a0608082018190526000906152ce90830184614113565b979650505050505050565b606360f81b815260e083901b6001600160e01b03191660018201526880600e6000396000f360b81b6005820152815160009061531c81600e8501602087016140e7565b91909101600e019392505050565b634e487b7160e01b600052601260045260246000fd5b60008261534f5761534f61532a565b500490565b6000826153635761536361532a565b500690565b600181815b808511156153a3578160001904821115615389576153896149fa565b8085161561539657918102915b93841c939080029061536d565b509250929050565b6000826153ba57506001610334565b816153c757506000610334565b81600181146153dd57600281146153e757615403565b6001915050610334565b60ff8411156153f8576153f86149fa565b50506001821b610334565b5060208310610133831016604e8410600b8410161715615426575081810a610334565b6154308383615368565b8060001904821115615444576154446149fa565b029392505050565b600061093083836153ab565b60006020828403121561546a57600080fd5b5051919050565b604080825283519082018190526000906020906060840190828701845b828110156154b35781516001600160a01b03168452928401929084019060010161548e565b505050838103828501526154c7818661449a565b9695505050505050565b6000602082840312156154e357600080fd5b81516001600160401b038111156154f957600080fd5b613b9a84828501614ea1565b600061093060ff8416836153ab565b600060ff821660ff84168060ff03821115615531576155316149fa565b019392505050565b60208082526008908201526726a0ac2faa24a2a960c11b60408201526060019056fea2646970667358221220df27e3422606334118511924429b2185128c1455d03c42124cf1623e1350f57264736f6c634300080a0033",
  "linkReferences": {},
  "deployedLinkReferences": {}
}