{
  "_format": "hh-sol-artifact-1",
  "contractName": "Rain1155",
  "sourceName": "contracts/Rain1155.sol",
  "abi": [
    {
      "inputs": [
        {
          "components": [
            {
              "internalType": "address",
              "name": "vmStateBuilder",
              "type": "address"
            }
          ],
          "internalType": "struct Rain1155Config",
          "name": "config_",
          "type": "tuple"
        }
      ],
      "stateMutability": "nonpayable",
      "type": "constructor"
    },
    {
      "inputs": [
        {
          "internalType": "uint256",
          "name": "_size",
          "type": "uint256"
        },
        {
          "internalType": "uint256",
          "name": "_start",
          "type": "uint256"
        },
        {
          "internalType": "uint256",
          "name": "_end",
          "type": "uint256"
        }
      ],
      "name": "InvalidCodeAtRange",
      "type": "error"
    },
    {
      "inputs": [],
      "name": "WriteError",
      "type": "error"
    },
    {
      "anonymous": false,
      "inputs": [
        {
          "indexed": true,
          "internalType": "address",
          "name": "account",
          "type": "address"
        },
        {
          "indexed": true,
          "internalType": "address",
          "name": "operator",
          "type": "address"
        },
        {
          "indexed": false,
          "internalType": "bool",
          "name": "approved",
          "type": "bool"
        }
      ],
      "name": "ApprovalForAll",
      "type": "event"
    },
    {
      "anonymous": false,
      "inputs": [
        {
          "indexed": false,
          "internalType": "uint256",
          "name": "assetId_",
          "type": "uint256"
        },
        {
          "components": [
            {
              "internalType": "uint256",
              "name": "lootBoxId",
              "type": "uint256"
            },
            {
              "internalType": "uint256",
              "name": "id",
              "type": "uint256"
            },
            {
              "components": [
                {
                  "internalType": "bytes[]",
                  "name": "sources",
                  "type": "bytes[]"
                },
                {
                  "internalType": "uint256[]",
                  "name": "constants",
                  "type": "uint256[]"
                }
              ],
              "internalType": "struct StateConfig",
              "name": "vmStateConfig",
              "type": "tuple"
            },
            {
              "internalType": "address",
              "name": "vmStatePointer",
              "type": "address"
            },
            {
              "components": [
                {
                  "internalType": "address[]",
                  "name": "token",
                  "type": "address[]"
                },
                {
                  "internalType": "uint256[]",
                  "name": "tokenType",
                  "type": "uint256[]"
                },
                {
                  "internalType": "uint256[]",
                  "name": "tokenId",
                  "type": "uint256[]"
                }
              ],
              "internalType": "struct CurrencyConfig",
              "name": "currencies",
              "type": "tuple"
            },
            {
              "internalType": "address",
              "name": "recipient",
              "type": "address"
            },
            {
              "internalType": "string",
              "name": "tokenURI",
              "type": "string"
            }
          ],
          "indexed": false,
          "internalType": "struct Rain1155.AssetDetails",
          "name": "asset_",
          "type": "tuple"
        },
        {
          "indexed": false,
          "internalType": "string",
          "name": "name_",
          "type": "string"
        },
        {
          "indexed": false,
          "internalType": "string",
          "name": "description_",
          "type": "string"
        }
      ],
      "name": "AssetCreated",
      "type": "event"
    },
    {
      "anonymous": false,
      "inputs": [
        {
          "indexed": false,
          "internalType": "address",
          "name": "deployer_",
          "type": "address"
        },
        {
          "components": [
            {
              "internalType": "address",
              "name": "vmStateBuilder",
              "type": "address"
            }
          ],
          "indexed": false,
          "internalType": "struct Rain1155Config",
          "name": "config_",
          "type": "tuple"
        }
      ],
      "name": "Initialize",
      "type": "event"
    },
    {
      "anonymous": false,
      "inputs": [
        {
          "indexed": true,
          "internalType": "address",
          "name": "operator",
          "type": "address"
        },
        {
          "indexed": true,
          "internalType": "address",
          "name": "from",
          "type": "address"
        },
        {
          "indexed": true,
          "internalType": "address",
          "name": "to",
          "type": "address"
        },
        {
          "indexed": false,
          "internalType": "uint256[]",
          "name": "ids",
          "type": "uint256[]"
        },
        {
          "indexed": false,
          "internalType": "uint256[]",
          "name": "values",
          "type": "uint256[]"
        }
      ],
      "name": "TransferBatch",
      "type": "event"
    },
    {
      "anonymous": false,
      "inputs": [
        {
          "indexed": true,
          "internalType": "address",
          "name": "operator",
          "type": "address"
        },
        {
          "indexed": true,
          "internalType": "address",
          "name": "from",
          "type": "address"
        },
        {
          "indexed": true,
          "internalType": "address",
          "name": "to",
          "type": "address"
        },
        {
          "indexed": false,
          "internalType": "uint256",
          "name": "id",
          "type": "uint256"
        },
        {
          "indexed": false,
          "internalType": "uint256",
          "name": "value",
          "type": "uint256"
        }
      ],
      "name": "TransferSingle",
      "type": "event"
    },
    {
      "anonymous": false,
      "inputs": [
        {
          "indexed": false,
          "internalType": "string",
          "name": "value",
          "type": "string"
        },
        {
          "indexed": true,
          "internalType": "uint256",
          "name": "id",
          "type": "uint256"
        }
      ],
      "name": "URI",
      "type": "event"
    },
    {
      "inputs": [
        {
          "internalType": "uint256",
          "name": "",
          "type": "uint256"
        }
      ],
      "name": "assets",
      "outputs": [
        {
          "internalType": "uint256",
          "name": "lootBoxId",
          "type": "uint256"
        },
        {
          "internalType": "uint256",
          "name": "id",
          "type": "uint256"
        },
        {
          "components": [
            {
              "internalType": "bytes[]",
              "name": "sources",
              "type": "bytes[]"
            },
            {
              "internalType": "uint256[]",
              "name": "constants",
              "type": "uint256[]"
            }
          ],
          "internalType": "struct StateConfig",
          "name": "vmStateConfig",
          "type": "tuple"
        },
        {
          "internalType": "address",
          "name": "vmStatePointer",
          "type": "address"
        },
        {
          "components": [
            {
              "internalType": "address[]",
              "name": "token",
              "type": "address[]"
            },
            {
              "internalType": "uint256[]",
              "name": "tokenType",
              "type": "uint256[]"
            },
            {
              "internalType": "uint256[]",
              "name": "tokenId",
              "type": "uint256[]"
            }
          ],
          "internalType": "struct CurrencyConfig",
          "name": "currencies",
          "type": "tuple"
        },
        {
          "internalType": "address",
          "name": "recipient",
          "type": "address"
        },
        {
          "internalType": "string",
          "name": "tokenURI",
          "type": "string"
        }
      ],
      "stateMutability": "view",
      "type": "function"
    },
    {
      "inputs": [
        {
          "internalType": "address",
          "name": "account",
          "type": "address"
        },
        {
          "internalType": "uint256",
          "name": "id",
          "type": "uint256"
        }
      ],
      "name": "balanceOf",
      "outputs": [
        {
          "internalType": "uint256",
          "name": "",
          "type": "uint256"
        }
      ],
      "stateMutability": "view",
      "type": "function"
    },
    {
      "inputs": [
        {
          "internalType": "address[]",
          "name": "accounts",
          "type": "address[]"
        },
        {
          "internalType": "uint256[]",
          "name": "ids",
          "type": "uint256[]"
        }
      ],
      "name": "balanceOfBatch",
      "outputs": [
        {
          "internalType": "uint256[]",
          "name": "",
          "type": "uint256[]"
        }
      ],
      "stateMutability": "view",
      "type": "function"
    },
    {
      "inputs": [
        {
          "components": [
            {
              "internalType": "string",
              "name": "name",
              "type": "string"
            },
            {
              "internalType": "string",
              "name": "description",
              "type": "string"
            },
            {
              "internalType": "uint256",
              "name": "lootBoxId",
              "type": "uint256"
            },
            {
              "components": [
                {
                  "internalType": "bytes[]",
                  "name": "sources",
                  "type": "bytes[]"
                },
                {
                  "internalType": "uint256[]",
                  "name": "constants",
                  "type": "uint256[]"
                }
              ],
              "internalType": "struct StateConfig",
              "name": "vmStateConfig",
              "type": "tuple"
            },
            {
              "components": [
                {
                  "internalType": "address[]",
                  "name": "token",
                  "type": "address[]"
                },
                {
                  "internalType": "uint256[]",
                  "name": "tokenType",
                  "type": "uint256[]"
                },
                {
                  "internalType": "uint256[]",
                  "name": "tokenId",
                  "type": "uint256[]"
                }
              ],
              "internalType": "struct CurrencyConfig",
              "name": "currencies",
              "type": "tuple"
            },
            {
              "internalType": "address",
              "name": "recipient",
              "type": "address"
            },
            {
              "internalType": "string",
              "name": "tokenURI",
              "type": "string"
            }
          ],
          "internalType": "struct AssetConfig",
          "name": "config_",
          "type": "tuple"
        }
      ],
      "name": "createNewAsset",
      "outputs": [],
      "stateMutability": "nonpayable",
      "type": "function"
    },
    {
      "inputs": [
        {
          "internalType": "uint256",
          "name": "id",
          "type": "uint256"
        }
      ],
      "name": "exists",
      "outputs": [
        {
          "internalType": "bool",
          "name": "",
          "type": "bool"
        }
      ],
      "stateMutability": "view",
      "type": "function"
    },
    {
      "inputs": [],
      "name": "fnPtrs",
      "outputs": [
        {
          "internalType": "bytes",
          "name": "",
          "type": "bytes"
        }
      ],
      "stateMutability": "pure",
      "type": "function"
    },
    {
      "inputs": [
        {
          "internalType": "uint256",
          "name": "assetId_",
          "type": "uint256"
        },
        {
          "internalType": "address",
          "name": "account_",
          "type": "address"
        },
        {
          "internalType": "uint256",
          "name": "units_",
          "type": "uint256"
        }
      ],
      "name": "getAssetCost",
      "outputs": [
        {
          "internalType": "uint256",
          "name": "",
          "type": "uint256"
        },
        {
          "internalType": "uint256[]",
          "name": "",
          "type": "uint256[]"
        }
      ],
      "stateMutability": "view",
      "type": "function"
    },
    {
      "inputs": [
        {
          "internalType": "uint256",
          "name": "assetId_",
          "type": "uint256"
        },
        {
          "internalType": "address",
          "name": "account_",
          "type": "address"
        },
        {
          "internalType": "uint256",
          "name": "units_",
          "type": "uint256"
        }
      ],
      "name": "getAssetMaxUnits",
      "outputs": [
        {
          "internalType": "uint256",
          "name": "",
          "type": "uint256"
        }
      ],
      "stateMutability": "view",
      "type": "function"
    },
    {
      "inputs": [
        {
          "internalType": "uint256",
          "name": "assetId_",
          "type": "uint256"
        },
        {
          "internalType": "uint256",
          "name": "paymentToken_",
          "type": "uint256"
        },
        {
          "internalType": "address",
          "name": "account_",
          "type": "address"
        },
        {
          "internalType": "uint256",
          "name": "units_",
          "type": "uint256"
        }
      ],
      "name": "getCurrencyPrice",
      "outputs": [
        {
          "internalType": "uint256",
          "name": "",
          "type": "uint256"
        }
      ],
      "stateMutability": "view",
      "type": "function"
    },
    {
      "inputs": [
        {
          "internalType": "address",
          "name": "account",
          "type": "address"
        },
        {
          "internalType": "address",
          "name": "operator",
          "type": "address"
        }
      ],
      "name": "isApprovedForAll",
      "outputs": [
        {
          "internalType": "bool",
          "name": "",
          "type": "bool"
        }
      ],
      "stateMutability": "view",
      "type": "function"
    },
    {
      "inputs": [
        {
          "internalType": "uint256",
          "name": "assetId_",
          "type": "uint256"
        },
        {
          "internalType": "uint256",
          "name": "units_",
          "type": "uint256"
        }
      ],
      "name": "mintAssets",
      "outputs": [],
      "stateMutability": "nonpayable",
      "type": "function"
    },
    {
      "inputs": [
        {
          "internalType": "address",
          "name": "from",
          "type": "address"
        },
        {
          "internalType": "address",
          "name": "to",
          "type": "address"
        },
        {
          "internalType": "uint256[]",
          "name": "ids",
          "type": "uint256[]"
        },
        {
          "internalType": "uint256[]",
          "name": "amounts",
          "type": "uint256[]"
        },
        {
          "internalType": "bytes",
          "name": "data",
          "type": "bytes"
        }
      ],
      "name": "safeBatchTransferFrom",
      "outputs": [],
      "stateMutability": "nonpayable",
      "type": "function"
    },
    {
      "inputs": [
        {
          "internalType": "address",
          "name": "from",
          "type": "address"
        },
        {
          "internalType": "address",
          "name": "to",
          "type": "address"
        },
        {
          "internalType": "uint256",
          "name": "id",
          "type": "uint256"
        },
        {
          "internalType": "uint256",
          "name": "amount",
          "type": "uint256"
        },
        {
          "internalType": "bytes",
          "name": "data",
          "type": "bytes"
        }
      ],
      "name": "safeTransferFrom",
      "outputs": [],
      "stateMutability": "nonpayable",
      "type": "function"
    },
    {
      "inputs": [
        {
          "internalType": "address",
          "name": "operator",
          "type": "address"
        },
        {
          "internalType": "bool",
          "name": "approved",
          "type": "bool"
        }
      ],
      "name": "setApprovalForAll",
      "outputs": [],
      "stateMutability": "nonpayable",
      "type": "function"
    },
    {
      "inputs": [],
      "name": "storageOpcodesRange",
      "outputs": [
        {
          "components": [
            {
              "internalType": "uint256",
              "name": "pointer",
              "type": "uint256"
            },
            {
              "internalType": "uint256",
              "name": "length",
              "type": "uint256"
            }
          ],
          "internalType": "struct StorageOpcodesRange",
          "name": "",
          "type": "tuple"
        }
      ],
      "stateMutability": "pure",
      "type": "function"
    },
    {
      "inputs": [
        {
          "internalType": "bytes4",
          "name": "interfaceId",
          "type": "bytes4"
        }
      ],
      "name": "supportsInterface",
      "outputs": [
        {
          "internalType": "bool",
          "name": "",
          "type": "bool"
        }
      ],
      "stateMutability": "view",
      "type": "function"
    },
    {
      "inputs": [],
      "name": "totalAssets",
      "outputs": [
        {
          "internalType": "uint256",
          "name": "",
          "type": "uint256"
        }
      ],
      "stateMutability": "view",
      "type": "function"
    },
    {
      "inputs": [
        {
          "internalType": "uint256",
          "name": "id",
          "type": "uint256"
        }
      ],
      "name": "totalSupply",
      "outputs": [
        {
          "internalType": "uint256",
          "name": "",
          "type": "uint256"
        }
      ],
      "stateMutability": "view",
      "type": "function"
    },
    {
      "inputs": [
        {
          "internalType": "uint256",
          "name": "_tokenId",
          "type": "uint256"
        }
      ],
      "name": "uri",
      "outputs": [
        {
          "internalType": "string",
          "name": "",
          "type": "string"
        }
      ],
      "stateMutability": "view",
      "type": "function"
    }
  ],
  "bytecode": "0x60c06040523480156200001157600080fd5b5060405162004ecc38038062004ecc833981016040819052620000349162000165565b6040805160208101909152600081526200004e81620000a6565b503060805280516001600160a01b0390811660a05260408051338152835190921660208301527f44788c2de8ef11f7319be42eeb662b7294d2ddd71cad90e02f888701a34fa828910160405180910390a1506200020a565b8051620000bb906002906020840190620000bf565b5050565b828054620000cd90620001cd565b90600052602060002090601f016020900481019282620000f157600085556200013c565b82601f106200010c57805160ff19168380011785556200013c565b828001600101855582156200013c579182015b828111156200013c5782518255916020019190600101906200011f565b506200014a9291506200014e565b5090565b5b808211156200014a57600081556001016200014f565b6000602082840312156200017857600080fd5b604051602081016001600160401b0381118282101715620001a957634e487b7160e01b600052604160045260246000fd5b60405282516001600160a01b0381168114620001c457600080fd5b81529392505050565b600181811c90821680620001e257607f821691505b602082108114156200020457634e487b7160e01b600052602260045260246000fd5b50919050565b60805160a051614c9c620002306000396000611255015260006112840152614c9c6000f3fe608060405234801561001057600080fd5b50600436106101105760003560e01c8063959e70d3116100ad578063e0419ae311610071578063e0419ae314610291578063e985e9c5146102c9578063f242432a14610305578063f2cd6c0814610318578063f812af84146104c057600080fd5b8063959e70d314610212578063a22cb46514610225578063bd85b03914610238578063cf35bdd014610258578063d30402411461027e57600080fd5b8062fdd58e1461011557806301e1d1141461013b57806301ffc9a71461014457806303906c90146101675780630d28f4ea146101885780630e89341c1461019b5780632eb2c2d6146101bb5780634e1273f4146101d05780634f558e79146101f0575b600080fd5b6101286101233660046136e2565b6104d3565b6040519081526020015b60405180910390f35b61012860045481565b610157610152366004613724565b61056c565b6040519015158152602001610132565b61017a610175366004613741565b6105bc565b6040516101329291906137b4565b6101286101963660046137cd565b610762565b6101ae6101a936600461380c565b6107ef565b604051610132919061387d565b6101ce6101c9366004613a36565b6108e1565b005b6101e36101de366004613b52565b61092d565b6040516101329190613bb5565b6101576101fe36600461380c565b600090815260036020526040902054151590565b610128610220366004613741565b610a56565b6101ce610233366004613bd6565b610a70565b61012861024636600461380c565b60009081526003602052604090205490565b61026b61026636600461380c565b610a7f565b6040516101329796959493929190613cd4565b6101ce61028c366004613d7c565b610da6565b604080518082018252600080825260209182018190528251808401845281815282018181528351918252519181019190915201610132565b6101576102d7366004613d9e565b6001600160a01b03918216600090815260016020908152604080832093909416825291909152205460ff1690565b6101ce610313366004613dcc565b611113565b604080516105e081018252600060208201819052918101829052606081018290526080810182905260a0810182905260c08101919091526124dc60e0820181905261256e6101008301526125ed61012083015261268e6101408301526101608201526126d561018082015261276e6101a08201526127c26101c082015261295b6101e082015261296661020082015261297161022082015261297c61024082015261298761026082015261299d6102808201526129c76102a08201526129f16102c0820152612a076102e0820152612a1d610300820152612a52610320820152612a71610340820152612a8b610360820152612ab4610380820152612acf6103a0820152612ade6103c0820152612af96103e0820152612b46610400820152612b85610420820152612bc3610440820152612bfc610460820152612c30610480820152612c626104a0820152612c946104c0820152612cc66104e0820152612cfa610500820152612d4c610520820152612d85610540820152612dd5610560820152612e82610580820152612ea26105a0820152612f5b6105c08083019190915281526101ae565b6101ce6104ce366004613fd2565b611158565b60006001600160a01b0383166105435760405162461bcd60e51b815260206004820152602a60248201527f455243313135353a2061646472657373207a65726f206973206e6f742061207660448201526930b634b21037bbb732b960b11b60648201526084015b60405180910390fd5b506000818152602081815260408083206001600160a01b03861684529091529020545b92915050565b60006001600160e01b03198216636cdb3d1360e11b148061059d57506001600160e01b031982166303a24d0760e21b145b8061056657506301ffc9a760e01b6001600160e01b0319831614610566565b600060606105c861345b565b6001600160a01b03851681526020810184905260006105e6876114f7565b9050610613826040516020016105fc91906140ff565b60405160208183030381529060405282600061152c565b50600087815260056020819052604082200154825190919061063790600190614149565b905060008360200151600285600001516106519190614149565b81518110610661576106616140e9565b602002602001015190506000836001600160401b0381111561068557610685613890565b6040519080825280602002602001820160405280156106ae578160200160208202803683370190505b50905060005b848110156107515760008160010186039050866020015185815181106106dc576106dc6140e9565b60200260200101518382815181106106f6576106f66140e9565b6020026020010181815250506107358760200151600187038151811061071e5761071e6140e9565b6020026020010151856117ae90919063ffffffff16565b935060028503945050808061074990614160565b9150506106b4565b50909a909950975050505050505050565b60008481526005602081905260408220015484106107ba5760405162461bcd60e51b815260206004820152601560248201527434b73b30b634b2103830bcb6b2b73a103a37b5b2b760591b604482015260640161053a565b60006107c78685856105bc565b9150508085815181106107dc576107dc6140e9565b6020026020010151915050949350505050565b6000818152600360205260409020546060906108405760405162461bcd60e51b815260206004820152601060248201526f24b73b30b634b2102a37b5b2b724b21760811b604482015260640161053a565b6000828152600560205260409020600901805461085c9061417b565b80601f01602080910402602001604051908101604052809291908181526020018280546108889061417b565b80156108d55780601f106108aa576101008083540402835291602001916108d5565b820191906000526020600020905b8154815290600101906020018083116108b857829003601f168201915b50505050509050919050565b6001600160a01b0385163314806108fd57506108fd85336102d7565b6109195760405162461bcd60e51b815260040161053a906141b0565b61092685858585856117c4565b5050505050565b606081518351146109925760405162461bcd60e51b815260206004820152602960248201527f455243313135353a206163636f756e747320616e6420696473206c656e677468604482015268040dad2e6dac2e8c6d60bb1b606482015260840161053a565b600083516001600160401b038111156109ad576109ad613890565b6040519080825280602002602001820160405280156109d6578160200160208202803683370190505b50905060005b8451811015610a4e57610a218582815181106109fa576109fa6140e9565b6020026020010151858381518110610a1457610a146140e9565b60200260200101516104d3565b828281518110610a3357610a336140e9565b6020908102919091010152610a4781614160565b90506109dc565b509392505050565b600080610a648585856105bc565b509150505b9392505050565b610a7b3383836119af565b5050565b600560209081526000918252604080832080546001820154835160028401805460609781028301880187529582018681529397929694959194909385939092859290919085015b82821015610b72578382906000526020600020018054610ae59061417b565b80601f0160208091040260200160405190810160405280929190818152602001828054610b119061417b565b8015610b5e5780601f10610b3357610100808354040283529160200191610b5e565b820191906000526020600020905b815481529060010190602001808311610b4157829003601f168201915b505050505081526020019060010190610ac6565b50505050815260200160018201805480602002602001604051908101604052809291908181526020018280548015610bc957602002820191906000526020600020905b815481526020019060010190808311610bb5575b50505091909252505050600482015460408051600585018054608060208202840181019094526060830181815295966001600160a01b039095169592939192849290918491840182828015610c4757602002820191906000526020600020905b81546001600160a01b03168152600190910190602001808311610c29575b5050505050815260200160018201805480602002602001604051908101604052809291908181526020018280548015610c9f57602002820191906000526020600020905b815481526020019060010190808311610c8b575b5050505050815260200160028201805480602002602001604051908101604052809291908181526020018280548015610cf757602002820191906000526020600020905b815481526020019060010190808311610ce3575b50505091909252505050600882015460098301805492936001600160a01b0390921692610d239061417b565b80601f0160208091040260200160405190810160405280929190818152602001828054610d4f9061417b565b8015610d9c5780601f10610d7157610100808354040283529160200191610d9c565b820191906000526020600020905b815481529060010190602001808311610d7f57829003601f168201915b5050505050905087565b600454821115610dea5760405162461bcd60e51b815260206004820152600f60248201526e125b9d985b1a5908105cdcd95d1259608a1b604482015260640161053a565b600080610df88433856105bc565b9150915060008211610e385760405162461bcd60e51b815260206004820152600960248201526810d85b9d08135a5b9d60ba1b604482015260640161053a565b610e4282846117ae565b915060005b600085815260056020819052604090912001548110156110f1576000858152600560205260408120600601805483908110610e8457610e846140e9565b906000526020600020015490506000838381518110610ea557610ea56140e9565b602002602001015111156110de5780610fb857600086815260056020819052604090912001805483908110610edc57610edc6140e9565b6000918252602080832090910154888352600590915260409091206008015484516001600160a01b03928316926323b872dd9233929116908890889088908110610f2857610f286140e9565b6020026020010151610f3a91906141ff565b6040516001600160e01b031960e086901b1681526001600160a01b03938416600482015292909116602483015260448201526064016020604051808303816000875af1158015610f8e573d6000803e3d6000fd5b505050506040513d601f19601f82011682018060405250810190610fb2919061421e565b506110de565b80600114156110de57600086815260056020819052604090912001805483908110610fe557610fe56140e9565b6000918252602080832090910154888352600590915260409091206008810154600790910180546001600160a01b039384169363f242432a93339391169187908110611033576110336140e9565b906000526020600020015488888881518110611051576110516140e9565b602002602001015161106391906141ff565b6040516001600160e01b031960e087901b1681526001600160a01b0394851660048201529390921660248401526044830152606482015260a06084820152600060a482015260c401600060405180830381600087803b1580156110c557600080fd5b505af11580156110d9573d6000803e3d6000fd5b505050505b50806110e981614160565b915050610e47565b5061110d33858460405180602001604052806000815250611a90565b50505050565b6001600160a01b03851633148061112f575061112f85336102d7565b61114b5760405162461bcd60e51b815260040161053a906141b0565b6109268585858585611bb3565b60005b608082015151518110156111e15760028260800151602001518281518110611185576111856140e9565b6020026020010151106111cf5760405162461bcd60e51b8152602060048201526012602482015271494e56414c49445f544f4b454e5f5459504560701b604482015260640161053a565b806111d981614160565b91505061115b565b506004546111f090600161423b565b6004556111fb613479565b600080825260408051600180825281830190925290816020015b61121d613479565b8152602001906001900390816112155790505090508181600081518110611246576112466140e9565b602002602001018190525060007f00000000000000000000000000000000000000000000000000000000000000006001600160a01b03166317376ae07f00000000000000000000000000000000000000000000000000000000000000008660600151856040518463ffffffff1660e01b81526004016112c793929190614253565b6000604051808303816000875af11580156112e6573d6000803e3d6000fd5b505050506040513d6000823e601f3d908101601f1916820160405261130e91908101906142fa565b90506040518060e001604052808560400151815260200160045481526020018560600151815260200161134083611ceb565b6001600160a01b03168152602001856080015181526020018560a001516001600160a01b031681526020018560c00151815250600560006004548152602001908152602001600020600082015181600001556020820151816001015560408201518160020160008201518160000190805190602001906113c19291906134b6565b5060208281015180516113da9260018501920190613513565b50505060608201516004820180546001600160a01b0319166001600160a01b0390921691909117905560808201518051805160058401916114209183916020019061355a565b5060208281015180516114399260018501920190613513565b5060408201518051611455916002840191602090910190613513565b50505060a08201516008820180546001600160a01b0319166001600160a01b0390921691909117905560c082015180516114999160098401916020909101906135af565b505060045460008181526005602090815260409182902088519189015192517f2c60302e47b38000abd8c2f44e36eb00fcc7159a569caeb6487a52cf34d95b4495506114e994939192919061453e565b60405180910390a150505050565b6114ff613622565b60008281526005602052604090206004015461056690611527906001600160a01b0316611d50565b611d60565b60208281015183516040850151848402018301518051606087015160a088015160009687968796879695948301938284019391820290920101906002015b84891015611796576003890198508886015180601f1a975061ffff8160081c16985050600688101561173757876115af5786602002840151825260208201915061174a565b60018814156115cc5760208702830151825260208201915061174a565b6002881415611630578c5187602002106116195760405162461bcd60e51b815260206004820152600e60248201526d0869e9ca88ab0a8be988a9c8ea8960931b604482015260640161053a565b866020026020018d0151825260208201915061174a565b60038814156116785760006116666040805180820182526000808252602091820181905282518084019093528083529082015290565b5188015483525060209091019061174a565b60048814156116945761168d8d8d848a611e76565b915061174a565b6060876116c2578c6040516020016116ac9190614610565b6040516020818303038152906040529050611721565b60018814156116db576116d48d611fba565b9050611721565b60028814156116f7576020808e01516040516116ac9201614689565b6003881415611721578c516040805160208101929092520160405160208183030381529060405290505b80511561173157611731816120bb565b5061174a565b87611746888463ffffffff8416565b9250505b60208c0151518c5111156117915760405162461bcd60e51b815260206004820152600e60248201526d535441434b5f4f564552464c4f5760901b604482015260640161053a565b61156a565b602083830304909b529b9a5050505050505050505050565b60008183106117bd5781610a69565b5090919050565b81518351146118265760405162461bcd60e51b815260206004820152602860248201527f455243313135353a2069647320616e6420616d6f756e7473206c656e677468206044820152670dad2e6dac2e8c6d60c31b606482015260840161053a565b6001600160a01b03841661184c5760405162461bcd60e51b815260040161053a906146d5565b3361185b818787878787612101565b60005b845181101561194157600085828151811061187b5761187b6140e9565b602002602001015190506000858381518110611899576118996140e9565b602090810291909101810151600084815280835260408082206001600160a01b038e1683529093529190912054909150818110156118e95760405162461bcd60e51b815260040161053a9061471a565b6000838152602081815260408083206001600160a01b038e8116855292528083208585039055908b1682528120805484929061192690849061423b565b925050819055505050508061193a90614160565b905061185e565b50846001600160a01b0316866001600160a01b0316826001600160a01b03167f4a39dc06d4c0dbc64b70af90fd698a233a518aa5d07e595d983b8c0526c8f7fb8787604051611991929190614764565b60405180910390a46119a781878787878761227a565b505050505050565b816001600160a01b0316836001600160a01b03161415611a235760405162461bcd60e51b815260206004820152602960248201527f455243313135353a2073657474696e6720617070726f76616c20737461747573604482015268103337b91039b2b63360b91b606482015260840161053a565b6001600160a01b03838116600081815260016020908152604080832094871680845294825291829020805460ff191686151590811790915591519182527f17307eab39ab6107e8899845ad3d59bd9653f200f220920489ca2b5937696c31910160405180910390a3505050565b6001600160a01b038416611af05760405162461bcd60e51b815260206004820152602160248201527f455243313135353a206d696e7420746f20746865207a65726f206164647265736044820152607360f81b606482015260840161053a565b336000611afc856123d6565b90506000611b09856123d6565b9050611b1a83600089858589612101565b6000868152602081815260408083206001600160a01b038b16845290915281208054879290611b4a90849061423b565b909155505060408051878152602081018790526001600160a01b03808a1692600092918716917fc3d58168c5ae7397731d063d5bbf3d657854427343f4c083240f7aacaa2d0f62910160405180910390a4611baa83600089898989612421565b50505050505050565b6001600160a01b038416611bd95760405162461bcd60e51b815260040161053a906146d5565b336000611be5856123d6565b90506000611bf2856123d6565b9050611c02838989858589612101565b6000868152602081815260408083206001600160a01b038c16845290915290205485811015611c435760405162461bcd60e51b815260040161053a9061471a565b6000878152602081815260408083206001600160a01b038d8116855292528083208985039055908a16825281208054889290611c8090849061423b565b909155505060408051888152602081018890526001600160a01b03808b16928c821692918816917fc3d58168c5ae7397731d063d5bbf3d657854427343f4c083240f7aacaa2d0f62910160405180910390a4611ce0848a8a8a8a8a612421565b505050505050505050565b600080611d1683604051602001611d029190614789565b604051602081830303815290604052612f9b565b90508051602082016000f091506001600160a01b038216611d4a5760405163046a55db60e11b815260040160405180910390fd5b50919050565b6060610566826001600019612fc7565b611d68613622565b611d70613622565b60208301805160ff8082168352606084019290925290600882901c166001600160401b03811115611da357611da3613890565b604051908082528060200260200182016040528015611dcc578160200160208202803683370190505b50602083015260ff601082901c81166080840152601882901c1660606000826001600160401b03811115611e0257611e02613890565b604051908082528060200260200182016040528015611e2b578160200160208202803683370190505b5090506020870151602002604001870160005b84811015611e65578160208202602001840152815160200182019150600181019050611e3e565b505060408501525091949350505050565b600060078216600383811c16828082611e9757506000199050610100611ed8565b8260011415611eb257506001600160801b0390506080611ed8565b8260021415611ecd57506001600160401b0390506040611ed8565b5063ffffffff905060205b6001600587901c016000816001600160401b03811115611efa57611efa613890565b604051908082528060200260200182016040528015611f23578160200160208202803683370190505b50905060208082019083028a03815b8b821015611f4a578151815260209182019101611f32565b505060608b015160808c015160209081029091010160005b610100811015611fa85760208502830182845b82811015611f91578051841c8a16825260209182019101611f75565b505050611f9f8e8e8b61152c565b9b508501611f62565b50999c9b505050505050505050505050565b606060008260600151905060006018846040015151901b60108560800151901b6008866020015151901b866060015151171717905060008160001b836040516020016120069190614689565b60408051601f198184030181529082905261202492916020016147af565b604051602081830303815290604052905060005b8560400151518110156120b257818660400151828151811061205c5761205c6140e9565b60200260200101515160001b8760400151838151811061207e5761207e6140e9565b6020026020010151604051602001612098939291906147d5565b60408051601f198184030181529190529150600101612038565b50949350505050565b6120fe816040516024016120cf919061387d565b60408051601f198184030181529190526020810180516001600160e01b03166305f3bfab60e11b179052613078565b50565b6001600160a01b0385166121885760005b83518110156121865782818151811061212d5761212d6140e9565b60200260200101516003600086848151811061214b5761214b6140e9565b602002602001015181526020019081526020016000206000828254612170919061423b565b9091555061217f905081614160565b9050612112565b505b6001600160a01b0384166119a75760005b8351811015611baa5760008482815181106121b6576121b66140e9565b6020026020010151905060008483815181106121d4576121d46140e9565b60200260200101519050600060036000848152602001908152602001600020549050818110156122575760405162461bcd60e51b815260206004820152602860248201527f455243313135353a206275726e20616d6f756e74206578636565647320746f74604482015267616c537570706c7960c01b606482015260840161053a565b6000928352600360205260409092209103905561227381614160565b9050612199565b6001600160a01b0384163b156119a75760405163bc197c8160e01b81526001600160a01b0385169063bc197c81906122be908990899088908890889060040161480c565b6020604051808303816000875af19250505080156122f9575060408051601f3d908101601f191682019092526122f69181019061486a565b60015b6123a657612305614887565b806308c379a0141561233f575061231a6148a3565b806123255750612341565b8060405162461bcd60e51b815260040161053a919061387d565b505b60405162461bcd60e51b815260206004820152603460248201527f455243313135353a207472616e7366657220746f206e6f6e20455243313135356044820152732932b1b2b4bb32b91034b6b83632b6b2b73a32b960611b606482015260840161053a565b6001600160e01b0319811663bc197c8160e01b14611baa5760405162461bcd60e51b815260040161053a9061492c565b60408051600180825281830190925260609160009190602080830190803683370190505090508281600081518110612410576124106140e9565b602090810291909101015292915050565b6001600160a01b0384163b156119a75760405163f23a6e6160e01b81526001600160a01b0385169063f23a6e61906124659089908990889088908890600401614974565b6020604051808303816000875af19250505080156124a0575060408051601f3d908101601f1916820190925261249d9181019061486a565b60015b6124ac57612305614887565b6001600160e01b0319811663f23a6e6160e01b14611baa5760405162461bcd60e51b815260040161053a9061492c565b603f1981018051601f1990920180516040516370a0823160e01b81526001600160a01b03808316600483015292946000949390929185918416906370a08231906024015b602060405180830381865afa15801561253d573d6000803e3d6000fd5b505050506040513d601f19601f8201168201806040525081019061256191906149ae565b9093525092949350505050565b6000806000602084039150815190506000816001600160a01b03166318160ddd6040518163ffffffff1660e01b8152600401602060405180830381865afa1580156125bd573d6000803e3d6000fd5b505050506040513d601f19601f820116820180604052508101906125e191906149ae565b90925250919392505050565b605f1981018051603f1983018051601f199094015160405163277166bf60e11b81526001600160a01b03808716600483015260248201839052929560009594939092918691851690634ee2cd7e906044015b602060405180830381865afa15801561265c573d6000803e3d6000fd5b505050506040513d601f19601f8201168201806040525081019061268091906149ae565b909452509395945050505050565b603f1981018051601f199092018051604051630981b24d60e41b81526004810182905291936000939290919084906001600160a01b0384169063981b24d090602401612520565b603f1981018051601f1990920180516040516331a9108f60e11b81526004810182905291936000939290919084906001600160a01b03841690636352211e90602401602060405180830381865afa158015612734573d6000803e3d6000fd5b505050506040513d601f19601f8201168201806040525081019061275891906149c7565b6001600160a01b03169093525092949350505050565b605f1981018051603f1983018051601f1990940151604051627eeac760e11b81526001600160a01b0380871660048301526024820183905292956000959493909291869185169062fdd58e9060440161263f565b6000806000846001600160401b038111156127df576127df613890565b604051908082528060200260200182016040528015612808578160200160208202803683370190505b5090506000856001600160401b0381111561282557612825613890565b60405190808252806020026020018201604052801561284e578160200160208202803683370190505b50604087028603601f1981018051909550919250602080890282019085015b8183101561288557825181526020928301920161286d565b5050602088028101602084015b818310156128aa578251815260209283019201612892565b50506040516313849cfd60e21b8152600091506001600160a01b03831690634e1273f4906128de90879087906004016149e4565b600060405180830381865afa1580156128fb573d6000803e3d6000fd5b505050506040513d6000823e601f3d908101601f1916820160405261292391908101906149f7565b9050846020820160208a0281015b8082101561294c578151835260209283019290910190612931565b50909998505050505050505050565b438152602001919050565b338152602001919050565b308152602001919050565b428152602001919050565b601f198101805160009190826125e18287613099565b603f1981018051601f19909201805190926000929183612561826129c1858a613099565b906130fc565b603f1981018051601f19909201805190926000929183612561826129eb858a613099565b9061311b565b601f198101805160009190826125e18287613130565b601f198101805160009190826125e1828761317b565b6000602083028203805b83811015612a475780518015612a3e578252612a47565b50602001612a27565b506020019392505050565b605f1981018051156020028201603f1990810151909152018092915050565b601f1981018051603f199092018051909214909152919050565b6000602083028203805b83811015612a47578051612aac5760008252612a47565b602001612a95565b601f1981018051603f19909201805192909211909152919050565b601f1981018051159052919050565b601f1981018051603f19909201805192909210909152919050565b6020828102820380516000928201835b8582108015612b19575060001983105b15612b3857508051602090910190612b3183826131bb565b9250612b09565b505081526020019392505050565b6020828102820380516000928201835b8582108015612b66575060001983105b15612b3857508051602090910190612b7e83826131d9565b9250612b56565b6020828102820380516000928201835b8582108015612ba45750826000105b15612b3857508051602090910190612bbc8382613208565b9250612b95565b600060208302820380516000602083015b85811015612b385780518301915082821015612bef57600080fd5b9091508190602001612bd4565b600060208302820380516000602083015b85811015612b38578051915081612c2357600080fd5b9181900491602001612c0d565b6020828102820380516000928201835b85821015612b3857508051602090910190612c5b8184614b6b565b9250612c40565b6020828102820380516000928201835b85821015612b385750805182811115612c89578092505b602082019150612c72565b6020828102820380516000928201835b85821015612b385750805182811015612cbb578092505b602082019150612ca4565b600060208302820380516000602083015b85811015612b38578051915081612ced57600080fd5b9181900691602001612cd7565b60006020830282038051600080602084015b86811015612d3d578315612d35578051925082840291508284830414612d3157600080fd5b8193505b602001612d0c565b50505081526020019392505050565b600060208302820380516000602083015b85811015612b385780518303915082821115612d7857600080fd5b9091508190602001612d5d565b819003603f1981018051601f199092018051848252604051632235a18160e21b8152919360009392909190859085906001600160a01b038516906388d686049061263f9086908690600401614b77565b819003605f1981018051603f19830151601f19909301805185825260405163caa0eb3b60e01b815291946000949392909190869086906001600160a01b0386169063caa0eb3b90612e2e90879087908790600401614b9b565b602060405180830381865afa158015612e4b573d6000803e3d6000fd5b505050506040513d601f19601f82011682018060405250810190612e6f91906149ae565b8652505060209093019695505050505050565b603f1981018051601f19909201805190926000929183612561838361321e565b6000600783901c6003600585901c16601f85168380826001600160401b03811115612ecf57612ecf613890565b604051908082528060200260200182016040528015612ef8578160200160208202803683370190505b509050600060206001850102880392506020840283018360005b82821015612f3457815181602001860152602082019150602081019050612f12565b50505190506000612f4783838989613275565b845250506020909101979650505050505050565b603f1981018051601f199092018051909260009291600f80871691600488901c9091169085612f8c8585858561336b565b90955250949695505050505050565b6060815182604051602001612fb1929190614bc2565b6040516020818303038152906040529050919050565b6060833b80612fe6575050604080516020810190915260008152610a69565b80841115613004575050604080516020810190915260008152610a69565b838310156130365760405163162544fd60e11b815260048101829052602481018590526044810184905260640161053a565b838303848203600082821061304b578261304d565b815b60408051603f8301601f19168101909152818152955090508087602087018a3c505050509392505050565b80516a636f6e736f6c652e6c6f67602083016000808483855afa5050505050565b60008082601214156130ae5783915050610566565b82601211156130da575060128290036130c881600a614b6b565b6130d290856141ff565b915050610566565b5060111982016130eb81600a614b6b565b6130d29085614c13565b5092915050565b600081613111670de0b6b3a7640000856141ff565b610a699190614c13565b6000670de0b6b3a764000061311183856141ff565b600081810b613140575081610566565b60008260000b13156131685761315782600a614c35565b61316190846141ff565b9050610566565b60ff6000839003166130eb81600a614b6b565b60008060128314156131905783915050610566565b82601211156131aa575060128290036130eb81600a614b6b565b5060111982016130c881600a614b6b565b60008282018381106131cd57806131d1565b6000195b949350505050565b6000826131e857506000610566565b828202828482816131fb576131fb6146bf565b0414156131cd57806131d1565b6000818311613218576000610a69565b50900390565b60008060015b60088111610a4e57600061323886836133c7565b9050600061324686846133c7565b905060006132548383613208565b905061326485600186038361340c565b945050600190920191506132249050565b835160009081908190819060015b6008811161335d5760009250828761329e57506000196132a2565b5060005b60005b83811015613339576132d08c82815181106132c2576132c26140e9565b6020026020010151846133c7565b95508a861161332257886132ef576132e886836117ae565b9150613319565b6001891415613302576132e8868361344b565b600289148015613310575084155b15613319578591505b60019450613331565b89613331576000199150613339565b6001016132a5565b508361334457506000195b61335286600184038361340c565b955050600101613283565b509298975050505050505050565b600082600881111561338f5760405162461bcd60e51b815260040161053a90614c44565b6000855b858110156133bb5763ffffffff6020820290811b199890981685891b17979150600101613393565b50959695505050505050565b60008160088111156133eb5760405162461bcd60e51b815260040161053a90614c44565b826133f957600091506130f5565b5050600019016020021c63ffffffff1690565b60008260088111156134305760405162461bcd60e51b815260040161053a90614c44565b505063ffffffff602090920291821b199290921691901b1790565b6000818310156117bd5781610a69565b60405180604001604052806002906020820280368337509192915050565b6040518060e00160405280600081526020016000815260200160008152602001600081526020016000815260200160008152602001600081525090565b828054828255906000526020600020908101928215613503579160200282015b8281111561350357825180516134f39184916020909101906135af565b50916020019190600101906134d6565b5061350f929150613651565b5090565b82805482825590600052602060002090810192821561354e579160200282015b8281111561354e578251825591602001919060010190613533565b5061350f92915061366e565b82805482825590600052602060002090810192821561354e579160200282015b8281111561354e57825182546001600160a01b0319166001600160a01b0390911617825560209092019160019091019061357a565b8280546135bb9061417b565b90600052602060002090601f0160209004810192826135dd576000855561354e565b82601f106135f657805160ff191683800117855561354e565b8280016001018555821561354e579182018281111561354e578251825591602001919060010190613533565b6040518060a0016040528060008152602001606081526020016060815260200160608152602001600081525090565b8082111561350f5760006136658282613683565b50600101613651565b5b8082111561350f576000815560010161366f565b50805461368f9061417b565b6000825580601f1061369f575050565b601f0160209004906000526020600020908101906120fe919061366e565b6001600160a01b03811681146120fe57600080fd5b80356136dd816136bd565b919050565b600080604083850312156136f557600080fd5b8235613700816136bd565b946020939093013593505050565b6001600160e01b0319811681146120fe57600080fd5b60006020828403121561373657600080fd5b8135610a698161370e565b60008060006060848603121561375657600080fd5b833592506020840135613768816136bd565b929592945050506040919091013590565b600081518084526020808501945080840160005b838110156137a95781518752958201959082019060010161378d565b509495945050505050565b8281526040602082015260006131d16040830184613779565b600080600080608085870312156137e357600080fd5b843593506020850135925060408501356137fc816136bd565b9396929550929360600135925050565b60006020828403121561381e57600080fd5b5035919050565b60005b83811015613840578181015183820152602001613828565b8381111561110d5750506000910152565b60008151808452613869816020860160208601613825565b601f01601f19169290920160200192915050565b602081526000610a696020830184613851565b634e487b7160e01b600052604160045260246000fd5b604081018181106001600160401b03821117156138c5576138c5613890565b60405250565b601f8201601f191681016001600160401b03811182821017156138f0576138f0613890565b6040525050565b60405160e081016001600160401b038111828210171561391957613919613890565b60405290565b60006001600160401b0382111561393857613938613890565b5060051b60200190565b600082601f83011261395357600080fd5b813560206139608261391f565b60405161396d82826138cb565b83815260059390931b850182019282810191508684111561398d57600080fd5b8286015b848110156139a85780358352918301918301613991565b509695505050505050565b60006001600160401b038211156139cc576139cc613890565b50601f01601f191660200190565b600082601f8301126139eb57600080fd5b81356139f6816139b3565b604051613a0382826138cb565b828152856020848701011115613a1857600080fd5b82602086016020830137600092810160200192909252509392505050565b600080600080600060a08688031215613a4e57600080fd5b8535613a59816136bd565b94506020860135613a69816136bd565b935060408601356001600160401b0380821115613a8557600080fd5b613a9189838a01613942565b94506060880135915080821115613aa757600080fd5b613ab389838a01613942565b93506080880135915080821115613ac957600080fd5b50613ad6888289016139da565b9150509295509295909350565b600082601f830112613af457600080fd5b81356020613b018261391f565b604051613b0e82826138cb565b83815260059390931b8501820192828101915086841115613b2e57600080fd5b8286015b848110156139a8578035613b45816136bd565b8352918301918301613b32565b60008060408385031215613b6557600080fd5b82356001600160401b0380821115613b7c57600080fd5b613b8886838701613ae3565b93506020850135915080821115613b9e57600080fd5b50613bab85828601613942565b9150509250929050565b602081526000610a696020830184613779565b80151581146120fe57600080fd5b60008060408385031215613be957600080fd5b8235613bf4816136bd565b91506020830135613c0481613bc8565b809150509250929050565b600081518084526020808501808196508360051b8101915082860160005b85811015613c57578284038952613c45848351613851565b98850198935090840190600101613c2d565b5091979650505050505050565b6000815160408452613c796040850182613c0f565b905060208301518482036020860152613c928282613779565b95945050505050565b600081518084526020808501945080840160005b838110156137a95781516001600160a01b031687529582019590820190600101613caf565b87815286602082015260e060408201526000613cf360e0830188613c64565b60018060a01b0380881660608501528382036080850152865160608352613d1d6060840182613c9b565b905060208801518382036020850152613d368282613779565b91505060408801518382036040850152613d508282613779565b92881660a0870152505083810360c08501529050613d6e8185613851565b9a9950505050505050505050565b60008060408385031215613d8f57600080fd5b50508035926020909101359150565b60008060408385031215613db157600080fd5b8235613dbc816136bd565b91506020830135613c04816136bd565b600080600080600060a08688031215613de457600080fd5b8535613def816136bd565b94506020860135613dff816136bd565b9350604086013592506060860135915060808601356001600160401b03811115613e2857600080fd5b613ad6888289016139da565b600060408284031215613e4657600080fd5b604051613e52816138a6565b80915082356001600160401b0380821115613e6c57600080fd5b818501915085601f830112613e8057600080fd5b81356020613e8d8261391f565b604051613e9a82826138cb565b83815260059390931b8501820192828101915089841115613eba57600080fd5b8286015b84811015613ef257803586811115613ed65760008081fd5b613ee48c86838b01016139da565b845250918301918301613ebe565b5086525086810135935082841115613f0957600080fd5b613f1588858901613942565b81860152505050505092915050565b600060608284031215613f3657600080fd5b604051606081016001600160401b038282108183111715613f5957613f59613890565b816040528293508435915080821115613f7157600080fd5b613f7d86838701613ae3565b83526020850135915080821115613f9357600080fd5b613f9f86838701613942565b60208401526040850135915080821115613fb857600080fd5b50613fc585828601613942565b6040830152505092915050565b600060208284031215613fe457600080fd5b81356001600160401b0380821115613ffb57600080fd5b9083019060e0828603121561400f57600080fd5b6140176138f7565b82358281111561402657600080fd5b614032878286016139da565b82525060208301358281111561404757600080fd5b614053878286016139da565b6020830152506040830135604082015260608301358281111561407557600080fd5b61408187828601613e34565b60608301525060808301358281111561409957600080fd5b6140a587828601613f24565b6080830152506140b760a084016136d2565b60a082015260c0830135828111156140ce57600080fd5b6140da878286016139da565b60c08301525095945050505050565b634e487b7160e01b600052603260045260246000fd5b60008183825b6002811015614124578151835260209283019290910190600101614105565b50505060408201905092915050565b634e487b7160e01b600052601160045260246000fd5b60008282101561415b5761415b614133565b500390565b600060001982141561417457614174614133565b5060010190565b600181811c9082168061418f57607f821691505b60208210811415611d4a57634e487b7160e01b600052602260045260246000fd5b6020808252602f908201527f455243313135353a2063616c6c6572206973206e6f7420746f6b656e206f776e60408201526e195c881b9bdc88185c1c1c9bdd9959608a1b606082015260800190565b600081600019048311821515161561421957614219614133565b500290565b60006020828403121561423057600080fd5b8151610a6981613bc8565b6000821982111561424e5761424e614133565b500190565b6001600160a01b0384168152606060208083018290526000919061427984830187613c64565b84810360408681019190915286518083528388019284019060005b818110156142ea578451805184528681015187850152848101518585015287810151888501526080808201519085015260a0808201519085015260c090810151908401529385019360e090920191600101614294565b50909a9950505050505050505050565b60006020828403121561430c57600080fd5b81516001600160401b0381111561432257600080fd5b8201601f8101841361433357600080fd5b805161433e816139b3565b60405161434b82826138cb565b82815286602084860101111561436057600080fd5b614371836020830160208701613825565b9695505050505050565b8054600090600181811c908083168061439557607f831692505b60208084108214156143b757634e487b7160e01b600052602260045260246000fd5b8388528180156143ce57600181146143e257614410565b60ff19861689830152604089019650614410565b876000528160002060005b868110156144085781548b82018501529085019083016143ed565b8a0183019750505b50505050505092915050565b6000815480845260208085019450836000528060002060005b838110156137a957815487529582019560019182019101614435565b6000604083016040845280835480835260608601915060608160051b87010192508460005260208060002060005b838110156144ac57888603605f1901855261449a868361437b565b9550938201936001918201910161447f565b5050868403818801525050506131d1816001850161441c565b6000606083016060845280835480835260808601915084600052602092508260002060005b8281101561450f5781546001600160a01b0316845292840192600191820191016144ea565b50505084810382860152614526816001860161441c565b91505083810360408501526131d1816002850161441c565b8481526080602082015283546080820152600184015460a082015260e060c08201526000614573610160830160028701614451565b60048601546001600160a01b031660e0840152607f1983820381016101008501526145a182600589016144c5565b91506145b760088801546001600160a01b031690565b6001600160a01b0316610120850152838203016101408401526145dd816009880161437b565b905082810360408401526145f18186613851565b905082810360608401526146058185613851565b979650505050505050565b60208152815160208201526000602083015160a0604084015261463660c0840182613779565b90506040840151601f19808584030160608601526146548383613c0f565b92506060860151915080858403016080860152506146728282613779565b915050608084015160a08401528091505092915050565b815160009082906020808601845b838110156146b357815185529382019390820190600101614697565b50929695505050505050565b634e487b7160e01b600052601260045260246000fd5b60208082526025908201527f455243313135353a207472616e7366657220746f20746865207a65726f206164604082015264647265737360d81b606082015260800190565b6020808252602a908201527f455243313135353a20696e73756666696369656e742062616c616e636520666f60408201526939103a3930b739b332b960b11b606082015260800190565b6040815260006147776040830185613779565b8281036020840152613c928185613779565b60008152600082516147a2816001850160208701613825565b9190910160010192915050565b828152600082516147c7816020850160208701613825565b919091016020019392505050565b600084516147e7818460208901613825565b820184815283516147ff816020808501908801613825565b0160200195945050505050565b6001600160a01b0386811682528516602082015260a06040820181905260009061483890830186613779565b828103606084015261484a8186613779565b9050828103608084015261485e8185613851565b98975050505050505050565b60006020828403121561487c57600080fd5b8151610a698161370e565b600060033d11156148a05760046000803e5060005160e01c5b90565b600060443d10156148b15790565b6040516003193d81016004833e81513d6001600160401b0381602484011181841117156148e057505050505090565b82850191508151818111156148f85750505050505090565b843d87010160208285010111156149125750505050505090565b614921602082860101876138cb565b509095945050505050565b60208082526028908201527f455243313135353a204552433131353552656365697665722072656a656374656040820152676420746f6b656e7360c01b606082015260800190565b6001600160a01b03868116825285166020820152604081018490526060810183905260a06080820181905260009061460590830184613851565b6000602082840312156149c057600080fd5b5051919050565b6000602082840312156149d957600080fd5b8151610a69816136bd565b6040815260006147776040830185613c9b565b60006020808385031215614a0a57600080fd5b82516001600160401b03811115614a2057600080fd5b8301601f81018513614a3157600080fd5b8051614a3c8161391f565b604051614a4982826138cb565b82815260059290921b8301840191848101915087831115614a6957600080fd5b928401925b8284101561460557835182529284019290840190614a6e565b600181815b80851115614ac2578160001904821115614aa857614aa8614133565b80851615614ab557918102915b93841c9390800290614a8c565b509250929050565b600082614ad957506001610566565b81614ae657506000610566565b8160018114614afc5760028114614b0657614b22565b6001915050610566565b60ff841115614b1757614b17614133565b50506001821b610566565b5060208310610133831016604e8410600b8410161715614b45575081810a610566565b614b4f8383614a87565b8060001904821115614b6357614b63614133565b029392505050565b6000610a698383614aca565b6001600160a01b03831681526040602082018190526000906131d190830184613779565b60018060a01b0384168152826020820152606060408201526000613c926060830184613779565b606360f81b815260e083901b6001600160e01b03191660018201526880600e6000396000f360b81b60058201528151600090614c0581600e850160208701613825565b91909101600e019392505050565b600082614c3057634e487b7160e01b600052601260045260246000fd5b500490565b6000610a6960ff841683614aca565b60208082526008908201526726a0ac2faa24a2a960c11b60408201526060019056fea26469706673582212208e1e338d2d9714124780878a6814c7fd6cb3d51c32862d7acbda6a24281f60ff64736f6c634300080a0033",
  "linkReferences": {},
  "deployedLinkReferences": {}
}