{
  "_format": "hh-sol-artifact-1",
  "contractName": "Rain1155",
  "sourceName": "contracts/Rain1155.sol",
  "abi": [
    {
      "inputs": [],
      "stateMutability": "nonpayable",
      "type": "constructor"
    },
    {
      "inputs": [
        {
          "internalType": "uint256",
          "name": "_size",
          "type": "uint256"
        },
        {
          "internalType": "uint256",
          "name": "_start",
          "type": "uint256"
        },
        {
          "internalType": "uint256",
          "name": "_end",
          "type": "uint256"
        }
      ],
      "name": "InvalidCodeAtRange",
      "type": "error"
    },
    {
      "inputs": [],
      "name": "WriteError",
      "type": "error"
    },
    {
      "anonymous": false,
      "inputs": [
        {
          "indexed": true,
          "internalType": "address",
          "name": "account",
          "type": "address"
        },
        {
          "indexed": true,
          "internalType": "address",
          "name": "operator",
          "type": "address"
        },
        {
          "indexed": false,
          "internalType": "bool",
          "name": "approved",
          "type": "bool"
        }
      ],
      "name": "ApprovalForAll",
      "type": "event"
    },
    {
      "anonymous": false,
      "inputs": [
        {
          "indexed": false,
          "internalType": "uint256",
          "name": "_assetId",
          "type": "uint256"
        },
        {
          "components": [
            {
              "internalType": "uint256",
              "name": "lootBoxId",
              "type": "uint256"
            },
            {
              "internalType": "uint256",
              "name": "id",
              "type": "uint256"
            },
            {
              "components": [
                {
                  "internalType": "uint256",
                  "name": "stackIndex",
                  "type": "uint256"
                },
                {
                  "internalType": "uint256[]",
                  "name": "stack",
                  "type": "uint256[]"
                },
                {
                  "internalType": "bytes[]",
                  "name": "sources",
                  "type": "bytes[]"
                },
                {
                  "internalType": "uint256[]",
                  "name": "constants",
                  "type": "uint256[]"
                },
                {
                  "internalType": "uint256[]",
                  "name": "arguments",
                  "type": "uint256[]"
                }
              ],
              "internalType": "struct State",
              "name": "priceScript",
              "type": "tuple"
            },
            {
              "components": [
                {
                  "internalType": "uint256",
                  "name": "stackIndex",
                  "type": "uint256"
                },
                {
                  "internalType": "uint256[]",
                  "name": "stack",
                  "type": "uint256[]"
                },
                {
                  "internalType": "bytes[]",
                  "name": "sources",
                  "type": "bytes[]"
                },
                {
                  "internalType": "uint256[]",
                  "name": "constants",
                  "type": "uint256[]"
                },
                {
                  "internalType": "uint256[]",
                  "name": "arguments",
                  "type": "uint256[]"
                }
              ],
              "internalType": "struct State",
              "name": "canMintScript",
              "type": "tuple"
            },
            {
              "internalType": "address[]",
              "name": "currencies",
              "type": "address[]"
            },
            {
              "internalType": "address",
              "name": "recepient",
              "type": "address"
            },
            {
              "internalType": "string",
              "name": "tokenURI",
              "type": "string"
            }
          ],
          "indexed": false,
          "internalType": "struct Rain1155.AssetDetails",
          "name": "_asset",
          "type": "tuple"
        },
        {
          "components": [
            {
              "internalType": "bytes[]",
              "name": "sources",
              "type": "bytes[]"
            },
            {
              "internalType": "uint256[]",
              "name": "constants",
              "type": "uint256[]"
            },
            {
              "internalType": "uint256",
              "name": "stackLength",
              "type": "uint256"
            },
            {
              "internalType": "uint256",
              "name": "argumentsLength",
              "type": "uint256"
            }
          ],
          "indexed": false,
          "internalType": "struct StateConfig",
          "name": "_priceScript",
          "type": "tuple"
        },
        {
          "components": [
            {
              "internalType": "bytes[]",
              "name": "sources",
              "type": "bytes[]"
            },
            {
              "internalType": "uint256[]",
              "name": "constants",
              "type": "uint256[]"
            },
            {
              "internalType": "uint256",
              "name": "stackLength",
              "type": "uint256"
            },
            {
              "internalType": "uint256",
              "name": "argumentsLength",
              "type": "uint256"
            }
          ],
          "indexed": false,
          "internalType": "struct StateConfig",
          "name": "_canMintScript",
          "type": "tuple"
        },
        {
          "indexed": false,
          "internalType": "string",
          "name": "_name",
          "type": "string"
        },
        {
          "indexed": false,
          "internalType": "string",
          "name": "_description",
          "type": "string"
        }
      ],
      "name": "AssetCreated",
      "type": "event"
    },
    {
      "anonymous": false,
      "inputs": [
        {
          "indexed": false,
          "internalType": "string[]",
          "name": "_classData",
          "type": "string[]"
        }
      ],
      "name": "ClassCreated",
      "type": "event"
    },
    {
      "anonymous": false,
      "inputs": [
        {
          "indexed": false,
          "internalType": "address",
          "name": "_deployer",
          "type": "address"
        }
      ],
      "name": "Initialize",
      "type": "event"
    },
    {
      "anonymous": false,
      "inputs": [
        {
          "indexed": false,
          "internalType": "address",
          "name": "sender",
          "type": "address"
        },
        {
          "indexed": false,
          "internalType": "address",
          "name": "pointer",
          "type": "address"
        },
        {
          "components": [
            {
              "internalType": "uint256",
              "name": "stackIndex",
              "type": "uint256"
            },
            {
              "internalType": "uint256[]",
              "name": "stack",
              "type": "uint256[]"
            },
            {
              "internalType": "bytes[]",
              "name": "sources",
              "type": "bytes[]"
            },
            {
              "internalType": "uint256[]",
              "name": "constants",
              "type": "uint256[]"
            },
            {
              "internalType": "uint256[]",
              "name": "arguments",
              "type": "uint256[]"
            }
          ],
          "indexed": false,
          "internalType": "struct State",
          "name": "state",
          "type": "tuple"
        }
      ],
      "name": "Snapshot",
      "type": "event"
    },
    {
      "anonymous": false,
      "inputs": [
        {
          "indexed": true,
          "internalType": "address",
          "name": "operator",
          "type": "address"
        },
        {
          "indexed": true,
          "internalType": "address",
          "name": "from",
          "type": "address"
        },
        {
          "indexed": true,
          "internalType": "address",
          "name": "to",
          "type": "address"
        },
        {
          "indexed": false,
          "internalType": "uint256[]",
          "name": "ids",
          "type": "uint256[]"
        },
        {
          "indexed": false,
          "internalType": "uint256[]",
          "name": "values",
          "type": "uint256[]"
        }
      ],
      "name": "TransferBatch",
      "type": "event"
    },
    {
      "anonymous": false,
      "inputs": [
        {
          "indexed": true,
          "internalType": "address",
          "name": "operator",
          "type": "address"
        },
        {
          "indexed": true,
          "internalType": "address",
          "name": "from",
          "type": "address"
        },
        {
          "indexed": true,
          "internalType": "address",
          "name": "to",
          "type": "address"
        },
        {
          "indexed": false,
          "internalType": "uint256",
          "name": "id",
          "type": "uint256"
        },
        {
          "indexed": false,
          "internalType": "uint256",
          "name": "value",
          "type": "uint256"
        }
      ],
      "name": "TransferSingle",
      "type": "event"
    },
    {
      "anonymous": false,
      "inputs": [
        {
          "indexed": false,
          "internalType": "string",
          "name": "value",
          "type": "string"
        },
        {
          "indexed": true,
          "internalType": "uint256",
          "name": "id",
          "type": "uint256"
        }
      ],
      "name": "URI",
      "type": "event"
    },
    {
      "inputs": [
        {
          "internalType": "uint256",
          "name": "",
          "type": "uint256"
        }
      ],
      "name": "assets",
      "outputs": [
        {
          "internalType": "uint256",
          "name": "lootBoxId",
          "type": "uint256"
        },
        {
          "internalType": "uint256",
          "name": "id",
          "type": "uint256"
        },
        {
          "components": [
            {
              "internalType": "uint256",
              "name": "stackIndex",
              "type": "uint256"
            },
            {
              "internalType": "uint256[]",
              "name": "stack",
              "type": "uint256[]"
            },
            {
              "internalType": "bytes[]",
              "name": "sources",
              "type": "bytes[]"
            },
            {
              "internalType": "uint256[]",
              "name": "constants",
              "type": "uint256[]"
            },
            {
              "internalType": "uint256[]",
              "name": "arguments",
              "type": "uint256[]"
            }
          ],
          "internalType": "struct State",
          "name": "priceScript",
          "type": "tuple"
        },
        {
          "components": [
            {
              "internalType": "uint256",
              "name": "stackIndex",
              "type": "uint256"
            },
            {
              "internalType": "uint256[]",
              "name": "stack",
              "type": "uint256[]"
            },
            {
              "internalType": "bytes[]",
              "name": "sources",
              "type": "bytes[]"
            },
            {
              "internalType": "uint256[]",
              "name": "constants",
              "type": "uint256[]"
            },
            {
              "internalType": "uint256[]",
              "name": "arguments",
              "type": "uint256[]"
            }
          ],
          "internalType": "struct State",
          "name": "canMintScript",
          "type": "tuple"
        },
        {
          "internalType": "address",
          "name": "recepient",
          "type": "address"
        },
        {
          "internalType": "string",
          "name": "tokenURI",
          "type": "string"
        }
      ],
      "stateMutability": "view",
      "type": "function"
    },
    {
      "inputs": [
        {
          "internalType": "address",
          "name": "account",
          "type": "address"
        },
        {
          "internalType": "uint256",
          "name": "id",
          "type": "uint256"
        }
      ],
      "name": "balanceOf",
      "outputs": [
        {
          "internalType": "uint256",
          "name": "",
          "type": "uint256"
        }
      ],
      "stateMutability": "view",
      "type": "function"
    },
    {
      "inputs": [
        {
          "internalType": "address[]",
          "name": "accounts",
          "type": "address[]"
        },
        {
          "internalType": "uint256[]",
          "name": "ids",
          "type": "uint256[]"
        }
      ],
      "name": "balanceOfBatch",
      "outputs": [
        {
          "internalType": "uint256[]",
          "name": "",
          "type": "uint256[]"
        }
      ],
      "stateMutability": "view",
      "type": "function"
    },
    {
      "inputs": [
        {
          "internalType": "uint256",
          "name": "_assetId",
          "type": "uint256"
        },
        {
          "internalType": "address",
          "name": "_account",
          "type": "address"
        }
      ],
      "name": "canMint",
      "outputs": [
        {
          "internalType": "bool",
          "name": "",
          "type": "bool"
        }
      ],
      "stateMutability": "view",
      "type": "function"
    },
    {
      "inputs": [
        {
          "components": [
            {
              "internalType": "string",
              "name": "name",
              "type": "string"
            },
            {
              "internalType": "string",
              "name": "description",
              "type": "string"
            },
            {
              "internalType": "uint256",
              "name": "lootBoxId",
              "type": "uint256"
            },
            {
              "components": [
                {
                  "internalType": "bytes[]",
                  "name": "sources",
                  "type": "bytes[]"
                },
                {
                  "internalType": "uint256[]",
                  "name": "constants",
                  "type": "uint256[]"
                },
                {
                  "internalType": "uint256",
                  "name": "stackLength",
                  "type": "uint256"
                },
                {
                  "internalType": "uint256",
                  "name": "argumentsLength",
                  "type": "uint256"
                }
              ],
              "internalType": "struct StateConfig",
              "name": "priceScript",
              "type": "tuple"
            },
            {
              "components": [
                {
                  "internalType": "bytes[]",
                  "name": "sources",
                  "type": "bytes[]"
                },
                {
                  "internalType": "uint256[]",
                  "name": "constants",
                  "type": "uint256[]"
                },
                {
                  "internalType": "uint256",
                  "name": "stackLength",
                  "type": "uint256"
                },
                {
                  "internalType": "uint256",
                  "name": "argumentsLength",
                  "type": "uint256"
                }
              ],
              "internalType": "struct StateConfig",
              "name": "canMintScript",
              "type": "tuple"
            },
            {
              "internalType": "address[]",
              "name": "currencies",
              "type": "address[]"
            },
            {
              "internalType": "address",
              "name": "recipient",
              "type": "address"
            },
            {
              "internalType": "string",
              "name": "tokenURI",
              "type": "string"
            }
          ],
          "internalType": "struct AssetConfig",
          "name": "_config",
          "type": "tuple"
        }
      ],
      "name": "createNewAsset",
      "outputs": [],
      "stateMutability": "nonpayable",
      "type": "function"
    },
    {
      "inputs": [
        {
          "internalType": "uint256",
          "name": "id",
          "type": "uint256"
        }
      ],
      "name": "exists",
      "outputs": [
        {
          "internalType": "bool",
          "name": "",
          "type": "bool"
        }
      ],
      "stateMutability": "view",
      "type": "function"
    },
    {
      "inputs": [
        {
          "internalType": "uint256",
          "name": "_assetId",
          "type": "uint256"
        },
        {
          "internalType": "address",
          "name": "_paymentToken",
          "type": "address"
        },
        {
          "internalType": "uint256",
          "name": "_units",
          "type": "uint256"
        }
      ],
      "name": "getAssetPrice",
      "outputs": [
        {
          "internalType": "uint256[]",
          "name": "",
          "type": "uint256[]"
        }
      ],
      "stateMutability": "view",
      "type": "function"
    },
    {
      "inputs": [
        {
          "internalType": "address",
          "name": "account",
          "type": "address"
        },
        {
          "internalType": "address",
          "name": "operator",
          "type": "address"
        }
      ],
      "name": "isApprovedForAll",
      "outputs": [
        {
          "internalType": "bool",
          "name": "",
          "type": "bool"
        }
      ],
      "stateMutability": "view",
      "type": "function"
    },
    {
      "inputs": [
        {
          "internalType": "uint256",
          "name": "_assetId",
          "type": "uint256"
        },
        {
          "internalType": "uint256",
          "name": "_units",
          "type": "uint256"
        }
      ],
      "name": "mintAssets",
      "outputs": [],
      "stateMutability": "nonpayable",
      "type": "function"
    },
    {
      "inputs": [
        {
          "internalType": "address",
          "name": "from",
          "type": "address"
        },
        {
          "internalType": "address",
          "name": "to",
          "type": "address"
        },
        {
          "internalType": "uint256[]",
          "name": "ids",
          "type": "uint256[]"
        },
        {
          "internalType": "uint256[]",
          "name": "amounts",
          "type": "uint256[]"
        },
        {
          "internalType": "bytes",
          "name": "data",
          "type": "bytes"
        }
      ],
      "name": "safeBatchTransferFrom",
      "outputs": [],
      "stateMutability": "nonpayable",
      "type": "function"
    },
    {
      "inputs": [
        {
          "internalType": "address",
          "name": "from",
          "type": "address"
        },
        {
          "internalType": "address",
          "name": "to",
          "type": "address"
        },
        {
          "internalType": "uint256",
          "name": "id",
          "type": "uint256"
        },
        {
          "internalType": "uint256",
          "name": "amount",
          "type": "uint256"
        },
        {
          "internalType": "bytes",
          "name": "data",
          "type": "bytes"
        }
      ],
      "name": "safeTransferFrom",
      "outputs": [],
      "stateMutability": "nonpayable",
      "type": "function"
    },
    {
      "inputs": [
        {
          "internalType": "address",
          "name": "operator",
          "type": "address"
        },
        {
          "internalType": "bool",
          "name": "approved",
          "type": "bool"
        }
      ],
      "name": "setApprovalForAll",
      "outputs": [],
      "stateMutability": "nonpayable",
      "type": "function"
    },
    {
      "inputs": [
        {
          "internalType": "bytes4",
          "name": "interfaceId",
          "type": "bytes4"
        }
      ],
      "name": "supportsInterface",
      "outputs": [
        {
          "internalType": "bool",
          "name": "",
          "type": "bool"
        }
      ],
      "stateMutability": "view",
      "type": "function"
    },
    {
      "inputs": [],
      "name": "totalAssets",
      "outputs": [
        {
          "internalType": "uint256",
          "name": "",
          "type": "uint256"
        }
      ],
      "stateMutability": "view",
      "type": "function"
    },
    {
      "inputs": [
        {
          "internalType": "uint256",
          "name": "id",
          "type": "uint256"
        }
      ],
      "name": "totalSupply",
      "outputs": [
        {
          "internalType": "uint256",
          "name": "",
          "type": "uint256"
        }
      ],
      "stateMutability": "view",
      "type": "function"
    },
    {
      "inputs": [
        {
          "internalType": "uint256",
          "name": "_tokenId",
          "type": "uint256"
        }
      ],
      "name": "uri",
      "outputs": [
        {
          "internalType": "string",
          "name": "",
          "type": "string"
        }
      ],
      "stateMutability": "view",
      "type": "function"
    }
  ],
  "bytecode": "0x60a06040526002808060066007600b6200001b82600462000194565b62000027919062000194565b62000033919062000194565b6200003f919062000194565b6200004b919062000194565b62000057919062000194565b62000063919062000194565b6200007090600562000194565b6080523480156200008057600080fd5b506040805160208101909152600081526200009b81620000d5565b506040513381527f36b1453565f45af7b509b59d5e2eac8f1948ea9e3e193db6663b4101afb6382c9060200160405180910390a1620001f8565b8051620000ea906002906020840190620000ee565b5050565b828054620000fc90620001bb565b90600052602060002090601f0160209004810192826200012057600085556200016b565b82601f106200013b57805160ff19168380011785556200016b565b828001600101855582156200016b579182015b828111156200016b5782518255916020019190600101906200014e565b50620001799291506200017d565b5090565b5b808211156200017957600081556001016200017e565b60008219821115620001b657634e487b7160e01b600052601160045260246000fd5b500190565b600181811c90821680620001d057607f821691505b60208210811415620001f257634e487b7160e01b600052602260045260246000fd5b50919050565b6080516155016200021b60003960008181612311015261234c01526155016000f3fe608060405234801561001057600080fd5b50600436106100df5760003560e01c80638f4e76b9116100875780638f4e76b9146101c0578063a22cb465146101d3578063bd85b039146101e6578063ce5b15c814610206578063cf35bdd014610219578063d30402411461023e578063e985e9c514610251578063f242432a1461028d57600080fd5b8062fdd58e146100e457806301e1d1141461010a57806301ffc9a7146101135780630e89341c146101365780632eb2c2d6146101565780634e1273f41461016b5780634f558e791461018b57806372509dcb146101ad575b600080fd5b6100f76100f2366004613fdf565b6102a0565b6040519081526020015b60405180910390f35b6100f760045481565b610126610121366004614021565b61033a565b6040519015158152602001610101565b61014961014436600461403e565b61038a565b60405161010191906140af565b61016961016436600461428b565b61047c565b005b61017e6101793660046143a7565b610513565b6040516101019190614445565b61012661019936600461403e565b600090815260036020526040902054151590565b61017e6101bb366004614458565b61063c565b6101266101ce366004614490565b610937565b6101696101e13660046144ce565b610baa565b6100f76101f436600461403e565b60009081526003602052604090205490565b610169610214366004614600565b610bb9565b61022c61022736600461403e565b610e40565b60405161010196959493929190614806565b61016961024c366004614867565b6112fb565b61012661025f366004614889565b6001600160a01b03918216600090815260016020908152604080832093909416825291909152205460ff1690565b61016961029b3660046148b7565b61165e565b60006001600160a01b0383166103115760405162461bcd60e51b815260206004820152602b60248201527f455243313135353a2062616c616e636520717565727920666f7220746865207a60448201526a65726f206164647265737360a81b60648201526084015b60405180910390fd5b506000818152602081815260408083206001600160a01b03861684529091529020545b92915050565b60006001600160e01b03198216636cdb3d1360e11b148061036b57506001600160e01b031982166303a24d0760e21b145b8061033457506301ffc9a760e01b6001600160e01b0319831614610334565b6000818152600360205260409020546060906103db5760405162461bcd60e51b815260206004820152601060248201526f24b73b30b634b2102a37b5b2b724b21760811b6044820152606401610308565b6000828152600560205260409020600e0180546103f79061491f565b80601f01602080910402602001604051908101604052809291908181526020018280546104239061491f565b80156104705780601f1061044557610100808354040283529160200191610470565b820191906000526020600020905b81548152906001019060200180831161045357829003601f168201915b50505050509050919050565b6001600160a01b0385163314806104985750610498853361025f565b6104ff5760405162461bcd60e51b815260206004820152603260248201527f455243313135353a207472616e736665722063616c6c6572206973206e6f74206044820152711bdddb995c881b9bdc88185c1c1c9bdd995960721b6064820152608401610308565b61050c85858585856116e5565b5050505050565b606081518351146105785760405162461bcd60e51b815260206004820152602960248201527f455243313135353a206163636f756e747320616e6420696473206c656e677468604482015268040dad2e6dac2e8c6d60bb1b6064820152608401610308565b600083516001600160401b03811115610593576105936140c2565b6040519080825280602002602001820160405280156105bc578160200160208202803683370190505b50905060005b8451811015610634576106078582815181106105e0576105e0614954565b60200260200101518583815181106105fa576105fa614954565b60200260200101516102a0565b82828151811061061957610619614954565b602090810291909101015261062d81614980565b90506105c2565b509392505050565b606060005b6000858152600560205260409020600c0180548290811061066457610664614954565b6000918252602090912001546001600160a01b03858116911614610694578061068c81614980565b915050610641565b6000600560008781526020019081526020016000206002016040518060a0016040529081600082015481526020016001820180548060200260200160405190810160405280929190818152602001828054801561071057602002820191906000526020600020905b8154815260200190600101908083116106fc575b5050505050815260200160028201805480602002602001604051908101604052809291908181526020016000905b828210156107ea57838290600052602060002001805461075d9061491f565b80601f01602080910402602001604051908101604052809291908181526020018280546107899061491f565b80156107d65780601f106107ab576101008083540402835291602001916107d6565b820191906000526020600020905b8154815290600101906020018083116107b957829003601f168201915b50505050508152602001906001019061073e565b5050505081526020016003820180548060200260200160405190810160405280929190818152602001828054801561084157602002820191906000526020600020905b81548152602001906001019080831161082d575b505050505081526020016004820180548060200260200160405190810160405280929190818152602001828054801561089957602002820191906000526020600020905b815481526020019060010190808311610885575b50505050508152505090506108be6040518060200160405280600081525082846118d0565b838160200151600183600001516108d5919061499b565b815181106108e5576108e5614954565b60200260200101516108f791906149b2565b6020820151825161090a9060019061499b565b8151811061091a5761091a614954565b6020026020010181815250508060200151925050505b9392505050565b600080600560008581526020019081526020016000206007016040518060a001604052908160008201548152602001600182018054806020026020016040519081016040528092919081815260200182805480156109b457602002820191906000526020600020905b8154815260200190600101908083116109a0575b5050505050815260200160028201805480602002602001604051908101604052809291908181526020016000905b82821015610a8e578382906000526020600020018054610a019061491f565b80601f0160208091040260200160405190810160405280929190818152602001828054610a2d9061491f565b8015610a7a5780601f10610a4f57610100808354040283529160200191610a7a565b820191906000526020600020905b815481529060010190602001808311610a5d57829003601f168201915b5050505050815260200190600101906109e2565b50505050815260200160038201805480602002602001604051908101604052809291908181526020018280548015610ae557602002820191906000526020600020905b815481526020019060010190808311610ad1575b5050505050815260200160048201805480602002602001604051908101604052809291908181526020018280548015610b3d57602002820191906000526020600020905b815481526020019060010190808311610b29575b5050505050815250509050610b7383604051602001610b5c91906149d1565b6040516020818303038152906040528260006118d0565b60208101518151610b869060019061499b565b81518110610b9657610b96614954565b602002602001015160011491505092915050565b610bb5338383611a78565b5050565b600454610bc79060016149e5565b6004819055506040518060e00160405280826040015181526020016004548152602001610c07610c02610bfd8560600151611b59565b611c5b565b611cc9565b8152602001610c1f610c02610bfd8560800151611b59565b81526020018260a0015181526020018260c001516001600160a01b031681526020018260e001518152506005600060045481526020019081526020016000206000820151816000015560208201518160010155604082015181600201600082015181600001556020820151816001019080519060200190610ca1929190613db3565b5060408201518051610cbd916002840191602090910190613dfe565b5060608201518051610cd9916003840191602090910190613db3565b5060808201518051610cf5916004840191602090910190613db3565b50505060608201518051600783019081556020808301518051610d1e9260088701920190613db3565b5060408201518051610d3a916002840191602090910190613dfe565b5060608201518051610d56916003840191602090910190613db3565b5060808201518051610d72916004840191602090910190613db3565b50505060808201518051610d9091600c840191602090910190613e57565b5060a0820151600d820180546001600160a01b0319166001600160a01b0390921691909117905560c08201518051610dd291600e840191602090910190613eac565b509050507fc6d5c6695614ec2197cf9d4700d7ebbe666f32bd4c7d275ba9939c38bc6f07276004546005600060045481526020019081526020016000208360600151846080015185600001518660200151604051610e3596959493929190614c0a565b60405180910390a150565b6005602052806000526040600020600091509050806000015490806001015490806002016040518060a00160405290816000820154815260200160018201805480602002602001604051908101604052809291908181526020018280548015610ec857602002820191906000526020600020905b815481526020019060010190808311610eb4575b5050505050815260200160028201805480602002602001604051908101604052809291908181526020016000905b82821015610fa2578382906000526020600020018054610f159061491f565b80601f0160208091040260200160405190810160405280929190818152602001828054610f419061491f565b8015610f8e5780601f10610f6357610100808354040283529160200191610f8e565b820191906000526020600020905b815481529060010190602001808311610f7157829003601f168201915b505050505081526020019060010190610ef6565b50505050815260200160038201805480602002602001604051908101604052809291908181526020018280548015610ff957602002820191906000526020600020905b815481526020019060010190808311610fe5575b505050505081526020016004820180548060200260200160405190810160405280929190818152602001828054801561105157602002820191906000526020600020905b81548152602001906001019080831161103d575b50505050508152505090806007016040518060a001604052908160008201548152602001600182018054806020026020016040519081016040528092919081815260200182805480156110c357602002820191906000526020600020905b8154815260200190600101908083116110af575b5050505050815260200160028201805480602002602001604051908101604052809291908181526020016000905b8282101561119d5783829060005260206000200180546111109061491f565b80601f016020809104026020016040519081016040528092919081815260200182805461113c9061491f565b80156111895780601f1061115e57610100808354040283529160200191611189565b820191906000526020600020905b81548152906001019060200180831161116c57829003601f168201915b5050505050815260200190600101906110f1565b505050508152602001600382018054806020026020016040519081016040528092919081815260200182805480156111f457602002820191906000526020600020905b8154815260200190600101908083116111e0575b505050505081526020016004820180548060200260200160405190810160405280929190818152602001828054801561124c57602002820191906000526020600020905b815481526020019060010190808311611238575b50505091909252505050600d820154600e8301805492936001600160a01b03909216926112789061491f565b80601f01602080910402602001604051908101604052809291908181526020018280546112a49061491f565b80156112f15780601f106112c6576101008083540402835291602001916112f1565b820191906000526020600020905b8154815290600101906020018083116112d457829003601f168201915b5050505050905086565b60045482111561133f5760405162461bcd60e51b815260206004820152600f60248201526e125b9d985b1a5908105cdcd95d1259608a1b6044820152606401610308565b6113498233610937565b6113815760405162461bcd60e51b815260206004820152600960248201526810d85b9d08135a5b9d60ba1b6044820152606401610308565b60005b6000838152600560205260409020600c0154811015611642576000838152600560205260408120600c0180546113e1918691859081106113c6576113c6614954565b6000918252602090912001546001600160a01b03168561063c565b9050806000815181106113f6576113f6614954565b6020026020010151600014156114fd576000848152600560205260409020600c0180548390811061142957611429614954565b600091825260208083209091015486835260059091526040909120600d015482516001600160a01b03928316926323b872dd9233929116908590600190811061147457611474614954565b60209081029190910101516040516001600160e01b031960e086901b1681526001600160a01b03938416600482015292909116602483015260448201526064016020604051808303816000875af11580156114d3573d6000803e3d6000fd5b505050506040513d601f19601f820116820180604052508101906114f79190614d01565b5061162f565b8060008151811061151057611510614954565b60200260200101516001141561162f576000848152600560205260409020600c0180548390811061154357611543614954565b600091825260208083209091015486835260059091526040909120600d015482516001600160a01b039283169263f242432a9233929116908590600190811061158e5761158e614954565b6020026020010151856002815181106115a9576115a9614954565b60209081029190910101516040516001600160e01b031960e087901b1681526001600160a01b0394851660048201529390921660248401526044830152606482015260a06084820152600060a482015260c401600060405180830381600087803b15801561161657600080fd5b505af115801561162a573d6000803e3d6000fd5b505050505b5061163b8160016149e5565b9050611384565b50610bb533838360405180602001604052806000815250611ced565b6001600160a01b03851633148061167a575061167a853361025f565b6116d85760405162461bcd60e51b815260206004820152602960248201527f455243313135353a2063616c6c6572206973206e6f74206f776e6572206e6f7260448201526808185c1c1c9bdd995960ba1b6064820152608401610308565b61050c8585858585611dfd565b81518351146117475760405162461bcd60e51b815260206004820152602860248201527f455243313135353a2069647320616e6420616d6f756e7473206c656e677468206044820152670dad2e6dac2e8c6d60c31b6064820152608401610308565b6001600160a01b03841661176d5760405162461bcd60e51b815260040161030890614d1e565b3361177c818787878787611f1a565b60005b845181101561186257600085828151811061179c5761179c614954565b6020026020010151905060008583815181106117ba576117ba614954565b602090810291909101810151600084815280835260408082206001600160a01b038e16835290935291909120549091508181101561180a5760405162461bcd60e51b815260040161030890614d63565b6000838152602081815260408083206001600160a01b038e8116855292528083208585039055908b168252812080548492906118479084906149e5565b925050819055505050508061185b90614980565b905061177f565b50846001600160a01b0316866001600160a01b0316826001600160a01b03167f4a39dc06d4c0dbc64b70af90fd698a233a518aa5d07e595d983b8c0526c8f7fb87876040516118b2929190614dad565b60405180910390a46118c8818787878787612026565b505050505050565b602082810151604084015183830201909101516060840151608085015182516000948594859492939092915b84881015611a6b576002880197508784015180601e1a975080601f1a9650506005871015611a5f57600187141561195f5781608087166119395750825b8a516020607f89160260200182015160208202602001840152600181018c5250506118fc565b600287141561198a5789516020870260200182015160208202602001830152600181018b52506118fc565b60038714156119a35761199e8b8b88612182565b6118fc565b60048714156119d45761199e8a6040516020016119c09190614dd2565b6040516020818303038152906040526122c9565b607f6101fe600188901b161786166080871615611a22578a5160001901808c5260208c015180519091908110611a0c57611a0c614954565b602002602001015160001415611a2257506118fc565b8060000b600014611a595760008160000b1215611a4d57801960020160020260ff1689039850611a59565b8060020260ff16890198505b506118fc565b61199e8b8b898961230f565b5050505050505050505050565b816001600160a01b0316836001600160a01b03161415611aec5760405162461bcd60e51b815260206004820152602960248201527f455243313135353a2073657474696e6720617070726f76616c20737461747573604482015268103337b91039b2b63360b91b6064820152608401610308565b6001600160a01b03838116600081815260016020908152604080832094871680845294825291829020805460ff191686151590811790915591519182527f17307eab39ab6107e8899845ad3d59bd9653f200f220920489ca2b5937696c31910160405180910390a3505050565b611b61613f1f565b815151611b9c5760405162461bcd60e51b8152602060048201526009602482015268305f534f555243455360b81b6044820152606401610308565b6040518060a001604052806000815260200183604001516001600160401b03811115611bca57611bca6140c2565b604051908082528060200260200182016040528015611bf3578160200160208202803683370190505b508152602001836000015181526020018360200151815260200183606001516001600160401b03811115611c2957611c296140c2565b604051908082528060200260200182016040528015611c52578160200160208202803683370190505b50905292915050565b600080611c8683604051602001611c729190614dd2565b60405160208183030381529060405261247a565b90507ff95eed63f55d96a35306669cc3b5f652f8d44552e3e4b17b2f78f13571114abd338285604051611cbb93929190614de5565b60405180910390a192915050565b611cd1613f1f565b611cda826124df565b8060200190518101906103349190614f53565b6001600160a01b038416611d4d5760405162461bcd60e51b815260206004820152602160248201527f455243313135353a206d696e7420746f20746865207a65726f206164647265736044820152607360f81b6064820152608401610308565b33611d6d81600087611d5e886124ef565b611d67886124ef565b87611f1a565b6000848152602081815260408083206001600160a01b038916845290915281208054859290611d9d9084906149e5565b909155505060408051858152602081018590526001600160a01b0380881692600092918516917fc3d58168c5ae7397731d063d5bbf3d657854427343f4c083240f7aacaa2d0f62910160405180910390a461050c8160008787878761253a565b6001600160a01b038416611e235760405162461bcd60e51b815260040161030890614d1e565b33611e33818787611d5e886124ef565b6000848152602081815260408083206001600160a01b038a16845290915290205483811015611e745760405162461bcd60e51b815260040161030890614d63565b6000858152602081815260408083206001600160a01b038b8116855292528083208785039055908816825281208054869290611eb19084906149e5565b909155505060408051868152602081018690526001600160a01b03808916928a821692918616917fc3d58168c5ae7397731d063d5bbf3d657854427343f4c083240f7aacaa2d0f62910160405180910390a4611f1182888888888861253a565b50505050505050565b6001600160a01b038516611fa15760005b8351811015611f9f57828181518110611f4657611f46614954565b602002602001015160036000868481518110611f6457611f64614954565b602002602001015181526020019081526020016000206000828254611f8991906149e5565b90915550611f98905081614980565b9050611f2b565b505b6001600160a01b0384166118c85760005b8351811015611f1157828181518110611fcd57611fcd614954565b602002602001015160036000868481518110611feb57611feb614954565b602002602001015181526020019081526020016000206000828254612010919061499b565b9091555061201f905081614980565b9050611fb2565b6001600160a01b0384163b156118c85760405163bc197c8160e01b81526001600160a01b0385169063bc197c819061206a9089908990889088908890600401615035565b6020604051808303816000875af19250505080156120a5575060408051601f3d908101601f191682019092526120a291810190615093565b60015b612152576120b16150b0565b806308c379a014156120eb57506120c66150cc565b806120d157506120ed565b8060405162461bcd60e51b815260040161030891906140af565b505b60405162461bcd60e51b815260206004820152603460248201527f455243313135353a207472616e7366657220746f206e6f6e20455243313135356044820152732932b1b2b4bb32b91034b6b83632b6b2b73a32b960611b6064820152608401610308565b6001600160e01b0319811663bc197c8160e01b14611f115760405162461bcd60e51b815260040161030890615155565b8151600019600583901c918290030183526007821690610100600384811c1681901c9190829003906001016000816001600160401b038111156121c7576121c76140c2565b6040519080825280602002602001820160405280156121f0578160200160208202803683370190505b50905060005b82811015612247578760200151818960000151018151811061221a5761221a614954565b602002602001015182828151811061223457612234614954565b60209081029190910101526001016121f6565b5060005b6101008110156122be5760005b838110156122ab578482860384838151811061227657612276614954565b6020026020010151901b901c8960800151828151811061229857612298614954565b6020908102919091010152600101612258565b506122b78989886118d0565b840161224b565b505050505050505050565b61230c816040516024016122dd91906140af565b60408051601f198184030181529190526020810180516001600160e01b03166305f3bfab60e11b1790526125f5565b50565b7f000000000000000000000000000000000000000000000000000000000000000082101561234a57612345836005840383612616565b612474565b7f0000000000000000000000000000000000000000000000000000000000000000820391506002821061238f5760405162461bcd60e51b81526004016103089061519d565b8161241b576123e683602001516002856000015103815181106123b4576123b4614954565b602002602001015184602001516001866000015103815181106123d9576123d9614954565b60200260200101516126cd565b836020015160028560000151038151811061240357612403614954565b60209081029190910101528251600019018352612474565b60018214156124745760008480602001905181019061243a91906151c1565b9050806001600160a01b0316846020015185600001518151811061246057612460614954565b602090810291909101015250825160010183525b50505050565b6000806124a58360405160200161249191906151de565b604051602081830303815290604052612707565b90508051602082016000f091506001600160a01b0382166124d95760405163046a55db60e11b815260040160405180910390fd5b50919050565b6060610334826001600019612733565b6040805160018082528183019092526060916000919060208083019080368337019050509050828160008151811061252957612529614954565b602090810291909101015292915050565b6001600160a01b0384163b156118c85760405163f23a6e6160e01b81526001600160a01b0385169063f23a6e619061257e9089908990889088908890600401615204565b6020604051808303816000875af19250505080156125b9575060408051601f3d908101601f191682019092526125b691810190615093565b60015b6125c5576120b16150b0565b6001600160e01b0319811663f23a6e6160e01b14611f115760405162461bcd60e51b815260040161030890615155565b80516a636f6e736f6c652e6c6f67602083016000808483855afa5050505050565b600482101561262f5761262a8383836127e4565b505050565b601d82101561267657600b82101561264f5761262a8360048403836128b0565b60168210156126675761262a83600a19840183612b3a565b61262a83601519840183612f09565b602382101561268e5761262a83601c19840183613076565b60258210156126a65761262a83602219840183613422565b60278210156126be5761262a8360241984018361359a565b61262a836026198401836136c7565b6000805b60088110156126fd57828160200285901c63ffffffff1611156126f5579050610334565b6001016126d1565b5060089392505050565b606081518260405160200161271d929190615249565b6040516020818303038152906040529050919050565b6060833b80612752575050604080516020810190915260008152610930565b80841115612770575050604080516020810190915260008152610930565b838310156127a25760405163162544fd60e11b8152600481018290526024810185905260448101849052606401610308565b83830384820360008282106127b757826127b9565b815b60408051603f8301601f19168101909152818152955090508087602087018a3c505050509392505050565b600482106128045760405162461bcd60e51b81526004016103089061519d565b816128355743836020015184600001518151811061282457612824614954565b6020026020010181815250506128a5565b60018214156128595742836020015184600001518151811061282457612824614954565b600282141561287d5760208301518351815133929190811061282457612824614954565b60208301518351815130929190811061289857612898614954565b6020026020010181815250505b505080516001019052565b600782106128d05760405162461bcd60e51b81526004016103089061519d565b60028210156129e0578251600119018261295d57836020015181600101815181106128fd576128fd614954565b6020026020010151612935838660200151848151811061291f5761291f614954565b6020026020010151613a2390919063ffffffff16565b028460200151828151811061294c5761294c614954565b6020026020010181815250506129d2565b60018314156129d2578360200151816001018151811061297f5761297f614954565b60200260200101516129a1838660200151848151811061291f5761291f614954565b816129ae576129ae61529a565b04846020015182815181106129c5576129c5614954565b6020026020010181815250505b508251600019018352505050565b6005821015612ad3578251600019016002831415612a3957612a12828560200151838151811061291f5761291f614954565b84602001518281518110612a2857612a28614954565b602002602001018181525050612474565b6003831415612a7257612a128285602001518381518110612a5c57612a5c614954565b6020026020010151613a8590919063ffffffff16565b600483141561247457612aab8285602001518381518110612a9557612a95614954565b6020026020010151613ab690919063ffffffff16565b84602001518281518110612ac157612ac1614954565b60200260200101818152505050505050565b6005821415612b1557602083015183518151670de0b6b3a76400009291908110612aff57612aff614954565b6020908102919091010152505080516001019052565b600682141561262a576012836020015184600001518151811061289857612898614954565b600b8210612b5a5760405162461bcd60e51b81526004016103089061519d565b82516020840151805183830392600019019183916000919083908110612b8257612b82614954565b602002602001015190506000861415612bda575b82821015612bd5576020870151805160019093019283908110612bbb57612bbb614954565b602002602001015181612bce91906149e5565b9050612b96565b612eda565b6001861415612c2b575b82821015612bd5578180600101925050612c2487602001518381518110612c0d57612c0d614954565b602002602001015182613af490919063ffffffff16565b9050612be4565b6002861415612c74575b82821015612bd5576020870151805160019093019283908110612c5a57612c5a614954565b602002602001015181612c6d919061499b565b9050612c35565b6003861415612cc5575b82821015612bd5578180600101925050612cbe87602001518381518110612ca757612ca7614954565b602002602001015182613b1290919063ffffffff16565b9050612c7e565b6004861415612d0e575b82821015612bd5576020870151805160019093019283908110612cf457612cf4614954565b602002602001015181612d0791906149b2565b9050612ccf565b6005861415612d5f575b82821015612bd5578180600101925050612d5887602001518381518110612d4157612d41614954565b602002602001015182613b2890919063ffffffff16565b9050612d18565b6006861415612da8575b82821015612bd5576020870151805160019093019283908110612d8e57612d8e614954565b602002602001015181612da191906152b0565b9050612d69565b6007861415612df1575b82821015612bd5576020870151805160019093019283908110612dd757612dd7614954565b602002602001015181612dea91906152c4565b9050612db2565b6008861415612e3a575b82821015612bd5576020870151805160019093019283908110612e2057612e20614954565b602002602001015181612e3391906153bc565b9050612dfb565b6009861415612e8c5760005b83831015612e86576020880151805160019094019384908110612e6b57612e6b614954565b6020026020010151905081811015612e81578091505b612e46565b50612eda565b600a861415612eda5760005b83831015612ed8576020880151805160019094019384908110612ebd57612ebd614954565b6020026020010151905081811115612ed3578091505b612e98565b505b8087602001518581518110612ef157612ef1614954565b60209081029190910101525050506001019092525050565b60078210612f295760405162461bcd60e51b81526004016103089061519d565b82516020808501518183020101838015612f725760018114612f815760028114612fb05760038114612fca5760048114612fe45760058114612ffe5760068114613036576118c8565b601f19820180511590526118c8565b60011983018652605f19820180518015612fa15760208201518252612fa9565b604082015182525b50506118c8565b6001830386526040820360208101518151148152506118c8565b6001830386526040820360208101518151108152506118c8565b6001830386526040820360208101518151118152506118c8565b8315613031576001840383038652602084028203805b83811015612fa9578051613029575060008152825b602001613014565b6118c8565b83156118c8576001840383038652602084028203805b8381101561306c5780518015613063578491508083525b5060200161304c565b5050505050505050565b600682106130965760405162461bcd60e51b81526004016103089061519d565b60008261315957508251600019810184526020840151805160011990920191829081106130c5576130c5614954565b60200260200101516001600160a01b031663e053ea31856020015183600101815181106130f4576130f4614954565b60200260200101516040518263ffffffff1660e01b815260040161311891906149d1565b602060405180830381865afa158015613135573d6000803e3d6000fd5b505050506040513d601f19601f82011682018060405250810190612a1291906153c8565b600183141561319657600019846020015185600001518151811061317f5761317f614954565b602090810291909101015283516001018452612474565b60028314156131bb576000846020015185600001518151811061317f5761317f614954565b600383141561325157508251600119018084526020840151805160009190839081106131e9576131e9614954565b6020026020010151905060008560200151836001018151811061320e5761320e614954565b602002602001015190506132228282613b57565b8660200151848151811061323857613238614954565b6020908102919091010152505083516001018452612474565b60048314156132fb575082516001190180845260208401518051600f80851692600486901c90911691600091908590811061328e5761328e614954565b602002602001015190506000876020015185600101815181106132b3576132b3614954565b602002602001015190506132c982858584613bae565b886020015186815181106132df576132df614954565b6020908102919091010152505085516001018652506124749050565b600583141561247457508251600019601f8316918290030180855290600783901c906003600585901c1690836000826001600160401b03811115613341576133416140c2565b60405190808252806020026020018201604052801561336a578160200160208202803683370190505b50905060005b838110156133bf578960200151838151811061338e5761338e614954565b60200260200101518282815181106133a8576133a8614954565b602090810291909101015260019283019201613370565b506000896020015183815181106133d8576133d8614954565b602002602001015190506133ee82828888613c0a565b8a60200151888151811061340457613404614954565b60209081029190910101525050875160010188525050505050505050565b600282106134425760405162461bcd60e51b81526004016103089061519d565b8161352f578251600019810184526020840151805190916001190190811061346c5761346c614954565b60200260200101516001600160a01b03166370a08231846020015185600001518151811061349c5761349c614954565b60200260200101516040518263ffffffff1660e01b81526004016134c091906149d1565b602060405180830381865afa1580156134dd573d6000803e3d6000fd5b505050506040513d601f19601f8201168201806040525081019061350191906153c8565b836020015160018560000151038151811061351e5761351e614954565b602002602001018181525050505050565b600182141561262a57826020015160018460000151038151811061355557613555614954565b60200260200101516001600160a01b03166318160ddd6040518163ffffffff1660e01b8152600401602060405180830381865afa1580156134dd573d6000803e3d6000fd5b600282106135ba5760405162461bcd60e51b81526004016103089061519d565b8251600019018352816135e457826020015160018460000151038151811061346c5761346c614954565b600182141561262a57826020015160018460000151038151811061360a5761360a614954565b60200260200101516001600160a01b0316636352211e846020015185600001518151811061363a5761363a614954565b60200260200101516040518263ffffffff1660e01b815260040161366091815260200190565b602060405180830381865afa15801561367d573d6000803e3d6000fd5b505050506040513d601f19601f820116820180604052508101906136a191906151c1565b6001600160a01b0316836020015160018560000151038151811061351e5761351e614954565b600282106136e75760405162461bcd60e51b81526004016103089061519d565b816137dc5782516001198101845260208401518051600219909201918290811061371357613713614954565b60200260200101516001600160a01b031662fdd58e8560200151836001018151811061374157613741614954565b60200260200101518660200151846002018151811061376257613762614954565b60200260200101516040518363ffffffff1660e01b815260040161379b9291906001600160a01b03929092168252602082015260400190565b602060405180830381865afa1580156137b8573d6000803e3d6000fd5b505050506040513d601f19601f82011682018060405250810190612aab91906153c8565b600182141561262a57600181016000816001600160401b03811115613803576138036140c2565b60405190808252806020026020018201604052801561382c578160200160208202803683370190505b5090506000826001600160401b03811115613849576138496140c2565b604051908082528060200260200182016040528015613872578160200160208202803683370190505b50865184900360001981810189526020890151805193945091869003019160009190839081106138a4576138a4614954565b6020026020010151905060005b8581101561394e578860200151818401600101815181106138d4576138d4614954565b60200260200101518582815181106138ee576138ee614954565b6001600160a01b039092166020928302919091018201528901518051600185890184010190811061392157613921614954565b602002602001015184828151811061393b5761393b614954565b60209081029190910101526001016138b1565b506040516313849cfd60e21b81526000906001600160a01b03831690634e1273f49061398090889088906004016153e1565b600060405180830381865afa15801561399d573d6000803e3d6000fd5b505050506040513d6000823e601f3d908101601f191682016040526139c59190810190615441565b905060005b86811015613a17578181815181106139e4576139e4614954565b60200260200101518a6020015182860181518110613a0457613a04614954565b60209081029190910101526001016139ca565b50505050505050505050565b60008160121415613a35575081610334565b8160121115613a6557613a4982601261499b565b613a5490600a6153bc565b613a5e90846149b2565b9050610334565b613a7060128361499b565b613a7b90600a6153bc565b613a5e90846152b0565b60006012821415613a97575081610334565b8160121115613aab57613a7082601261499b565b613a4960128361499b565b600081810b613ac6575081610334565b60008260000b1315613add57613a5482600a615475565b613ae982196001615484565b613a7b90600a615475565b6000828201838110613b065780613b0a565b6000195b949350505050565b6000818311613b22576000610930565b50900390565b600082613b3757506000610334565b82820282848281613b4a57613b4a61529a565b041415613b065780613b0a565b60008060015b60088111610634576000613b718683613d00565b90506000613b7f8684613d00565b90506000613b8d8383613b12565b9050613b9d856001860383613d4d565b94505060019092019150613b5d9050565b6000826008811115613bd25760405162461bcd60e51b8152600401610308906154a9565b6000855b85811015613bfe5763ffffffff6020820290811b199890981685891b17979150600101613bd6565b50959695505050505050565b835160009081908190819060015b60088111613cf257600092508287613c335750600019613c37565b5060005b60005b83811015613cce57613c658c8281518110613c5757613c57614954565b602002602001015184613d00565b95508a8611613cb75788613c8457613c7d8683613d8d565b9150613cae565b6001891415613c9757613c7d8683613da3565b600289148015613ca5575084155b15613cae578591505b60019450613cc6565b89613cc6576000199150613cce565b600101613c3a565b5083613cd957506000195b613ce7866001840383613d4d565b955050600101613c18565b509298975050505050505050565b6000816008811115613d245760405162461bcd60e51b8152600401610308906154a9565b82613d325760009150613d46565b63ffffffff602060001985010285901c1691505b5092915050565b6000826008811115613d715760405162461bcd60e51b8152600401610308906154a9565b505060209190910290811b63ffffffff90911b19919091161790565b6000818310613d9c5781610930565b5090919050565b600081831015613d9c5781610930565b828054828255906000526020600020908101928215613dee579160200282015b82811115613dee578251825591602001919060010190613dd3565b50613dfa929150613f4e565b5090565b828054828255906000526020600020908101928215613e4b579160200282015b82811115613e4b5782518051613e3b918491602090910190613eac565b5091602001919060010190613e1e565b50613dfa929150613f63565b828054828255906000526020600020908101928215613dee579160200282015b82811115613dee57825182546001600160a01b0319166001600160a01b03909116178255602090920191600190910190613e77565b828054613eb89061491f565b90600052602060002090601f016020900481019282613eda5760008555613dee565b82601f10613ef357805160ff1916838001178555613dee565b82800160010185558215613dee5791820182811115613dee578251825591602001919060010190613dd3565b6040518060a0016040528060008152602001606081526020016060815260200160608152602001606081525090565b5b80821115613dfa5760008155600101613f4f565b80821115613dfa576000613f778282613f80565b50600101613f63565b508054613f8c9061491f565b6000825580601f10613f9c575050565b601f01602090049060005260206000209081019061230c9190613f4e565b6001600160a01b038116811461230c57600080fd5b8035613fda81613fba565b919050565b60008060408385031215613ff257600080fd5b8235613ffd81613fba565b946020939093013593505050565b6001600160e01b03198116811461230c57600080fd5b60006020828403121561403357600080fd5b81356109308161400b565b60006020828403121561405057600080fd5b5035919050565b60005b8381101561407257818101518382015260200161405a565b838111156124745750506000910152565b6000815180845261409b816020860160208601614057565b601f01601f19169290920160200192915050565b6020815260006109306020830184614083565b634e487b7160e01b600052604160045260246000fd5b608081018181106001600160401b03821117156140f7576140f76140c2565b60405250565b601f8201601f191681016001600160401b0381118282101715614122576141226140c2565b6040525050565b60405161010081016001600160401b038111828210171561414c5761414c6140c2565b60405290565b60405160a081016001600160401b038111828210171561414c5761414c6140c2565b60006001600160401b0382111561418d5761418d6140c2565b5060051b60200190565b600082601f8301126141a857600080fd5b813560206141b582614174565b6040516141c282826140fd565b83815260059390931b85018201928281019150868411156141e257600080fd5b8286015b848110156141fd57803583529183019183016141e6565b509695505050505050565b60006001600160401b03821115614221576142216140c2565b50601f01601f191660200190565b600082601f83011261424057600080fd5b813561424b81614208565b60405161425882826140fd565b82815285602084870101111561426d57600080fd5b82602086016020830137600092810160200192909252509392505050565b600080600080600060a086880312156142a357600080fd5b85356142ae81613fba565b945060208601356142be81613fba565b935060408601356001600160401b03808211156142da57600080fd5b6142e689838a01614197565b945060608801359150808211156142fc57600080fd5b61430889838a01614197565b9350608088013591508082111561431e57600080fd5b5061432b8882890161422f565b9150509295509295909350565b600082601f83011261434957600080fd5b8135602061435682614174565b60405161436382826140fd565b83815260059390931b850182019282810191508684111561438357600080fd5b8286015b848110156141fd57803561439a81613fba565b8352918301918301614387565b600080604083850312156143ba57600080fd5b82356001600160401b03808211156143d157600080fd5b6143dd86838701614338565b935060208501359150808211156143f357600080fd5b5061440085828601614197565b9150509250929050565b600081518084526020808501945080840160005b8381101561443a5781518752958201959082019060010161441e565b509495945050505050565b602081526000610930602083018461440a565b60008060006060848603121561446d57600080fd5b83359250602084013561447f81613fba565b929592945050506040919091013590565b600080604083850312156144a357600080fd5b8235915060208301356144b581613fba565b809150509250929050565b801515811461230c57600080fd5b600080604083850312156144e157600080fd5b82356144ec81613fba565b915060208301356144b5816144c0565b60006080828403121561450e57600080fd5b60405161451a816140d8565b80915082356001600160401b038082111561453457600080fd5b818501915085601f83011261454857600080fd5b8135602061455582614174565b60405161456282826140fd565b83815260059390931b850182019282810191508984111561458257600080fd5b8286015b848110156145ba5780358681111561459e5760008081fd5b6145ac8c86838b010161422f565b845250918301918301614586565b50865250868101359350828411156145d157600080fd5b6145dd88858901614197565b818601525050505060408301356040820152606083013560608201525092915050565b60006020828403121561461257600080fd5b81356001600160401b038082111561462957600080fd5b90830190610100828603121561463e57600080fd5b614646614129565b82358281111561465557600080fd5b6146618782860161422f565b82525060208301358281111561467657600080fd5b6146828782860161422f565b602083015250604083013560408201526060830135828111156146a457600080fd5b6146b0878286016144fc565b6060830152506080830135828111156146c857600080fd5b6146d4878286016144fc565b60808301525060a0830135828111156146ec57600080fd5b6146f887828601614338565b60a08301525061470a60c08401613fcf565b60c082015260e08301358281111561472157600080fd5b61472d8782860161422f565b60e08301525095945050505050565b600081518084526020808501808196508360051b8101915082860160005b85811015614784578284038952614772848351614083565b9885019893509084019060010161475a565b5091979650505050505050565b805182526000602082015160a060208501526147b060a085018261440a565b9050604083015184820360408601526147c9828261473c565b915050606083015184820360608601526147e3828261440a565b915050608083015184820360808601526147fd828261440a565b95945050505050565b86815285602082015260c06040820152600061482560c0830187614791565b82810360608401526148378187614791565b6001600160a01b038616608085015283810360a0850152905061485a8185614083565b9998505050505050505050565b6000806040838503121561487a57600080fd5b50508035926020909101359150565b6000806040838503121561489c57600080fd5b82356148a781613fba565b915060208301356144b581613fba565b600080600080600060a086880312156148cf57600080fd5b85356148da81613fba565b945060208601356148ea81613fba565b9350604086013592506060860135915060808601356001600160401b0381111561491357600080fd5b61432b8882890161422f565b600181811c9082168061493357607f821691505b602082108114156124d957634e487b7160e01b600052602260045260246000fd5b634e487b7160e01b600052603260045260246000fd5b634e487b7160e01b600052601160045260246000fd5b60006000198214156149945761499461496a565b5060010190565b6000828210156149ad576149ad61496a565b500390565b60008160001904831182151516156149cc576149cc61496a565b500290565b6001600160a01b0391909116815260200190565b600082198211156149f8576149f861496a565b500190565b6000815480845260208085019450836000528060002060005b8381101561443a57815487529582019560019182019101614a16565b8054600090600181811c9080831680614a4c57607f831692505b6020808410821415614a6e57634e487b7160e01b600052602260045260246000fd5b838852818015614a855760018114614a9957614ac7565b60ff19861689830152604089019650614ac7565b876000528160002060005b86811015614abf5781548b8201850152908501908301614aa4565b8a0183019750505b50505050505092915050565b8054825260006001602060a081860152614af260a086018386016149fd565b6002850186820360408801528181548084528484019150848160051b8501018360005285600020935060005b82811015614b4a57858203601f19018452614b398286614a32565b948801949387019391508701614b1e565b5089810360608b0152614b608160038b016149fd565b96505050505050508381036080850152613b0a81600485016149fd565b6000815480845260208085019450836000528060002060005b8381101561443a5781546001600160a01b031687529582019560019182019101614b96565b6000815160808452614bd0608085018261473c565b905060208301518482036020860152614be9828261440a565b91505060408301516040850152606083015160608501528091505092915050565b86815260c06020820152855460c0820152600186015460e082015260e06101008201526000614c406101a0830160028901614ad3565b60bf198084830301610120850152614c5b8260078b01614ad3565b91508084830301610140850152614c7582600c8b01614b7d565b9150614c8b600d8a01546001600160a01b031690565b6001600160a01b031661016085015283820301610180840152614cb181600e8a01614a32565b90508281036040840152614cc58188614bbb565b90508281036060840152614cd98187614bbb565b90508281036080840152614ced8186614083565b905082810360a084015261485a8185614083565b600060208284031215614d1357600080fd5b8151610930816144c0565b60208082526025908201527f455243313135353a207472616e7366657220746f20746865207a65726f206164604082015264647265737360d81b606082015260800190565b6020808252602a908201527f455243313135353a20696e73756666696369656e742062616c616e636520666f60408201526939103a3930b739b332b960b11b606082015260800190565b604081526000614dc0604083018561440a565b82810360208401526147fd818561440a565b6020815260006109306020830184614791565b6001600160a01b038481168252831660208201526060604082018190526000906147fd90830184614791565b600082601f830112614e2257600080fd5b81516020614e2f82614174565b604051614e3c82826140fd565b83815260059390931b8501820192828101915086841115614e5c57600080fd5b8286015b848110156141fd5780518352918301918301614e60565b600082601f830112614e8857600080fd5b81516020614e9582614174565b60408051614ea383826140fd565b84815260059490941b8601830193838101925087851115614ec357600080fd5b8387015b85811015614f475780516001600160401b03811115614ee65760008081fd5b8801603f81018a13614ef85760008081fd5b85810151614f0581614208565b8551614f1182826140fd565b8281528c87848601011115614f2857600091508182fd5b614f37838a8301898701614057565b8752505050928401928401614ec7565b50979650505050505050565b600060208284031215614f6557600080fd5b81516001600160401b0380821115614f7c57600080fd5b9083019060a08286031215614f9057600080fd5b614f98614152565b82518152602083015182811115614fae57600080fd5b614fba87828601614e11565b602083015250604083015182811115614fd257600080fd5b614fde87828601614e77565b604083015250606083015182811115614ff657600080fd5b61500287828601614e11565b60608301525060808301518281111561501a57600080fd5b61502687828601614e11565b60808301525095945050505050565b6001600160a01b0386811682528516602082015260a0604082018190526000906150619083018661440a565b8281036060840152615073818661440a565b905082810360808401526150878185614083565b98975050505050505050565b6000602082840312156150a557600080fd5b81516109308161400b565b600060033d11156150c95760046000803e5060005160e01c5b90565b600060443d10156150da5790565b6040516003193d81016004833e81513d6001600160401b03816024840111818411171561510957505050505090565b82850191508151818111156151215750505050505090565b843d870101602082850101111561513b5750505050505090565b61514a602082860101876140fd565b509095945050505050565b60208082526028908201527f455243313135353a204552433131353552656365697665722072656a656374656040820152676420746f6b656e7360c01b606082015260800190565b6020808252600a90820152694d41585f4f50434f444560b01b604082015260600190565b6000602082840312156151d357600080fd5b815161093081613fba565b60008152600082516151f7816001850160208701614057565b9190910160010192915050565b6001600160a01b03868116825285166020820152604081018490526060810183905260a06080820181905260009061523e90830184614083565b979650505050505050565b606360f81b815260e083901b6001600160e01b03191660018201526880600e6000396000f360b81b6005820152815160009061528c81600e850160208701614057565b91909101600e019392505050565b634e487b7160e01b600052601260045260246000fd5b6000826152bf576152bf61529a565b500490565b6000826152d3576152d361529a565b500690565b600181815b808511156153135781600019048211156152f9576152f961496a565b8085161561530657918102915b93841c93908002906152dd565b509250929050565b60008261532a57506001610334565b8161533757506000610334565b816001811461534d576002811461535757615373565b6001915050610334565b60ff8411156153685761536861496a565b50506001821b610334565b5060208310610133831016604e8410600b8410161715615396575081810a610334565b6153a083836152d8565b80600019048211156153b4576153b461496a565b029392505050565b6000610930838361531b565b6000602082840312156153da57600080fd5b5051919050565b604080825283519082018190526000906020906060840190828701845b828110156154235781516001600160a01b0316845292840192908401906001016153fe565b50505083810382850152615437818661440a565b9695505050505050565b60006020828403121561545357600080fd5b81516001600160401b0381111561546957600080fd5b613b0a84828501614e11565b600061093060ff84168361531b565b600060ff821660ff84168060ff038211156154a1576154a161496a565b019392505050565b60208082526008908201526726a0ac2faa24a2a960c11b60408201526060019056fea26469706673582212203092851c59f549f8acb762a4e328e35fea881883b31c8456d2c0dc619628345a64736f6c634300080a0033",
  "linkReferences": {},
  "deployedLinkReferences": {}
}